{
	"data": {
		"bytecode": {
			"linkReferences": {},
			"object": "60c06040526301e185586009556200002a670de0b6b3a7640000620000f160201b620017a91760201c565b6fffffffffffffffffffffffffffffffff19166080906fffffffffffffffffffffffffffffffff19168152506200006e600954620000f160201b620017a91760201c565b6fffffffffffffffffffffffffffffffff191660a0906fffffffffffffffffffffffffffffffff1916815250348015620000a757600080fd5b50336000800160006101000a81548173ffffffffffffffffffffffffffffffffffffffff021916908373ffffffffffffffffffffffffffffffffffffffff16021790555062000266565b6000808214156200010957600060801b905062000177565b6000829050600062000121826200017c60201b60201c565b905060708110156200013c578060700382901b915062000151565b607081111562000150576070810382901c91505b5b607081613fff01901b6dffffffffffffffffffffffffffff83161791508160801b925050505b919050565b60008082116200018b57600080fd5b60007001000000000000000000000000000000008310620001b457608083901c92506080810190505b680100000000000000008310620001d357604083901c92506040810190505b6401000000008310620001ee57602083901c92506020810190505b6201000083106200020757601083901c92506010810190505b61010083106200021f57600883901c92506008810190505b601083106200023657600483901c92506004810190505b600483106200024d57600283901c92506002810190505b600283106200025d576001810190505b80915050919050565b60805160a051613d08620002a1600039600061148f015260008181610357015281816114b301528181611620015261171f0152613d086000f3fe6080604052600436106100c25760003560e01c806357f7d74f1161007f5780636f9fb98a116100595780636f9fb98a146101c25780638db57994146101ed578063d8d79700146101f7578063db8d55f114610201576100c2565b806357f7d74f146101855780635c0df55b146101ae57806362949963146101b8576100c2565b80630e6f3dd8146100c75780631529a639146100d157806328a11702146100fc578063396c079c146101275780633ccfd60b146101505780634173b4171461015a575b600080fd5b6100cf61022c565b005b3480156100dd57600080fd5b506100e6610434565b6040516100f39190612c7d565b60405180910390f35b34801561010857600080fd5b5061011161043e565b60405161011e9190612c7d565b60405180910390f35b34801561013357600080fd5b5061014e60048036038101906101499190612d9d565b61049d565b005b6101586106f9565b005b34801561016657600080fd5b5061016f610901565b60405161017c9190612fc3565b60405180910390f35b34801561019157600080fd5b506101ac60048036038101906101a79190612fdf565b610af1565b005b6101b6610bc9565b005b6101c0610e8f565b005b3480156101ce57600080fd5b506101d76110f4565b6040516101e49190612c7d565b60405180910390f35b6101f56110fc565b005b6101ff6111dd565b005b34801561020d57600080fd5b50610216611367565b6040516102239190612c7d565b60405180910390f35b600060010160009054906101000a900473ffffffffffffffffffffffffffffffffffffffff1673ffffffffffffffffffffffffffffffffffffffff163373ffffffffffffffffffffffffffffffffffffffff16146102bf576040517f08c379a00000000000000000000000000000000000000000000000000000000081526004016102b69061308f565b60405180910390fd5b6000806004015414610306576040517f08c379a00000000000000000000000000000000000000000000000000000000081526004016102fd90613121565b60405180910390fd5b600080600201541161034d576040517f08c379a0000000000000000000000000000000000000000000000000000000008152600401610344906131b3565b60405180910390fd5b60006103b86103a57f00000000000000000000000000000000000000000000000000000000000000006103846000600401546117a9565b6fffffffffffffffffffffffffffffffff191661182790919063ffffffff16565b6103b36000600201546117a9565b611cf0565b9050806fffffffffffffffffffffffffffffffff19166103d7346117a9565b6fffffffffffffffffffffffffffffffff19161461042a576040517f08c379a000000000000000000000000000000000000000000000000000000000815260040161042190613291565b60405180910390fd5b3460088190555050565b6000600854905090565b600080600060070160069054906101000a900465ffffffffffff1665ffffffffffff161480610471575060008060020154145b1561047f576000905061049a565b610487611367565b60006002015461049791906132e0565b90505b90565b6000800160009054906101000a900473ffffffffffffffffffffffffffffffffffffffff1673ffffffffffffffffffffffffffffffffffffffff163373ffffffffffffffffffffffffffffffffffffffff161461052f576040517f08c379a0000000000000000000000000000000000000000000000000000000008152600401610526906133a8565b60405180910390fd5b600061053961043e565b14610579576040517f08c379a00000000000000000000000000000000000000000000000000000000081526004016105709061343a565b60405180910390fd5b60008965ffffffffffff16116105c4576040517f08c379a00000000000000000000000000000000000000000000000000000000081526004016105bb906134a6565b60405180910390fd5b89600060010160006101000a81548173ffffffffffffffffffffffffffffffffffffffff021916908373ffffffffffffffffffffffffffffffffffffffff160217905550886000600701600c6101000a81548165ffffffffffff021916908365ffffffffffff16021790555087600060030181905550866000600401819055508560006006018190555084600060070160006101000a81548165ffffffffffff021916908365ffffffffffff160217905550836000600701601e6101000a81548160ff0219169083151502179055508260006005018190555081600060070160126101000a81548165ffffffffffff021916908365ffffffffffff16021790555080600060070160186101000a81548165ffffffffffff021916908365ffffffffffff16021790555050505050505050505050565b6000800160009054906101000a900473ffffffffffffffffffffffffffffffffffffffff1673ffffffffffffffffffffffffffffffffffffffff163373ffffffffffffffffffffffffffffffffffffffff161461078b576040517f08c379a0000000000000000000000000000000000000000000000000000000008152600401610782906133a8565b60405180910390fd5b600047116107ce576040517f08c379a00000000000000000000000000000000000000000000000000000000081526004016107c590613538565b60405180910390fd5b6000600854476107de9190613558565b1161081e576040517f08c379a0000000000000000000000000000000000000000000000000000000008152600401610815906135d8565b60405180910390fd5b6000806000800160009054906101000a900473ffffffffffffffffffffffffffffffffffffffff1673ffffffffffffffffffffffffffffffffffffffff166008544761086a9190613558565b60405161087690613629565b60006040518083038185875af1925050503d80600081146108b3576040519150601f19603f3d011682016040523d82523d6000602084013e6108b8565b606091505b5091509150816108fd576040517f08c379a00000000000000000000000000000000000000000000000000000000081526004016108f49061368a565b60405180910390fd5b5050565b610909612ba6565b6000604051806101a00160405290816000820160009054906101000a900473ffffffffffffffffffffffffffffffffffffffff1673ffffffffffffffffffffffffffffffffffffffff1673ffffffffffffffffffffffffffffffffffffffff1681526020016001820160009054906101000a900473ffffffffffffffffffffffffffffffffffffffff1673ffffffffffffffffffffffffffffffffffffffff1673ffffffffffffffffffffffffffffffffffffffff16815260200160028201548152602001600382015481526020016004820154815260200160058201548152602001600682015481526020016007820160009054906101000a900465ffffffffffff1665ffffffffffff1665ffffffffffff1681526020016007820160069054906101000a900465ffffffffffff1665ffffffffffff1665ffffffffffff16815260200160078201600c9054906101000a900465ffffffffffff1665ffffffffffff1665ffffffffffff1681526020016007820160129054906101000a900465ffffffffffff1665ffffffffffff1665ffffffffffff1681526020016007820160189054906101000a900465ffffffffffff1665ffffffffffff1665ffffffffffff16815260200160078201601e9054906101000a900460ff161515151581525050905090565b6000800160009054906101000a900473ffffffffffffffffffffffffffffffffffffffff1673ffffffffffffffffffffffffffffffffffffffff163373ffffffffffffffffffffffffffffffffffffffff1614610b83576040517f08c379a0000000000000000000000000000000000000000000000000000000008152600401610b7a906133a8565b60405180910390fd5b806000800160006101000a81548173ffffffffffffffffffffffffffffffffffffffff021916908373ffffffffffffffffffffffffffffffffffffffff16021790555050565b6000800160009054906101000a900473ffffffffffffffffffffffffffffffffffffffff1673ffffffffffffffffffffffffffffffffffffffff163373ffffffffffffffffffffffffffffffffffffffff1614610c5b576040517f08c379a0000000000000000000000000000000000000000000000000000000008152600401610c52906133a8565b60405180910390fd5b600073ffffffffffffffffffffffffffffffffffffffff16600060010160009054906101000a900473ffffffffffffffffffffffffffffffffffffffff1673ffffffffffffffffffffffffffffffffffffffff161415610cf0576040517f08c379a0000000000000000000000000000000000000000000000000000000008152600401610ce79061371c565b60405180910390fd5b600080600201541415610d38576040517f08c379a0000000000000000000000000000000000000000000000000000000008152600401610d2f906137ae565b60405180910390fd5b600080600401541115610d8b57600060085411610d8a576040517f08c379a0000000000000000000000000000000000000000000000000000000008152600401610d8190613840565b60405180910390fd5b5b600080600060010160009054906101000a900473ffffffffffffffffffffffffffffffffffffffff1673ffffffffffffffffffffffffffffffffffffffff16600060020154604051610ddc90613629565b60006040518083038185875af1925050503d8060008114610e19576040519150601f19603f3d011682016040523d82523d6000602084013e610e1e565b606091505b509150915081610e63576040517f08c379a0000000000000000000000000000000000000000000000000000000008152600401610e5a906138ac565b60405180910390fd5b42600060070160066101000a81548165ffffffffffff021916908365ffffffffffff1602179055505050565b6000800160009054906101000a900473ffffffffffffffffffffffffffffffffffffffff1673ffffffffffffffffffffffffffffffffffffffff163373ffffffffffffffffffffffffffffffffffffffff1614610f21576040517f08c379a0000000000000000000000000000000000000000000000000000000008152600401610f18906133a8565b60405180910390fd5b42600060070160189054906101000a900465ffffffffffff16600060070160069054906101000a900465ffffffffffff166000600701600c9054906101000a900465ffffffffffff16610f7491906138cc565b610f7e91906138cc565b65ffffffffffff1610610fc6576040517f08c379a0000000000000000000000000000000000000000000000000000000008152600401610fbd9061397a565b60405180910390fd5b60006008541161100b576040517f08c379a000000000000000000000000000000000000000000000000000000000815260040161100290613a0c565b60405180910390fd5b60006008544761101b9190613558565b90506000806000800160009054906101000a900473ffffffffffffffffffffffffffffffffffffffff1673ffffffffffffffffffffffffffffffffffffffff168360405161106890613629565b60006040518083038185875af1925050503d80600081146110a5576040519150601f19603f3d011682016040523d82523d6000602084013e6110aa565b606091505b5091509150816110ef576040517f08c379a00000000000000000000000000000000000000000000000000000000081526004016110e69061368a565b60405180910390fd5b505050565b600047905090565b6000800160009054906101000a900473ffffffffffffffffffffffffffffffffffffffff1673ffffffffffffffffffffffffffffffffffffffff163373ffffffffffffffffffffffffffffffffffffffff161461118e576040517f08c379a0000000000000000000000000000000000000000000000000000000008152600401611185906133a8565b60405180910390fd5b600034116111d1576040517f08c379a00000000000000000000000000000000000000000000000000000000081526004016111c890613a78565b60405180910390fd5b34600060020181905550565b600060010160009054906101000a900473ffffffffffffffffffffffffffffffffffffffff1673ffffffffffffffffffffffffffffffffffffffff163373ffffffffffffffffffffffffffffffffffffffff1614611270576040517f08c379a00000000000000000000000000000000000000000000000000000000081526004016112679061308f565b60405180910390fd5b60003414158015611287575061128461043e565b34145b6112c6576040517f08c379a00000000000000000000000000000000000000000000000000000000081526004016112bd90613b30565b60405180910390fd5b600080600201819055506000800160009054906101000a900473ffffffffffffffffffffffffffffffffffffffff1673ffffffffffffffffffffffffffffffffffffffff163460405161131890613629565b60006040518083038185875af1925050503d8060008114611355576040519150601f19603f3d011682016040523d82523d6000602084013e61135a565b606091505b505050611365612185565b565b600080600060070160069054906101000a900465ffffffffffff1665ffffffffffff16141561139957600090506117a6565b600080600701600c9054906101000a900465ffffffffffff16600060070160069054906101000a900465ffffffffffff166113d491906138cc565b65ffffffffffff16905060008060070160009054906101000a900465ffffffffffff16600060070160069054906101000a900465ffffffffffff1661141991906138cc565b65ffffffffffff16905060008060006005015414158015611463575042600060070160129054906101000a900465ffffffffffff1665ffffffffffff168461146191906132e0565b105b156114825761147f8161147a6000600501546117a9565b612362565b90505b60006115a56115766115227f00000000000000000000000000000000000000000000000000000000000000006115017f00000000000000000000000000000000000000000000000000000000000000006114e06000600301546117a9565b6fffffffffffffffffffffffffffffffff191661182790919063ffffffff16565b6fffffffffffffffffffffffffffffffff191661182790919063ffffffff16565b611555600060070160069054906101000a900465ffffffffffff1665ffffffffffff16426115509190613558565b6117a9565b6fffffffffffffffffffffffffffffffff1916611cf090919063ffffffff16565b6115846000600201546117a9565b6fffffffffffffffffffffffffffffffff1916611cf090919063ffffffff16565b90506115b18282612362565b915060008060070160009054906101000a900465ffffffffffff1665ffffffffffff16141580156115e157508242105b15611783576000600701601e9054906101000a900460ff1615611707576000611614428561160f9190613558565b6117a9565b905060006116f261166e7f000000000000000000000000000000000000000000000000000000000000000061164d6000600201546117a9565b6fffffffffffffffffffffffffffffffff191661182790919063ffffffff16565b6116d161167f6000600601546117a9565b6116b0866116ab600060070160009054906101000a900465ffffffffffff1665ffffffffffff166117a9565b611827565b6fffffffffffffffffffffffffffffffff1916611cf090919063ffffffff16565b6fffffffffffffffffffffffffffffffff1916611cf090919063ffffffff16565b90506116fe8482612362565b93505050611782565b600061177261171a6000600201546117a9565b61176d7f000000000000000000000000000000000000000000000000000000000000000061174c6000600601546117a9565b6fffffffffffffffffffffffffffffffff191661182790919063ffffffff16565b611cf0565b905061177e8382612362565b9250505b5b61179f826fffffffffffffffffffffffffffffffff19166129c7565b9450505050505b90565b6000808214156117bf57600060801b9050611822565b600082905060006117cf82612ac5565b905060708110156117e8578060700382901b91506117fc565b60708111156117fb576070810382901c91505b5b607081613fff01901b6dffffffffffffffffffffffffffff83161791508160801b925050505b919050565b600080617fff60708560801c6fffffffffffffffffffffffffffffffff16901c166fffffffffffffffffffffffffffffffff1690506000617fff60708560801c6fffffffffffffffffffffffffffffffff16901c166fffffffffffffffffffffffffffffffff169050617fff8214156118e257617fff8114156118c1576f7fff800000000000000000000000000060801b92505050611cea565b6f8000000000000000000000000000000060801b8416851892505050611cea565b617fff81141561196157600060801b6dffffffffffffffffffffffffffff60801b85166fffffffffffffffffffffffffffffffff19161461193a576f7fff800000000000000000000000000060801b92505050611cea565b6f8000000000000000000000000000000060801b84861816600060801b1792505050611cea565b600060801b6f7fffffffffffffffffffffffffffffff60801b85166fffffffffffffffffffffffffffffffff19161415611a1c57600060801b6f7fffffffffffffffffffffffffffffff60801b86166fffffffffffffffffffffffffffffffff191614156119e6576f7fff800000000000000000000000000060801b92505050611cea565b6f8000000000000000000000000000000060801b848618166f7fff000000000000000000000000000060801b1792505050611cea565b60006dffffffffffffffffffffffffffff8560801c166fffffffffffffffffffffffffffffffff1690506000821415611a585760019150611a6d565b6e010000000000000000000000000000811790505b60006dffffffffffffffffffffffffffff8760801c166fffffffffffffffffffffffffffffffff1690506000841415611ad15760008114611acc576000611ab382612ac5565b60e20390508082901b9150600194506072810384019350505b611aea565b60726e0100000000000000000000000000008217901b90505b818181611afa57611af9613b50565b5b0490506000811415611b6557600060801b6f8000000000000000000000000000000060801b878918166fffffffffffffffffffffffffffffffff191611611b4557600060801b611b5a565b6f8000000000000000000000000000000060801b5b945050505050611cea565b6d1000000000000000000000000000811015611b8457611b83613b7f565b5b60006e080000000000000000000000000000821015611be5576e040000000000000000000000000000821015611bda576e020000000000000000000000000000821015611bd2576070611bd5565b60715b611bdd565b60725b60ff16611bef565b611bee82612ac5565b5b905061407184018186011115611c0d57617fff945060009150611caa565b83613ffc828701011015611c28576000945060009150611ca9565b83613f8c828701011015611c765783613ffc86011115611c535783613ffc86010382901b9150611c6d565b83613ffc86011015611c6c57613ffc8585030382901c91505b5b60009450611ca8565b6070811115611c89576070810382901c91505b6dffffffffffffffffffffffffffff8216915083613f8d828701010394505b5b5b81607086901b6f8000000000000000000000000000000060801b898b181660801c6fffffffffffffffffffffffffffffffff16171760801b955050505050505b92915050565b600080617fff60708560801c6fffffffffffffffffffffffffffffffff16901c166fffffffffffffffffffffffffffffffff1690506000617fff60708560801c6fffffffffffffffffffffffffffffffff16901c166fffffffffffffffffffffffffffffffff169050617fff821415611e8757617fff811415611e1557836fffffffffffffffffffffffffffffffff1916856fffffffffffffffffffffffffffffffff19161415611dbc576f8000000000000000000000000000000060801b841685189250505061217f565b6f8000000000000000000000000000000060801b8486186fffffffffffffffffffffffffffffffff19161415611df8578385179250505061217f565b6f7fff800000000000000000000000000060801b9250505061217f565b600060801b6f7fffffffffffffffffffffffffffffff60801b85166fffffffffffffffffffffffffffffffff19161415611e66576f7fff800000000000000000000000000060801b9250505061217f565b6f8000000000000000000000000000000060801b841685189250505061217f565b617fff811415611f0357600060801b6f7fffffffffffffffffffffffffffffff60801b86166fffffffffffffffffffffffffffffffff19161415611ee2576f7fff800000000000000000000000000060801b9250505061217f565b6f8000000000000000000000000000000060801b851684189250505061217f565b60006dffffffffffffffffffffffffffff8660801c166fffffffffffffffffffffffffffffffff1690506000831415611f3f5760019250611f54565b6e010000000000000000000000000000811790505b60006dffffffffffffffffffffffffffff8660801c166fffffffffffffffffffffffffffffffff1690506000831415611f905760019250611fa5565b6e010000000000000000000000000000811790505b8082029150600082141561201257600060801b6f8000000000000000000000000000000060801b878918166fffffffffffffffffffffffffffffffff191611611ff257600060801b612007565b6f8000000000000000000000000000000060801b5b94505050505061217f565b828401935060007c0200000000000000000000000000000000000000000000000000000000831015612079577c01000000000000000000000000000000000000000000000000000000008310156120715761206c83612ac5565b612074565b60e05b61207c565b60e15b9050614070818601101561209757600094506000925061213f565b6140e081860110156120db576140708510156120bc57846140700383901c92506120d2565b6140708511156120d157614070850383901b92505b5b6000945061213e565b61c0dd81860111156120f557617fff94506000925061213d565b607081111561210c576070810383901c9250612120565b607081101561211f578060700383901b92505b5b6dffffffffffffffffffffffffffff831692506140df8186010394505b5b5b82607086901b6f8000000000000000000000000000000060801b898b181660801c6fffffffffffffffffffffffffffffffff16171760801b955050505050505b92915050565b600060010160009054906101000a900473ffffffffffffffffffffffffffffffffffffffff1673ffffffffffffffffffffffffffffffffffffffff163373ffffffffffffffffffffffffffffffffffffffff1614612218576040517f08c379a000000000000000000000000000000000000000000000000000000000815260040161220f9061308f565b60405180910390fd5b6000806002015414801561224a575060008060070160069054906101000a900465ffffffffffff1665ffffffffffff16115b612289576040517f08c379a000000000000000000000000000000000000000000000000000000000815260040161228090613c46565b60405180910390fd5b600080600060010160009054906101000a900473ffffffffffffffffffffffffffffffffffffffff1673ffffffffffffffffffffffffffffffffffffffff166008546040516122d790613629565b60006040518083038185875af1925050503d8060008114612314576040519150601f19603f3d011682016040523d82523d6000602084013e612319565b606091505b50915091508161235e576040517f08c379a000000000000000000000000000000000000000000000000000000000815260040161235590613cb2565b60405180910390fd5b5050565b600080617fff60708560801c6fffffffffffffffffffffffffffffffff16901c166fffffffffffffffffffffffffffffffff1690506000617fff60708560801c6fffffffffffffffffffffffffffffffff16901c166fffffffffffffffffffffffffffffffff169050617fff82141561243e57617fff81141561243457836fffffffffffffffffffffffffffffffff1916856fffffffffffffffffffffffffffffffff191614156124175784925050506129c1565b6f7fff800000000000000000000000000060801b925050506129c1565b84925050506129c1565b617fff8114156124525783925050506129c1565b60006f800000000000000000000000000000008660801c6fffffffffffffffffffffffffffffffff161015905060006dffffffffffffffffffffffffffff8760801c166fffffffffffffffffffffffffffffffff16905060008414156124bb57600193506124d0565b6e010000000000000000000000000000811790505b60006f800000000000000000000000000000008760801c6fffffffffffffffffffffffffffffffff161015905060006dffffffffffffffffffffffffffff8860801c166fffffffffffffffffffffffffffffffff1690506000851415612539576001945061254e565b6e010000000000000000000000000000811790505b60008314156125b0576f8000000000000000000000000000000060801b6fffffffffffffffffffffffffffffffff1916886fffffffffffffffffffffffffffffffff19161461259d57876125a3565b600060801b5b96505050505050506129c1565b6000811415612612576f8000000000000000000000000000000060801b6fffffffffffffffffffffffffffffffff1916896fffffffffffffffffffffffffffffffff1916146125ff5788612605565b600060801b5b96505050505050506129c1565b60008587039050821515851515141561279057607081131561263d57899750505050505050506129c1565b6000811315612651578082901c915061269f565b7fffffffffffffffffffffffffffffffffffffffffffffffffffffffffffffff9081121561268857889750505050505050506129c1565b600081121561269e578060000384901c93508596505b5b81840193506e02000000000000000000000000000084106126c857600184901c93506001870196505b617fff87141561271357846126f0576f7fff000000000000000000000000000060801b612705565b6fffff000000000000000000000000000060801b5b9750505050505050506129c1565b6e0100000000000000000000000000008410156127335760009650612747565b6dffffffffffffffffffffffffffff841693505b83607088901b8661275957600061276b565b6f800000000000000000000000000000005b6fffffffffffffffffffffffffffffffff16171760801b9750505050505050506129c1565b60008113156127ab57600184901b93506001870396506127c3565b60008112156127c257600182901b91506001860396505b5b60708113156127d5576001915061285f565b60018113156127f157600180820360018403901c01915061285e565b7fffffffffffffffffffffffffffffffffffffffffffffffffffffffffffffff90811215612822576001935061285d565b7fffffffffffffffffffffffffffffffffffffffffffffffffffffffffffffffff81121561285c57600180826000030360018603901c0193505b5b5b5b818410612870578184039350612879565b83820393508294505b600084141561289557600060801b9750505050505050506129c1565b60006128a085612ac5565b905060718114156128cd576dffffffffffffffffffffffffffff600186901c16945060018801975061292f565b607081101561291a57600081607003905080891115612906576dffffffffffffffffffffffffffff8187901b1695508089039850612914565b6001890386901b9550600098505b5061292e565b6dffffffffffffffffffffffffffff851694505b5b617fff88141561297b5785612957576f7fff000000000000000000000000000060801b61296c565b6fffff000000000000000000000000000060801b5b985050505050505050506129c1565b84607089901b8761298d57600061299f565b6f800000000000000000000000000000005b6fffffffffffffffffffffffffffffffff16171760801b985050505050505050505b92915050565b600080617fff60708460801c6fffffffffffffffffffffffffffffffff16901c166fffffffffffffffffffffffffffffffff169050613fff811015612a10576000915050612ac0565b6f800000000000000000000000000000008360801c6fffffffffffffffffffffffffffffffff1610612a4157600080fd5b6140fe811115612a5057600080fd5b60006e0100000000000000000000000000006dffffffffffffffffffffffffffff8560801c6fffffffffffffffffffffffffffffffff161617905061406f821015612aa4578161406f0381901c9050612aba565b61406f821115612ab95761406f820381901b90505b5b80925050505b919050565b6000808211612ad357600080fd5b60007001000000000000000000000000000000008310612afb57608083901c92506080810190505b680100000000000000008310612b1957604083901c92506040810190505b6401000000008310612b3357602083901c92506020810190505b620100008310612b4b57601083901c92506010810190505b6101008310612b6257600883901c92506008810190505b60108310612b7857600483901c92506004810190505b60048310612b8e57600283901c92506002810190505b60028310612b9d576001810190505b80915050919050565b604051806101a00160405280600073ffffffffffffffffffffffffffffffffffffffff168152602001600073ffffffffffffffffffffffffffffffffffffffff1681526020016000815260200160008152602001600081526020016000815260200160008152602001600065ffffffffffff168152602001600065ffffffffffff168152602001600065ffffffffffff168152602001600065ffffffffffff168152602001600065ffffffffffff1681526020016000151581525090565b6000819050919050565b612c7781612c64565b82525050565b6000602082019050612c926000830184612c6e565b92915050565b600080fd5b600073ffffffffffffffffffffffffffffffffffffffff82169050919050565b6000612cc882612c9d565b9050919050565b612cd881612cbd565b8114612ce357600080fd5b50565b600081359050612cf581612ccf565b92915050565b600065ffffffffffff82169050919050565b612d1681612cfb565b8114612d2157600080fd5b50565b600081359050612d3381612d0d565b92915050565b612d4281612c64565b8114612d4d57600080fd5b50565b600081359050612d5f81612d39565b92915050565b60008115159050919050565b612d7a81612d65565b8114612d8557600080fd5b50565b600081359050612d9781612d71565b92915050565b6000806000806000806000806000806101408b8d031215612dc157612dc0612c98565b5b6000612dcf8d828e01612ce6565b9a50506020612de08d828e01612d24565b9950506040612df18d828e01612d50565b9850506060612e028d828e01612d50565b9750506080612e138d828e01612d50565b96505060a0612e248d828e01612d24565b95505060c0612e358d828e01612d88565b94505060e0612e468d828e01612d50565b935050610100612e588d828e01612d24565b925050610120612e6a8d828e01612d24565b9150509295989b9194979a5092959850565b612e8581612cbd565b82525050565b612e9481612c64565b82525050565b612ea381612cfb565b82525050565b612eb281612d65565b82525050565b6101a082016000820151612ecf6000850182612e7c565b506020820151612ee26020850182612e7c565b506040820151612ef56040850182612e8b565b506060820151612f086060850182612e8b565b506080820151612f1b6080850182612e8b565b5060a0820151612f2e60a0850182612e8b565b5060c0820151612f4160c0850182612e8b565b5060e0820151612f5460e0850182612e9a565b50610100820151612f69610100850182612e9a565b50610120820151612f7e610120850182612e9a565b50610140820151612f93610140850182612e9a565b50610160820151612fa8610160850182612e9a565b50610180820151612fbd610180850182612ea9565b50505050565b60006101a082019050612fd96000830184612eb8565b92915050565b600060208284031215612ff557612ff4612c98565b5b600061300384828501612ce6565b91505092915050565b600082825260208201905092915050565b7f4f6e6c792074686520626f72726f776572206f662074686520636f6e7472616360008201527f742063616e20706572666f726d2074686973206f7065726174696f6e00000000602082015250565b6000613079603c8361300c565b91506130848261301d565b604082019050919050565b600060208201905081810360008301526130a88161306c565b9050919050565b7f4e6f20636f6c6c61746572616c206973206e656365737361727920666f72207460008201527f686973206c6f616e000000000000000000000000000000000000000000000000602082015250565b600061310b60288361300c565b9150613116826130af565b604082019050919050565b6000602082019050818103600083015261313a816130fe565b9050919050565b7f4c6f616e206d7573742062652066756e646564206265666f726520636f6c6c6160008201527f746572616c20697320616c6c6f63617465640000000000000000000000000000602082015250565b600061319d60328361300c565b91506131a882613141565b604082019050919050565b600060208201905081810360008301526131cc81613190565b9050919050565b7f436f6c6c61746572616c20616c6c6f6361746564206d7573742062652067726560008201527f61746572207468616e206f7220657175616c20746f2074686520636f6c6c617460208201527f6572616c20726571756972656d656e74202a20696e697469616c207072696e6360408201527f6970616c206f6620746865206c6f616e00000000000000000000000000000000606082015250565b600061327b60708361300c565b9150613286826131d3565b608082019050919050565b600060208201905081810360008301526132aa8161326e565b9050919050565b7f4e487b7100000000000000000000000000000000000000000000000000000000600052601160045260246000fd5b60006132eb82612c64565b91506132f683612c64565b9250827fffffffffffffffffffffffffffffffffffffffffffffffffffffffffffffffff0382111561332b5761332a6132b1565b5b828201905092915050565b7f4f6e6c7920746865206f776e6572206f662074686520636f6e7472616374206360008201527f616e20706572666f726d2074686973206f7065726174696f6e00000000000000602082015250565b600061339260398361300c565b915061339d82613336565b604082019050919050565b600060208201905081810360008301526133c181613385565b9050919050565b7f5465726d732063616e6e6f74206265206368616e676564206166746572206c6f60008201527f616e20686173206265656e206973737565640000000000000000000000000000602082015250565b600061342460328361300c565b915061342f826133c8565b604082019050919050565b6000602082019050818103600083015261345381613417565b9050919050565b7f7465726d206d7573742062652067726561746572207468616e207a65726f0000600082015250565b6000613490601e8361300c565b915061349b8261345a565b602082019050919050565b600060208201905081810360008301526134bf81613483565b9050919050565b7f436f6e74726163742062616c616e636520697320302c2074686572652069732060008201527f6e6f7468696e6720617661696c61626c6520746f207769746864726177000000602082015250565b6000613522603d8361300c565b915061352d826134c6565b604082019050919050565b6000602082019050818103600083015261355181613515565b9050919050565b600061356382612c64565b915061356e83612c64565b925082821015613581576135806132b1565b5b828203905092915050565b7f5468657265206973206e6f2076616c756520746f207769746864726177000000600082015250565b60006135c2601d8361300c565b91506135cd8261358c565b602082019050919050565b600060208201905081810360008301526135f1816135b5565b9050919050565b600081905092915050565b50565b60006136136000836135f8565b915061361e82613603565b600082019050919050565b600061363482613606565b9150819050919050565b7f4661696c656420746f2077697468647261770000000000000000000000000000600082015250565b600061367460128361300c565b915061367f8261363e565b602082019050919050565b600060208201905081810360008301526136a381613667565b9050919050565b7f4120626f72726f776572206d7573742062652061737369676e6564206265666f60008201527f72652069737375696e67206c6f616e0000000000000000000000000000000000602082015250565b6000613706602f8361300c565b9150613711826136aa565b604082019050919050565b60006020820190508181036000830152613735816136f9565b9050919050565b7f4c6f616e206d7573742062652066756e646564206265666f726520697373756960008201527f6e67000000000000000000000000000000000000000000000000000000000000602082015250565b600061379860228361300c565b91506137a38261373c565b604082019050919050565b600060208201905081810360008301526137c78161378b565b9050919050565b7f436f6c6c61746572616c206d75737420626520616c6c6f63617465642062656660008201527f6f72652069737375696e67206c6f616e00000000000000000000000000000000602082015250565b600061382a60308361300c565b9150613835826137ce565b604082019050919050565b600060208201905081810360008301526138598161381d565b9050919050565b7f4661696c656420746f2073656e64207061796d656e7400000000000000000000600082015250565b600061389660168361300c565b91506138a182613860565b602082019050919050565b600060208201905081810360008301526138c581613889565b9050919050565b60006138d782612cfb565b91506138e283612cfb565b92508265ffffffffffff038211156138fd576138fc6132b1565b5b828201905092915050565b7f436f6c6c61746572616c2063616e206f6e6c79206265207365697a6564206f6e60008201527f6365206c6f616e20697320696e2064656661756c740000000000000000000000602082015250565b600061396460358361300c565b915061396f82613908565b604082019050919050565b6000602082019050818103600083015261399381613957565b9050919050565b7f54686572652069732063757272656e746c79206e6f20636f6c6c61746572616c60008201527f20746f207365697a650000000000000000000000000000000000000000000000602082015250565b60006139f660298361300c565b9150613a018261399a565b604082019050919050565b60006020820190508181036000830152613a25816139e9565b9050919050565b7f56616c7565206d7573742062652067726561746572207468616e203000000000600082015250565b6000613a62601c8361300c565b9150613a6d82613a2c565b602082019050919050565b60006020820190508181036000830152613a9181613a55565b9050919050565b7f5061796d656e74206d757374206265206e6f6e2d7a65726f20616e642065717560008201527f616c20746f20746865206f75747374616e64696e672062616c616e636520287060208201527f72696e636970616c202b20696e746572657374202b2066656573290000000000604082015250565b6000613b1a605b8361300c565b9150613b2582613a98565b606082019050919050565b60006020820190508181036000830152613b4981613b0d565b9050919050565b7f4e487b7100000000000000000000000000000000000000000000000000000000600052601260045260246000fd5b7f4e487b7100000000000000000000000000000000000000000000000000000000600052600160045260246000fd5b7f43616e6e6f74206672656520636f6c6c61746572616c207768696c65206f757460008201527f7374616e64696e672062616c616e6365203e2030206f72206c6f616e2068617360208201527f2079657420746f20626520697373756564000000000000000000000000000000604082015250565b6000613c3060518361300c565b9150613c3b82613bae565b606082019050919050565b60006020820190508181036000830152613c5f81613c23565b9050919050565b7f4661696c656420746f20776974686472617720636f6c6c61746572616c000000600082015250565b6000613c9c601d8361300c565b9150613ca782613c66565b602082019050919050565b60006020820190508181036000830152613ccb81613c8f565b905091905056fea26469706673582212204e6a0f6f8f2657916f2b6f0fc27024d5aa9e677750038b2f8178d9a892ae853564736f6c634300080a0033",
			"opcodes": "PUSH1 0xC0 PUSH1 0x40 MSTORE PUSH4 0x1E18558 PUSH1 0x9 SSTORE PUSH3 0x2A PUSH8 0xDE0B6B3A7640000 PUSH3 0xF1 PUSH1 0x20 SHL PUSH3 0x17A9 OR PUSH1 0x20 SHR JUMP JUMPDEST PUSH16 0xFFFFFFFFFFFFFFFFFFFFFFFFFFFFFFFF NOT AND PUSH1 0x80 SWAP1 PUSH16 0xFFFFFFFFFFFFFFFFFFFFFFFFFFFFFFFF NOT AND DUP2 MSTORE POP PUSH3 0x6E PUSH1 0x9 SLOAD PUSH3 0xF1 PUSH1 0x20 SHL PUSH3 0x17A9 OR PUSH1 0x20 SHR JUMP JUMPDEST PUSH16 0xFFFFFFFFFFFFFFFFFFFFFFFFFFFFFFFF NOT AND PUSH1 0xA0 SWAP1 PUSH16 0xFFFFFFFFFFFFFFFFFFFFFFFFFFFFFFFF NOT AND DUP2 MSTORE POP CALLVALUE DUP1 ISZERO PUSH3 0xA7 JUMPI PUSH1 0x0 DUP1 REVERT JUMPDEST POP CALLER PUSH1 0x0 DUP1 ADD PUSH1 0x0 PUSH2 0x100 EXP DUP2 SLOAD DUP2 PUSH20 0xFFFFFFFFFFFFFFFFFFFFFFFFFFFFFFFFFFFFFFFF MUL NOT AND SWAP1 DUP4 PUSH20 0xFFFFFFFFFFFFFFFFFFFFFFFFFFFFFFFFFFFFFFFF AND MUL OR SWAP1 SSTORE POP PUSH3 0x266 JUMP JUMPDEST PUSH1 0x0 DUP1 DUP3 EQ ISZERO PUSH3 0x109 JUMPI PUSH1 0x0 PUSH1 0x80 SHL SWAP1 POP PUSH3 0x177 JUMP JUMPDEST PUSH1 0x0 DUP3 SWAP1 POP PUSH1 0x0 PUSH3 0x121 DUP3 PUSH3 0x17C PUSH1 0x20 SHL PUSH1 0x20 SHR JUMP JUMPDEST SWAP1 POP PUSH1 0x70 DUP2 LT ISZERO PUSH3 0x13C JUMPI DUP1 PUSH1 0x70 SUB DUP3 SWAP1 SHL SWAP2 POP PUSH3 0x151 JUMP JUMPDEST PUSH1 0x70 DUP2 GT ISZERO PUSH3 0x150 JUMPI PUSH1 0x70 DUP2 SUB DUP3 SWAP1 SHR SWAP2 POP JUMPDEST JUMPDEST PUSH1 0x70 DUP2 PUSH2 0x3FFF ADD SWAP1 SHL PUSH14 0xFFFFFFFFFFFFFFFFFFFFFFFFFFFF DUP4 AND OR SWAP2 POP DUP2 PUSH1 0x80 SHL SWAP3 POP POP POP JUMPDEST SWAP2 SWAP1 POP JUMP JUMPDEST PUSH1 0x0 DUP1 DUP3 GT PUSH3 0x18B JUMPI PUSH1 0x0 DUP1 REVERT JUMPDEST PUSH1 0x0 PUSH17 0x100000000000000000000000000000000 DUP4 LT PUSH3 0x1B4 JUMPI PUSH1 0x80 DUP4 SWAP1 SHR SWAP3 POP PUSH1 0x80 DUP2 ADD SWAP1 POP JUMPDEST PUSH9 0x10000000000000000 DUP4 LT PUSH3 0x1D3 JUMPI PUSH1 0x40 DUP4 SWAP1 SHR SWAP3 POP PUSH1 0x40 DUP2 ADD SWAP1 POP JUMPDEST PUSH5 0x100000000 DUP4 LT PUSH3 0x1EE JUMPI PUSH1 0x20 DUP4 SWAP1 SHR SWAP3 POP PUSH1 0x20 DUP2 ADD SWAP1 POP JUMPDEST PUSH3 0x10000 DUP4 LT PUSH3 0x207 JUMPI PUSH1 0x10 DUP4 SWAP1 SHR SWAP3 POP PUSH1 0x10 DUP2 ADD SWAP1 POP JUMPDEST PUSH2 0x100 DUP4 LT PUSH3 0x21F JUMPI PUSH1 0x8 DUP4 SWAP1 SHR SWAP3 POP PUSH1 0x8 DUP2 ADD SWAP1 POP JUMPDEST PUSH1 0x10 DUP4 LT PUSH3 0x236 JUMPI PUSH1 0x4 DUP4 SWAP1 SHR SWAP3 POP PUSH1 0x4 DUP2 ADD SWAP1 POP JUMPDEST PUSH1 0x4 DUP4 LT PUSH3 0x24D JUMPI PUSH1 0x2 DUP4 SWAP1 SHR SWAP3 POP PUSH1 0x2 DUP2 ADD SWAP1 POP JUMPDEST PUSH1 0x2 DUP4 LT PUSH3 0x25D JUMPI PUSH1 0x1 DUP2 ADD SWAP1 POP JUMPDEST DUP1 SWAP2 POP POP SWAP2 SWAP1 POP JUMP JUMPDEST PUSH1 0x80 MLOAD PUSH1 0xA0 MLOAD PUSH2 0x3D08 PUSH3 0x2A1 PUSH1 0x0 CODECOPY PUSH1 0x0 PUSH2 0x148F ADD MSTORE PUSH1 0x0 DUP2 DUP2 PUSH2 0x357 ADD MSTORE DUP2 DUP2 PUSH2 0x14B3 ADD MSTORE DUP2 DUP2 PUSH2 0x1620 ADD MSTORE PUSH2 0x171F ADD MSTORE PUSH2 0x3D08 PUSH1 0x0 RETURN INVALID PUSH1 0x80 PUSH1 0x40 MSTORE PUSH1 0x4 CALLDATASIZE LT PUSH2 0xC2 JUMPI PUSH1 0x0 CALLDATALOAD PUSH1 0xE0 SHR DUP1 PUSH4 0x57F7D74F GT PUSH2 0x7F JUMPI DUP1 PUSH4 0x6F9FB98A GT PUSH2 0x59 JUMPI DUP1 PUSH4 0x6F9FB98A EQ PUSH2 0x1C2 JUMPI DUP1 PUSH4 0x8DB57994 EQ PUSH2 0x1ED JUMPI DUP1 PUSH4 0xD8D79700 EQ PUSH2 0x1F7 JUMPI DUP1 PUSH4 0xDB8D55F1 EQ PUSH2 0x201 JUMPI PUSH2 0xC2 JUMP JUMPDEST DUP1 PUSH4 0x57F7D74F EQ PUSH2 0x185 JUMPI DUP1 PUSH4 0x5C0DF55B EQ PUSH2 0x1AE JUMPI DUP1 PUSH4 0x62949963 EQ PUSH2 0x1B8 JUMPI PUSH2 0xC2 JUMP JUMPDEST DUP1 PUSH4 0xE6F3DD8 EQ PUSH2 0xC7 JUMPI DUP1 PUSH4 0x1529A639 EQ PUSH2 0xD1 JUMPI DUP1 PUSH4 0x28A11702 EQ PUSH2 0xFC JUMPI DUP1 PUSH4 0x396C079C EQ PUSH2 0x127 JUMPI DUP1 PUSH4 0x3CCFD60B EQ PUSH2 0x150 JUMPI DUP1 PUSH4 0x4173B417 EQ PUSH2 0x15A JUMPI JUMPDEST PUSH1 0x0 DUP1 REVERT JUMPDEST PUSH2 0xCF PUSH2 0x22C JUMP JUMPDEST STOP JUMPDEST CALLVALUE DUP1 ISZERO PUSH2 0xDD JUMPI PUSH1 0x0 DUP1 REVERT JUMPDEST POP PUSH2 0xE6 PUSH2 0x434 JUMP JUMPDEST PUSH1 0x40 MLOAD PUSH2 0xF3 SWAP2 SWAP1 PUSH2 0x2C7D JUMP JUMPDEST PUSH1 0x40 MLOAD DUP1 SWAP2 SUB SWAP1 RETURN JUMPDEST CALLVALUE DUP1 ISZERO PUSH2 0x108 JUMPI PUSH1 0x0 DUP1 REVERT JUMPDEST POP PUSH2 0x111 PUSH2 0x43E JUMP JUMPDEST PUSH1 0x40 MLOAD PUSH2 0x11E SWAP2 SWAP1 PUSH2 0x2C7D JUMP JUMPDEST PUSH1 0x40 MLOAD DUP1 SWAP2 SUB SWAP1 RETURN JUMPDEST CALLVALUE DUP1 ISZERO PUSH2 0x133 JUMPI PUSH1 0x0 DUP1 REVERT JUMPDEST POP PUSH2 0x14E PUSH1 0x4 DUP1 CALLDATASIZE SUB DUP2 ADD SWAP1 PUSH2 0x149 SWAP2 SWAP1 PUSH2 0x2D9D JUMP JUMPDEST PUSH2 0x49D JUMP JUMPDEST STOP JUMPDEST PUSH2 0x158 PUSH2 0x6F9 JUMP JUMPDEST STOP JUMPDEST CALLVALUE DUP1 ISZERO PUSH2 0x166 JUMPI PUSH1 0x0 DUP1 REVERT JUMPDEST POP PUSH2 0x16F PUSH2 0x901 JUMP JUMPDEST PUSH1 0x40 MLOAD PUSH2 0x17C SWAP2 SWAP1 PUSH2 0x2FC3 JUMP JUMPDEST PUSH1 0x40 MLOAD DUP1 SWAP2 SUB SWAP1 RETURN JUMPDEST CALLVALUE DUP1 ISZERO PUSH2 0x191 JUMPI PUSH1 0x0 DUP1 REVERT JUMPDEST POP PUSH2 0x1AC PUSH1 0x4 DUP1 CALLDATASIZE SUB DUP2 ADD SWAP1 PUSH2 0x1A7 SWAP2 SWAP1 PUSH2 0x2FDF JUMP JUMPDEST PUSH2 0xAF1 JUMP JUMPDEST STOP JUMPDEST PUSH2 0x1B6 PUSH2 0xBC9 JUMP JUMPDEST STOP JUMPDEST PUSH2 0x1C0 PUSH2 0xE8F JUMP JUMPDEST STOP JUMPDEST CALLVALUE DUP1 ISZERO PUSH2 0x1CE JUMPI PUSH1 0x0 DUP1 REVERT JUMPDEST POP PUSH2 0x1D7 PUSH2 0x10F4 JUMP JUMPDEST PUSH1 0x40 MLOAD PUSH2 0x1E4 SWAP2 SWAP1 PUSH2 0x2C7D JUMP JUMPDEST PUSH1 0x40 MLOAD DUP1 SWAP2 SUB SWAP1 RETURN JUMPDEST PUSH2 0x1F5 PUSH2 0x10FC JUMP JUMPDEST STOP JUMPDEST PUSH2 0x1FF PUSH2 0x11DD JUMP JUMPDEST STOP JUMPDEST CALLVALUE DUP1 ISZERO PUSH2 0x20D JUMPI PUSH1 0x0 DUP1 REVERT JUMPDEST POP PUSH2 0x216 PUSH2 0x1367 JUMP JUMPDEST PUSH1 0x40 MLOAD PUSH2 0x223 SWAP2 SWAP1 PUSH2 0x2C7D JUMP JUMPDEST PUSH1 0x40 MLOAD DUP1 SWAP2 SUB SWAP1 RETURN JUMPDEST PUSH1 0x0 PUSH1 0x1 ADD PUSH1 0x0 SWAP1 SLOAD SWAP1 PUSH2 0x100 EXP SWAP1 DIV PUSH20 0xFFFFFFFFFFFFFFFFFFFFFFFFFFFFFFFFFFFFFFFF AND PUSH20 0xFFFFFFFFFFFFFFFFFFFFFFFFFFFFFFFFFFFFFFFF AND CALLER PUSH20 0xFFFFFFFFFFFFFFFFFFFFFFFFFFFFFFFFFFFFFFFF AND EQ PUSH2 0x2BF JUMPI PUSH1 0x40 MLOAD PUSH32 0x8C379A000000000000000000000000000000000000000000000000000000000 DUP2 MSTORE PUSH1 0x4 ADD PUSH2 0x2B6 SWAP1 PUSH2 0x308F JUMP JUMPDEST PUSH1 0x40 MLOAD DUP1 SWAP2 SUB SWAP1 REVERT JUMPDEST PUSH1 0x0 DUP1 PUSH1 0x4 ADD SLOAD EQ PUSH2 0x306 JUMPI PUSH1 0x40 MLOAD PUSH32 0x8C379A000000000000000000000000000000000000000000000000000000000 DUP2 MSTORE PUSH1 0x4 ADD PUSH2 0x2FD SWAP1 PUSH2 0x3121 JUMP JUMPDEST PUSH1 0x40 MLOAD DUP1 SWAP2 SUB SWAP1 REVERT JUMPDEST PUSH1 0x0 DUP1 PUSH1 0x2 ADD SLOAD GT PUSH2 0x34D JUMPI PUSH1 0x40 MLOAD PUSH32 0x8C379A000000000000000000000000000000000000000000000000000000000 DUP2 MSTORE PUSH1 0x4 ADD PUSH2 0x344 SWAP1 PUSH2 0x31B3 JUMP JUMPDEST PUSH1 0x40 MLOAD DUP1 SWAP2 SUB SWAP1 REVERT JUMPDEST PUSH1 0x0 PUSH2 0x3B8 PUSH2 0x3A5 PUSH32 0x0 PUSH2 0x384 PUSH1 0x0 PUSH1 0x4 ADD SLOAD PUSH2 0x17A9 JUMP JUMPDEST PUSH16 0xFFFFFFFFFFFFFFFFFFFFFFFFFFFFFFFF NOT AND PUSH2 0x1827 SWAP1 SWAP2 SWAP1 PUSH4 0xFFFFFFFF AND JUMP JUMPDEST PUSH2 0x3B3 PUSH1 0x0 PUSH1 0x2 ADD SLOAD PUSH2 0x17A9 JUMP JUMPDEST PUSH2 0x1CF0 JUMP JUMPDEST SWAP1 POP DUP1 PUSH16 0xFFFFFFFFFFFFFFFFFFFFFFFFFFFFFFFF NOT AND PUSH2 0x3D7 CALLVALUE PUSH2 0x17A9 JUMP JUMPDEST PUSH16 0xFFFFFFFFFFFFFFFFFFFFFFFFFFFFFFFF NOT AND EQ PUSH2 0x42A JUMPI PUSH1 0x40 MLOAD PUSH32 0x8C379A000000000000000000000000000000000000000000000000000000000 DUP2 MSTORE PUSH1 0x4 ADD PUSH2 0x421 SWAP1 PUSH2 0x3291 JUMP JUMPDEST PUSH1 0x40 MLOAD DUP1 SWAP2 SUB SWAP1 REVERT JUMPDEST CALLVALUE PUSH1 0x8 DUP2 SWAP1 SSTORE POP POP JUMP JUMPDEST PUSH1 0x0 PUSH1 0x8 SLOAD SWAP1 POP SWAP1 JUMP JUMPDEST PUSH1 0x0 DUP1 PUSH1 0x0 PUSH1 0x7 ADD PUSH1 0x6 SWAP1 SLOAD SWAP1 PUSH2 0x100 EXP SWAP1 DIV PUSH6 0xFFFFFFFFFFFF AND PUSH6 0xFFFFFFFFFFFF AND EQ DUP1 PUSH2 0x471 JUMPI POP PUSH1 0x0 DUP1 PUSH1 0x2 ADD SLOAD EQ JUMPDEST ISZERO PUSH2 0x47F JUMPI PUSH1 0x0 SWAP1 POP PUSH2 0x49A JUMP JUMPDEST PUSH2 0x487 PUSH2 0x1367 JUMP JUMPDEST PUSH1 0x0 PUSH1 0x2 ADD SLOAD PUSH2 0x497 SWAP2 SWAP1 PUSH2 0x32E0 JUMP JUMPDEST SWAP1 POP JUMPDEST SWAP1 JUMP JUMPDEST PUSH1 0x0 DUP1 ADD PUSH1 0x0 SWAP1 SLOAD SWAP1 PUSH2 0x100 EXP SWAP1 DIV PUSH20 0xFFFFFFFFFFFFFFFFFFFFFFFFFFFFFFFFFFFFFFFF AND PUSH20 0xFFFFFFFFFFFFFFFFFFFFFFFFFFFFFFFFFFFFFFFF AND CALLER PUSH20 0xFFFFFFFFFFFFFFFFFFFFFFFFFFFFFFFFFFFFFFFF AND EQ PUSH2 0x52F JUMPI PUSH1 0x40 MLOAD PUSH32 0x8C379A000000000000000000000000000000000000000000000000000000000 DUP2 MSTORE PUSH1 0x4 ADD PUSH2 0x526 SWAP1 PUSH2 0x33A8 JUMP JUMPDEST PUSH1 0x40 MLOAD DUP1 SWAP2 SUB SWAP1 REVERT JUMPDEST PUSH1 0x0 PUSH2 0x539 PUSH2 0x43E JUMP JUMPDEST EQ PUSH2 0x579 JUMPI PUSH1 0x40 MLOAD PUSH32 0x8C379A000000000000000000000000000000000000000000000000000000000 DUP2 MSTORE PUSH1 0x4 ADD PUSH2 0x570 SWAP1 PUSH2 0x343A JUMP JUMPDEST PUSH1 0x40 MLOAD DUP1 SWAP2 SUB SWAP1 REVERT JUMPDEST PUSH1 0x0 DUP10 PUSH6 0xFFFFFFFFFFFF AND GT PUSH2 0x5C4 JUMPI PUSH1 0x40 MLOAD PUSH32 0x8C379A000000000000000000000000000000000000000000000000000000000 DUP2 MSTORE PUSH1 0x4 ADD PUSH2 0x5BB SWAP1 PUSH2 0x34A6 JUMP JUMPDEST PUSH1 0x40 MLOAD DUP1 SWAP2 SUB SWAP1 REVERT JUMPDEST DUP10 PUSH1 0x0 PUSH1 0x1 ADD PUSH1 0x0 PUSH2 0x100 EXP DUP2 SLOAD DUP2 PUSH20 0xFFFFFFFFFFFFFFFFFFFFFFFFFFFFFFFFFFFFFFFF MUL NOT AND SWAP1 DUP4 PUSH20 0xFFFFFFFFFFFFFFFFFFFFFFFFFFFFFFFFFFFFFFFF AND MUL OR SWAP1 SSTORE POP DUP9 PUSH1 0x0 PUSH1 0x7 ADD PUSH1 0xC PUSH2 0x100 EXP DUP2 SLOAD DUP2 PUSH6 0xFFFFFFFFFFFF MUL NOT AND SWAP1 DUP4 PUSH6 0xFFFFFFFFFFFF AND MUL OR SWAP1 SSTORE POP DUP8 PUSH1 0x0 PUSH1 0x3 ADD DUP2 SWAP1 SSTORE POP DUP7 PUSH1 0x0 PUSH1 0x4 ADD DUP2 SWAP1 SSTORE POP DUP6 PUSH1 0x0 PUSH1 0x6 ADD DUP2 SWAP1 SSTORE POP DUP5 PUSH1 0x0 PUSH1 0x7 ADD PUSH1 0x0 PUSH2 0x100 EXP DUP2 SLOAD DUP2 PUSH6 0xFFFFFFFFFFFF MUL NOT AND SWAP1 DUP4 PUSH6 0xFFFFFFFFFFFF AND MUL OR SWAP1 SSTORE POP DUP4 PUSH1 0x0 PUSH1 0x7 ADD PUSH1 0x1E PUSH2 0x100 EXP DUP2 SLOAD DUP2 PUSH1 0xFF MUL NOT AND SWAP1 DUP4 ISZERO ISZERO MUL OR SWAP1 SSTORE POP DUP3 PUSH1 0x0 PUSH1 0x5 ADD DUP2 SWAP1 SSTORE POP DUP2 PUSH1 0x0 PUSH1 0x7 ADD PUSH1 0x12 PUSH2 0x100 EXP DUP2 SLOAD DUP2 PUSH6 0xFFFFFFFFFFFF MUL NOT AND SWAP1 DUP4 PUSH6 0xFFFFFFFFFFFF AND MUL OR SWAP1 SSTORE POP DUP1 PUSH1 0x0 PUSH1 0x7 ADD PUSH1 0x18 PUSH2 0x100 EXP DUP2 SLOAD DUP2 PUSH6 0xFFFFFFFFFFFF MUL NOT AND SWAP1 DUP4 PUSH6 0xFFFFFFFFFFFF AND MUL OR SWAP1 SSTORE POP POP POP POP POP POP POP POP POP POP POP JUMP JUMPDEST PUSH1 0x0 DUP1 ADD PUSH1 0x0 SWAP1 SLOAD SWAP1 PUSH2 0x100 EXP SWAP1 DIV PUSH20 0xFFFFFFFFFFFFFFFFFFFFFFFFFFFFFFFFFFFFFFFF AND PUSH20 0xFFFFFFFFFFFFFFFFFFFFFFFFFFFFFFFFFFFFFFFF AND CALLER PUSH20 0xFFFFFFFFFFFFFFFFFFFFFFFFFFFFFFFFFFFFFFFF AND EQ PUSH2 0x78B JUMPI PUSH1 0x40 MLOAD PUSH32 0x8C379A000000000000000000000000000000000000000000000000000000000 DUP2 MSTORE PUSH1 0x4 ADD PUSH2 0x782 SWAP1 PUSH2 0x33A8 JUMP JUMPDEST PUSH1 0x40 MLOAD DUP1 SWAP2 SUB SWAP1 REVERT JUMPDEST PUSH1 0x0 SELFBALANCE GT PUSH2 0x7CE JUMPI PUSH1 0x40 MLOAD PUSH32 0x8C379A000000000000000000000000000000000000000000000000000000000 DUP2 MSTORE PUSH1 0x4 ADD PUSH2 0x7C5 SWAP1 PUSH2 0x3538 JUMP JUMPDEST PUSH1 0x40 MLOAD DUP1 SWAP2 SUB SWAP1 REVERT JUMPDEST PUSH1 0x0 PUSH1 0x8 SLOAD SELFBALANCE PUSH2 0x7DE SWAP2 SWAP1 PUSH2 0x3558 JUMP JUMPDEST GT PUSH2 0x81E JUMPI PUSH1 0x40 MLOAD PUSH32 0x8C379A000000000000000000000000000000000000000000000000000000000 DUP2 MSTORE PUSH1 0x4 ADD PUSH2 0x815 SWAP1 PUSH2 0x35D8 JUMP JUMPDEST PUSH1 0x40 MLOAD DUP1 SWAP2 SUB SWAP1 REVERT JUMPDEST PUSH1 0x0 DUP1 PUSH1 0x0 DUP1 ADD PUSH1 0x0 SWAP1 SLOAD SWAP1 PUSH2 0x100 EXP SWAP1 DIV PUSH20 0xFFFFFFFFFFFFFFFFFFFFFFFFFFFFFFFFFFFFFFFF AND PUSH20 0xFFFFFFFFFFFFFFFFFFFFFFFFFFFFFFFFFFFFFFFF AND PUSH1 0x8 SLOAD SELFBALANCE PUSH2 0x86A SWAP2 SWAP1 PUSH2 0x3558 JUMP JUMPDEST PUSH1 0x40 MLOAD PUSH2 0x876 SWAP1 PUSH2 0x3629 JUMP JUMPDEST PUSH1 0x0 PUSH1 0x40 MLOAD DUP1 DUP4 SUB DUP2 DUP6 DUP8 GAS CALL SWAP3 POP POP POP RETURNDATASIZE DUP1 PUSH1 0x0 DUP2 EQ PUSH2 0x8B3 JUMPI PUSH1 0x40 MLOAD SWAP2 POP PUSH1 0x1F NOT PUSH1 0x3F RETURNDATASIZE ADD AND DUP3 ADD PUSH1 0x40 MSTORE RETURNDATASIZE DUP3 MSTORE RETURNDATASIZE PUSH1 0x0 PUSH1 0x20 DUP5 ADD RETURNDATACOPY PUSH2 0x8B8 JUMP JUMPDEST PUSH1 0x60 SWAP2 POP JUMPDEST POP SWAP2 POP SWAP2 POP DUP2 PUSH2 0x8FD JUMPI PUSH1 0x40 MLOAD PUSH32 0x8C379A000000000000000000000000000000000000000000000000000000000 DUP2 MSTORE PUSH1 0x4 ADD PUSH2 0x8F4 SWAP1 PUSH2 0x368A JUMP JUMPDEST PUSH1 0x40 MLOAD DUP1 SWAP2 SUB SWAP1 REVERT JUMPDEST POP POP JUMP JUMPDEST PUSH2 0x909 PUSH2 0x2BA6 JUMP JUMPDEST PUSH1 0x0 PUSH1 0x40 MLOAD DUP1 PUSH2 0x1A0 ADD PUSH1 0x40 MSTORE SWAP1 DUP2 PUSH1 0x0 DUP3 ADD PUSH1 0x0 SWAP1 SLOAD SWAP1 PUSH2 0x100 EXP SWAP1 DIV PUSH20 0xFFFFFFFFFFFFFFFFFFFFFFFFFFFFFFFFFFFFFFFF AND PUSH20 0xFFFFFFFFFFFFFFFFFFFFFFFFFFFFFFFFFFFFFFFF AND PUSH20 0xFFFFFFFFFFFFFFFFFFFFFFFFFFFFFFFFFFFFFFFF AND DUP2 MSTORE PUSH1 0x20 ADD PUSH1 0x1 DUP3 ADD PUSH1 0x0 SWAP1 SLOAD SWAP1 PUSH2 0x100 EXP SWAP1 DIV PUSH20 0xFFFFFFFFFFFFFFFFFFFFFFFFFFFFFFFFFFFFFFFF AND PUSH20 0xFFFFFFFFFFFFFFFFFFFFFFFFFFFFFFFFFFFFFFFF AND PUSH20 0xFFFFFFFFFFFFFFFFFFFFFFFFFFFFFFFFFFFFFFFF AND DUP2 MSTORE PUSH1 0x20 ADD PUSH1 0x2 DUP3 ADD SLOAD DUP2 MSTORE PUSH1 0x20 ADD PUSH1 0x3 DUP3 ADD SLOAD DUP2 MSTORE PUSH1 0x20 ADD PUSH1 0x4 DUP3 ADD SLOAD DUP2 MSTORE PUSH1 0x20 ADD PUSH1 0x5 DUP3 ADD SLOAD DUP2 MSTORE PUSH1 0x20 ADD PUSH1 0x6 DUP3 ADD SLOAD DUP2 MSTORE PUSH1 0x20 ADD PUSH1 0x7 DUP3 ADD PUSH1 0x0 SWAP1 SLOAD SWAP1 PUSH2 0x100 EXP SWAP1 DIV PUSH6 0xFFFFFFFFFFFF AND PUSH6 0xFFFFFFFFFFFF AND PUSH6 0xFFFFFFFFFFFF AND DUP2 MSTORE PUSH1 0x20 ADD PUSH1 0x7 DUP3 ADD PUSH1 0x6 SWAP1 SLOAD SWAP1 PUSH2 0x100 EXP SWAP1 DIV PUSH6 0xFFFFFFFFFFFF AND PUSH6 0xFFFFFFFFFFFF AND PUSH6 0xFFFFFFFFFFFF AND DUP2 MSTORE PUSH1 0x20 ADD PUSH1 0x7 DUP3 ADD PUSH1 0xC SWAP1 SLOAD SWAP1 PUSH2 0x100 EXP SWAP1 DIV PUSH6 0xFFFFFFFFFFFF AND PUSH6 0xFFFFFFFFFFFF AND PUSH6 0xFFFFFFFFFFFF AND DUP2 MSTORE PUSH1 0x20 ADD PUSH1 0x7 DUP3 ADD PUSH1 0x12 SWAP1 SLOAD SWAP1 PUSH2 0x100 EXP SWAP1 DIV PUSH6 0xFFFFFFFFFFFF AND PUSH6 0xFFFFFFFFFFFF AND PUSH6 0xFFFFFFFFFFFF AND DUP2 MSTORE PUSH1 0x20 ADD PUSH1 0x7 DUP3 ADD PUSH1 0x18 SWAP1 SLOAD SWAP1 PUSH2 0x100 EXP SWAP1 DIV PUSH6 0xFFFFFFFFFFFF AND PUSH6 0xFFFFFFFFFFFF AND PUSH6 0xFFFFFFFFFFFF AND DUP2 MSTORE PUSH1 0x20 ADD PUSH1 0x7 DUP3 ADD PUSH1 0x1E SWAP1 SLOAD SWAP1 PUSH2 0x100 EXP SWAP1 DIV PUSH1 0xFF AND ISZERO ISZERO ISZERO ISZERO DUP2 MSTORE POP POP SWAP1 POP SWAP1 JUMP JUMPDEST PUSH1 0x0 DUP1 ADD PUSH1 0x0 SWAP1 SLOAD SWAP1 PUSH2 0x100 EXP SWAP1 DIV PUSH20 0xFFFFFFFFFFFFFFFFFFFFFFFFFFFFFFFFFFFFFFFF AND PUSH20 0xFFFFFFFFFFFFFFFFFFFFFFFFFFFFFFFFFFFFFFFF AND CALLER PUSH20 0xFFFFFFFFFFFFFFFFFFFFFFFFFFFFFFFFFFFFFFFF AND EQ PUSH2 0xB83 JUMPI PUSH1 0x40 MLOAD PUSH32 0x8C379A000000000000000000000000000000000000000000000000000000000 DUP2 MSTORE PUSH1 0x4 ADD PUSH2 0xB7A SWAP1 PUSH2 0x33A8 JUMP JUMPDEST PUSH1 0x40 MLOAD DUP1 SWAP2 SUB SWAP1 REVERT JUMPDEST DUP1 PUSH1 0x0 DUP1 ADD PUSH1 0x0 PUSH2 0x100 EXP DUP2 SLOAD DUP2 PUSH20 0xFFFFFFFFFFFFFFFFFFFFFFFFFFFFFFFFFFFFFFFF MUL NOT AND SWAP1 DUP4 PUSH20 0xFFFFFFFFFFFFFFFFFFFFFFFFFFFFFFFFFFFFFFFF AND MUL OR SWAP1 SSTORE POP POP JUMP JUMPDEST PUSH1 0x0 DUP1 ADD PUSH1 0x0 SWAP1 SLOAD SWAP1 PUSH2 0x100 EXP SWAP1 DIV PUSH20 0xFFFFFFFFFFFFFFFFFFFFFFFFFFFFFFFFFFFFFFFF AND PUSH20 0xFFFFFFFFFFFFFFFFFFFFFFFFFFFFFFFFFFFFFFFF AND CALLER PUSH20 0xFFFFFFFFFFFFFFFFFFFFFFFFFFFFFFFFFFFFFFFF AND EQ PUSH2 0xC5B JUMPI PUSH1 0x40 MLOAD PUSH32 0x8C379A000000000000000000000000000000000000000000000000000000000 DUP2 MSTORE PUSH1 0x4 ADD PUSH2 0xC52 SWAP1 PUSH2 0x33A8 JUMP JUMPDEST PUSH1 0x40 MLOAD DUP1 SWAP2 SUB SWAP1 REVERT JUMPDEST PUSH1 0x0 PUSH20 0xFFFFFFFFFFFFFFFFFFFFFFFFFFFFFFFFFFFFFFFF AND PUSH1 0x0 PUSH1 0x1 ADD PUSH1 0x0 SWAP1 SLOAD SWAP1 PUSH2 0x100 EXP SWAP1 DIV PUSH20 0xFFFFFFFFFFFFFFFFFFFFFFFFFFFFFFFFFFFFFFFF AND PUSH20 0xFFFFFFFFFFFFFFFFFFFFFFFFFFFFFFFFFFFFFFFF AND EQ ISZERO PUSH2 0xCF0 JUMPI PUSH1 0x40 MLOAD PUSH32 0x8C379A000000000000000000000000000000000000000000000000000000000 DUP2 MSTORE PUSH1 0x4 ADD PUSH2 0xCE7 SWAP1 PUSH2 0x371C JUMP JUMPDEST PUSH1 0x40 MLOAD DUP1 SWAP2 SUB SWAP1 REVERT JUMPDEST PUSH1 0x0 DUP1 PUSH1 0x2 ADD SLOAD EQ ISZERO PUSH2 0xD38 JUMPI PUSH1 0x40 MLOAD PUSH32 0x8C379A000000000000000000000000000000000000000000000000000000000 DUP2 MSTORE PUSH1 0x4 ADD PUSH2 0xD2F SWAP1 PUSH2 0x37AE JUMP JUMPDEST PUSH1 0x40 MLOAD DUP1 SWAP2 SUB SWAP1 REVERT JUMPDEST PUSH1 0x0 DUP1 PUSH1 0x4 ADD SLOAD GT ISZERO PUSH2 0xD8B JUMPI PUSH1 0x0 PUSH1 0x8 SLOAD GT PUSH2 0xD8A JUMPI PUSH1 0x40 MLOAD PUSH32 0x8C379A000000000000000000000000000000000000000000000000000000000 DUP2 MSTORE PUSH1 0x4 ADD PUSH2 0xD81 SWAP1 PUSH2 0x3840 JUMP JUMPDEST PUSH1 0x40 MLOAD DUP1 SWAP2 SUB SWAP1 REVERT JUMPDEST JUMPDEST PUSH1 0x0 DUP1 PUSH1 0x0 PUSH1 0x1 ADD PUSH1 0x0 SWAP1 SLOAD SWAP1 PUSH2 0x100 EXP SWAP1 DIV PUSH20 0xFFFFFFFFFFFFFFFFFFFFFFFFFFFFFFFFFFFFFFFF AND PUSH20 0xFFFFFFFFFFFFFFFFFFFFFFFFFFFFFFFFFFFFFFFF AND PUSH1 0x0 PUSH1 0x2 ADD SLOAD PUSH1 0x40 MLOAD PUSH2 0xDDC SWAP1 PUSH2 0x3629 JUMP JUMPDEST PUSH1 0x0 PUSH1 0x40 MLOAD DUP1 DUP4 SUB DUP2 DUP6 DUP8 GAS CALL SWAP3 POP POP POP RETURNDATASIZE DUP1 PUSH1 0x0 DUP2 EQ PUSH2 0xE19 JUMPI PUSH1 0x40 MLOAD SWAP2 POP PUSH1 0x1F NOT PUSH1 0x3F RETURNDATASIZE ADD AND DUP3 ADD PUSH1 0x40 MSTORE RETURNDATASIZE DUP3 MSTORE RETURNDATASIZE PUSH1 0x0 PUSH1 0x20 DUP5 ADD RETURNDATACOPY PUSH2 0xE1E JUMP JUMPDEST PUSH1 0x60 SWAP2 POP JUMPDEST POP SWAP2 POP SWAP2 POP DUP2 PUSH2 0xE63 JUMPI PUSH1 0x40 MLOAD PUSH32 0x8C379A000000000000000000000000000000000000000000000000000000000 DUP2 MSTORE PUSH1 0x4 ADD PUSH2 0xE5A SWAP1 PUSH2 0x38AC JUMP JUMPDEST PUSH1 0x40 MLOAD DUP1 SWAP2 SUB SWAP1 REVERT JUMPDEST TIMESTAMP PUSH1 0x0 PUSH1 0x7 ADD PUSH1 0x6 PUSH2 0x100 EXP DUP2 SLOAD DUP2 PUSH6 0xFFFFFFFFFFFF MUL NOT AND SWAP1 DUP4 PUSH6 0xFFFFFFFFFFFF AND MUL OR SWAP1 SSTORE POP POP POP JUMP JUMPDEST PUSH1 0x0 DUP1 ADD PUSH1 0x0 SWAP1 SLOAD SWAP1 PUSH2 0x100 EXP SWAP1 DIV PUSH20 0xFFFFFFFFFFFFFFFFFFFFFFFFFFFFFFFFFFFFFFFF AND PUSH20 0xFFFFFFFFFFFFFFFFFFFFFFFFFFFFFFFFFFFFFFFF AND CALLER PUSH20 0xFFFFFFFFFFFFFFFFFFFFFFFFFFFFFFFFFFFFFFFF AND EQ PUSH2 0xF21 JUMPI PUSH1 0x40 MLOAD PUSH32 0x8C379A000000000000000000000000000000000000000000000000000000000 DUP2 MSTORE PUSH1 0x4 ADD PUSH2 0xF18 SWAP1 PUSH2 0x33A8 JUMP JUMPDEST PUSH1 0x40 MLOAD DUP1 SWAP2 SUB SWAP1 REVERT JUMPDEST TIMESTAMP PUSH1 0x0 PUSH1 0x7 ADD PUSH1 0x18 SWAP1 SLOAD SWAP1 PUSH2 0x100 EXP SWAP1 DIV PUSH6 0xFFFFFFFFFFFF AND PUSH1 0x0 PUSH1 0x7 ADD PUSH1 0x6 SWAP1 SLOAD SWAP1 PUSH2 0x100 EXP SWAP1 DIV PUSH6 0xFFFFFFFFFFFF AND PUSH1 0x0 PUSH1 0x7 ADD PUSH1 0xC SWAP1 SLOAD SWAP1 PUSH2 0x100 EXP SWAP1 DIV PUSH6 0xFFFFFFFFFFFF AND PUSH2 0xF74 SWAP2 SWAP1 PUSH2 0x38CC JUMP JUMPDEST PUSH2 0xF7E SWAP2 SWAP1 PUSH2 0x38CC JUMP JUMPDEST PUSH6 0xFFFFFFFFFFFF AND LT PUSH2 0xFC6 JUMPI PUSH1 0x40 MLOAD PUSH32 0x8C379A000000000000000000000000000000000000000000000000000000000 DUP2 MSTORE PUSH1 0x4 ADD PUSH2 0xFBD SWAP1 PUSH2 0x397A JUMP JUMPDEST PUSH1 0x40 MLOAD DUP1 SWAP2 SUB SWAP1 REVERT JUMPDEST PUSH1 0x0 PUSH1 0x8 SLOAD GT PUSH2 0x100B JUMPI PUSH1 0x40 MLOAD PUSH32 0x8C379A000000000000000000000000000000000000000000000000000000000 DUP2 MSTORE PUSH1 0x4 ADD PUSH2 0x1002 SWAP1 PUSH2 0x3A0C JUMP JUMPDEST PUSH1 0x40 MLOAD DUP1 SWAP2 SUB SWAP1 REVERT JUMPDEST PUSH1 0x0 PUSH1 0x8 SLOAD SELFBALANCE PUSH2 0x101B SWAP2 SWAP1 PUSH2 0x3558 JUMP JUMPDEST SWAP1 POP PUSH1 0x0 DUP1 PUSH1 0x0 DUP1 ADD PUSH1 0x0 SWAP1 SLOAD SWAP1 PUSH2 0x100 EXP SWAP1 DIV PUSH20 0xFFFFFFFFFFFFFFFFFFFFFFFFFFFFFFFFFFFFFFFF AND PUSH20 0xFFFFFFFFFFFFFFFFFFFFFFFFFFFFFFFFFFFFFFFF AND DUP4 PUSH1 0x40 MLOAD PUSH2 0x1068 SWAP1 PUSH2 0x3629 JUMP JUMPDEST PUSH1 0x0 PUSH1 0x40 MLOAD DUP1 DUP4 SUB DUP2 DUP6 DUP8 GAS CALL SWAP3 POP POP POP RETURNDATASIZE DUP1 PUSH1 0x0 DUP2 EQ PUSH2 0x10A5 JUMPI PUSH1 0x40 MLOAD SWAP2 POP PUSH1 0x1F NOT PUSH1 0x3F RETURNDATASIZE ADD AND DUP3 ADD PUSH1 0x40 MSTORE RETURNDATASIZE DUP3 MSTORE RETURNDATASIZE PUSH1 0x0 PUSH1 0x20 DUP5 ADD RETURNDATACOPY PUSH2 0x10AA JUMP JUMPDEST PUSH1 0x60 SWAP2 POP JUMPDEST POP SWAP2 POP SWAP2 POP DUP2 PUSH2 0x10EF JUMPI PUSH1 0x40 MLOAD PUSH32 0x8C379A000000000000000000000000000000000000000000000000000000000 DUP2 MSTORE PUSH1 0x4 ADD PUSH2 0x10E6 SWAP1 PUSH2 0x368A JUMP JUMPDEST PUSH1 0x40 MLOAD DUP1 SWAP2 SUB SWAP1 REVERT JUMPDEST POP POP POP JUMP JUMPDEST PUSH1 0x0 SELFBALANCE SWAP1 POP SWAP1 JUMP JUMPDEST PUSH1 0x0 DUP1 ADD PUSH1 0x0 SWAP1 SLOAD SWAP1 PUSH2 0x100 EXP SWAP1 DIV PUSH20 0xFFFFFFFFFFFFFFFFFFFFFFFFFFFFFFFFFFFFFFFF AND PUSH20 0xFFFFFFFFFFFFFFFFFFFFFFFFFFFFFFFFFFFFFFFF AND CALLER PUSH20 0xFFFFFFFFFFFFFFFFFFFFFFFFFFFFFFFFFFFFFFFF AND EQ PUSH2 0x118E JUMPI PUSH1 0x40 MLOAD PUSH32 0x8C379A000000000000000000000000000000000000000000000000000000000 DUP2 MSTORE PUSH1 0x4 ADD PUSH2 0x1185 SWAP1 PUSH2 0x33A8 JUMP JUMPDEST PUSH1 0x40 MLOAD DUP1 SWAP2 SUB SWAP1 REVERT JUMPDEST PUSH1 0x0 CALLVALUE GT PUSH2 0x11D1 JUMPI PUSH1 0x40 MLOAD PUSH32 0x8C379A000000000000000000000000000000000000000000000000000000000 DUP2 MSTORE PUSH1 0x4 ADD PUSH2 0x11C8 SWAP1 PUSH2 0x3A78 JUMP JUMPDEST PUSH1 0x40 MLOAD DUP1 SWAP2 SUB SWAP1 REVERT JUMPDEST CALLVALUE PUSH1 0x0 PUSH1 0x2 ADD DUP2 SWAP1 SSTORE POP JUMP JUMPDEST PUSH1 0x0 PUSH1 0x1 ADD PUSH1 0x0 SWAP1 SLOAD SWAP1 PUSH2 0x100 EXP SWAP1 DIV PUSH20 0xFFFFFFFFFFFFFFFFFFFFFFFFFFFFFFFFFFFFFFFF AND PUSH20 0xFFFFFFFFFFFFFFFFFFFFFFFFFFFFFFFFFFFFFFFF AND CALLER PUSH20 0xFFFFFFFFFFFFFFFFFFFFFFFFFFFFFFFFFFFFFFFF AND EQ PUSH2 0x1270 JUMPI PUSH1 0x40 MLOAD PUSH32 0x8C379A000000000000000000000000000000000000000000000000000000000 DUP2 MSTORE PUSH1 0x4 ADD PUSH2 0x1267 SWAP1 PUSH2 0x308F JUMP JUMPDEST PUSH1 0x40 MLOAD DUP1 SWAP2 SUB SWAP1 REVERT JUMPDEST PUSH1 0x0 CALLVALUE EQ ISZERO DUP1 ISZERO PUSH2 0x1287 JUMPI POP PUSH2 0x1284 PUSH2 0x43E JUMP JUMPDEST CALLVALUE EQ JUMPDEST PUSH2 0x12C6 JUMPI PUSH1 0x40 MLOAD PUSH32 0x8C379A000000000000000000000000000000000000000000000000000000000 DUP2 MSTORE PUSH1 0x4 ADD PUSH2 0x12BD SWAP1 PUSH2 0x3B30 JUMP JUMPDEST PUSH1 0x40 MLOAD DUP1 SWAP2 SUB SWAP1 REVERT JUMPDEST PUSH1 0x0 DUP1 PUSH1 0x2 ADD DUP2 SWAP1 SSTORE POP PUSH1 0x0 DUP1 ADD PUSH1 0x0 SWAP1 SLOAD SWAP1 PUSH2 0x100 EXP SWAP1 DIV PUSH20 0xFFFFFFFFFFFFFFFFFFFFFFFFFFFFFFFFFFFFFFFF AND PUSH20 0xFFFFFFFFFFFFFFFFFFFFFFFFFFFFFFFFFFFFFFFF AND CALLVALUE PUSH1 0x40 MLOAD PUSH2 0x1318 SWAP1 PUSH2 0x3629 JUMP JUMPDEST PUSH1 0x0 PUSH1 0x40 MLOAD DUP1 DUP4 SUB DUP2 DUP6 DUP8 GAS CALL SWAP3 POP POP POP RETURNDATASIZE DUP1 PUSH1 0x0 DUP2 EQ PUSH2 0x1355 JUMPI PUSH1 0x40 MLOAD SWAP2 POP PUSH1 0x1F NOT PUSH1 0x3F RETURNDATASIZE ADD AND DUP3 ADD PUSH1 0x40 MSTORE RETURNDATASIZE DUP3 MSTORE RETURNDATASIZE PUSH1 0x0 PUSH1 0x20 DUP5 ADD RETURNDATACOPY PUSH2 0x135A JUMP JUMPDEST PUSH1 0x60 SWAP2 POP JUMPDEST POP POP POP PUSH2 0x1365 PUSH2 0x2185 JUMP JUMPDEST JUMP JUMPDEST PUSH1 0x0 DUP1 PUSH1 0x0 PUSH1 0x7 ADD PUSH1 0x6 SWAP1 SLOAD SWAP1 PUSH2 0x100 EXP SWAP1 DIV PUSH6 0xFFFFFFFFFFFF AND PUSH6 0xFFFFFFFFFFFF AND EQ ISZERO PUSH2 0x1399 JUMPI PUSH1 0x0 SWAP1 POP PUSH2 0x17A6 JUMP JUMPDEST PUSH1 0x0 DUP1 PUSH1 0x7 ADD PUSH1 0xC SWAP1 SLOAD SWAP1 PUSH2 0x100 EXP SWAP1 DIV PUSH6 0xFFFFFFFFFFFF AND PUSH1 0x0 PUSH1 0x7 ADD PUSH1 0x6 SWAP1 SLOAD SWAP1 PUSH2 0x100 EXP SWAP1 DIV PUSH6 0xFFFFFFFFFFFF AND PUSH2 0x13D4 SWAP2 SWAP1 PUSH2 0x38CC JUMP JUMPDEST PUSH6 0xFFFFFFFFFFFF AND SWAP1 POP PUSH1 0x0 DUP1 PUSH1 0x7 ADD PUSH1 0x0 SWAP1 SLOAD SWAP1 PUSH2 0x100 EXP SWAP1 DIV PUSH6 0xFFFFFFFFFFFF AND PUSH1 0x0 PUSH1 0x7 ADD PUSH1 0x6 SWAP1 SLOAD SWAP1 PUSH2 0x100 EXP SWAP1 DIV PUSH6 0xFFFFFFFFFFFF AND PUSH2 0x1419 SWAP2 SWAP1 PUSH2 0x38CC JUMP JUMPDEST PUSH6 0xFFFFFFFFFFFF AND SWAP1 POP PUSH1 0x0 DUP1 PUSH1 0x0 PUSH1 0x5 ADD SLOAD EQ ISZERO DUP1 ISZERO PUSH2 0x1463 JUMPI POP TIMESTAMP PUSH1 0x0 PUSH1 0x7 ADD PUSH1 0x12 SWAP1 SLOAD SWAP1 PUSH2 0x100 EXP SWAP1 DIV PUSH6 0xFFFFFFFFFFFF AND PUSH6 0xFFFFFFFFFFFF AND DUP5 PUSH2 0x1461 SWAP2 SWAP1 PUSH2 0x32E0 JUMP JUMPDEST LT JUMPDEST ISZERO PUSH2 0x1482 JUMPI PUSH2 0x147F DUP2 PUSH2 0x147A PUSH1 0x0 PUSH1 0x5 ADD SLOAD PUSH2 0x17A9 JUMP JUMPDEST PUSH2 0x2362 JUMP JUMPDEST SWAP1 POP JUMPDEST PUSH1 0x0 PUSH2 0x15A5 PUSH2 0x1576 PUSH2 0x1522 PUSH32 0x0 PUSH2 0x1501 PUSH32 0x0 PUSH2 0x14E0 PUSH1 0x0 PUSH1 0x3 ADD SLOAD PUSH2 0x17A9 JUMP JUMPDEST PUSH16 0xFFFFFFFFFFFFFFFFFFFFFFFFFFFFFFFF NOT AND PUSH2 0x1827 SWAP1 SWAP2 SWAP1 PUSH4 0xFFFFFFFF AND JUMP JUMPDEST PUSH16 0xFFFFFFFFFFFFFFFFFFFFFFFFFFFFFFFF NOT AND PUSH2 0x1827 SWAP1 SWAP2 SWAP1 PUSH4 0xFFFFFFFF AND JUMP JUMPDEST PUSH2 0x1555 PUSH1 0x0 PUSH1 0x7 ADD PUSH1 0x6 SWAP1 SLOAD SWAP1 PUSH2 0x100 EXP SWAP1 DIV PUSH6 0xFFFFFFFFFFFF AND PUSH6 0xFFFFFFFFFFFF AND TIMESTAMP PUSH2 0x1550 SWAP2 SWAP1 PUSH2 0x3558 JUMP JUMPDEST PUSH2 0x17A9 JUMP JUMPDEST PUSH16 0xFFFFFFFFFFFFFFFFFFFFFFFFFFFFFFFF NOT AND PUSH2 0x1CF0 SWAP1 SWAP2 SWAP1 PUSH4 0xFFFFFFFF AND JUMP JUMPDEST PUSH2 0x1584 PUSH1 0x0 PUSH1 0x2 ADD SLOAD PUSH2 0x17A9 JUMP JUMPDEST PUSH16 0xFFFFFFFFFFFFFFFFFFFFFFFFFFFFFFFF NOT AND PUSH2 0x1CF0 SWAP1 SWAP2 SWAP1 PUSH4 0xFFFFFFFF AND JUMP JUMPDEST SWAP1 POP PUSH2 0x15B1 DUP3 DUP3 PUSH2 0x2362 JUMP JUMPDEST SWAP2 POP PUSH1 0x0 DUP1 PUSH1 0x7 ADD PUSH1 0x0 SWAP1 SLOAD SWAP1 PUSH2 0x100 EXP SWAP1 DIV PUSH6 0xFFFFFFFFFFFF AND PUSH6 0xFFFFFFFFFFFF AND EQ ISZERO DUP1 ISZERO PUSH2 0x15E1 JUMPI POP DUP3 TIMESTAMP LT JUMPDEST ISZERO PUSH2 0x1783 JUMPI PUSH1 0x0 PUSH1 0x7 ADD PUSH1 0x1E SWAP1 SLOAD SWAP1 PUSH2 0x100 EXP SWAP1 DIV PUSH1 0xFF AND ISZERO PUSH2 0x1707 JUMPI PUSH1 0x0 PUSH2 0x1614 TIMESTAMP DUP6 PUSH2 0x160F SWAP2 SWAP1 PUSH2 0x3558 JUMP JUMPDEST PUSH2 0x17A9 JUMP JUMPDEST SWAP1 POP PUSH1 0x0 PUSH2 0x16F2 PUSH2 0x166E PUSH32 0x0 PUSH2 0x164D PUSH1 0x0 PUSH1 0x2 ADD SLOAD PUSH2 0x17A9 JUMP JUMPDEST PUSH16 0xFFFFFFFFFFFFFFFFFFFFFFFFFFFFFFFF NOT AND PUSH2 0x1827 SWAP1 SWAP2 SWAP1 PUSH4 0xFFFFFFFF AND JUMP JUMPDEST PUSH2 0x16D1 PUSH2 0x167F PUSH1 0x0 PUSH1 0x6 ADD SLOAD PUSH2 0x17A9 JUMP JUMPDEST PUSH2 0x16B0 DUP7 PUSH2 0x16AB PUSH1 0x0 PUSH1 0x7 ADD PUSH1 0x0 SWAP1 SLOAD SWAP1 PUSH2 0x100 EXP SWAP1 DIV PUSH6 0xFFFFFFFFFFFF AND PUSH6 0xFFFFFFFFFFFF AND PUSH2 0x17A9 JUMP JUMPDEST PUSH2 0x1827 JUMP JUMPDEST PUSH16 0xFFFFFFFFFFFFFFFFFFFFFFFFFFFFFFFF NOT AND PUSH2 0x1CF0 SWAP1 SWAP2 SWAP1 PUSH4 0xFFFFFFFF AND JUMP JUMPDEST PUSH16 0xFFFFFFFFFFFFFFFFFFFFFFFFFFFFFFFF NOT AND PUSH2 0x1CF0 SWAP1 SWAP2 SWAP1 PUSH4 0xFFFFFFFF AND JUMP JUMPDEST SWAP1 POP PUSH2 0x16FE DUP5 DUP3 PUSH2 0x2362 JUMP JUMPDEST SWAP4 POP POP POP PUSH2 0x1782 JUMP JUMPDEST PUSH1 0x0 PUSH2 0x1772 PUSH2 0x171A PUSH1 0x0 PUSH1 0x2 ADD SLOAD PUSH2 0x17A9 JUMP JUMPDEST PUSH2 0x176D PUSH32 0x0 PUSH2 0x174C PUSH1 0x0 PUSH1 0x6 ADD SLOAD PUSH2 0x17A9 JUMP JUMPDEST PUSH16 0xFFFFFFFFFFFFFFFFFFFFFFFFFFFFFFFF NOT AND PUSH2 0x1827 SWAP1 SWAP2 SWAP1 PUSH4 0xFFFFFFFF AND JUMP JUMPDEST PUSH2 0x1CF0 JUMP JUMPDEST SWAP1 POP PUSH2 0x177E DUP4 DUP3 PUSH2 0x2362 JUMP JUMPDEST SWAP3 POP POP JUMPDEST JUMPDEST PUSH2 0x179F DUP3 PUSH16 0xFFFFFFFFFFFFFFFFFFFFFFFFFFFFFFFF NOT AND PUSH2 0x29C7 JUMP JUMPDEST SWAP5 POP POP POP POP POP JUMPDEST SWAP1 JUMP JUMPDEST PUSH1 0x0 DUP1 DUP3 EQ ISZERO PUSH2 0x17BF JUMPI PUSH1 0x0 PUSH1 0x80 SHL SWAP1 POP PUSH2 0x1822 JUMP JUMPDEST PUSH1 0x0 DUP3 SWAP1 POP PUSH1 0x0 PUSH2 0x17CF DUP3 PUSH2 0x2AC5 JUMP JUMPDEST SWAP1 POP PUSH1 0x70 DUP2 LT ISZERO PUSH2 0x17E8 JUMPI DUP1 PUSH1 0x70 SUB DUP3 SWAP1 SHL SWAP2 POP PUSH2 0x17FC JUMP JUMPDEST PUSH1 0x70 DUP2 GT ISZERO PUSH2 0x17FB JUMPI PUSH1 0x70 DUP2 SUB DUP3 SWAP1 SHR SWAP2 POP JUMPDEST JUMPDEST PUSH1 0x70 DUP2 PUSH2 0x3FFF ADD SWAP1 SHL PUSH14 0xFFFFFFFFFFFFFFFFFFFFFFFFFFFF DUP4 AND OR SWAP2 POP DUP2 PUSH1 0x80 SHL SWAP3 POP POP POP JUMPDEST SWAP2 SWAP1 POP JUMP JUMPDEST PUSH1 0x0 DUP1 PUSH2 0x7FFF PUSH1 0x70 DUP6 PUSH1 0x80 SHR PUSH16 0xFFFFFFFFFFFFFFFFFFFFFFFFFFFFFFFF AND SWAP1 SHR AND PUSH16 0xFFFFFFFFFFFFFFFFFFFFFFFFFFFFFFFF AND SWAP1 POP PUSH1 0x0 PUSH2 0x7FFF PUSH1 0x70 DUP6 PUSH1 0x80 SHR PUSH16 0xFFFFFFFFFFFFFFFFFFFFFFFFFFFFFFFF AND SWAP1 SHR AND PUSH16 0xFFFFFFFFFFFFFFFFFFFFFFFFFFFFFFFF AND SWAP1 POP PUSH2 0x7FFF DUP3 EQ ISZERO PUSH2 0x18E2 JUMPI PUSH2 0x7FFF DUP2 EQ ISZERO PUSH2 0x18C1 JUMPI PUSH16 0x7FFF8000000000000000000000000000 PUSH1 0x80 SHL SWAP3 POP POP POP PUSH2 0x1CEA JUMP JUMPDEST PUSH16 0x80000000000000000000000000000000 PUSH1 0x80 SHL DUP5 AND DUP6 XOR SWAP3 POP POP POP PUSH2 0x1CEA JUMP JUMPDEST PUSH2 0x7FFF DUP2 EQ ISZERO PUSH2 0x1961 JUMPI PUSH1 0x0 PUSH1 0x80 SHL PUSH14 0xFFFFFFFFFFFFFFFFFFFFFFFFFFFF PUSH1 0x80 SHL DUP6 AND PUSH16 0xFFFFFFFFFFFFFFFFFFFFFFFFFFFFFFFF NOT AND EQ PUSH2 0x193A JUMPI PUSH16 0x7FFF8000000000000000000000000000 PUSH1 0x80 SHL SWAP3 POP POP POP PUSH2 0x1CEA JUMP JUMPDEST PUSH16 0x80000000000000000000000000000000 PUSH1 0x80 SHL DUP5 DUP7 XOR AND PUSH1 0x0 PUSH1 0x80 SHL OR SWAP3 POP POP POP PUSH2 0x1CEA JUMP JUMPDEST PUSH1 0x0 PUSH1 0x80 SHL PUSH16 0x7FFFFFFFFFFFFFFFFFFFFFFFFFFFFFFF PUSH1 0x80 SHL DUP6 AND PUSH16 0xFFFFFFFFFFFFFFFFFFFFFFFFFFFFFFFF NOT AND EQ ISZERO PUSH2 0x1A1C JUMPI PUSH1 0x0 PUSH1 0x80 SHL PUSH16 0x7FFFFFFFFFFFFFFFFFFFFFFFFFFFFFFF PUSH1 0x80 SHL DUP7 AND PUSH16 0xFFFFFFFFFFFFFFFFFFFFFFFFFFFFFFFF NOT AND EQ ISZERO PUSH2 0x19E6 JUMPI PUSH16 0x7FFF8000000000000000000000000000 PUSH1 0x80 SHL SWAP3 POP POP POP PUSH2 0x1CEA JUMP JUMPDEST PUSH16 0x80000000000000000000000000000000 PUSH1 0x80 SHL DUP5 DUP7 XOR AND PUSH16 0x7FFF0000000000000000000000000000 PUSH1 0x80 SHL OR SWAP3 POP POP POP PUSH2 0x1CEA JUMP JUMPDEST PUSH1 0x0 PUSH14 0xFFFFFFFFFFFFFFFFFFFFFFFFFFFF DUP6 PUSH1 0x80 SHR AND PUSH16 0xFFFFFFFFFFFFFFFFFFFFFFFFFFFFFFFF AND SWAP1 POP PUSH1 0x0 DUP3 EQ ISZERO PUSH2 0x1A58 JUMPI PUSH1 0x1 SWAP2 POP PUSH2 0x1A6D JUMP JUMPDEST PUSH15 0x10000000000000000000000000000 DUP2 OR SWAP1 POP JUMPDEST PUSH1 0x0 PUSH14 0xFFFFFFFFFFFFFFFFFFFFFFFFFFFF DUP8 PUSH1 0x80 SHR AND PUSH16 0xFFFFFFFFFFFFFFFFFFFFFFFFFFFFFFFF AND SWAP1 POP PUSH1 0x0 DUP5 EQ ISZERO PUSH2 0x1AD1 JUMPI PUSH1 0x0 DUP2 EQ PUSH2 0x1ACC JUMPI PUSH1 0x0 PUSH2 0x1AB3 DUP3 PUSH2 0x2AC5 JUMP JUMPDEST PUSH1 0xE2 SUB SWAP1 POP DUP1 DUP3 SWAP1 SHL SWAP2 POP PUSH1 0x1 SWAP5 POP PUSH1 0x72 DUP2 SUB DUP5 ADD SWAP4 POP POP JUMPDEST PUSH2 0x1AEA JUMP JUMPDEST PUSH1 0x72 PUSH15 0x10000000000000000000000000000 DUP3 OR SWAP1 SHL SWAP1 POP JUMPDEST DUP2 DUP2 DUP2 PUSH2 0x1AFA JUMPI PUSH2 0x1AF9 PUSH2 0x3B50 JUMP JUMPDEST JUMPDEST DIV SWAP1 POP PUSH1 0x0 DUP2 EQ ISZERO PUSH2 0x1B65 JUMPI PUSH1 0x0 PUSH1 0x80 SHL PUSH16 0x80000000000000000000000000000000 PUSH1 0x80 SHL DUP8 DUP10 XOR AND PUSH16 0xFFFFFFFFFFFFFFFFFFFFFFFFFFFFFFFF NOT AND GT PUSH2 0x1B45 JUMPI PUSH1 0x0 PUSH1 0x80 SHL PUSH2 0x1B5A JUMP JUMPDEST PUSH16 0x80000000000000000000000000000000 PUSH1 0x80 SHL JUMPDEST SWAP5 POP POP POP POP POP PUSH2 0x1CEA JUMP JUMPDEST PUSH14 0x1000000000000000000000000000 DUP2 LT ISZERO PUSH2 0x1B84 JUMPI PUSH2 0x1B83 PUSH2 0x3B7F JUMP JUMPDEST JUMPDEST PUSH1 0x0 PUSH15 0x80000000000000000000000000000 DUP3 LT ISZERO PUSH2 0x1BE5 JUMPI PUSH15 0x40000000000000000000000000000 DUP3 LT ISZERO PUSH2 0x1BDA JUMPI PUSH15 0x20000000000000000000000000000 DUP3 LT ISZERO PUSH2 0x1BD2 JUMPI PUSH1 0x70 PUSH2 0x1BD5 JUMP JUMPDEST PUSH1 0x71 JUMPDEST PUSH2 0x1BDD JUMP JUMPDEST PUSH1 0x72 JUMPDEST PUSH1 0xFF AND PUSH2 0x1BEF JUMP JUMPDEST PUSH2 0x1BEE DUP3 PUSH2 0x2AC5 JUMP JUMPDEST JUMPDEST SWAP1 POP PUSH2 0x4071 DUP5 ADD DUP2 DUP7 ADD GT ISZERO PUSH2 0x1C0D JUMPI PUSH2 0x7FFF SWAP5 POP PUSH1 0x0 SWAP2 POP PUSH2 0x1CAA JUMP JUMPDEST DUP4 PUSH2 0x3FFC DUP3 DUP8 ADD ADD LT ISZERO PUSH2 0x1C28 JUMPI PUSH1 0x0 SWAP5 POP PUSH1 0x0 SWAP2 POP PUSH2 0x1CA9 JUMP JUMPDEST DUP4 PUSH2 0x3F8C DUP3 DUP8 ADD ADD LT ISZERO PUSH2 0x1C76 JUMPI DUP4 PUSH2 0x3FFC DUP7 ADD GT ISZERO PUSH2 0x1C53 JUMPI DUP4 PUSH2 0x3FFC DUP7 ADD SUB DUP3 SWAP1 SHL SWAP2 POP PUSH2 0x1C6D JUMP JUMPDEST DUP4 PUSH2 0x3FFC DUP7 ADD LT ISZERO PUSH2 0x1C6C JUMPI PUSH2 0x3FFC DUP6 DUP6 SUB SUB DUP3 SWAP1 SHR SWAP2 POP JUMPDEST JUMPDEST PUSH1 0x0 SWAP5 POP PUSH2 0x1CA8 JUMP JUMPDEST PUSH1 0x70 DUP2 GT ISZERO PUSH2 0x1C89 JUMPI PUSH1 0x70 DUP2 SUB DUP3 SWAP1 SHR SWAP2 POP JUMPDEST PUSH14 0xFFFFFFFFFFFFFFFFFFFFFFFFFFFF DUP3 AND SWAP2 POP DUP4 PUSH2 0x3F8D DUP3 DUP8 ADD ADD SUB SWAP5 POP JUMPDEST JUMPDEST JUMPDEST DUP2 PUSH1 0x70 DUP7 SWAP1 SHL PUSH16 0x80000000000000000000000000000000 PUSH1 0x80 SHL DUP10 DUP12 XOR AND PUSH1 0x80 SHR PUSH16 0xFFFFFFFFFFFFFFFFFFFFFFFFFFFFFFFF AND OR OR PUSH1 0x80 SHL SWAP6 POP POP POP POP POP POP JUMPDEST SWAP3 SWAP2 POP POP JUMP JUMPDEST PUSH1 0x0 DUP1 PUSH2 0x7FFF PUSH1 0x70 DUP6 PUSH1 0x80 SHR PUSH16 0xFFFFFFFFFFFFFFFFFFFFFFFFFFFFFFFF AND SWAP1 SHR AND PUSH16 0xFFFFFFFFFFFFFFFFFFFFFFFFFFFFFFFF AND SWAP1 POP PUSH1 0x0 PUSH2 0x7FFF PUSH1 0x70 DUP6 PUSH1 0x80 SHR PUSH16 0xFFFFFFFFFFFFFFFFFFFFFFFFFFFFFFFF AND SWAP1 SHR AND PUSH16 0xFFFFFFFFFFFFFFFFFFFFFFFFFFFFFFFF AND SWAP1 POP PUSH2 0x7FFF DUP3 EQ ISZERO PUSH2 0x1E87 JUMPI PUSH2 0x7FFF DUP2 EQ ISZERO PUSH2 0x1E15 JUMPI DUP4 PUSH16 0xFFFFFFFFFFFFFFFFFFFFFFFFFFFFFFFF NOT AND DUP6 PUSH16 0xFFFFFFFFFFFFFFFFFFFFFFFFFFFFFFFF NOT AND EQ ISZERO PUSH2 0x1DBC JUMPI PUSH16 0x80000000000000000000000000000000 PUSH1 0x80 SHL DUP5 AND DUP6 XOR SWAP3 POP POP POP PUSH2 0x217F JUMP JUMPDEST PUSH16 0x80000000000000000000000000000000 PUSH1 0x80 SHL DUP5 DUP7 XOR PUSH16 0xFFFFFFFFFFFFFFFFFFFFFFFFFFFFFFFF NOT AND EQ ISZERO PUSH2 0x1DF8 JUMPI DUP4 DUP6 OR SWAP3 POP POP POP PUSH2 0x217F JUMP JUMPDEST PUSH16 0x7FFF8000000000000000000000000000 PUSH1 0x80 SHL SWAP3 POP POP POP PUSH2 0x217F JUMP JUMPDEST PUSH1 0x0 PUSH1 0x80 SHL PUSH16 0x7FFFFFFFFFFFFFFFFFFFFFFFFFFFFFFF PUSH1 0x80 SHL DUP6 AND PUSH16 0xFFFFFFFFFFFFFFFFFFFFFFFFFFFFFFFF NOT AND EQ ISZERO PUSH2 0x1E66 JUMPI PUSH16 0x7FFF8000000000000000000000000000 PUSH1 0x80 SHL SWAP3 POP POP POP PUSH2 0x217F JUMP JUMPDEST PUSH16 0x80000000000000000000000000000000 PUSH1 0x80 SHL DUP5 AND DUP6 XOR SWAP3 POP POP POP PUSH2 0x217F JUMP JUMPDEST PUSH2 0x7FFF DUP2 EQ ISZERO PUSH2 0x1F03 JUMPI PUSH1 0x0 PUSH1 0x80 SHL PUSH16 0x7FFFFFFFFFFFFFFFFFFFFFFFFFFFFFFF PUSH1 0x80 SHL DUP7 AND PUSH16 0xFFFFFFFFFFFFFFFFFFFFFFFFFFFFFFFF NOT AND EQ ISZERO PUSH2 0x1EE2 JUMPI PUSH16 0x7FFF8000000000000000000000000000 PUSH1 0x80 SHL SWAP3 POP POP POP PUSH2 0x217F JUMP JUMPDEST PUSH16 0x80000000000000000000000000000000 PUSH1 0x80 SHL DUP6 AND DUP5 XOR SWAP3 POP POP POP PUSH2 0x217F JUMP JUMPDEST PUSH1 0x0 PUSH14 0xFFFFFFFFFFFFFFFFFFFFFFFFFFFF DUP7 PUSH1 0x80 SHR AND PUSH16 0xFFFFFFFFFFFFFFFFFFFFFFFFFFFFFFFF AND SWAP1 POP PUSH1 0x0 DUP4 EQ ISZERO PUSH2 0x1F3F JUMPI PUSH1 0x1 SWAP3 POP PUSH2 0x1F54 JUMP JUMPDEST PUSH15 0x10000000000000000000000000000 DUP2 OR SWAP1 POP JUMPDEST PUSH1 0x0 PUSH14 0xFFFFFFFFFFFFFFFFFFFFFFFFFFFF DUP7 PUSH1 0x80 SHR AND PUSH16 0xFFFFFFFFFFFFFFFFFFFFFFFFFFFFFFFF AND SWAP1 POP PUSH1 0x0 DUP4 EQ ISZERO PUSH2 0x1F90 JUMPI PUSH1 0x1 SWAP3 POP PUSH2 0x1FA5 JUMP JUMPDEST PUSH15 0x10000000000000000000000000000 DUP2 OR SWAP1 POP JUMPDEST DUP1 DUP3 MUL SWAP2 POP PUSH1 0x0 DUP3 EQ ISZERO PUSH2 0x2012 JUMPI PUSH1 0x0 PUSH1 0x80 SHL PUSH16 0x80000000000000000000000000000000 PUSH1 0x80 SHL DUP8 DUP10 XOR AND PUSH16 0xFFFFFFFFFFFFFFFFFFFFFFFFFFFFFFFF NOT AND GT PUSH2 0x1FF2 JUMPI PUSH1 0x0 PUSH1 0x80 SHL PUSH2 0x2007 JUMP JUMPDEST PUSH16 0x80000000000000000000000000000000 PUSH1 0x80 SHL JUMPDEST SWAP5 POP POP POP POP POP PUSH2 0x217F JUMP JUMPDEST DUP3 DUP5 ADD SWAP4 POP PUSH1 0x0 PUSH29 0x200000000000000000000000000000000000000000000000000000000 DUP4 LT ISZERO PUSH2 0x2079 JUMPI PUSH29 0x100000000000000000000000000000000000000000000000000000000 DUP4 LT ISZERO PUSH2 0x2071 JUMPI PUSH2 0x206C DUP4 PUSH2 0x2AC5 JUMP JUMPDEST PUSH2 0x2074 JUMP JUMPDEST PUSH1 0xE0 JUMPDEST PUSH2 0x207C JUMP JUMPDEST PUSH1 0xE1 JUMPDEST SWAP1 POP PUSH2 0x4070 DUP2 DUP7 ADD LT ISZERO PUSH2 0x2097 JUMPI PUSH1 0x0 SWAP5 POP PUSH1 0x0 SWAP3 POP PUSH2 0x213F JUMP JUMPDEST PUSH2 0x40E0 DUP2 DUP7 ADD LT ISZERO PUSH2 0x20DB JUMPI PUSH2 0x4070 DUP6 LT ISZERO PUSH2 0x20BC JUMPI DUP5 PUSH2 0x4070 SUB DUP4 SWAP1 SHR SWAP3 POP PUSH2 0x20D2 JUMP JUMPDEST PUSH2 0x4070 DUP6 GT ISZERO PUSH2 0x20D1 JUMPI PUSH2 0x4070 DUP6 SUB DUP4 SWAP1 SHL SWAP3 POP JUMPDEST JUMPDEST PUSH1 0x0 SWAP5 POP PUSH2 0x213E JUMP JUMPDEST PUSH2 0xC0DD DUP2 DUP7 ADD GT ISZERO PUSH2 0x20F5 JUMPI PUSH2 0x7FFF SWAP5 POP PUSH1 0x0 SWAP3 POP PUSH2 0x213D JUMP JUMPDEST PUSH1 0x70 DUP2 GT ISZERO PUSH2 0x210C JUMPI PUSH1 0x70 DUP2 SUB DUP4 SWAP1 SHR SWAP3 POP PUSH2 0x2120 JUMP JUMPDEST PUSH1 0x70 DUP2 LT ISZERO PUSH2 0x211F JUMPI DUP1 PUSH1 0x70 SUB DUP4 SWAP1 SHL SWAP3 POP JUMPDEST JUMPDEST PUSH14 0xFFFFFFFFFFFFFFFFFFFFFFFFFFFF DUP4 AND SWAP3 POP PUSH2 0x40DF DUP2 DUP7 ADD SUB SWAP5 POP JUMPDEST JUMPDEST JUMPDEST DUP3 PUSH1 0x70 DUP7 SWAP1 SHL PUSH16 0x80000000000000000000000000000000 PUSH1 0x80 SHL DUP10 DUP12 XOR AND PUSH1 0x80 SHR PUSH16 0xFFFFFFFFFFFFFFFFFFFFFFFFFFFFFFFF AND OR OR PUSH1 0x80 SHL SWAP6 POP POP POP POP POP POP JUMPDEST SWAP3 SWAP2 POP POP JUMP JUMPDEST PUSH1 0x0 PUSH1 0x1 ADD PUSH1 0x0 SWAP1 SLOAD SWAP1 PUSH2 0x100 EXP SWAP1 DIV PUSH20 0xFFFFFFFFFFFFFFFFFFFFFFFFFFFFFFFFFFFFFFFF AND PUSH20 0xFFFFFFFFFFFFFFFFFFFFFFFFFFFFFFFFFFFFFFFF AND CALLER PUSH20 0xFFFFFFFFFFFFFFFFFFFFFFFFFFFFFFFFFFFFFFFF AND EQ PUSH2 0x2218 JUMPI PUSH1 0x40 MLOAD PUSH32 0x8C379A000000000000000000000000000000000000000000000000000000000 DUP2 MSTORE PUSH1 0x4 ADD PUSH2 0x220F SWAP1 PUSH2 0x308F JUMP JUMPDEST PUSH1 0x40 MLOAD DUP1 SWAP2 SUB SWAP1 REVERT JUMPDEST PUSH1 0x0 DUP1 PUSH1 0x2 ADD SLOAD EQ DUP1 ISZERO PUSH2 0x224A JUMPI POP PUSH1 0x0 DUP1 PUSH1 0x7 ADD PUSH1 0x6 SWAP1 SLOAD SWAP1 PUSH2 0x100 EXP SWAP1 DIV PUSH6 0xFFFFFFFFFFFF AND PUSH6 0xFFFFFFFFFFFF AND GT JUMPDEST PUSH2 0x2289 JUMPI PUSH1 0x40 MLOAD PUSH32 0x8C379A000000000000000000000000000000000000000000000000000000000 DUP2 MSTORE PUSH1 0x4 ADD PUSH2 0x2280 SWAP1 PUSH2 0x3C46 JUMP JUMPDEST PUSH1 0x40 MLOAD DUP1 SWAP2 SUB SWAP1 REVERT JUMPDEST PUSH1 0x0 DUP1 PUSH1 0x0 PUSH1 0x1 ADD PUSH1 0x0 SWAP1 SLOAD SWAP1 PUSH2 0x100 EXP SWAP1 DIV PUSH20 0xFFFFFFFFFFFFFFFFFFFFFFFFFFFFFFFFFFFFFFFF AND PUSH20 0xFFFFFFFFFFFFFFFFFFFFFFFFFFFFFFFFFFFFFFFF AND PUSH1 0x8 SLOAD PUSH1 0x40 MLOAD PUSH2 0x22D7 SWAP1 PUSH2 0x3629 JUMP JUMPDEST PUSH1 0x0 PUSH1 0x40 MLOAD DUP1 DUP4 SUB DUP2 DUP6 DUP8 GAS CALL SWAP3 POP POP POP RETURNDATASIZE DUP1 PUSH1 0x0 DUP2 EQ PUSH2 0x2314 JUMPI PUSH1 0x40 MLOAD SWAP2 POP PUSH1 0x1F NOT PUSH1 0x3F RETURNDATASIZE ADD AND DUP3 ADD PUSH1 0x40 MSTORE RETURNDATASIZE DUP3 MSTORE RETURNDATASIZE PUSH1 0x0 PUSH1 0x20 DUP5 ADD RETURNDATACOPY PUSH2 0x2319 JUMP JUMPDEST PUSH1 0x60 SWAP2 POP JUMPDEST POP SWAP2 POP SWAP2 POP DUP2 PUSH2 0x235E JUMPI PUSH1 0x40 MLOAD PUSH32 0x8C379A000000000000000000000000000000000000000000000000000000000 DUP2 MSTORE PUSH1 0x4 ADD PUSH2 0x2355 SWAP1 PUSH2 0x3CB2 JUMP JUMPDEST PUSH1 0x40 MLOAD DUP1 SWAP2 SUB SWAP1 REVERT JUMPDEST POP POP JUMP JUMPDEST PUSH1 0x0 DUP1 PUSH2 0x7FFF PUSH1 0x70 DUP6 PUSH1 0x80 SHR PUSH16 0xFFFFFFFFFFFFFFFFFFFFFFFFFFFFFFFF AND SWAP1 SHR AND PUSH16 0xFFFFFFFFFFFFFFFFFFFFFFFFFFFFFFFF AND SWAP1 POP PUSH1 0x0 PUSH2 0x7FFF PUSH1 0x70 DUP6 PUSH1 0x80 SHR PUSH16 0xFFFFFFFFFFFFFFFFFFFFFFFFFFFFFFFF AND SWAP1 SHR AND PUSH16 0xFFFFFFFFFFFFFFFFFFFFFFFFFFFFFFFF AND SWAP1 POP PUSH2 0x7FFF DUP3 EQ ISZERO PUSH2 0x243E JUMPI PUSH2 0x7FFF DUP2 EQ ISZERO PUSH2 0x2434 JUMPI DUP4 PUSH16 0xFFFFFFFFFFFFFFFFFFFFFFFFFFFFFFFF NOT AND DUP6 PUSH16 0xFFFFFFFFFFFFFFFFFFFFFFFFFFFFFFFF NOT AND EQ ISZERO PUSH2 0x2417 JUMPI DUP5 SWAP3 POP POP POP PUSH2 0x29C1 JUMP JUMPDEST PUSH16 0x7FFF8000000000000000000000000000 PUSH1 0x80 SHL SWAP3 POP POP POP PUSH2 0x29C1 JUMP JUMPDEST DUP5 SWAP3 POP POP POP PUSH2 0x29C1 JUMP JUMPDEST PUSH2 0x7FFF DUP2 EQ ISZERO PUSH2 0x2452 JUMPI DUP4 SWAP3 POP POP POP PUSH2 0x29C1 JUMP JUMPDEST PUSH1 0x0 PUSH16 0x80000000000000000000000000000000 DUP7 PUSH1 0x80 SHR PUSH16 0xFFFFFFFFFFFFFFFFFFFFFFFFFFFFFFFF AND LT ISZERO SWAP1 POP PUSH1 0x0 PUSH14 0xFFFFFFFFFFFFFFFFFFFFFFFFFFFF DUP8 PUSH1 0x80 SHR AND PUSH16 0xFFFFFFFFFFFFFFFFFFFFFFFFFFFFFFFF AND SWAP1 POP PUSH1 0x0 DUP5 EQ ISZERO PUSH2 0x24BB JUMPI PUSH1 0x1 SWAP4 POP PUSH2 0x24D0 JUMP JUMPDEST PUSH15 0x10000000000000000000000000000 DUP2 OR SWAP1 POP JUMPDEST PUSH1 0x0 PUSH16 0x80000000000000000000000000000000 DUP8 PUSH1 0x80 SHR PUSH16 0xFFFFFFFFFFFFFFFFFFFFFFFFFFFFFFFF AND LT ISZERO SWAP1 POP PUSH1 0x0 PUSH14 0xFFFFFFFFFFFFFFFFFFFFFFFFFFFF DUP9 PUSH1 0x80 SHR AND PUSH16 0xFFFFFFFFFFFFFFFFFFFFFFFFFFFFFFFF AND SWAP1 POP PUSH1 0x0 DUP6 EQ ISZERO PUSH2 0x2539 JUMPI PUSH1 0x1 SWAP5 POP PUSH2 0x254E JUMP JUMPDEST PUSH15 0x10000000000000000000000000000 DUP2 OR SWAP1 POP JUMPDEST PUSH1 0x0 DUP4 EQ ISZERO PUSH2 0x25B0 JUMPI PUSH16 0x80000000000000000000000000000000 PUSH1 0x80 SHL PUSH16 0xFFFFFFFFFFFFFFFFFFFFFFFFFFFFFFFF NOT AND DUP9 PUSH16 0xFFFFFFFFFFFFFFFFFFFFFFFFFFFFFFFF NOT AND EQ PUSH2 0x259D JUMPI DUP8 PUSH2 0x25A3 JUMP JUMPDEST PUSH1 0x0 PUSH1 0x80 SHL JUMPDEST SWAP7 POP POP POP POP POP POP POP PUSH2 0x29C1 JUMP JUMPDEST PUSH1 0x0 DUP2 EQ ISZERO PUSH2 0x2612 JUMPI PUSH16 0x80000000000000000000000000000000 PUSH1 0x80 SHL PUSH16 0xFFFFFFFFFFFFFFFFFFFFFFFFFFFFFFFF NOT AND DUP10 PUSH16 0xFFFFFFFFFFFFFFFFFFFFFFFFFFFFFFFF NOT AND EQ PUSH2 0x25FF JUMPI DUP9 PUSH2 0x2605 JUMP JUMPDEST PUSH1 0x0 PUSH1 0x80 SHL JUMPDEST SWAP7 POP POP POP POP POP POP POP PUSH2 0x29C1 JUMP JUMPDEST PUSH1 0x0 DUP6 DUP8 SUB SWAP1 POP DUP3 ISZERO ISZERO DUP6 ISZERO ISZERO EQ ISZERO PUSH2 0x2790 JUMPI PUSH1 0x70 DUP2 SGT ISZERO PUSH2 0x263D JUMPI DUP10 SWAP8 POP POP POP POP POP POP POP POP PUSH2 0x29C1 JUMP JUMPDEST PUSH1 0x0 DUP2 SGT ISZERO PUSH2 0x2651 JUMPI DUP1 DUP3 SWAP1 SHR SWAP2 POP PUSH2 0x269F JUMP JUMPDEST PUSH32 0xFFFFFFFFFFFFFFFFFFFFFFFFFFFFFFFFFFFFFFFFFFFFFFFFFFFFFFFFFFFFFF90 DUP2 SLT ISZERO PUSH2 0x2688 JUMPI DUP9 SWAP8 POP POP POP POP POP POP POP POP PUSH2 0x29C1 JUMP JUMPDEST PUSH1 0x0 DUP2 SLT ISZERO PUSH2 0x269E JUMPI DUP1 PUSH1 0x0 SUB DUP5 SWAP1 SHR SWAP4 POP DUP6 SWAP7 POP JUMPDEST JUMPDEST DUP2 DUP5 ADD SWAP4 POP PUSH15 0x20000000000000000000000000000 DUP5 LT PUSH2 0x26C8 JUMPI PUSH1 0x1 DUP5 SWAP1 SHR SWAP4 POP PUSH1 0x1 DUP8 ADD SWAP7 POP JUMPDEST PUSH2 0x7FFF DUP8 EQ ISZERO PUSH2 0x2713 JUMPI DUP5 PUSH2 0x26F0 JUMPI PUSH16 0x7FFF0000000000000000000000000000 PUSH1 0x80 SHL PUSH2 0x2705 JUMP JUMPDEST PUSH16 0xFFFF0000000000000000000000000000 PUSH1 0x80 SHL JUMPDEST SWAP8 POP POP POP POP POP POP POP POP PUSH2 0x29C1 JUMP JUMPDEST PUSH15 0x10000000000000000000000000000 DUP5 LT ISZERO PUSH2 0x2733 JUMPI PUSH1 0x0 SWAP7 POP PUSH2 0x2747 JUMP JUMPDEST PUSH14 0xFFFFFFFFFFFFFFFFFFFFFFFFFFFF DUP5 AND SWAP4 POP JUMPDEST DUP4 PUSH1 0x70 DUP9 SWAP1 SHL DUP7 PUSH2 0x2759 JUMPI PUSH1 0x0 PUSH2 0x276B JUMP JUMPDEST PUSH16 0x80000000000000000000000000000000 JUMPDEST PUSH16 0xFFFFFFFFFFFFFFFFFFFFFFFFFFFFFFFF AND OR OR PUSH1 0x80 SHL SWAP8 POP POP POP POP POP POP POP POP PUSH2 0x29C1 JUMP JUMPDEST PUSH1 0x0 DUP2 SGT ISZERO PUSH2 0x27AB JUMPI PUSH1 0x1 DUP5 SWAP1 SHL SWAP4 POP PUSH1 0x1 DUP8 SUB SWAP7 POP PUSH2 0x27C3 JUMP JUMPDEST PUSH1 0x0 DUP2 SLT ISZERO PUSH2 0x27C2 JUMPI PUSH1 0x1 DUP3 SWAP1 SHL SWAP2 POP PUSH1 0x1 DUP7 SUB SWAP7 POP JUMPDEST JUMPDEST PUSH1 0x70 DUP2 SGT ISZERO PUSH2 0x27D5 JUMPI PUSH1 0x1 SWAP2 POP PUSH2 0x285F JUMP JUMPDEST PUSH1 0x1 DUP2 SGT ISZERO PUSH2 0x27F1 JUMPI PUSH1 0x1 DUP1 DUP3 SUB PUSH1 0x1 DUP5 SUB SWAP1 SHR ADD SWAP2 POP PUSH2 0x285E JUMP JUMPDEST PUSH32 0xFFFFFFFFFFFFFFFFFFFFFFFFFFFFFFFFFFFFFFFFFFFFFFFFFFFFFFFFFFFFFF90 DUP2 SLT ISZERO PUSH2 0x2822 JUMPI PUSH1 0x1 SWAP4 POP PUSH2 0x285D JUMP JUMPDEST PUSH32 0xFFFFFFFFFFFFFFFFFFFFFFFFFFFFFFFFFFFFFFFFFFFFFFFFFFFFFFFFFFFFFFFF DUP2 SLT ISZERO PUSH2 0x285C JUMPI PUSH1 0x1 DUP1 DUP3 PUSH1 0x0 SUB SUB PUSH1 0x1 DUP7 SUB SWAP1 SHR ADD SWAP4 POP JUMPDEST JUMPDEST JUMPDEST JUMPDEST DUP2 DUP5 LT PUSH2 0x2870 JUMPI DUP2 DUP5 SUB SWAP4 POP PUSH2 0x2879 JUMP JUMPDEST DUP4 DUP3 SUB SWAP4 POP DUP3 SWAP5 POP JUMPDEST PUSH1 0x0 DUP5 EQ ISZERO PUSH2 0x2895 JUMPI PUSH1 0x0 PUSH1 0x80 SHL SWAP8 POP POP POP POP POP POP POP POP PUSH2 0x29C1 JUMP JUMPDEST PUSH1 0x0 PUSH2 0x28A0 DUP6 PUSH2 0x2AC5 JUMP JUMPDEST SWAP1 POP PUSH1 0x71 DUP2 EQ ISZERO PUSH2 0x28CD JUMPI PUSH14 0xFFFFFFFFFFFFFFFFFFFFFFFFFFFF PUSH1 0x1 DUP7 SWAP1 SHR AND SWAP5 POP PUSH1 0x1 DUP9 ADD SWAP8 POP PUSH2 0x292F JUMP JUMPDEST PUSH1 0x70 DUP2 LT ISZERO PUSH2 0x291A JUMPI PUSH1 0x0 DUP2 PUSH1 0x70 SUB SWAP1 POP DUP1 DUP10 GT ISZERO PUSH2 0x2906 JUMPI PUSH14 0xFFFFFFFFFFFFFFFFFFFFFFFFFFFF DUP2 DUP8 SWAP1 SHL AND SWAP6 POP DUP1 DUP10 SUB SWAP9 POP PUSH2 0x2914 JUMP JUMPDEST PUSH1 0x1 DUP10 SUB DUP7 SWAP1 SHL SWAP6 POP PUSH1 0x0 SWAP9 POP JUMPDEST POP PUSH2 0x292E JUMP JUMPDEST PUSH14 0xFFFFFFFFFFFFFFFFFFFFFFFFFFFF DUP6 AND SWAP5 POP JUMPDEST JUMPDEST PUSH2 0x7FFF DUP9 EQ ISZERO PUSH2 0x297B JUMPI DUP6 PUSH2 0x2957 JUMPI PUSH16 0x7FFF0000000000000000000000000000 PUSH1 0x80 SHL PUSH2 0x296C JUMP JUMPDEST PUSH16 0xFFFF0000000000000000000000000000 PUSH1 0x80 SHL JUMPDEST SWAP9 POP POP POP POP POP POP POP POP POP PUSH2 0x29C1 JUMP JUMPDEST DUP5 PUSH1 0x70 DUP10 SWAP1 SHL DUP8 PUSH2 0x298D JUMPI PUSH1 0x0 PUSH2 0x299F JUMP JUMPDEST PUSH16 0x80000000000000000000000000000000 JUMPDEST PUSH16 0xFFFFFFFFFFFFFFFFFFFFFFFFFFFFFFFF AND OR OR PUSH1 0x80 SHL SWAP9 POP POP POP POP POP POP POP POP POP JUMPDEST SWAP3 SWAP2 POP POP JUMP JUMPDEST PUSH1 0x0 DUP1 PUSH2 0x7FFF PUSH1 0x70 DUP5 PUSH1 0x80 SHR PUSH16 0xFFFFFFFFFFFFFFFFFFFFFFFFFFFFFFFF AND SWAP1 SHR AND PUSH16 0xFFFFFFFFFFFFFFFFFFFFFFFFFFFFFFFF AND SWAP1 POP PUSH2 0x3FFF DUP2 LT ISZERO PUSH2 0x2A10 JUMPI PUSH1 0x0 SWAP2 POP POP PUSH2 0x2AC0 JUMP JUMPDEST PUSH16 0x80000000000000000000000000000000 DUP4 PUSH1 0x80 SHR PUSH16 0xFFFFFFFFFFFFFFFFFFFFFFFFFFFFFFFF AND LT PUSH2 0x2A41 JUMPI PUSH1 0x0 DUP1 REVERT JUMPDEST PUSH2 0x40FE DUP2 GT ISZERO PUSH2 0x2A50 JUMPI PUSH1 0x0 DUP1 REVERT JUMPDEST PUSH1 0x0 PUSH15 0x10000000000000000000000000000 PUSH14 0xFFFFFFFFFFFFFFFFFFFFFFFFFFFF DUP6 PUSH1 0x80 SHR PUSH16 0xFFFFFFFFFFFFFFFFFFFFFFFFFFFFFFFF AND AND OR SWAP1 POP PUSH2 0x406F DUP3 LT ISZERO PUSH2 0x2AA4 JUMPI DUP2 PUSH2 0x406F SUB DUP2 SWAP1 SHR SWAP1 POP PUSH2 0x2ABA JUMP JUMPDEST PUSH2 0x406F DUP3 GT ISZERO PUSH2 0x2AB9 JUMPI PUSH2 0x406F DUP3 SUB DUP2 SWAP1 SHL SWAP1 POP JUMPDEST JUMPDEST DUP1 SWAP3 POP POP POP JUMPDEST SWAP2 SWAP1 POP JUMP JUMPDEST PUSH1 0x0 DUP1 DUP3 GT PUSH2 0x2AD3 JUMPI PUSH1 0x0 DUP1 REVERT JUMPDEST PUSH1 0x0 PUSH17 0x100000000000000000000000000000000 DUP4 LT PUSH2 0x2AFB JUMPI PUSH1 0x80 DUP4 SWAP1 SHR SWAP3 POP PUSH1 0x80 DUP2 ADD SWAP1 POP JUMPDEST PUSH9 0x10000000000000000 DUP4 LT PUSH2 0x2B19 JUMPI PUSH1 0x40 DUP4 SWAP1 SHR SWAP3 POP PUSH1 0x40 DUP2 ADD SWAP1 POP JUMPDEST PUSH5 0x100000000 DUP4 LT PUSH2 0x2B33 JUMPI PUSH1 0x20 DUP4 SWAP1 SHR SWAP3 POP PUSH1 0x20 DUP2 ADD SWAP1 POP JUMPDEST PUSH3 0x10000 DUP4 LT PUSH2 0x2B4B JUMPI PUSH1 0x10 DUP4 SWAP1 SHR SWAP3 POP PUSH1 0x10 DUP2 ADD SWAP1 POP JUMPDEST PUSH2 0x100 DUP4 LT PUSH2 0x2B62 JUMPI PUSH1 0x8 DUP4 SWAP1 SHR SWAP3 POP PUSH1 0x8 DUP2 ADD SWAP1 POP JUMPDEST PUSH1 0x10 DUP4 LT PUSH2 0x2B78 JUMPI PUSH1 0x4 DUP4 SWAP1 SHR SWAP3 POP PUSH1 0x4 DUP2 ADD SWAP1 POP JUMPDEST PUSH1 0x4 DUP4 LT PUSH2 0x2B8E JUMPI PUSH1 0x2 DUP4 SWAP1 SHR SWAP3 POP PUSH1 0x2 DUP2 ADD SWAP1 POP JUMPDEST PUSH1 0x2 DUP4 LT PUSH2 0x2B9D JUMPI PUSH1 0x1 DUP2 ADD SWAP1 POP JUMPDEST DUP1 SWAP2 POP POP SWAP2 SWAP1 POP JUMP JUMPDEST PUSH1 0x40 MLOAD DUP1 PUSH2 0x1A0 ADD PUSH1 0x40 MSTORE DUP1 PUSH1 0x0 PUSH20 0xFFFFFFFFFFFFFFFFFFFFFFFFFFFFFFFFFFFFFFFF AND DUP2 MSTORE PUSH1 0x20 ADD PUSH1 0x0 PUSH20 0xFFFFFFFFFFFFFFFFFFFFFFFFFFFFFFFFFFFFFFFF AND DUP2 MSTORE PUSH1 0x20 ADD PUSH1 0x0 DUP2 MSTORE PUSH1 0x20 ADD PUSH1 0x0 DUP2 MSTORE PUSH1 0x20 ADD PUSH1 0x0 DUP2 MSTORE PUSH1 0x20 ADD PUSH1 0x0 DUP2 MSTORE PUSH1 0x20 ADD PUSH1 0x0 DUP2 MSTORE PUSH1 0x20 ADD PUSH1 0x0 PUSH6 0xFFFFFFFFFFFF AND DUP2 MSTORE PUSH1 0x20 ADD PUSH1 0x0 PUSH6 0xFFFFFFFFFFFF AND DUP2 MSTORE PUSH1 0x20 ADD PUSH1 0x0 PUSH6 0xFFFFFFFFFFFF AND DUP2 MSTORE PUSH1 0x20 ADD PUSH1 0x0 PUSH6 0xFFFFFFFFFFFF AND DUP2 MSTORE PUSH1 0x20 ADD PUSH1 0x0 PUSH6 0xFFFFFFFFFFFF AND DUP2 MSTORE PUSH1 0x20 ADD PUSH1 0x0 ISZERO ISZERO DUP2 MSTORE POP SWAP1 JUMP JUMPDEST PUSH1 0x0 DUP2 SWAP1 POP SWAP2 SWAP1 POP JUMP JUMPDEST PUSH2 0x2C77 DUP2 PUSH2 0x2C64 JUMP JUMPDEST DUP3 MSTORE POP POP JUMP JUMPDEST PUSH1 0x0 PUSH1 0x20 DUP3 ADD SWAP1 POP PUSH2 0x2C92 PUSH1 0x0 DUP4 ADD DUP5 PUSH2 0x2C6E JUMP JUMPDEST SWAP3 SWAP2 POP POP JUMP JUMPDEST PUSH1 0x0 DUP1 REVERT JUMPDEST PUSH1 0x0 PUSH20 0xFFFFFFFFFFFFFFFFFFFFFFFFFFFFFFFFFFFFFFFF DUP3 AND SWAP1 POP SWAP2 SWAP1 POP JUMP JUMPDEST PUSH1 0x0 PUSH2 0x2CC8 DUP3 PUSH2 0x2C9D JUMP JUMPDEST SWAP1 POP SWAP2 SWAP1 POP JUMP JUMPDEST PUSH2 0x2CD8 DUP2 PUSH2 0x2CBD JUMP JUMPDEST DUP2 EQ PUSH2 0x2CE3 JUMPI PUSH1 0x0 DUP1 REVERT JUMPDEST POP JUMP JUMPDEST PUSH1 0x0 DUP2 CALLDATALOAD SWAP1 POP PUSH2 0x2CF5 DUP2 PUSH2 0x2CCF JUMP JUMPDEST SWAP3 SWAP2 POP POP JUMP JUMPDEST PUSH1 0x0 PUSH6 0xFFFFFFFFFFFF DUP3 AND SWAP1 POP SWAP2 SWAP1 POP JUMP JUMPDEST PUSH2 0x2D16 DUP2 PUSH2 0x2CFB JUMP JUMPDEST DUP2 EQ PUSH2 0x2D21 JUMPI PUSH1 0x0 DUP1 REVERT JUMPDEST POP JUMP JUMPDEST PUSH1 0x0 DUP2 CALLDATALOAD SWAP1 POP PUSH2 0x2D33 DUP2 PUSH2 0x2D0D JUMP JUMPDEST SWAP3 SWAP2 POP POP JUMP JUMPDEST PUSH2 0x2D42 DUP2 PUSH2 0x2C64 JUMP JUMPDEST DUP2 EQ PUSH2 0x2D4D JUMPI PUSH1 0x0 DUP1 REVERT JUMPDEST POP JUMP JUMPDEST PUSH1 0x0 DUP2 CALLDATALOAD SWAP1 POP PUSH2 0x2D5F DUP2 PUSH2 0x2D39 JUMP JUMPDEST SWAP3 SWAP2 POP POP JUMP JUMPDEST PUSH1 0x0 DUP2 ISZERO ISZERO SWAP1 POP SWAP2 SWAP1 POP JUMP JUMPDEST PUSH2 0x2D7A DUP2 PUSH2 0x2D65 JUMP JUMPDEST DUP2 EQ PUSH2 0x2D85 JUMPI PUSH1 0x0 DUP1 REVERT JUMPDEST POP JUMP JUMPDEST PUSH1 0x0 DUP2 CALLDATALOAD SWAP1 POP PUSH2 0x2D97 DUP2 PUSH2 0x2D71 JUMP JUMPDEST SWAP3 SWAP2 POP POP JUMP JUMPDEST PUSH1 0x0 DUP1 PUSH1 0x0 DUP1 PUSH1 0x0 DUP1 PUSH1 0x0 DUP1 PUSH1 0x0 DUP1 PUSH2 0x140 DUP12 DUP14 SUB SLT ISZERO PUSH2 0x2DC1 JUMPI PUSH2 0x2DC0 PUSH2 0x2C98 JUMP JUMPDEST JUMPDEST PUSH1 0x0 PUSH2 0x2DCF DUP14 DUP3 DUP15 ADD PUSH2 0x2CE6 JUMP JUMPDEST SWAP11 POP POP PUSH1 0x20 PUSH2 0x2DE0 DUP14 DUP3 DUP15 ADD PUSH2 0x2D24 JUMP JUMPDEST SWAP10 POP POP PUSH1 0x40 PUSH2 0x2DF1 DUP14 DUP3 DUP15 ADD PUSH2 0x2D50 JUMP JUMPDEST SWAP9 POP POP PUSH1 0x60 PUSH2 0x2E02 DUP14 DUP3 DUP15 ADD PUSH2 0x2D50 JUMP JUMPDEST SWAP8 POP POP PUSH1 0x80 PUSH2 0x2E13 DUP14 DUP3 DUP15 ADD PUSH2 0x2D50 JUMP JUMPDEST SWAP7 POP POP PUSH1 0xA0 PUSH2 0x2E24 DUP14 DUP3 DUP15 ADD PUSH2 0x2D24 JUMP JUMPDEST SWAP6 POP POP PUSH1 0xC0 PUSH2 0x2E35 DUP14 DUP3 DUP15 ADD PUSH2 0x2D88 JUMP JUMPDEST SWAP5 POP POP PUSH1 0xE0 PUSH2 0x2E46 DUP14 DUP3 DUP15 ADD PUSH2 0x2D50 JUMP JUMPDEST SWAP4 POP POP PUSH2 0x100 PUSH2 0x2E58 DUP14 DUP3 DUP15 ADD PUSH2 0x2D24 JUMP JUMPDEST SWAP3 POP POP PUSH2 0x120 PUSH2 0x2E6A DUP14 DUP3 DUP15 ADD PUSH2 0x2D24 JUMP JUMPDEST SWAP2 POP POP SWAP3 SWAP6 SWAP9 SWAP12 SWAP2 SWAP5 SWAP8 SWAP11 POP SWAP3 SWAP6 SWAP9 POP JUMP JUMPDEST PUSH2 0x2E85 DUP2 PUSH2 0x2CBD JUMP JUMPDEST DUP3 MSTORE POP POP JUMP JUMPDEST PUSH2 0x2E94 DUP2 PUSH2 0x2C64 JUMP JUMPDEST DUP3 MSTORE POP POP JUMP JUMPDEST PUSH2 0x2EA3 DUP2 PUSH2 0x2CFB JUMP JUMPDEST DUP3 MSTORE POP POP JUMP JUMPDEST PUSH2 0x2EB2 DUP2 PUSH2 0x2D65 JUMP JUMPDEST DUP3 MSTORE POP POP JUMP JUMPDEST PUSH2 0x1A0 DUP3 ADD PUSH1 0x0 DUP3 ADD MLOAD PUSH2 0x2ECF PUSH1 0x0 DUP6 ADD DUP3 PUSH2 0x2E7C JUMP JUMPDEST POP PUSH1 0x20 DUP3 ADD MLOAD PUSH2 0x2EE2 PUSH1 0x20 DUP6 ADD DUP3 PUSH2 0x2E7C JUMP JUMPDEST POP PUSH1 0x40 DUP3 ADD MLOAD PUSH2 0x2EF5 PUSH1 0x40 DUP6 ADD DUP3 PUSH2 0x2E8B JUMP JUMPDEST POP PUSH1 0x60 DUP3 ADD MLOAD PUSH2 0x2F08 PUSH1 0x60 DUP6 ADD DUP3 PUSH2 0x2E8B JUMP JUMPDEST POP PUSH1 0x80 DUP3 ADD MLOAD PUSH2 0x2F1B PUSH1 0x80 DUP6 ADD DUP3 PUSH2 0x2E8B JUMP JUMPDEST POP PUSH1 0xA0 DUP3 ADD MLOAD PUSH2 0x2F2E PUSH1 0xA0 DUP6 ADD DUP3 PUSH2 0x2E8B JUMP JUMPDEST POP PUSH1 0xC0 DUP3 ADD MLOAD PUSH2 0x2F41 PUSH1 0xC0 DUP6 ADD DUP3 PUSH2 0x2E8B JUMP JUMPDEST POP PUSH1 0xE0 DUP3 ADD MLOAD PUSH2 0x2F54 PUSH1 0xE0 DUP6 ADD DUP3 PUSH2 0x2E9A JUMP JUMPDEST POP PUSH2 0x100 DUP3 ADD MLOAD PUSH2 0x2F69 PUSH2 0x100 DUP6 ADD DUP3 PUSH2 0x2E9A JUMP JUMPDEST POP PUSH2 0x120 DUP3 ADD MLOAD PUSH2 0x2F7E PUSH2 0x120 DUP6 ADD DUP3 PUSH2 0x2E9A JUMP JUMPDEST POP PUSH2 0x140 DUP3 ADD MLOAD PUSH2 0x2F93 PUSH2 0x140 DUP6 ADD DUP3 PUSH2 0x2E9A JUMP JUMPDEST POP PUSH2 0x160 DUP3 ADD MLOAD PUSH2 0x2FA8 PUSH2 0x160 DUP6 ADD DUP3 PUSH2 0x2E9A JUMP JUMPDEST POP PUSH2 0x180 DUP3 ADD MLOAD PUSH2 0x2FBD PUSH2 0x180 DUP6 ADD DUP3 PUSH2 0x2EA9 JUMP JUMPDEST POP POP POP POP JUMP JUMPDEST PUSH1 0x0 PUSH2 0x1A0 DUP3 ADD SWAP1 POP PUSH2 0x2FD9 PUSH1 0x0 DUP4 ADD DUP5 PUSH2 0x2EB8 JUMP JUMPDEST SWAP3 SWAP2 POP POP JUMP JUMPDEST PUSH1 0x0 PUSH1 0x20 DUP3 DUP5 SUB SLT ISZERO PUSH2 0x2FF5 JUMPI PUSH2 0x2FF4 PUSH2 0x2C98 JUMP JUMPDEST JUMPDEST PUSH1 0x0 PUSH2 0x3003 DUP5 DUP3 DUP6 ADD PUSH2 0x2CE6 JUMP JUMPDEST SWAP2 POP POP SWAP3 SWAP2 POP POP JUMP JUMPDEST PUSH1 0x0 DUP3 DUP3 MSTORE PUSH1 0x20 DUP3 ADD SWAP1 POP SWAP3 SWAP2 POP POP JUMP JUMPDEST PUSH32 0x4F6E6C792074686520626F72726F776572206F662074686520636F6E74726163 PUSH1 0x0 DUP3 ADD MSTORE PUSH32 0x742063616E20706572666F726D2074686973206F7065726174696F6E00000000 PUSH1 0x20 DUP3 ADD MSTORE POP JUMP JUMPDEST PUSH1 0x0 PUSH2 0x3079 PUSH1 0x3C DUP4 PUSH2 0x300C JUMP JUMPDEST SWAP2 POP PUSH2 0x3084 DUP3 PUSH2 0x301D JUMP JUMPDEST PUSH1 0x40 DUP3 ADD SWAP1 POP SWAP2 SWAP1 POP JUMP JUMPDEST PUSH1 0x0 PUSH1 0x20 DUP3 ADD SWAP1 POP DUP2 DUP2 SUB PUSH1 0x0 DUP4 ADD MSTORE PUSH2 0x30A8 DUP2 PUSH2 0x306C JUMP JUMPDEST SWAP1 POP SWAP2 SWAP1 POP JUMP JUMPDEST PUSH32 0x4E6F20636F6C6C61746572616C206973206E656365737361727920666F722074 PUSH1 0x0 DUP3 ADD MSTORE PUSH32 0x686973206C6F616E000000000000000000000000000000000000000000000000 PUSH1 0x20 DUP3 ADD MSTORE POP JUMP JUMPDEST PUSH1 0x0 PUSH2 0x310B PUSH1 0x28 DUP4 PUSH2 0x300C JUMP JUMPDEST SWAP2 POP PUSH2 0x3116 DUP3 PUSH2 0x30AF JUMP JUMPDEST PUSH1 0x40 DUP3 ADD SWAP1 POP SWAP2 SWAP1 POP JUMP JUMPDEST PUSH1 0x0 PUSH1 0x20 DUP3 ADD SWAP1 POP DUP2 DUP2 SUB PUSH1 0x0 DUP4 ADD MSTORE PUSH2 0x313A DUP2 PUSH2 0x30FE JUMP JUMPDEST SWAP1 POP SWAP2 SWAP1 POP JUMP JUMPDEST PUSH32 0x4C6F616E206D7573742062652066756E646564206265666F726520636F6C6C61 PUSH1 0x0 DUP3 ADD MSTORE PUSH32 0x746572616C20697320616C6C6F63617465640000000000000000000000000000 PUSH1 0x20 DUP3 ADD MSTORE POP JUMP JUMPDEST PUSH1 0x0 PUSH2 0x319D PUSH1 0x32 DUP4 PUSH2 0x300C JUMP JUMPDEST SWAP2 POP PUSH2 0x31A8 DUP3 PUSH2 0x3141 JUMP JUMPDEST PUSH1 0x40 DUP3 ADD SWAP1 POP SWAP2 SWAP1 POP JUMP JUMPDEST PUSH1 0x0 PUSH1 0x20 DUP3 ADD SWAP1 POP DUP2 DUP2 SUB PUSH1 0x0 DUP4 ADD MSTORE PUSH2 0x31CC DUP2 PUSH2 0x3190 JUMP JUMPDEST SWAP1 POP SWAP2 SWAP1 POP JUMP JUMPDEST PUSH32 0x436F6C6C61746572616C20616C6C6F6361746564206D75737420626520677265 PUSH1 0x0 DUP3 ADD MSTORE PUSH32 0x61746572207468616E206F7220657175616C20746F2074686520636F6C6C6174 PUSH1 0x20 DUP3 ADD MSTORE PUSH32 0x6572616C20726571756972656D656E74202A20696E697469616C207072696E63 PUSH1 0x40 DUP3 ADD MSTORE PUSH32 0x6970616C206F6620746865206C6F616E00000000000000000000000000000000 PUSH1 0x60 DUP3 ADD MSTORE POP JUMP JUMPDEST PUSH1 0x0 PUSH2 0x327B PUSH1 0x70 DUP4 PUSH2 0x300C JUMP JUMPDEST SWAP2 POP PUSH2 0x3286 DUP3 PUSH2 0x31D3 JUMP JUMPDEST PUSH1 0x80 DUP3 ADD SWAP1 POP SWAP2 SWAP1 POP JUMP JUMPDEST PUSH1 0x0 PUSH1 0x20 DUP3 ADD SWAP1 POP DUP2 DUP2 SUB PUSH1 0x0 DUP4 ADD MSTORE PUSH2 0x32AA DUP2 PUSH2 0x326E JUMP JUMPDEST SWAP1 POP SWAP2 SWAP1 POP JUMP JUMPDEST PUSH32 0x4E487B7100000000000000000000000000000000000000000000000000000000 PUSH1 0x0 MSTORE PUSH1 0x11 PUSH1 0x4 MSTORE PUSH1 0x24 PUSH1 0x0 REVERT JUMPDEST PUSH1 0x0 PUSH2 0x32EB DUP3 PUSH2 0x2C64 JUMP JUMPDEST SWAP2 POP PUSH2 0x32F6 DUP4 PUSH2 0x2C64 JUMP JUMPDEST SWAP3 POP DUP3 PUSH32 0xFFFFFFFFFFFFFFFFFFFFFFFFFFFFFFFFFFFFFFFFFFFFFFFFFFFFFFFFFFFFFFFF SUB DUP3 GT ISZERO PUSH2 0x332B JUMPI PUSH2 0x332A PUSH2 0x32B1 JUMP JUMPDEST JUMPDEST DUP3 DUP3 ADD SWAP1 POP SWAP3 SWAP2 POP POP JUMP JUMPDEST PUSH32 0x4F6E6C7920746865206F776E6572206F662074686520636F6E74726163742063 PUSH1 0x0 DUP3 ADD MSTORE PUSH32 0x616E20706572666F726D2074686973206F7065726174696F6E00000000000000 PUSH1 0x20 DUP3 ADD MSTORE POP JUMP JUMPDEST PUSH1 0x0 PUSH2 0x3392 PUSH1 0x39 DUP4 PUSH2 0x300C JUMP JUMPDEST SWAP2 POP PUSH2 0x339D DUP3 PUSH2 0x3336 JUMP JUMPDEST PUSH1 0x40 DUP3 ADD SWAP1 POP SWAP2 SWAP1 POP JUMP JUMPDEST PUSH1 0x0 PUSH1 0x20 DUP3 ADD SWAP1 POP DUP2 DUP2 SUB PUSH1 0x0 DUP4 ADD MSTORE PUSH2 0x33C1 DUP2 PUSH2 0x3385 JUMP JUMPDEST SWAP1 POP SWAP2 SWAP1 POP JUMP JUMPDEST PUSH32 0x5465726D732063616E6E6F74206265206368616E676564206166746572206C6F PUSH1 0x0 DUP3 ADD MSTORE PUSH32 0x616E20686173206265656E206973737565640000000000000000000000000000 PUSH1 0x20 DUP3 ADD MSTORE POP JUMP JUMPDEST PUSH1 0x0 PUSH2 0x3424 PUSH1 0x32 DUP4 PUSH2 0x300C JUMP JUMPDEST SWAP2 POP PUSH2 0x342F DUP3 PUSH2 0x33C8 JUMP JUMPDEST PUSH1 0x40 DUP3 ADD SWAP1 POP SWAP2 SWAP1 POP JUMP JUMPDEST PUSH1 0x0 PUSH1 0x20 DUP3 ADD SWAP1 POP DUP2 DUP2 SUB PUSH1 0x0 DUP4 ADD MSTORE PUSH2 0x3453 DUP2 PUSH2 0x3417 JUMP JUMPDEST SWAP1 POP SWAP2 SWAP1 POP JUMP JUMPDEST PUSH32 0x7465726D206D7573742062652067726561746572207468616E207A65726F0000 PUSH1 0x0 DUP3 ADD MSTORE POP JUMP JUMPDEST PUSH1 0x0 PUSH2 0x3490 PUSH1 0x1E DUP4 PUSH2 0x300C JUMP JUMPDEST SWAP2 POP PUSH2 0x349B DUP3 PUSH2 0x345A JUMP JUMPDEST PUSH1 0x20 DUP3 ADD SWAP1 POP SWAP2 SWAP1 POP JUMP JUMPDEST PUSH1 0x0 PUSH1 0x20 DUP3 ADD SWAP1 POP DUP2 DUP2 SUB PUSH1 0x0 DUP4 ADD MSTORE PUSH2 0x34BF DUP2 PUSH2 0x3483 JUMP JUMPDEST SWAP1 POP SWAP2 SWAP1 POP JUMP JUMPDEST PUSH32 0x436F6E74726163742062616C616E636520697320302C20746865726520697320 PUSH1 0x0 DUP3 ADD MSTORE PUSH32 0x6E6F7468696E6720617661696C61626C6520746F207769746864726177000000 PUSH1 0x20 DUP3 ADD MSTORE POP JUMP JUMPDEST PUSH1 0x0 PUSH2 0x3522 PUSH1 0x3D DUP4 PUSH2 0x300C JUMP JUMPDEST SWAP2 POP PUSH2 0x352D DUP3 PUSH2 0x34C6 JUMP JUMPDEST PUSH1 0x40 DUP3 ADD SWAP1 POP SWAP2 SWAP1 POP JUMP JUMPDEST PUSH1 0x0 PUSH1 0x20 DUP3 ADD SWAP1 POP DUP2 DUP2 SUB PUSH1 0x0 DUP4 ADD MSTORE PUSH2 0x3551 DUP2 PUSH2 0x3515 JUMP JUMPDEST SWAP1 POP SWAP2 SWAP1 POP JUMP JUMPDEST PUSH1 0x0 PUSH2 0x3563 DUP3 PUSH2 0x2C64 JUMP JUMPDEST SWAP2 POP PUSH2 0x356E DUP4 PUSH2 0x2C64 JUMP JUMPDEST SWAP3 POP DUP3 DUP3 LT ISZERO PUSH2 0x3581 JUMPI PUSH2 0x3580 PUSH2 0x32B1 JUMP JUMPDEST JUMPDEST DUP3 DUP3 SUB SWAP1 POP SWAP3 SWAP2 POP POP JUMP JUMPDEST PUSH32 0x5468657265206973206E6F2076616C756520746F207769746864726177000000 PUSH1 0x0 DUP3 ADD MSTORE POP JUMP JUMPDEST PUSH1 0x0 PUSH2 0x35C2 PUSH1 0x1D DUP4 PUSH2 0x300C JUMP JUMPDEST SWAP2 POP PUSH2 0x35CD DUP3 PUSH2 0x358C JUMP JUMPDEST PUSH1 0x20 DUP3 ADD SWAP1 POP SWAP2 SWAP1 POP JUMP JUMPDEST PUSH1 0x0 PUSH1 0x20 DUP3 ADD SWAP1 POP DUP2 DUP2 SUB PUSH1 0x0 DUP4 ADD MSTORE PUSH2 0x35F1 DUP2 PUSH2 0x35B5 JUMP JUMPDEST SWAP1 POP SWAP2 SWAP1 POP JUMP JUMPDEST PUSH1 0x0 DUP2 SWAP1 POP SWAP3 SWAP2 POP POP JUMP JUMPDEST POP JUMP JUMPDEST PUSH1 0x0 PUSH2 0x3613 PUSH1 0x0 DUP4 PUSH2 0x35F8 JUMP JUMPDEST SWAP2 POP PUSH2 0x361E DUP3 PUSH2 0x3603 JUMP JUMPDEST PUSH1 0x0 DUP3 ADD SWAP1 POP SWAP2 SWAP1 POP JUMP JUMPDEST PUSH1 0x0 PUSH2 0x3634 DUP3 PUSH2 0x3606 JUMP JUMPDEST SWAP2 POP DUP2 SWAP1 POP SWAP2 SWAP1 POP JUMP JUMPDEST PUSH32 0x4661696C656420746F2077697468647261770000000000000000000000000000 PUSH1 0x0 DUP3 ADD MSTORE POP JUMP JUMPDEST PUSH1 0x0 PUSH2 0x3674 PUSH1 0x12 DUP4 PUSH2 0x300C JUMP JUMPDEST SWAP2 POP PUSH2 0x367F DUP3 PUSH2 0x363E JUMP JUMPDEST PUSH1 0x20 DUP3 ADD SWAP1 POP SWAP2 SWAP1 POP JUMP JUMPDEST PUSH1 0x0 PUSH1 0x20 DUP3 ADD SWAP1 POP DUP2 DUP2 SUB PUSH1 0x0 DUP4 ADD MSTORE PUSH2 0x36A3 DUP2 PUSH2 0x3667 JUMP JUMPDEST SWAP1 POP SWAP2 SWAP1 POP JUMP JUMPDEST PUSH32 0x4120626F72726F776572206D7573742062652061737369676E6564206265666F PUSH1 0x0 DUP3 ADD MSTORE PUSH32 0x72652069737375696E67206C6F616E0000000000000000000000000000000000 PUSH1 0x20 DUP3 ADD MSTORE POP JUMP JUMPDEST PUSH1 0x0 PUSH2 0x3706 PUSH1 0x2F DUP4 PUSH2 0x300C JUMP JUMPDEST SWAP2 POP PUSH2 0x3711 DUP3 PUSH2 0x36AA JUMP JUMPDEST PUSH1 0x40 DUP3 ADD SWAP1 POP SWAP2 SWAP1 POP JUMP JUMPDEST PUSH1 0x0 PUSH1 0x20 DUP3 ADD SWAP1 POP DUP2 DUP2 SUB PUSH1 0x0 DUP4 ADD MSTORE PUSH2 0x3735 DUP2 PUSH2 0x36F9 JUMP JUMPDEST SWAP1 POP SWAP2 SWAP1 POP JUMP JUMPDEST PUSH32 0x4C6F616E206D7573742062652066756E646564206265666F7265206973737569 PUSH1 0x0 DUP3 ADD MSTORE PUSH32 0x6E67000000000000000000000000000000000000000000000000000000000000 PUSH1 0x20 DUP3 ADD MSTORE POP JUMP JUMPDEST PUSH1 0x0 PUSH2 0x3798 PUSH1 0x22 DUP4 PUSH2 0x300C JUMP JUMPDEST SWAP2 POP PUSH2 0x37A3 DUP3 PUSH2 0x373C JUMP JUMPDEST PUSH1 0x40 DUP3 ADD SWAP1 POP SWAP2 SWAP1 POP JUMP JUMPDEST PUSH1 0x0 PUSH1 0x20 DUP3 ADD SWAP1 POP DUP2 DUP2 SUB PUSH1 0x0 DUP4 ADD MSTORE PUSH2 0x37C7 DUP2 PUSH2 0x378B JUMP JUMPDEST SWAP1 POP SWAP2 SWAP1 POP JUMP JUMPDEST PUSH32 0x436F6C6C61746572616C206D75737420626520616C6C6F636174656420626566 PUSH1 0x0 DUP3 ADD MSTORE PUSH32 0x6F72652069737375696E67206C6F616E00000000000000000000000000000000 PUSH1 0x20 DUP3 ADD MSTORE POP JUMP JUMPDEST PUSH1 0x0 PUSH2 0x382A PUSH1 0x30 DUP4 PUSH2 0x300C JUMP JUMPDEST SWAP2 POP PUSH2 0x3835 DUP3 PUSH2 0x37CE JUMP JUMPDEST PUSH1 0x40 DUP3 ADD SWAP1 POP SWAP2 SWAP1 POP JUMP JUMPDEST PUSH1 0x0 PUSH1 0x20 DUP3 ADD SWAP1 POP DUP2 DUP2 SUB PUSH1 0x0 DUP4 ADD MSTORE PUSH2 0x3859 DUP2 PUSH2 0x381D JUMP JUMPDEST SWAP1 POP SWAP2 SWAP1 POP JUMP JUMPDEST PUSH32 0x4661696C656420746F2073656E64207061796D656E7400000000000000000000 PUSH1 0x0 DUP3 ADD MSTORE POP JUMP JUMPDEST PUSH1 0x0 PUSH2 0x3896 PUSH1 0x16 DUP4 PUSH2 0x300C JUMP JUMPDEST SWAP2 POP PUSH2 0x38A1 DUP3 PUSH2 0x3860 JUMP JUMPDEST PUSH1 0x20 DUP3 ADD SWAP1 POP SWAP2 SWAP1 POP JUMP JUMPDEST PUSH1 0x0 PUSH1 0x20 DUP3 ADD SWAP1 POP DUP2 DUP2 SUB PUSH1 0x0 DUP4 ADD MSTORE PUSH2 0x38C5 DUP2 PUSH2 0x3889 JUMP JUMPDEST SWAP1 POP SWAP2 SWAP1 POP JUMP JUMPDEST PUSH1 0x0 PUSH2 0x38D7 DUP3 PUSH2 0x2CFB JUMP JUMPDEST SWAP2 POP PUSH2 0x38E2 DUP4 PUSH2 0x2CFB JUMP JUMPDEST SWAP3 POP DUP3 PUSH6 0xFFFFFFFFFFFF SUB DUP3 GT ISZERO PUSH2 0x38FD JUMPI PUSH2 0x38FC PUSH2 0x32B1 JUMP JUMPDEST JUMPDEST DUP3 DUP3 ADD SWAP1 POP SWAP3 SWAP2 POP POP JUMP JUMPDEST PUSH32 0x436F6C6C61746572616C2063616E206F6E6C79206265207365697A6564206F6E PUSH1 0x0 DUP3 ADD MSTORE PUSH32 0x6365206C6F616E20697320696E2064656661756C740000000000000000000000 PUSH1 0x20 DUP3 ADD MSTORE POP JUMP JUMPDEST PUSH1 0x0 PUSH2 0x3964 PUSH1 0x35 DUP4 PUSH2 0x300C JUMP JUMPDEST SWAP2 POP PUSH2 0x396F DUP3 PUSH2 0x3908 JUMP JUMPDEST PUSH1 0x40 DUP3 ADD SWAP1 POP SWAP2 SWAP1 POP JUMP JUMPDEST PUSH1 0x0 PUSH1 0x20 DUP3 ADD SWAP1 POP DUP2 DUP2 SUB PUSH1 0x0 DUP4 ADD MSTORE PUSH2 0x3993 DUP2 PUSH2 0x3957 JUMP JUMPDEST SWAP1 POP SWAP2 SWAP1 POP JUMP JUMPDEST PUSH32 0x54686572652069732063757272656E746C79206E6F20636F6C6C61746572616C PUSH1 0x0 DUP3 ADD MSTORE PUSH32 0x20746F207365697A650000000000000000000000000000000000000000000000 PUSH1 0x20 DUP3 ADD MSTORE POP JUMP JUMPDEST PUSH1 0x0 PUSH2 0x39F6 PUSH1 0x29 DUP4 PUSH2 0x300C JUMP JUMPDEST SWAP2 POP PUSH2 0x3A01 DUP3 PUSH2 0x399A JUMP JUMPDEST PUSH1 0x40 DUP3 ADD SWAP1 POP SWAP2 SWAP1 POP JUMP JUMPDEST PUSH1 0x0 PUSH1 0x20 DUP3 ADD SWAP1 POP DUP2 DUP2 SUB PUSH1 0x0 DUP4 ADD MSTORE PUSH2 0x3A25 DUP2 PUSH2 0x39E9 JUMP JUMPDEST SWAP1 POP SWAP2 SWAP1 POP JUMP JUMPDEST PUSH32 0x56616C7565206D7573742062652067726561746572207468616E203000000000 PUSH1 0x0 DUP3 ADD MSTORE POP JUMP JUMPDEST PUSH1 0x0 PUSH2 0x3A62 PUSH1 0x1C DUP4 PUSH2 0x300C JUMP JUMPDEST SWAP2 POP PUSH2 0x3A6D DUP3 PUSH2 0x3A2C JUMP JUMPDEST PUSH1 0x20 DUP3 ADD SWAP1 POP SWAP2 SWAP1 POP JUMP JUMPDEST PUSH1 0x0 PUSH1 0x20 DUP3 ADD SWAP1 POP DUP2 DUP2 SUB PUSH1 0x0 DUP4 ADD MSTORE PUSH2 0x3A91 DUP2 PUSH2 0x3A55 JUMP JUMPDEST SWAP1 POP SWAP2 SWAP1 POP JUMP JUMPDEST PUSH32 0x5061796D656E74206D757374206265206E6F6E2D7A65726F20616E6420657175 PUSH1 0x0 DUP3 ADD MSTORE PUSH32 0x616C20746F20746865206F75747374616E64696E672062616C616E6365202870 PUSH1 0x20 DUP3 ADD MSTORE PUSH32 0x72696E636970616C202B20696E746572657374202B2066656573290000000000 PUSH1 0x40 DUP3 ADD MSTORE POP JUMP JUMPDEST PUSH1 0x0 PUSH2 0x3B1A PUSH1 0x5B DUP4 PUSH2 0x300C JUMP JUMPDEST SWAP2 POP PUSH2 0x3B25 DUP3 PUSH2 0x3A98 JUMP JUMPDEST PUSH1 0x60 DUP3 ADD SWAP1 POP SWAP2 SWAP1 POP JUMP JUMPDEST PUSH1 0x0 PUSH1 0x20 DUP3 ADD SWAP1 POP DUP2 DUP2 SUB PUSH1 0x0 DUP4 ADD MSTORE PUSH2 0x3B49 DUP2 PUSH2 0x3B0D JUMP JUMPDEST SWAP1 POP SWAP2 SWAP1 POP JUMP JUMPDEST PUSH32 0x4E487B7100000000000000000000000000000000000000000000000000000000 PUSH1 0x0 MSTORE PUSH1 0x12 PUSH1 0x4 MSTORE PUSH1 0x24 PUSH1 0x0 REVERT JUMPDEST PUSH32 0x4E487B7100000000000000000000000000000000000000000000000000000000 PUSH1 0x0 MSTORE PUSH1 0x1 PUSH1 0x4 MSTORE PUSH1 0x24 PUSH1 0x0 REVERT JUMPDEST PUSH32 0x43616E6E6F74206672656520636F6C6C61746572616C207768696C65206F7574 PUSH1 0x0 DUP3 ADD MSTORE PUSH32 0x7374616E64696E672062616C616E6365203E2030206F72206C6F616E20686173 PUSH1 0x20 DUP3 ADD MSTORE PUSH32 0x2079657420746F20626520697373756564000000000000000000000000000000 PUSH1 0x40 DUP3 ADD MSTORE POP JUMP JUMPDEST PUSH1 0x0 PUSH2 0x3C30 PUSH1 0x51 DUP4 PUSH2 0x300C JUMP JUMPDEST SWAP2 POP PUSH2 0x3C3B DUP3 PUSH2 0x3BAE JUMP JUMPDEST PUSH1 0x60 DUP3 ADD SWAP1 POP SWAP2 SWAP1 POP JUMP JUMPDEST PUSH1 0x0 PUSH1 0x20 DUP3 ADD SWAP1 POP DUP2 DUP2 SUB PUSH1 0x0 DUP4 ADD MSTORE PUSH2 0x3C5F DUP2 PUSH2 0x3C23 JUMP JUMPDEST SWAP1 POP SWAP2 SWAP1 POP JUMP JUMPDEST PUSH32 0x4661696C656420746F20776974686472617720636F6C6C61746572616C000000 PUSH1 0x0 DUP3 ADD MSTORE POP JUMP JUMPDEST PUSH1 0x0 PUSH2 0x3C9C PUSH1 0x1D DUP4 PUSH2 0x300C JUMP JUMPDEST SWAP2 POP PUSH2 0x3CA7 DUP3 PUSH2 0x3C66 JUMP JUMPDEST PUSH1 0x20 DUP3 ADD SWAP1 POP SWAP2 SWAP1 POP JUMP JUMPDEST PUSH1 0x0 PUSH1 0x20 DUP3 ADD SWAP1 POP DUP2 DUP2 SUB PUSH1 0x0 DUP4 ADD MSTORE PUSH2 0x3CCB DUP2 PUSH2 0x3C8F JUMP JUMPDEST SWAP1 POP SWAP2 SWAP1 POP JUMP INVALID LOG2 PUSH5 0x6970667358 0x22 SLT KECCAK256 0x4E PUSH11 0xF6F8F2657916F2B6F0FC2 PUSH17 0x24D5AA9E677750038B2F8178D9A892AE85 CALLDATALOAD PUSH5 0x736F6C6343 STOP ADDMOD EXP STOP CALLER "
		},
		"gasEstimates": {
			"creation": {
				"codeDepositCost": "3124800",
				"executionCost": "infinite",
				"totalCost": "infinite"
			},
			"external": {
				"allocateCollateral()": "infinite",
				"changeLender(address)": "26927",
				"fundLoan()": "24481",
				"getCollateralBalance()": "2460",
				"getContractBalance()": "361",
				"getFees()": "infinite",
				"getOutstandingBalance()": "infinite",
				"getTerms()": "infinite",
				"issueLoan()": "infinite",
				"makePayment()": "infinite",
				"seizeCollateral()": "infinite",
				"setTerms(address,uint48,uint256,uint256,uint256,uint48,bool,uint256,uint48,uint48)": "infinite",
				"withdraw()": "infinite"
			},
			"internal": {
				"freeCollateral()": "infinite"
			}
		},
		"methodIdentifiers": {
			"allocateCollateral()": "0e6f3dd8",
			"changeLender(address)": "57f7d74f",
			"fundLoan()": "8db57994",
			"getCollateralBalance()": "1529a639",
			"getContractBalance()": "6f9fb98a",
			"getFees()": "db8d55f1",
			"getOutstandingBalance()": "28a11702",
			"getTerms()": "4173b417",
			"issueLoan()": "5c0df55b",
			"makePayment()": "d8d79700",
			"seizeCollateral()": "62949963",
			"setTerms(address,uint48,uint256,uint256,uint256,uint48,bool,uint256,uint48,uint48)": "396c079c",
			"withdraw()": "3ccfd60b"
		}
	},
	"abi": [
		{
			"inputs": [],
			"stateMutability": "nonpayable",
			"type": "constructor"
		},
		{
			"inputs": [],
			"name": "allocateCollateral",
			"outputs": [],
			"stateMutability": "payable",
			"type": "function"
		},
		{
			"inputs": [
				{
					"internalType": "address",
					"name": "new_lender",
					"type": "address"
				}
			],
			"name": "changeLender",
			"outputs": [],
			"stateMutability": "nonpayable",
			"type": "function"
		},
		{
			"inputs": [],
			"name": "fundLoan",
			"outputs": [],
			"stateMutability": "payable",
			"type": "function"
		},
		{
			"inputs": [],
			"name": "getCollateralBalance",
			"outputs": [
				{
					"internalType": "uint256",
					"name": "",
					"type": "uint256"
				}
			],
			"stateMutability": "view",
			"type": "function"
		},
		{
			"inputs": [],
			"name": "getContractBalance",
			"outputs": [
				{
					"internalType": "uint256",
					"name": "",
					"type": "uint256"
				}
			],
			"stateMutability": "view",
			"type": "function"
		},
		{
			"inputs": [],
			"name": "getFees",
			"outputs": [
				{
					"internalType": "uint256",
					"name": "",
					"type": "uint256"
				}
			],
			"stateMutability": "view",
			"type": "function"
		},
		{
			"inputs": [],
			"name": "getOutstandingBalance",
			"outputs": [
				{
					"internalType": "uint256",
					"name": "",
					"type": "uint256"
				}
			],
			"stateMutability": "view",
			"type": "function"
		},
		{
			"inputs": [],
			"name": "getTerms",
			"outputs": [
				{
					"components": [
						{
							"internalType": "address",
							"name": "lender",
							"type": "address"
						},
						{
							"internalType": "address",
							"name": "borrower",
							"type": "address"
						},
						{
							"internalType": "uint256",
							"name": "principal",
							"type": "uint256"
						},
						{
							"internalType": "uint256",
							"name": "apr",
							"type": "uint256"
						},
						{
							"internalType": "uint256",
							"name": "collateral_req",
							"type": "uint256"
						},
						{
							"internalType": "uint256",
							"name": "late_fee",
							"type": "uint256"
						},
						{
							"internalType": "uint256",
							"name": "prepayment_penalty",
							"type": "uint256"
						},
						{
							"internalType": "uint48",
							"name": "prepayment_period",
							"type": "uint48"
						},
						{
							"internalType": "uint48",
							"name": "issuance_time",
							"type": "uint48"
						},
						{
							"internalType": "uint48",
							"name": "term",
							"type": "uint48"
						},
						{
							"internalType": "uint48",
							"name": "grace_period",
							"type": "uint48"
						},
						{
							"internalType": "uint48",
							"name": "time_before_default",
							"type": "uint48"
						},
						{
							"internalType": "bool",
							"name": "sliding_scale_prepayment_penalty",
							"type": "bool"
						}
					],
					"internalType": "struct loan.LendingTerms",
					"name": "",
					"type": "tuple"
				}
			],
			"stateMutability": "view",
			"type": "function"
		},
		{
			"inputs": [],
			"name": "issueLoan",
			"outputs": [],
			"stateMutability": "payable",
			"type": "function"
		},
		{
			"inputs": [],
			"name": "makePayment",
			"outputs": [],
			"stateMutability": "payable",
			"type": "function"
		},
		{
			"inputs": [],
			"name": "seizeCollateral",
			"outputs": [],
			"stateMutability": "payable",
			"type": "function"
		},
		{
			"inputs": [
				{
					"internalType": "address",
					"name": "borrower",
					"type": "address"
				},
				{
					"internalType": "uint48",
					"name": "term",
					"type": "uint48"
				},
				{
					"internalType": "uint256",
					"name": "apr",
					"type": "uint256"
				},
				{
					"internalType": "uint256",
					"name": "collateral_req",
					"type": "uint256"
				},
				{
					"internalType": "uint256",
					"name": "prepayment_penalty",
					"type": "uint256"
				},
				{
					"internalType": "uint48",
					"name": "prepayment_period",
					"type": "uint48"
				},
				{
					"internalType": "bool",
					"name": "sliding_scale_prepayment_penalty",
					"type": "bool"
				},
				{
					"internalType": "uint256",
					"name": "late_fee",
					"type": "uint256"
				},
				{
					"internalType": "uint48",
					"name": "grace_period",
					"type": "uint48"
				},
				{
					"internalType": "uint48",
					"name": "time_before_default",
					"type": "uint48"
				}
			],
			"name": "setTerms",
			"outputs": [],
			"stateMutability": "nonpayable",
			"type": "function"
		},
		{
			"inputs": [],
			"name": "withdraw",
			"outputs": [],
			"stateMutability": "payable",
			"type": "function"
		}
	]
}