{
	"data": {
		"bytecode": {
			"linkReferences": {},
			"object": "60c06040526301e185586009556200002a670de0b6b3a7640000620000f160201b620017201760201c565b6fffffffffffffffffffffffffffffffff19166080906fffffffffffffffffffffffffffffffff19168152506200006e600954620000f160201b620017201760201c565b6fffffffffffffffffffffffffffffffff191660a0906fffffffffffffffffffffffffffffffff1916815250348015620000a757600080fd5b50336000800160006101000a81548173ffffffffffffffffffffffffffffffffffffffff021916908373ffffffffffffffffffffffffffffffffffffffff16021790555062000266565b6000808214156200010957600060801b905062000177565b6000829050600062000121826200017c60201b60201c565b905060708110156200013c578060700382901b915062000151565b607081111562000150576070810382901c91505b5b607081613fff01901b6dffffffffffffffffffffffffffff83161791508160801b925050505b919050565b60008082116200018b57600080fd5b60007001000000000000000000000000000000008310620001b457608083901c92506080810190505b680100000000000000008310620001d357604083901c92506040810190505b6401000000008310620001ee57602083901c92506020810190505b6201000083106200020757601083901c92506010810190505b61010083106200021f57600883901c92506008810190505b601083106200023657600483901c92506004810190505b600483106200024d57600283901c92506002810190505b600283106200025d576001810190505b80915050919050565b60805160a051613c5f620002a160003960006113f4015260008181610357015281816114180152818161159501526116940152613c5f6000f3fe6080604052600436106100c25760003560e01c806357f7d74f1161007f5780636f9fb98a116100595780636f9fb98a146101c25780638db57994146101ed578063d8d79700146101f7578063db8d55f114610201576100c2565b806357f7d74f146101855780635c0df55b146101ae57806362949963146101b8576100c2565b80630e6f3dd8146100c75780631529a639146100d157806328a11702146100fc578063396c079c146101275780633ccfd60b146101505780634173b4171461015a575b600080fd5b6100cf61022c565b005b3480156100dd57600080fd5b506100e6610434565b6040516100f39190612bf4565b60405180910390f35b34801561010857600080fd5b5061011161043e565b60405161011e9190612bf4565b60405180910390f35b34801561013357600080fd5b5061014e60048036038101906101499190612d14565b6104ce565b005b61015861072a565b005b34801561016657600080fd5b5061016f6108e8565b60405161017c9190612f3a565b60405180910390f35b34801561019157600080fd5b506101ac60048036038101906101a79190612f56565b610ad8565b005b6101b6610bb0565b005b6101c0610e76565b005b3480156101ce57600080fd5b506101d76110db565b6040516101e49190612bf4565b60405180910390f35b6101f56110e3565b005b6101ff611181565b005b34801561020d57600080fd5b506102166112fe565b6040516102239190612bf4565b60405180910390f35b600060010160009054906101000a900473ffffffffffffffffffffffffffffffffffffffff1673ffffffffffffffffffffffffffffffffffffffff163373ffffffffffffffffffffffffffffffffffffffff16146102bf576040517f08c379a00000000000000000000000000000000000000000000000000000000081526004016102b690613006565b60405180910390fd5b6000806004015414610306576040517f08c379a00000000000000000000000000000000000000000000000000000000081526004016102fd90613098565b60405180910390fd5b600080600201541161034d576040517f08c379a00000000000000000000000000000000000000000000000000000000081526004016103449061312a565b60405180910390fd5b60006103b86103a57f0000000000000000000000000000000000000000000000000000000000000000610384600060040154611720565b6fffffffffffffffffffffffffffffffff191661179e90919063ffffffff16565b6103b3600060020154611720565b611c67565b9050806fffffffffffffffffffffffffffffffff19166103d734611720565b6fffffffffffffffffffffffffffffffff19161461042a576040517f08c379a000000000000000000000000000000000000000000000000000000000815260040161042190613208565b60405180910390fd5b3460088190555050565b6000600854905090565b600080600060070160069054906101000a900465ffffffffffff1665ffffffffffff16118015610472575060008060020154115b6104b1576040517f08c379a00000000000000000000000000000000000000000000000000000000081526004016104a8906132c0565b60405180910390fd5b6104b96112fe565b6000600201546104c9919061330f565b905090565b6000800160009054906101000a900473ffffffffffffffffffffffffffffffffffffffff1673ffffffffffffffffffffffffffffffffffffffff163373ffffffffffffffffffffffffffffffffffffffff1614610560576040517f08c379a0000000000000000000000000000000000000000000000000000000008152600401610557906133d7565b60405180910390fd5b600061056a61043e565b146105aa576040517f08c379a00000000000000000000000000000000000000000000000000000000081526004016105a190613469565b60405180910390fd5b60008965ffffffffffff16116105f5576040517f08c379a00000000000000000000000000000000000000000000000000000000081526004016105ec906134d5565b60405180910390fd5b89600060010160006101000a81548173ffffffffffffffffffffffffffffffffffffffff021916908373ffffffffffffffffffffffffffffffffffffffff160217905550886000600701600c6101000a81548165ffffffffffff021916908365ffffffffffff16021790555087600060030181905550866000600401819055508560006005018190555084600060070160006101000a81548165ffffffffffff021916908365ffffffffffff160217905550836000600701601e6101000a81548160ff0219169083151502179055508260006006018190555081600060070160126101000a81548165ffffffffffff021916908365ffffffffffff16021790555080600060070160186101000a81548165ffffffffffff021916908365ffffffffffff16021790555050505050505050505050565b6000800160009054906101000a900473ffffffffffffffffffffffffffffffffffffffff1673ffffffffffffffffffffffffffffffffffffffff163373ffffffffffffffffffffffffffffffffffffffff16146107bc576040517f08c379a00000000000000000000000000000000000000000000000000000000081526004016107b3906133d7565b60405180910390fd5b600047116107ff576040517f08c379a00000000000000000000000000000000000000000000000000000000081526004016107f690613567565b60405180910390fd5b60006008544761080f9190613587565b90506000806000800160009054906101000a900473ffffffffffffffffffffffffffffffffffffffff1673ffffffffffffffffffffffffffffffffffffffff168360405161085c906135ec565b60006040518083038185875af1925050503d8060008114610899576040519150601f19603f3d011682016040523d82523d6000602084013e61089e565b606091505b5091509150816108e3576040517f08c379a00000000000000000000000000000000000000000000000000000000081526004016108da9061364d565b60405180910390fd5b505050565b6108f0612b1d565b6000604051806101a00160405290816000820160009054906101000a900473ffffffffffffffffffffffffffffffffffffffff1673ffffffffffffffffffffffffffffffffffffffff1673ffffffffffffffffffffffffffffffffffffffff1681526020016001820160009054906101000a900473ffffffffffffffffffffffffffffffffffffffff1673ffffffffffffffffffffffffffffffffffffffff1673ffffffffffffffffffffffffffffffffffffffff16815260200160028201548152602001600382015481526020016004820154815260200160058201548152602001600682015481526020016007820160009054906101000a900465ffffffffffff1665ffffffffffff1665ffffffffffff1681526020016007820160069054906101000a900465ffffffffffff1665ffffffffffff1665ffffffffffff16815260200160078201600c9054906101000a900465ffffffffffff1665ffffffffffff1665ffffffffffff1681526020016007820160129054906101000a900465ffffffffffff1665ffffffffffff1665ffffffffffff1681526020016007820160189054906101000a900465ffffffffffff1665ffffffffffff1665ffffffffffff16815260200160078201601e9054906101000a900460ff161515151581525050905090565b6000800160009054906101000a900473ffffffffffffffffffffffffffffffffffffffff1673ffffffffffffffffffffffffffffffffffffffff163373ffffffffffffffffffffffffffffffffffffffff1614610b6a576040517f08c379a0000000000000000000000000000000000000000000000000000000008152600401610b61906133d7565b60405180910390fd5b806000800160006101000a81548173ffffffffffffffffffffffffffffffffffffffff021916908373ffffffffffffffffffffffffffffffffffffffff16021790555050565b6000800160009054906101000a900473ffffffffffffffffffffffffffffffffffffffff1673ffffffffffffffffffffffffffffffffffffffff163373ffffffffffffffffffffffffffffffffffffffff1614610c42576040517f08c379a0000000000000000000000000000000000000000000000000000000008152600401610c39906133d7565b60405180910390fd5b600073ffffffffffffffffffffffffffffffffffffffff16600060010160009054906101000a900473ffffffffffffffffffffffffffffffffffffffff1673ffffffffffffffffffffffffffffffffffffffff161415610cd7576040517f08c379a0000000000000000000000000000000000000000000000000000000008152600401610cce906136df565b60405180910390fd5b600080600201541415610d1f576040517f08c379a0000000000000000000000000000000000000000000000000000000008152600401610d1690613771565b60405180910390fd5b600080600401541115610d7257600060085411610d71576040517f08c379a0000000000000000000000000000000000000000000000000000000008152600401610d6890613803565b60405180910390fd5b5b600080600060010160009054906101000a900473ffffffffffffffffffffffffffffffffffffffff1673ffffffffffffffffffffffffffffffffffffffff16600060020154604051610dc3906135ec565b60006040518083038185875af1925050503d8060008114610e00576040519150601f19603f3d011682016040523d82523d6000602084013e610e05565b606091505b509150915081610e4a576040517f08c379a0000000000000000000000000000000000000000000000000000000008152600401610e419061386f565b60405180910390fd5b42600060070160066101000a81548165ffffffffffff021916908365ffffffffffff1602179055505050565b6000800160009054906101000a900473ffffffffffffffffffffffffffffffffffffffff1673ffffffffffffffffffffffffffffffffffffffff163373ffffffffffffffffffffffffffffffffffffffff1614610f08576040517f08c379a0000000000000000000000000000000000000000000000000000000008152600401610eff906133d7565b60405180910390fd5b42600060070160189054906101000a900465ffffffffffff16600060070160069054906101000a900465ffffffffffff166000600701600c9054906101000a900465ffffffffffff16610f5b919061388f565b610f65919061388f565b65ffffffffffff1610610fad576040517f08c379a0000000000000000000000000000000000000000000000000000000008152600401610fa49061393d565b60405180910390fd5b600060085411610ff2576040517f08c379a0000000000000000000000000000000000000000000000000000000008152600401610fe9906139cf565b60405180910390fd5b6000600854476110029190613587565b90506000806000800160009054906101000a900473ffffffffffffffffffffffffffffffffffffffff1673ffffffffffffffffffffffffffffffffffffffff168360405161104f906135ec565b60006040518083038185875af1925050503d806000811461108c576040519150601f19603f3d011682016040523d82523d6000602084013e611091565b606091505b5091509150816110d6576040517f08c379a00000000000000000000000000000000000000000000000000000000081526004016110cd9061364d565b60405180910390fd5b505050565b600047905090565b6000800160009054906101000a900473ffffffffffffffffffffffffffffffffffffffff1673ffffffffffffffffffffffffffffffffffffffff163373ffffffffffffffffffffffffffffffffffffffff1614611175576040517f08c379a000000000000000000000000000000000000000000000000000000000815260040161116c906133d7565b60405180910390fd5b34600060020181905550565b600060010160009054906101000a900473ffffffffffffffffffffffffffffffffffffffff1673ffffffffffffffffffffffffffffffffffffffff163373ffffffffffffffffffffffffffffffffffffffff1614611214576040517f08c379a000000000000000000000000000000000000000000000000000000000815260040161120b90613006565b60405180910390fd5b61121c61043e565b341461125d576040517f08c379a000000000000000000000000000000000000000000000000000000000815260040161125490613a87565b60405180910390fd5b600080600201819055506000800160009054906101000a900473ffffffffffffffffffffffffffffffffffffffff1673ffffffffffffffffffffffffffffffffffffffff16476040516112af906135ec565b60006040518083038185875af1925050503d80600081146112ec576040519150601f19603f3d011682016040523d82523d6000602084013e6112f1565b606091505b5050506112fc6120fc565b565b600080429050600080600701600c9054906101000a900465ffffffffffff16600060070160069054906101000a900465ffffffffffff1661133f919061388f565b65ffffffffffff16905060008060070160009054906101000a900465ffffffffffff16600060070160069054906101000a900465ffffffffffff16611384919061388f565b65ffffffffffff169050600080600060060154141580156113ce575083600060070160129054906101000a900465ffffffffffff1665ffffffffffff16846113cc919061330f565b105b156113ed576113ea816113e5600060060154611720565b6122d9565b90505b60006114877f00000000000000000000000000000000000000000000000000000000000000006114667f0000000000000000000000000000000000000000000000000000000000000000611445600060030154611720565b6fffffffffffffffffffffffffffffffff191661179e90919063ffffffff16565b6fffffffffffffffffffffffffffffffff191661179e90919063ffffffff16565b905060006114e3826114c2600060070160069054906101000a900465ffffffffffff1665ffffffffffff16896114bd9190613587565b611720565b6fffffffffffffffffffffffffffffffff1916611c6790919063ffffffff16565b9050600061151a826114f9600060020154611720565b6fffffffffffffffffffffffffffffffff1916611c6790919063ffffffff16565b905061152684826122d9565b935060008060070160009054906101000a900465ffffffffffff1665ffffffffffff161415801561155657508487105b156116f8576000600701601e9054906101000a900460ff161561167c57600061158988876115849190613587565b611720565b905060006116676115e37f00000000000000000000000000000000000000000000000000000000000000006115c2600060020154611720565b6fffffffffffffffffffffffffffffffff191661179e90919063ffffffff16565b6116466115f4600060050154611720565b61162586611620600060070160009054906101000a900465ffffffffffff1665ffffffffffff16611720565b61179e565b6fffffffffffffffffffffffffffffffff1916611c6790919063ffffffff16565b6fffffffffffffffffffffffffffffffff1916611c6790919063ffffffff16565b905061167386826122d9565b955050506116f7565b60006116e761168f600060020154611720565b6116e27f00000000000000000000000000000000000000000000000000000000000000006116c1600060050154611720565b6fffffffffffffffffffffffffffffffff191661179e90919063ffffffff16565b611c67565b90506116f385826122d9565b9450505b5b611714846fffffffffffffffffffffffffffffffff191661293e565b97505050505050505090565b60008082141561173657600060801b9050611799565b6000829050600061174682612a3c565b9050607081101561175f578060700382901b9150611773565b6070811115611772576070810382901c91505b5b607081613fff01901b6dffffffffffffffffffffffffffff83161791508160801b925050505b919050565b600080617fff60708560801c6fffffffffffffffffffffffffffffffff16901c166fffffffffffffffffffffffffffffffff1690506000617fff60708560801c6fffffffffffffffffffffffffffffffff16901c166fffffffffffffffffffffffffffffffff169050617fff82141561185957617fff811415611838576f7fff800000000000000000000000000060801b92505050611c61565b6f8000000000000000000000000000000060801b8416851892505050611c61565b617fff8114156118d857600060801b6dffffffffffffffffffffffffffff60801b85166fffffffffffffffffffffffffffffffff1916146118b1576f7fff800000000000000000000000000060801b92505050611c61565b6f8000000000000000000000000000000060801b84861816600060801b1792505050611c61565b600060801b6f7fffffffffffffffffffffffffffffff60801b85166fffffffffffffffffffffffffffffffff1916141561199357600060801b6f7fffffffffffffffffffffffffffffff60801b86166fffffffffffffffffffffffffffffffff1916141561195d576f7fff800000000000000000000000000060801b92505050611c61565b6f8000000000000000000000000000000060801b848618166f7fff000000000000000000000000000060801b1792505050611c61565b60006dffffffffffffffffffffffffffff8560801c166fffffffffffffffffffffffffffffffff16905060008214156119cf57600191506119e4565b6e010000000000000000000000000000811790505b60006dffffffffffffffffffffffffffff8760801c166fffffffffffffffffffffffffffffffff1690506000841415611a485760008114611a43576000611a2a82612a3c565b60e20390508082901b9150600194506072810384019350505b611a61565b60726e0100000000000000000000000000008217901b90505b818181611a7157611a70613aa7565b5b0490506000811415611adc57600060801b6f8000000000000000000000000000000060801b878918166fffffffffffffffffffffffffffffffff191611611abc57600060801b611ad1565b6f8000000000000000000000000000000060801b5b945050505050611c61565b6d1000000000000000000000000000811015611afb57611afa613ad6565b5b60006e080000000000000000000000000000821015611b5c576e040000000000000000000000000000821015611b51576e020000000000000000000000000000821015611b49576070611b4c565b60715b611b54565b60725b60ff16611b66565b611b6582612a3c565b5b905061407184018186011115611b8457617fff945060009150611c21565b83613ffc828701011015611b9f576000945060009150611c20565b83613f8c828701011015611bed5783613ffc86011115611bca5783613ffc86010382901b9150611be4565b83613ffc86011015611be357613ffc8585030382901c91505b5b60009450611c1f565b6070811115611c00576070810382901c91505b6dffffffffffffffffffffffffffff8216915083613f8d828701010394505b5b5b81607086901b6f8000000000000000000000000000000060801b898b181660801c6fffffffffffffffffffffffffffffffff16171760801b955050505050505b92915050565b600080617fff60708560801c6fffffffffffffffffffffffffffffffff16901c166fffffffffffffffffffffffffffffffff1690506000617fff60708560801c6fffffffffffffffffffffffffffffffff16901c166fffffffffffffffffffffffffffffffff169050617fff821415611dfe57617fff811415611d8c57836fffffffffffffffffffffffffffffffff1916856fffffffffffffffffffffffffffffffff19161415611d33576f8000000000000000000000000000000060801b84168518925050506120f6565b6f8000000000000000000000000000000060801b8486186fffffffffffffffffffffffffffffffff19161415611d6f57838517925050506120f6565b6f7fff800000000000000000000000000060801b925050506120f6565b600060801b6f7fffffffffffffffffffffffffffffff60801b85166fffffffffffffffffffffffffffffffff19161415611ddd576f7fff800000000000000000000000000060801b925050506120f6565b6f8000000000000000000000000000000060801b84168518925050506120f6565b617fff811415611e7a57600060801b6f7fffffffffffffffffffffffffffffff60801b86166fffffffffffffffffffffffffffffffff19161415611e59576f7fff800000000000000000000000000060801b925050506120f6565b6f8000000000000000000000000000000060801b85168418925050506120f6565b60006dffffffffffffffffffffffffffff8660801c166fffffffffffffffffffffffffffffffff1690506000831415611eb65760019250611ecb565b6e010000000000000000000000000000811790505b60006dffffffffffffffffffffffffffff8660801c166fffffffffffffffffffffffffffffffff1690506000831415611f075760019250611f1c565b6e010000000000000000000000000000811790505b80820291506000821415611f8957600060801b6f8000000000000000000000000000000060801b878918166fffffffffffffffffffffffffffffffff191611611f6957600060801b611f7e565b6f8000000000000000000000000000000060801b5b9450505050506120f6565b828401935060007c0200000000000000000000000000000000000000000000000000000000831015611ff0577c0100000000000000000000000000000000000000000000000000000000831015611fe857611fe383612a3c565b611feb565b60e05b611ff3565b60e15b9050614070818601101561200e5760009450600092506120b6565b6140e081860110156120525761407085101561203357846140700383901c9250612049565b61407085111561204857614070850383901b92505b5b600094506120b5565b61c0dd818601111561206c57617fff9450600092506120b4565b6070811115612083576070810383901c9250612097565b6070811015612096578060700383901b92505b5b6dffffffffffffffffffffffffffff831692506140df8186010394505b5b5b82607086901b6f8000000000000000000000000000000060801b898b181660801c6fffffffffffffffffffffffffffffffff16171760801b955050505050505b92915050565b600060010160009054906101000a900473ffffffffffffffffffffffffffffffffffffffff1673ffffffffffffffffffffffffffffffffffffffff163373ffffffffffffffffffffffffffffffffffffffff161461218f576040517f08c379a000000000000000000000000000000000000000000000000000000000815260040161218690613006565b60405180910390fd5b600080600201541480156121c1575060008060070160069054906101000a900465ffffffffffff1665ffffffffffff16115b612200576040517f08c379a00000000000000000000000000000000000000000000000000000000081526004016121f790613b9d565b60405180910390fd5b600080600060010160009054906101000a900473ffffffffffffffffffffffffffffffffffffffff1673ffffffffffffffffffffffffffffffffffffffff1660085460405161224e906135ec565b60006040518083038185875af1925050503d806000811461228b576040519150601f19603f3d011682016040523d82523d6000602084013e612290565b606091505b5091509150816122d5576040517f08c379a00000000000000000000000000000000000000000000000000000000081526004016122cc90613c09565b60405180910390fd5b5050565b600080617fff60708560801c6fffffffffffffffffffffffffffffffff16901c166fffffffffffffffffffffffffffffffff1690506000617fff60708560801c6fffffffffffffffffffffffffffffffff16901c166fffffffffffffffffffffffffffffffff169050617fff8214156123b557617fff8114156123ab57836fffffffffffffffffffffffffffffffff1916856fffffffffffffffffffffffffffffffff1916141561238e578492505050612938565b6f7fff800000000000000000000000000060801b92505050612938565b8492505050612938565b617fff8114156123c9578392505050612938565b60006f800000000000000000000000000000008660801c6fffffffffffffffffffffffffffffffff161015905060006dffffffffffffffffffffffffffff8760801c166fffffffffffffffffffffffffffffffff16905060008414156124325760019350612447565b6e010000000000000000000000000000811790505b60006f800000000000000000000000000000008760801c6fffffffffffffffffffffffffffffffff161015905060006dffffffffffffffffffffffffffff8860801c166fffffffffffffffffffffffffffffffff16905060008514156124b057600194506124c5565b6e010000000000000000000000000000811790505b6000831415612527576f8000000000000000000000000000000060801b6fffffffffffffffffffffffffffffffff1916886fffffffffffffffffffffffffffffffff191614612514578761251a565b600060801b5b9650505050505050612938565b6000811415612589576f8000000000000000000000000000000060801b6fffffffffffffffffffffffffffffffff1916896fffffffffffffffffffffffffffffffff191614612576578861257c565b600060801b5b9650505050505050612938565b6000858703905082151585151514156127075760708113156125b45789975050505050505050612938565b60008113156125c8578082901c9150612616565b7fffffffffffffffffffffffffffffffffffffffffffffffffffffffffffffff908112156125ff5788975050505050505050612938565b6000811215612615578060000384901c93508596505b5b81840193506e020000000000000000000000000000841061263f57600184901c93506001870196505b617fff87141561268a5784612667576f7fff000000000000000000000000000060801b61267c565b6fffff000000000000000000000000000060801b5b975050505050505050612938565b6e0100000000000000000000000000008410156126aa57600096506126be565b6dffffffffffffffffffffffffffff841693505b83607088901b866126d05760006126e2565b6f800000000000000000000000000000005b6fffffffffffffffffffffffffffffffff16171760801b975050505050505050612938565b600081131561272257600184901b935060018703965061273a565b600081121561273957600182901b91506001860396505b5b607081131561274c57600191506127d6565b600181131561276857600180820360018403901c0191506127d5565b7fffffffffffffffffffffffffffffffffffffffffffffffffffffffffffffff9081121561279957600193506127d4565b7fffffffffffffffffffffffffffffffffffffffffffffffffffffffffffffffff8112156127d357600180826000030360018603901c0193505b5b5b5b8184106127e75781840393506127f0565b83820393508294505b600084141561280c57600060801b975050505050505050612938565b600061281785612a3c565b90506071811415612844576dffffffffffffffffffffffffffff600186901c1694506001880197506128a6565b60708110156128915760008160700390508089111561287d576dffffffffffffffffffffffffffff8187901b169550808903985061288b565b6001890386901b9550600098505b506128a5565b6dffffffffffffffffffffffffffff851694505b5b617fff8814156128f257856128ce576f7fff000000000000000000000000000060801b6128e3565b6fffff000000000000000000000000000060801b5b98505050505050505050612938565b84607089901b87612904576000612916565b6f800000000000000000000000000000005b6fffffffffffffffffffffffffffffffff16171760801b985050505050505050505b92915050565b600080617fff60708460801c6fffffffffffffffffffffffffffffffff16901c166fffffffffffffffffffffffffffffffff169050613fff811015612987576000915050612a37565b6f800000000000000000000000000000008360801c6fffffffffffffffffffffffffffffffff16106129b857600080fd5b6140fe8111156129c757600080fd5b60006e0100000000000000000000000000006dffffffffffffffffffffffffffff8560801c6fffffffffffffffffffffffffffffffff161617905061406f821015612a1b578161406f0381901c9050612a31565b61406f821115612a305761406f820381901b90505b5b80925050505b919050565b6000808211612a4a57600080fd5b60007001000000000000000000000000000000008310612a7257608083901c92506080810190505b680100000000000000008310612a9057604083901c92506040810190505b6401000000008310612aaa57602083901c92506020810190505b620100008310612ac257601083901c92506010810190505b6101008310612ad957600883901c92506008810190505b60108310612aef57600483901c92506004810190505b60048310612b0557600283901c92506002810190505b60028310612b14576001810190505b80915050919050565b604051806101a00160405280600073ffffffffffffffffffffffffffffffffffffffff168152602001600073ffffffffffffffffffffffffffffffffffffffff1681526020016000815260200160008152602001600081526020016000815260200160008152602001600065ffffffffffff168152602001600065ffffffffffff168152602001600065ffffffffffff168152602001600065ffffffffffff168152602001600065ffffffffffff1681526020016000151581525090565b6000819050919050565b612bee81612bdb565b82525050565b6000602082019050612c096000830184612be5565b92915050565b600080fd5b600073ffffffffffffffffffffffffffffffffffffffff82169050919050565b6000612c3f82612c14565b9050919050565b612c4f81612c34565b8114612c5a57600080fd5b50565b600081359050612c6c81612c46565b92915050565b600065ffffffffffff82169050919050565b612c8d81612c72565b8114612c9857600080fd5b50565b600081359050612caa81612c84565b92915050565b612cb981612bdb565b8114612cc457600080fd5b50565b600081359050612cd681612cb0565b92915050565b60008115159050919050565b612cf181612cdc565b8114612cfc57600080fd5b50565b600081359050612d0e81612ce8565b92915050565b6000806000806000806000806000806101408b8d031215612d3857612d37612c0f565b5b6000612d468d828e01612c5d565b9a50506020612d578d828e01612c9b565b9950506040612d688d828e01612cc7565b9850506060612d798d828e01612cc7565b9750506080612d8a8d828e01612cc7565b96505060a0612d9b8d828e01612c9b565b95505060c0612dac8d828e01612cff565b94505060e0612dbd8d828e01612cc7565b935050610100612dcf8d828e01612c9b565b925050610120612de18d828e01612c9b565b9150509295989b9194979a5092959850565b612dfc81612c34565b82525050565b612e0b81612bdb565b82525050565b612e1a81612c72565b82525050565b612e2981612cdc565b82525050565b6101a082016000820151612e466000850182612df3565b506020820151612e596020850182612df3565b506040820151612e6c6040850182612e02565b506060820151612e7f6060850182612e02565b506080820151612e926080850182612e02565b5060a0820151612ea560a0850182612e02565b5060c0820151612eb860c0850182612e02565b5060e0820151612ecb60e0850182612e11565b50610100820151612ee0610100850182612e11565b50610120820151612ef5610120850182612e11565b50610140820151612f0a610140850182612e11565b50610160820151612f1f610160850182612e11565b50610180820151612f34610180850182612e20565b50505050565b60006101a082019050612f506000830184612e2f565b92915050565b600060208284031215612f6c57612f6b612c0f565b5b6000612f7a84828501612c5d565b91505092915050565b600082825260208201905092915050565b7f4f6e6c792074686520626f72726f776572206f662074686520636f6e7472616360008201527f742063616e20706572666f726d2074686973206f7065726174696f6e00000000602082015250565b6000612ff0603c83612f83565b9150612ffb82612f94565b604082019050919050565b6000602082019050818103600083015261301f81612fe3565b9050919050565b7f4e6f20636f6c6c61746572616c206973206e656365737361727920666f72207460008201527f686973206c6f616e000000000000000000000000000000000000000000000000602082015250565b6000613082602883612f83565b915061308d82613026565b604082019050919050565b600060208201905081810360008301526130b181613075565b9050919050565b7f4c6f616e206d7573742062652066756e646564206265666f726520636f6c6c6160008201527f746572616c20697320616c6c6f63617465640000000000000000000000000000602082015250565b6000613114603283612f83565b915061311f826130b8565b604082019050919050565b6000602082019050818103600083015261314381613107565b9050919050565b7f436f6c6c61746572616c20616c6c6f6361746564206d7573742062652067726560008201527f61746572207468616e206f7220657175616c20746f2074686520636f6c6c617460208201527f6572616c20726571756972656d656e74202a20696e697469616c207072696e6360408201527f6970616c206f6620746865206c6f616e00000000000000000000000000000000606082015250565b60006131f2607083612f83565b91506131fd8261314a565b608082019050919050565b60006020820190508181036000830152613221816131e5565b9050919050565b7f4e6f206f75747374616e64696e672062616c616e63652073696e6365206c6f6160008201527f6e20697320656974686572206e6f7420697373756564206f7220616c7265616460208201527f792070616964206f666600000000000000000000000000000000000000000000604082015250565b60006132aa604a83612f83565b91506132b582613228565b606082019050919050565b600060208201905081810360008301526132d98161329d565b9050919050565b7f4e487b7100000000000000000000000000000000000000000000000000000000600052601160045260246000fd5b600061331a82612bdb565b915061332583612bdb565b9250827fffffffffffffffffffffffffffffffffffffffffffffffffffffffffffffffff0382111561335a576133596132e0565b5b828201905092915050565b7f4f6e6c7920746865206f776e6572206f662074686520636f6e7472616374206360008201527f616e20706572666f726d2074686973206f7065726174696f6e00000000000000602082015250565b60006133c1603983612f83565b91506133cc82613365565b604082019050919050565b600060208201905081810360008301526133f0816133b4565b9050919050565b7f5465726d732063616e6e6f74206265206368616e676564206166746572206c6f60008201527f616e20686173206265656e206973737565640000000000000000000000000000602082015250565b6000613453603283612f83565b915061345e826133f7565b604082019050919050565b6000602082019050818103600083015261348281613446565b9050919050565b7f7465726d206d7573742062652067726561746572207468616e207a65726f0000600082015250565b60006134bf601e83612f83565b91506134ca82613489565b602082019050919050565b600060208201905081810360008301526134ee816134b2565b9050919050565b7f436f6e74726163742062616c616e636520697320302c2074686572652069732060008201527f6e6f7468696e6720617661696c61626c6520746f207769746864726177000000602082015250565b6000613551603d83612f83565b915061355c826134f5565b604082019050919050565b6000602082019050818103600083015261358081613544565b9050919050565b600061359282612bdb565b915061359d83612bdb565b9250828210156135b0576135af6132e0565b5b828203905092915050565b600081905092915050565b50565b60006135d66000836135bb565b91506135e1826135c6565b600082019050919050565b60006135f7826135c9565b9150819050919050565b7f4661696c656420746f2077697468647261770000000000000000000000000000600082015250565b6000613637601283612f83565b915061364282613601565b602082019050919050565b600060208201905081810360008301526136668161362a565b9050919050565b7f4120626f72726f776572206d7573742062652061737369676e6564206265666f60008201527f72652069737375696e67206c6f616e0000000000000000000000000000000000602082015250565b60006136c9602f83612f83565b91506136d48261366d565b604082019050919050565b600060208201905081810360008301526136f8816136bc565b9050919050565b7f4c6f616e206d7573742062652066756e646564206265666f726520697373756960008201527f6e67000000000000000000000000000000000000000000000000000000000000602082015250565b600061375b602283612f83565b9150613766826136ff565b604082019050919050565b6000602082019050818103600083015261378a8161374e565b9050919050565b7f436f6c6c61746572616c206d75737420626520616c6c6f63617465642062656660008201527f6f72652069737375696e67206c6f616e00000000000000000000000000000000602082015250565b60006137ed603083612f83565b91506137f882613791565b604082019050919050565b6000602082019050818103600083015261381c816137e0565b9050919050565b7f4661696c656420746f2073656e64207061796d656e7400000000000000000000600082015250565b6000613859601683612f83565b915061386482613823565b602082019050919050565b600060208201905081810360008301526138888161384c565b9050919050565b600061389a82612c72565b91506138a583612c72565b92508265ffffffffffff038211156138c0576138bf6132e0565b5b828201905092915050565b7f436f6c6c61746572616c2063616e206f6e6c79206265207365697a6564206f6e60008201527f6365206c6f616e20697320696e2064656661756c740000000000000000000000602082015250565b6000613927603583612f83565b9150613932826138cb565b604082019050919050565b600060208201905081810360008301526139568161391a565b9050919050565b7f54686572652069732063757272656e746c79206e6f20636f6c6c61746572616c60008201527f20746f207365697a650000000000000000000000000000000000000000000000602082015250565b60006139b9602983612f83565b91506139c48261395d565b604082019050919050565b600060208201905081810360008301526139e8816139ac565b9050919050565b7f5061796d656e74206d75737420626520657175616c20746f20746865206f757460008201527f7374616e64696e672062616c616e636520287072696e636970616c202b20696e60208201527f746572657374202b206665657329000000000000000000000000000000000000604082015250565b6000613a71604e83612f83565b9150613a7c826139ef565b606082019050919050565b60006020820190508181036000830152613aa081613a64565b9050919050565b7f4e487b7100000000000000000000000000000000000000000000000000000000600052601260045260246000fd5b7f4e487b7100000000000000000000000000000000000000000000000000000000600052600160045260246000fd5b7f43616e6e6f74206672656520636f6c6c61746572616c207768696c65206f757460008201527f7374616e64696e672062616c616e6365203e2030206f72206c6f616e2068617360208201527f2079657420746f20626520697373756564000000000000000000000000000000604082015250565b6000613b87605183612f83565b9150613b9282613b05565b606082019050919050565b60006020820190508181036000830152613bb681613b7a565b9050919050565b7f4661696c656420746f20776974686472617720636f6c6c61746572616c000000600082015250565b6000613bf3601d83612f83565b9150613bfe82613bbd565b602082019050919050565b60006020820190508181036000830152613c2281613be6565b905091905056fea264697066735822122077a49b398f7323c0ab2b3b895fb4bbcad091dadd9b70f8debf4b95fd097c50eb64736f6c634300080a0033",
			"opcodes": "PUSH1 0xC0 PUSH1 0x40 MSTORE PUSH4 0x1E18558 PUSH1 0x9 SSTORE PUSH3 0x2A PUSH8 0xDE0B6B3A7640000 PUSH3 0xF1 PUSH1 0x20 SHL PUSH3 0x1720 OR PUSH1 0x20 SHR JUMP JUMPDEST PUSH16 0xFFFFFFFFFFFFFFFFFFFFFFFFFFFFFFFF NOT AND PUSH1 0x80 SWAP1 PUSH16 0xFFFFFFFFFFFFFFFFFFFFFFFFFFFFFFFF NOT AND DUP2 MSTORE POP PUSH3 0x6E PUSH1 0x9 SLOAD PUSH3 0xF1 PUSH1 0x20 SHL PUSH3 0x1720 OR PUSH1 0x20 SHR JUMP JUMPDEST PUSH16 0xFFFFFFFFFFFFFFFFFFFFFFFFFFFFFFFF NOT AND PUSH1 0xA0 SWAP1 PUSH16 0xFFFFFFFFFFFFFFFFFFFFFFFFFFFFFFFF NOT AND DUP2 MSTORE POP CALLVALUE DUP1 ISZERO PUSH3 0xA7 JUMPI PUSH1 0x0 DUP1 REVERT JUMPDEST POP CALLER PUSH1 0x0 DUP1 ADD PUSH1 0x0 PUSH2 0x100 EXP DUP2 SLOAD DUP2 PUSH20 0xFFFFFFFFFFFFFFFFFFFFFFFFFFFFFFFFFFFFFFFF MUL NOT AND SWAP1 DUP4 PUSH20 0xFFFFFFFFFFFFFFFFFFFFFFFFFFFFFFFFFFFFFFFF AND MUL OR SWAP1 SSTORE POP PUSH3 0x266 JUMP JUMPDEST PUSH1 0x0 DUP1 DUP3 EQ ISZERO PUSH3 0x109 JUMPI PUSH1 0x0 PUSH1 0x80 SHL SWAP1 POP PUSH3 0x177 JUMP JUMPDEST PUSH1 0x0 DUP3 SWAP1 POP PUSH1 0x0 PUSH3 0x121 DUP3 PUSH3 0x17C PUSH1 0x20 SHL PUSH1 0x20 SHR JUMP JUMPDEST SWAP1 POP PUSH1 0x70 DUP2 LT ISZERO PUSH3 0x13C JUMPI DUP1 PUSH1 0x70 SUB DUP3 SWAP1 SHL SWAP2 POP PUSH3 0x151 JUMP JUMPDEST PUSH1 0x70 DUP2 GT ISZERO PUSH3 0x150 JUMPI PUSH1 0x70 DUP2 SUB DUP3 SWAP1 SHR SWAP2 POP JUMPDEST JUMPDEST PUSH1 0x70 DUP2 PUSH2 0x3FFF ADD SWAP1 SHL PUSH14 0xFFFFFFFFFFFFFFFFFFFFFFFFFFFF DUP4 AND OR SWAP2 POP DUP2 PUSH1 0x80 SHL SWAP3 POP POP POP JUMPDEST SWAP2 SWAP1 POP JUMP JUMPDEST PUSH1 0x0 DUP1 DUP3 GT PUSH3 0x18B JUMPI PUSH1 0x0 DUP1 REVERT JUMPDEST PUSH1 0x0 PUSH17 0x100000000000000000000000000000000 DUP4 LT PUSH3 0x1B4 JUMPI PUSH1 0x80 DUP4 SWAP1 SHR SWAP3 POP PUSH1 0x80 DUP2 ADD SWAP1 POP JUMPDEST PUSH9 0x10000000000000000 DUP4 LT PUSH3 0x1D3 JUMPI PUSH1 0x40 DUP4 SWAP1 SHR SWAP3 POP PUSH1 0x40 DUP2 ADD SWAP1 POP JUMPDEST PUSH5 0x100000000 DUP4 LT PUSH3 0x1EE JUMPI PUSH1 0x20 DUP4 SWAP1 SHR SWAP3 POP PUSH1 0x20 DUP2 ADD SWAP1 POP JUMPDEST PUSH3 0x10000 DUP4 LT PUSH3 0x207 JUMPI PUSH1 0x10 DUP4 SWAP1 SHR SWAP3 POP PUSH1 0x10 DUP2 ADD SWAP1 POP JUMPDEST PUSH2 0x100 DUP4 LT PUSH3 0x21F JUMPI PUSH1 0x8 DUP4 SWAP1 SHR SWAP3 POP PUSH1 0x8 DUP2 ADD SWAP1 POP JUMPDEST PUSH1 0x10 DUP4 LT PUSH3 0x236 JUMPI PUSH1 0x4 DUP4 SWAP1 SHR SWAP3 POP PUSH1 0x4 DUP2 ADD SWAP1 POP JUMPDEST PUSH1 0x4 DUP4 LT PUSH3 0x24D JUMPI PUSH1 0x2 DUP4 SWAP1 SHR SWAP3 POP PUSH1 0x2 DUP2 ADD SWAP1 POP JUMPDEST PUSH1 0x2 DUP4 LT PUSH3 0x25D JUMPI PUSH1 0x1 DUP2 ADD SWAP1 POP JUMPDEST DUP1 SWAP2 POP POP SWAP2 SWAP1 POP JUMP JUMPDEST PUSH1 0x80 MLOAD PUSH1 0xA0 MLOAD PUSH2 0x3C5F PUSH3 0x2A1 PUSH1 0x0 CODECOPY PUSH1 0x0 PUSH2 0x13F4 ADD MSTORE PUSH1 0x0 DUP2 DUP2 PUSH2 0x357 ADD MSTORE DUP2 DUP2 PUSH2 0x1418 ADD MSTORE DUP2 DUP2 PUSH2 0x1595 ADD MSTORE PUSH2 0x1694 ADD MSTORE PUSH2 0x3C5F PUSH1 0x0 RETURN INVALID PUSH1 0x80 PUSH1 0x40 MSTORE PUSH1 0x4 CALLDATASIZE LT PUSH2 0xC2 JUMPI PUSH1 0x0 CALLDATALOAD PUSH1 0xE0 SHR DUP1 PUSH4 0x57F7D74F GT PUSH2 0x7F JUMPI DUP1 PUSH4 0x6F9FB98A GT PUSH2 0x59 JUMPI DUP1 PUSH4 0x6F9FB98A EQ PUSH2 0x1C2 JUMPI DUP1 PUSH4 0x8DB57994 EQ PUSH2 0x1ED JUMPI DUP1 PUSH4 0xD8D79700 EQ PUSH2 0x1F7 JUMPI DUP1 PUSH4 0xDB8D55F1 EQ PUSH2 0x201 JUMPI PUSH2 0xC2 JUMP JUMPDEST DUP1 PUSH4 0x57F7D74F EQ PUSH2 0x185 JUMPI DUP1 PUSH4 0x5C0DF55B EQ PUSH2 0x1AE JUMPI DUP1 PUSH4 0x62949963 EQ PUSH2 0x1B8 JUMPI PUSH2 0xC2 JUMP JUMPDEST DUP1 PUSH4 0xE6F3DD8 EQ PUSH2 0xC7 JUMPI DUP1 PUSH4 0x1529A639 EQ PUSH2 0xD1 JUMPI DUP1 PUSH4 0x28A11702 EQ PUSH2 0xFC JUMPI DUP1 PUSH4 0x396C079C EQ PUSH2 0x127 JUMPI DUP1 PUSH4 0x3CCFD60B EQ PUSH2 0x150 JUMPI DUP1 PUSH4 0x4173B417 EQ PUSH2 0x15A JUMPI JUMPDEST PUSH1 0x0 DUP1 REVERT JUMPDEST PUSH2 0xCF PUSH2 0x22C JUMP JUMPDEST STOP JUMPDEST CALLVALUE DUP1 ISZERO PUSH2 0xDD JUMPI PUSH1 0x0 DUP1 REVERT JUMPDEST POP PUSH2 0xE6 PUSH2 0x434 JUMP JUMPDEST PUSH1 0x40 MLOAD PUSH2 0xF3 SWAP2 SWAP1 PUSH2 0x2BF4 JUMP JUMPDEST PUSH1 0x40 MLOAD DUP1 SWAP2 SUB SWAP1 RETURN JUMPDEST CALLVALUE DUP1 ISZERO PUSH2 0x108 JUMPI PUSH1 0x0 DUP1 REVERT JUMPDEST POP PUSH2 0x111 PUSH2 0x43E JUMP JUMPDEST PUSH1 0x40 MLOAD PUSH2 0x11E SWAP2 SWAP1 PUSH2 0x2BF4 JUMP JUMPDEST PUSH1 0x40 MLOAD DUP1 SWAP2 SUB SWAP1 RETURN JUMPDEST CALLVALUE DUP1 ISZERO PUSH2 0x133 JUMPI PUSH1 0x0 DUP1 REVERT JUMPDEST POP PUSH2 0x14E PUSH1 0x4 DUP1 CALLDATASIZE SUB DUP2 ADD SWAP1 PUSH2 0x149 SWAP2 SWAP1 PUSH2 0x2D14 JUMP JUMPDEST PUSH2 0x4CE JUMP JUMPDEST STOP JUMPDEST PUSH2 0x158 PUSH2 0x72A JUMP JUMPDEST STOP JUMPDEST CALLVALUE DUP1 ISZERO PUSH2 0x166 JUMPI PUSH1 0x0 DUP1 REVERT JUMPDEST POP PUSH2 0x16F PUSH2 0x8E8 JUMP JUMPDEST PUSH1 0x40 MLOAD PUSH2 0x17C SWAP2 SWAP1 PUSH2 0x2F3A JUMP JUMPDEST PUSH1 0x40 MLOAD DUP1 SWAP2 SUB SWAP1 RETURN JUMPDEST CALLVALUE DUP1 ISZERO PUSH2 0x191 JUMPI PUSH1 0x0 DUP1 REVERT JUMPDEST POP PUSH2 0x1AC PUSH1 0x4 DUP1 CALLDATASIZE SUB DUP2 ADD SWAP1 PUSH2 0x1A7 SWAP2 SWAP1 PUSH2 0x2F56 JUMP JUMPDEST PUSH2 0xAD8 JUMP JUMPDEST STOP JUMPDEST PUSH2 0x1B6 PUSH2 0xBB0 JUMP JUMPDEST STOP JUMPDEST PUSH2 0x1C0 PUSH2 0xE76 JUMP JUMPDEST STOP JUMPDEST CALLVALUE DUP1 ISZERO PUSH2 0x1CE JUMPI PUSH1 0x0 DUP1 REVERT JUMPDEST POP PUSH2 0x1D7 PUSH2 0x10DB JUMP JUMPDEST PUSH1 0x40 MLOAD PUSH2 0x1E4 SWAP2 SWAP1 PUSH2 0x2BF4 JUMP JUMPDEST PUSH1 0x40 MLOAD DUP1 SWAP2 SUB SWAP1 RETURN JUMPDEST PUSH2 0x1F5 PUSH2 0x10E3 JUMP JUMPDEST STOP JUMPDEST PUSH2 0x1FF PUSH2 0x1181 JUMP JUMPDEST STOP JUMPDEST CALLVALUE DUP1 ISZERO PUSH2 0x20D JUMPI PUSH1 0x0 DUP1 REVERT JUMPDEST POP PUSH2 0x216 PUSH2 0x12FE JUMP JUMPDEST PUSH1 0x40 MLOAD PUSH2 0x223 SWAP2 SWAP1 PUSH2 0x2BF4 JUMP JUMPDEST PUSH1 0x40 MLOAD DUP1 SWAP2 SUB SWAP1 RETURN JUMPDEST PUSH1 0x0 PUSH1 0x1 ADD PUSH1 0x0 SWAP1 SLOAD SWAP1 PUSH2 0x100 EXP SWAP1 DIV PUSH20 0xFFFFFFFFFFFFFFFFFFFFFFFFFFFFFFFFFFFFFFFF AND PUSH20 0xFFFFFFFFFFFFFFFFFFFFFFFFFFFFFFFFFFFFFFFF AND CALLER PUSH20 0xFFFFFFFFFFFFFFFFFFFFFFFFFFFFFFFFFFFFFFFF AND EQ PUSH2 0x2BF JUMPI PUSH1 0x40 MLOAD PUSH32 0x8C379A000000000000000000000000000000000000000000000000000000000 DUP2 MSTORE PUSH1 0x4 ADD PUSH2 0x2B6 SWAP1 PUSH2 0x3006 JUMP JUMPDEST PUSH1 0x40 MLOAD DUP1 SWAP2 SUB SWAP1 REVERT JUMPDEST PUSH1 0x0 DUP1 PUSH1 0x4 ADD SLOAD EQ PUSH2 0x306 JUMPI PUSH1 0x40 MLOAD PUSH32 0x8C379A000000000000000000000000000000000000000000000000000000000 DUP2 MSTORE PUSH1 0x4 ADD PUSH2 0x2FD SWAP1 PUSH2 0x3098 JUMP JUMPDEST PUSH1 0x40 MLOAD DUP1 SWAP2 SUB SWAP1 REVERT JUMPDEST PUSH1 0x0 DUP1 PUSH1 0x2 ADD SLOAD GT PUSH2 0x34D JUMPI PUSH1 0x40 MLOAD PUSH32 0x8C379A000000000000000000000000000000000000000000000000000000000 DUP2 MSTORE PUSH1 0x4 ADD PUSH2 0x344 SWAP1 PUSH2 0x312A JUMP JUMPDEST PUSH1 0x40 MLOAD DUP1 SWAP2 SUB SWAP1 REVERT JUMPDEST PUSH1 0x0 PUSH2 0x3B8 PUSH2 0x3A5 PUSH32 0x0 PUSH2 0x384 PUSH1 0x0 PUSH1 0x4 ADD SLOAD PUSH2 0x1720 JUMP JUMPDEST PUSH16 0xFFFFFFFFFFFFFFFFFFFFFFFFFFFFFFFF NOT AND PUSH2 0x179E SWAP1 SWAP2 SWAP1 PUSH4 0xFFFFFFFF AND JUMP JUMPDEST PUSH2 0x3B3 PUSH1 0x0 PUSH1 0x2 ADD SLOAD PUSH2 0x1720 JUMP JUMPDEST PUSH2 0x1C67 JUMP JUMPDEST SWAP1 POP DUP1 PUSH16 0xFFFFFFFFFFFFFFFFFFFFFFFFFFFFFFFF NOT AND PUSH2 0x3D7 CALLVALUE PUSH2 0x1720 JUMP JUMPDEST PUSH16 0xFFFFFFFFFFFFFFFFFFFFFFFFFFFFFFFF NOT AND EQ PUSH2 0x42A JUMPI PUSH1 0x40 MLOAD PUSH32 0x8C379A000000000000000000000000000000000000000000000000000000000 DUP2 MSTORE PUSH1 0x4 ADD PUSH2 0x421 SWAP1 PUSH2 0x3208 JUMP JUMPDEST PUSH1 0x40 MLOAD DUP1 SWAP2 SUB SWAP1 REVERT JUMPDEST CALLVALUE PUSH1 0x8 DUP2 SWAP1 SSTORE POP POP JUMP JUMPDEST PUSH1 0x0 PUSH1 0x8 SLOAD SWAP1 POP SWAP1 JUMP JUMPDEST PUSH1 0x0 DUP1 PUSH1 0x0 PUSH1 0x7 ADD PUSH1 0x6 SWAP1 SLOAD SWAP1 PUSH2 0x100 EXP SWAP1 DIV PUSH6 0xFFFFFFFFFFFF AND PUSH6 0xFFFFFFFFFFFF AND GT DUP1 ISZERO PUSH2 0x472 JUMPI POP PUSH1 0x0 DUP1 PUSH1 0x2 ADD SLOAD GT JUMPDEST PUSH2 0x4B1 JUMPI PUSH1 0x40 MLOAD PUSH32 0x8C379A000000000000000000000000000000000000000000000000000000000 DUP2 MSTORE PUSH1 0x4 ADD PUSH2 0x4A8 SWAP1 PUSH2 0x32C0 JUMP JUMPDEST PUSH1 0x40 MLOAD DUP1 SWAP2 SUB SWAP1 REVERT JUMPDEST PUSH2 0x4B9 PUSH2 0x12FE JUMP JUMPDEST PUSH1 0x0 PUSH1 0x2 ADD SLOAD PUSH2 0x4C9 SWAP2 SWAP1 PUSH2 0x330F JUMP JUMPDEST SWAP1 POP SWAP1 JUMP JUMPDEST PUSH1 0x0 DUP1 ADD PUSH1 0x0 SWAP1 SLOAD SWAP1 PUSH2 0x100 EXP SWAP1 DIV PUSH20 0xFFFFFFFFFFFFFFFFFFFFFFFFFFFFFFFFFFFFFFFF AND PUSH20 0xFFFFFFFFFFFFFFFFFFFFFFFFFFFFFFFFFFFFFFFF AND CALLER PUSH20 0xFFFFFFFFFFFFFFFFFFFFFFFFFFFFFFFFFFFFFFFF AND EQ PUSH2 0x560 JUMPI PUSH1 0x40 MLOAD PUSH32 0x8C379A000000000000000000000000000000000000000000000000000000000 DUP2 MSTORE PUSH1 0x4 ADD PUSH2 0x557 SWAP1 PUSH2 0x33D7 JUMP JUMPDEST PUSH1 0x40 MLOAD DUP1 SWAP2 SUB SWAP1 REVERT JUMPDEST PUSH1 0x0 PUSH2 0x56A PUSH2 0x43E JUMP JUMPDEST EQ PUSH2 0x5AA JUMPI PUSH1 0x40 MLOAD PUSH32 0x8C379A000000000000000000000000000000000000000000000000000000000 DUP2 MSTORE PUSH1 0x4 ADD PUSH2 0x5A1 SWAP1 PUSH2 0x3469 JUMP JUMPDEST PUSH1 0x40 MLOAD DUP1 SWAP2 SUB SWAP1 REVERT JUMPDEST PUSH1 0x0 DUP10 PUSH6 0xFFFFFFFFFFFF AND GT PUSH2 0x5F5 JUMPI PUSH1 0x40 MLOAD PUSH32 0x8C379A000000000000000000000000000000000000000000000000000000000 DUP2 MSTORE PUSH1 0x4 ADD PUSH2 0x5EC SWAP1 PUSH2 0x34D5 JUMP JUMPDEST PUSH1 0x40 MLOAD DUP1 SWAP2 SUB SWAP1 REVERT JUMPDEST DUP10 PUSH1 0x0 PUSH1 0x1 ADD PUSH1 0x0 PUSH2 0x100 EXP DUP2 SLOAD DUP2 PUSH20 0xFFFFFFFFFFFFFFFFFFFFFFFFFFFFFFFFFFFFFFFF MUL NOT AND SWAP1 DUP4 PUSH20 0xFFFFFFFFFFFFFFFFFFFFFFFFFFFFFFFFFFFFFFFF AND MUL OR SWAP1 SSTORE POP DUP9 PUSH1 0x0 PUSH1 0x7 ADD PUSH1 0xC PUSH2 0x100 EXP DUP2 SLOAD DUP2 PUSH6 0xFFFFFFFFFFFF MUL NOT AND SWAP1 DUP4 PUSH6 0xFFFFFFFFFFFF AND MUL OR SWAP1 SSTORE POP DUP8 PUSH1 0x0 PUSH1 0x3 ADD DUP2 SWAP1 SSTORE POP DUP7 PUSH1 0x0 PUSH1 0x4 ADD DUP2 SWAP1 SSTORE POP DUP6 PUSH1 0x0 PUSH1 0x5 ADD DUP2 SWAP1 SSTORE POP DUP5 PUSH1 0x0 PUSH1 0x7 ADD PUSH1 0x0 PUSH2 0x100 EXP DUP2 SLOAD DUP2 PUSH6 0xFFFFFFFFFFFF MUL NOT AND SWAP1 DUP4 PUSH6 0xFFFFFFFFFFFF AND MUL OR SWAP1 SSTORE POP DUP4 PUSH1 0x0 PUSH1 0x7 ADD PUSH1 0x1E PUSH2 0x100 EXP DUP2 SLOAD DUP2 PUSH1 0xFF MUL NOT AND SWAP1 DUP4 ISZERO ISZERO MUL OR SWAP1 SSTORE POP DUP3 PUSH1 0x0 PUSH1 0x6 ADD DUP2 SWAP1 SSTORE POP DUP2 PUSH1 0x0 PUSH1 0x7 ADD PUSH1 0x12 PUSH2 0x100 EXP DUP2 SLOAD DUP2 PUSH6 0xFFFFFFFFFFFF MUL NOT AND SWAP1 DUP4 PUSH6 0xFFFFFFFFFFFF AND MUL OR SWAP1 SSTORE POP DUP1 PUSH1 0x0 PUSH1 0x7 ADD PUSH1 0x18 PUSH2 0x100 EXP DUP2 SLOAD DUP2 PUSH6 0xFFFFFFFFFFFF MUL NOT AND SWAP1 DUP4 PUSH6 0xFFFFFFFFFFFF AND MUL OR SWAP1 SSTORE POP POP POP POP POP POP POP POP POP POP POP JUMP JUMPDEST PUSH1 0x0 DUP1 ADD PUSH1 0x0 SWAP1 SLOAD SWAP1 PUSH2 0x100 EXP SWAP1 DIV PUSH20 0xFFFFFFFFFFFFFFFFFFFFFFFFFFFFFFFFFFFFFFFF AND PUSH20 0xFFFFFFFFFFFFFFFFFFFFFFFFFFFFFFFFFFFFFFFF AND CALLER PUSH20 0xFFFFFFFFFFFFFFFFFFFFFFFFFFFFFFFFFFFFFFFF AND EQ PUSH2 0x7BC JUMPI PUSH1 0x40 MLOAD PUSH32 0x8C379A000000000000000000000000000000000000000000000000000000000 DUP2 MSTORE PUSH1 0x4 ADD PUSH2 0x7B3 SWAP1 PUSH2 0x33D7 JUMP JUMPDEST PUSH1 0x40 MLOAD DUP1 SWAP2 SUB SWAP1 REVERT JUMPDEST PUSH1 0x0 SELFBALANCE GT PUSH2 0x7FF JUMPI PUSH1 0x40 MLOAD PUSH32 0x8C379A000000000000000000000000000000000000000000000000000000000 DUP2 MSTORE PUSH1 0x4 ADD PUSH2 0x7F6 SWAP1 PUSH2 0x3567 JUMP JUMPDEST PUSH1 0x40 MLOAD DUP1 SWAP2 SUB SWAP1 REVERT JUMPDEST PUSH1 0x0 PUSH1 0x8 SLOAD SELFBALANCE PUSH2 0x80F SWAP2 SWAP1 PUSH2 0x3587 JUMP JUMPDEST SWAP1 POP PUSH1 0x0 DUP1 PUSH1 0x0 DUP1 ADD PUSH1 0x0 SWAP1 SLOAD SWAP1 PUSH2 0x100 EXP SWAP1 DIV PUSH20 0xFFFFFFFFFFFFFFFFFFFFFFFFFFFFFFFFFFFFFFFF AND PUSH20 0xFFFFFFFFFFFFFFFFFFFFFFFFFFFFFFFFFFFFFFFF AND DUP4 PUSH1 0x40 MLOAD PUSH2 0x85C SWAP1 PUSH2 0x35EC JUMP JUMPDEST PUSH1 0x0 PUSH1 0x40 MLOAD DUP1 DUP4 SUB DUP2 DUP6 DUP8 GAS CALL SWAP3 POP POP POP RETURNDATASIZE DUP1 PUSH1 0x0 DUP2 EQ PUSH2 0x899 JUMPI PUSH1 0x40 MLOAD SWAP2 POP PUSH1 0x1F NOT PUSH1 0x3F RETURNDATASIZE ADD AND DUP3 ADD PUSH1 0x40 MSTORE RETURNDATASIZE DUP3 MSTORE RETURNDATASIZE PUSH1 0x0 PUSH1 0x20 DUP5 ADD RETURNDATACOPY PUSH2 0x89E JUMP JUMPDEST PUSH1 0x60 SWAP2 POP JUMPDEST POP SWAP2 POP SWAP2 POP DUP2 PUSH2 0x8E3 JUMPI PUSH1 0x40 MLOAD PUSH32 0x8C379A000000000000000000000000000000000000000000000000000000000 DUP2 MSTORE PUSH1 0x4 ADD PUSH2 0x8DA SWAP1 PUSH2 0x364D JUMP JUMPDEST PUSH1 0x40 MLOAD DUP1 SWAP2 SUB SWAP1 REVERT JUMPDEST POP POP POP JUMP JUMPDEST PUSH2 0x8F0 PUSH2 0x2B1D JUMP JUMPDEST PUSH1 0x0 PUSH1 0x40 MLOAD DUP1 PUSH2 0x1A0 ADD PUSH1 0x40 MSTORE SWAP1 DUP2 PUSH1 0x0 DUP3 ADD PUSH1 0x0 SWAP1 SLOAD SWAP1 PUSH2 0x100 EXP SWAP1 DIV PUSH20 0xFFFFFFFFFFFFFFFFFFFFFFFFFFFFFFFFFFFFFFFF AND PUSH20 0xFFFFFFFFFFFFFFFFFFFFFFFFFFFFFFFFFFFFFFFF AND PUSH20 0xFFFFFFFFFFFFFFFFFFFFFFFFFFFFFFFFFFFFFFFF AND DUP2 MSTORE PUSH1 0x20 ADD PUSH1 0x1 DUP3 ADD PUSH1 0x0 SWAP1 SLOAD SWAP1 PUSH2 0x100 EXP SWAP1 DIV PUSH20 0xFFFFFFFFFFFFFFFFFFFFFFFFFFFFFFFFFFFFFFFF AND PUSH20 0xFFFFFFFFFFFFFFFFFFFFFFFFFFFFFFFFFFFFFFFF AND PUSH20 0xFFFFFFFFFFFFFFFFFFFFFFFFFFFFFFFFFFFFFFFF AND DUP2 MSTORE PUSH1 0x20 ADD PUSH1 0x2 DUP3 ADD SLOAD DUP2 MSTORE PUSH1 0x20 ADD PUSH1 0x3 DUP3 ADD SLOAD DUP2 MSTORE PUSH1 0x20 ADD PUSH1 0x4 DUP3 ADD SLOAD DUP2 MSTORE PUSH1 0x20 ADD PUSH1 0x5 DUP3 ADD SLOAD DUP2 MSTORE PUSH1 0x20 ADD PUSH1 0x6 DUP3 ADD SLOAD DUP2 MSTORE PUSH1 0x20 ADD PUSH1 0x7 DUP3 ADD PUSH1 0x0 SWAP1 SLOAD SWAP1 PUSH2 0x100 EXP SWAP1 DIV PUSH6 0xFFFFFFFFFFFF AND PUSH6 0xFFFFFFFFFFFF AND PUSH6 0xFFFFFFFFFFFF AND DUP2 MSTORE PUSH1 0x20 ADD PUSH1 0x7 DUP3 ADD PUSH1 0x6 SWAP1 SLOAD SWAP1 PUSH2 0x100 EXP SWAP1 DIV PUSH6 0xFFFFFFFFFFFF AND PUSH6 0xFFFFFFFFFFFF AND PUSH6 0xFFFFFFFFFFFF AND DUP2 MSTORE PUSH1 0x20 ADD PUSH1 0x7 DUP3 ADD PUSH1 0xC SWAP1 SLOAD SWAP1 PUSH2 0x100 EXP SWAP1 DIV PUSH6 0xFFFFFFFFFFFF AND PUSH6 0xFFFFFFFFFFFF AND PUSH6 0xFFFFFFFFFFFF AND DUP2 MSTORE PUSH1 0x20 ADD PUSH1 0x7 DUP3 ADD PUSH1 0x12 SWAP1 SLOAD SWAP1 PUSH2 0x100 EXP SWAP1 DIV PUSH6 0xFFFFFFFFFFFF AND PUSH6 0xFFFFFFFFFFFF AND PUSH6 0xFFFFFFFFFFFF AND DUP2 MSTORE PUSH1 0x20 ADD PUSH1 0x7 DUP3 ADD PUSH1 0x18 SWAP1 SLOAD SWAP1 PUSH2 0x100 EXP SWAP1 DIV PUSH6 0xFFFFFFFFFFFF AND PUSH6 0xFFFFFFFFFFFF AND PUSH6 0xFFFFFFFFFFFF AND DUP2 MSTORE PUSH1 0x20 ADD PUSH1 0x7 DUP3 ADD PUSH1 0x1E SWAP1 SLOAD SWAP1 PUSH2 0x100 EXP SWAP1 DIV PUSH1 0xFF AND ISZERO ISZERO ISZERO ISZERO DUP2 MSTORE POP POP SWAP1 POP SWAP1 JUMP JUMPDEST PUSH1 0x0 DUP1 ADD PUSH1 0x0 SWAP1 SLOAD SWAP1 PUSH2 0x100 EXP SWAP1 DIV PUSH20 0xFFFFFFFFFFFFFFFFFFFFFFFFFFFFFFFFFFFFFFFF AND PUSH20 0xFFFFFFFFFFFFFFFFFFFFFFFFFFFFFFFFFFFFFFFF AND CALLER PUSH20 0xFFFFFFFFFFFFFFFFFFFFFFFFFFFFFFFFFFFFFFFF AND EQ PUSH2 0xB6A JUMPI PUSH1 0x40 MLOAD PUSH32 0x8C379A000000000000000000000000000000000000000000000000000000000 DUP2 MSTORE PUSH1 0x4 ADD PUSH2 0xB61 SWAP1 PUSH2 0x33D7 JUMP JUMPDEST PUSH1 0x40 MLOAD DUP1 SWAP2 SUB SWAP1 REVERT JUMPDEST DUP1 PUSH1 0x0 DUP1 ADD PUSH1 0x0 PUSH2 0x100 EXP DUP2 SLOAD DUP2 PUSH20 0xFFFFFFFFFFFFFFFFFFFFFFFFFFFFFFFFFFFFFFFF MUL NOT AND SWAP1 DUP4 PUSH20 0xFFFFFFFFFFFFFFFFFFFFFFFFFFFFFFFFFFFFFFFF AND MUL OR SWAP1 SSTORE POP POP JUMP JUMPDEST PUSH1 0x0 DUP1 ADD PUSH1 0x0 SWAP1 SLOAD SWAP1 PUSH2 0x100 EXP SWAP1 DIV PUSH20 0xFFFFFFFFFFFFFFFFFFFFFFFFFFFFFFFFFFFFFFFF AND PUSH20 0xFFFFFFFFFFFFFFFFFFFFFFFFFFFFFFFFFFFFFFFF AND CALLER PUSH20 0xFFFFFFFFFFFFFFFFFFFFFFFFFFFFFFFFFFFFFFFF AND EQ PUSH2 0xC42 JUMPI PUSH1 0x40 MLOAD PUSH32 0x8C379A000000000000000000000000000000000000000000000000000000000 DUP2 MSTORE PUSH1 0x4 ADD PUSH2 0xC39 SWAP1 PUSH2 0x33D7 JUMP JUMPDEST PUSH1 0x40 MLOAD DUP1 SWAP2 SUB SWAP1 REVERT JUMPDEST PUSH1 0x0 PUSH20 0xFFFFFFFFFFFFFFFFFFFFFFFFFFFFFFFFFFFFFFFF AND PUSH1 0x0 PUSH1 0x1 ADD PUSH1 0x0 SWAP1 SLOAD SWAP1 PUSH2 0x100 EXP SWAP1 DIV PUSH20 0xFFFFFFFFFFFFFFFFFFFFFFFFFFFFFFFFFFFFFFFF AND PUSH20 0xFFFFFFFFFFFFFFFFFFFFFFFFFFFFFFFFFFFFFFFF AND EQ ISZERO PUSH2 0xCD7 JUMPI PUSH1 0x40 MLOAD PUSH32 0x8C379A000000000000000000000000000000000000000000000000000000000 DUP2 MSTORE PUSH1 0x4 ADD PUSH2 0xCCE SWAP1 PUSH2 0x36DF JUMP JUMPDEST PUSH1 0x40 MLOAD DUP1 SWAP2 SUB SWAP1 REVERT JUMPDEST PUSH1 0x0 DUP1 PUSH1 0x2 ADD SLOAD EQ ISZERO PUSH2 0xD1F JUMPI PUSH1 0x40 MLOAD PUSH32 0x8C379A000000000000000000000000000000000000000000000000000000000 DUP2 MSTORE PUSH1 0x4 ADD PUSH2 0xD16 SWAP1 PUSH2 0x3771 JUMP JUMPDEST PUSH1 0x40 MLOAD DUP1 SWAP2 SUB SWAP1 REVERT JUMPDEST PUSH1 0x0 DUP1 PUSH1 0x4 ADD SLOAD GT ISZERO PUSH2 0xD72 JUMPI PUSH1 0x0 PUSH1 0x8 SLOAD GT PUSH2 0xD71 JUMPI PUSH1 0x40 MLOAD PUSH32 0x8C379A000000000000000000000000000000000000000000000000000000000 DUP2 MSTORE PUSH1 0x4 ADD PUSH2 0xD68 SWAP1 PUSH2 0x3803 JUMP JUMPDEST PUSH1 0x40 MLOAD DUP1 SWAP2 SUB SWAP1 REVERT JUMPDEST JUMPDEST PUSH1 0x0 DUP1 PUSH1 0x0 PUSH1 0x1 ADD PUSH1 0x0 SWAP1 SLOAD SWAP1 PUSH2 0x100 EXP SWAP1 DIV PUSH20 0xFFFFFFFFFFFFFFFFFFFFFFFFFFFFFFFFFFFFFFFF AND PUSH20 0xFFFFFFFFFFFFFFFFFFFFFFFFFFFFFFFFFFFFFFFF AND PUSH1 0x0 PUSH1 0x2 ADD SLOAD PUSH1 0x40 MLOAD PUSH2 0xDC3 SWAP1 PUSH2 0x35EC JUMP JUMPDEST PUSH1 0x0 PUSH1 0x40 MLOAD DUP1 DUP4 SUB DUP2 DUP6 DUP8 GAS CALL SWAP3 POP POP POP RETURNDATASIZE DUP1 PUSH1 0x0 DUP2 EQ PUSH2 0xE00 JUMPI PUSH1 0x40 MLOAD SWAP2 POP PUSH1 0x1F NOT PUSH1 0x3F RETURNDATASIZE ADD AND DUP3 ADD PUSH1 0x40 MSTORE RETURNDATASIZE DUP3 MSTORE RETURNDATASIZE PUSH1 0x0 PUSH1 0x20 DUP5 ADD RETURNDATACOPY PUSH2 0xE05 JUMP JUMPDEST PUSH1 0x60 SWAP2 POP JUMPDEST POP SWAP2 POP SWAP2 POP DUP2 PUSH2 0xE4A JUMPI PUSH1 0x40 MLOAD PUSH32 0x8C379A000000000000000000000000000000000000000000000000000000000 DUP2 MSTORE PUSH1 0x4 ADD PUSH2 0xE41 SWAP1 PUSH2 0x386F JUMP JUMPDEST PUSH1 0x40 MLOAD DUP1 SWAP2 SUB SWAP1 REVERT JUMPDEST TIMESTAMP PUSH1 0x0 PUSH1 0x7 ADD PUSH1 0x6 PUSH2 0x100 EXP DUP2 SLOAD DUP2 PUSH6 0xFFFFFFFFFFFF MUL NOT AND SWAP1 DUP4 PUSH6 0xFFFFFFFFFFFF AND MUL OR SWAP1 SSTORE POP POP POP JUMP JUMPDEST PUSH1 0x0 DUP1 ADD PUSH1 0x0 SWAP1 SLOAD SWAP1 PUSH2 0x100 EXP SWAP1 DIV PUSH20 0xFFFFFFFFFFFFFFFFFFFFFFFFFFFFFFFFFFFFFFFF AND PUSH20 0xFFFFFFFFFFFFFFFFFFFFFFFFFFFFFFFFFFFFFFFF AND CALLER PUSH20 0xFFFFFFFFFFFFFFFFFFFFFFFFFFFFFFFFFFFFFFFF AND EQ PUSH2 0xF08 JUMPI PUSH1 0x40 MLOAD PUSH32 0x8C379A000000000000000000000000000000000000000000000000000000000 DUP2 MSTORE PUSH1 0x4 ADD PUSH2 0xEFF SWAP1 PUSH2 0x33D7 JUMP JUMPDEST PUSH1 0x40 MLOAD DUP1 SWAP2 SUB SWAP1 REVERT JUMPDEST TIMESTAMP PUSH1 0x0 PUSH1 0x7 ADD PUSH1 0x18 SWAP1 SLOAD SWAP1 PUSH2 0x100 EXP SWAP1 DIV PUSH6 0xFFFFFFFFFFFF AND PUSH1 0x0 PUSH1 0x7 ADD PUSH1 0x6 SWAP1 SLOAD SWAP1 PUSH2 0x100 EXP SWAP1 DIV PUSH6 0xFFFFFFFFFFFF AND PUSH1 0x0 PUSH1 0x7 ADD PUSH1 0xC SWAP1 SLOAD SWAP1 PUSH2 0x100 EXP SWAP1 DIV PUSH6 0xFFFFFFFFFFFF AND PUSH2 0xF5B SWAP2 SWAP1 PUSH2 0x388F JUMP JUMPDEST PUSH2 0xF65 SWAP2 SWAP1 PUSH2 0x388F JUMP JUMPDEST PUSH6 0xFFFFFFFFFFFF AND LT PUSH2 0xFAD JUMPI PUSH1 0x40 MLOAD PUSH32 0x8C379A000000000000000000000000000000000000000000000000000000000 DUP2 MSTORE PUSH1 0x4 ADD PUSH2 0xFA4 SWAP1 PUSH2 0x393D JUMP JUMPDEST PUSH1 0x40 MLOAD DUP1 SWAP2 SUB SWAP1 REVERT JUMPDEST PUSH1 0x0 PUSH1 0x8 SLOAD GT PUSH2 0xFF2 JUMPI PUSH1 0x40 MLOAD PUSH32 0x8C379A000000000000000000000000000000000000000000000000000000000 DUP2 MSTORE PUSH1 0x4 ADD PUSH2 0xFE9 SWAP1 PUSH2 0x39CF JUMP JUMPDEST PUSH1 0x40 MLOAD DUP1 SWAP2 SUB SWAP1 REVERT JUMPDEST PUSH1 0x0 PUSH1 0x8 SLOAD SELFBALANCE PUSH2 0x1002 SWAP2 SWAP1 PUSH2 0x3587 JUMP JUMPDEST SWAP1 POP PUSH1 0x0 DUP1 PUSH1 0x0 DUP1 ADD PUSH1 0x0 SWAP1 SLOAD SWAP1 PUSH2 0x100 EXP SWAP1 DIV PUSH20 0xFFFFFFFFFFFFFFFFFFFFFFFFFFFFFFFFFFFFFFFF AND PUSH20 0xFFFFFFFFFFFFFFFFFFFFFFFFFFFFFFFFFFFFFFFF AND DUP4 PUSH1 0x40 MLOAD PUSH2 0x104F SWAP1 PUSH2 0x35EC JUMP JUMPDEST PUSH1 0x0 PUSH1 0x40 MLOAD DUP1 DUP4 SUB DUP2 DUP6 DUP8 GAS CALL SWAP3 POP POP POP RETURNDATASIZE DUP1 PUSH1 0x0 DUP2 EQ PUSH2 0x108C JUMPI PUSH1 0x40 MLOAD SWAP2 POP PUSH1 0x1F NOT PUSH1 0x3F RETURNDATASIZE ADD AND DUP3 ADD PUSH1 0x40 MSTORE RETURNDATASIZE DUP3 MSTORE RETURNDATASIZE PUSH1 0x0 PUSH1 0x20 DUP5 ADD RETURNDATACOPY PUSH2 0x1091 JUMP JUMPDEST PUSH1 0x60 SWAP2 POP JUMPDEST POP SWAP2 POP SWAP2 POP DUP2 PUSH2 0x10D6 JUMPI PUSH1 0x40 MLOAD PUSH32 0x8C379A000000000000000000000000000000000000000000000000000000000 DUP2 MSTORE PUSH1 0x4 ADD PUSH2 0x10CD SWAP1 PUSH2 0x364D JUMP JUMPDEST PUSH1 0x40 MLOAD DUP1 SWAP2 SUB SWAP1 REVERT JUMPDEST POP POP POP JUMP JUMPDEST PUSH1 0x0 SELFBALANCE SWAP1 POP SWAP1 JUMP JUMPDEST PUSH1 0x0 DUP1 ADD PUSH1 0x0 SWAP1 SLOAD SWAP1 PUSH2 0x100 EXP SWAP1 DIV PUSH20 0xFFFFFFFFFFFFFFFFFFFFFFFFFFFFFFFFFFFFFFFF AND PUSH20 0xFFFFFFFFFFFFFFFFFFFFFFFFFFFFFFFFFFFFFFFF AND CALLER PUSH20 0xFFFFFFFFFFFFFFFFFFFFFFFFFFFFFFFFFFFFFFFF AND EQ PUSH2 0x1175 JUMPI PUSH1 0x40 MLOAD PUSH32 0x8C379A000000000000000000000000000000000000000000000000000000000 DUP2 MSTORE PUSH1 0x4 ADD PUSH2 0x116C SWAP1 PUSH2 0x33D7 JUMP JUMPDEST PUSH1 0x40 MLOAD DUP1 SWAP2 SUB SWAP1 REVERT JUMPDEST CALLVALUE PUSH1 0x0 PUSH1 0x2 ADD DUP2 SWAP1 SSTORE POP JUMP JUMPDEST PUSH1 0x0 PUSH1 0x1 ADD PUSH1 0x0 SWAP1 SLOAD SWAP1 PUSH2 0x100 EXP SWAP1 DIV PUSH20 0xFFFFFFFFFFFFFFFFFFFFFFFFFFFFFFFFFFFFFFFF AND PUSH20 0xFFFFFFFFFFFFFFFFFFFFFFFFFFFFFFFFFFFFFFFF AND CALLER PUSH20 0xFFFFFFFFFFFFFFFFFFFFFFFFFFFFFFFFFFFFFFFF AND EQ PUSH2 0x1214 JUMPI PUSH1 0x40 MLOAD PUSH32 0x8C379A000000000000000000000000000000000000000000000000000000000 DUP2 MSTORE PUSH1 0x4 ADD PUSH2 0x120B SWAP1 PUSH2 0x3006 JUMP JUMPDEST PUSH1 0x40 MLOAD DUP1 SWAP2 SUB SWAP1 REVERT JUMPDEST PUSH2 0x121C PUSH2 0x43E JUMP JUMPDEST CALLVALUE EQ PUSH2 0x125D JUMPI PUSH1 0x40 MLOAD PUSH32 0x8C379A000000000000000000000000000000000000000000000000000000000 DUP2 MSTORE PUSH1 0x4 ADD PUSH2 0x1254 SWAP1 PUSH2 0x3A87 JUMP JUMPDEST PUSH1 0x40 MLOAD DUP1 SWAP2 SUB SWAP1 REVERT JUMPDEST PUSH1 0x0 DUP1 PUSH1 0x2 ADD DUP2 SWAP1 SSTORE POP PUSH1 0x0 DUP1 ADD PUSH1 0x0 SWAP1 SLOAD SWAP1 PUSH2 0x100 EXP SWAP1 DIV PUSH20 0xFFFFFFFFFFFFFFFFFFFFFFFFFFFFFFFFFFFFFFFF AND PUSH20 0xFFFFFFFFFFFFFFFFFFFFFFFFFFFFFFFFFFFFFFFF AND SELFBALANCE PUSH1 0x40 MLOAD PUSH2 0x12AF SWAP1 PUSH2 0x35EC JUMP JUMPDEST PUSH1 0x0 PUSH1 0x40 MLOAD DUP1 DUP4 SUB DUP2 DUP6 DUP8 GAS CALL SWAP3 POP POP POP RETURNDATASIZE DUP1 PUSH1 0x0 DUP2 EQ PUSH2 0x12EC JUMPI PUSH1 0x40 MLOAD SWAP2 POP PUSH1 0x1F NOT PUSH1 0x3F RETURNDATASIZE ADD AND DUP3 ADD PUSH1 0x40 MSTORE RETURNDATASIZE DUP3 MSTORE RETURNDATASIZE PUSH1 0x0 PUSH1 0x20 DUP5 ADD RETURNDATACOPY PUSH2 0x12F1 JUMP JUMPDEST PUSH1 0x60 SWAP2 POP JUMPDEST POP POP POP PUSH2 0x12FC PUSH2 0x20FC JUMP JUMPDEST JUMP JUMPDEST PUSH1 0x0 DUP1 TIMESTAMP SWAP1 POP PUSH1 0x0 DUP1 PUSH1 0x7 ADD PUSH1 0xC SWAP1 SLOAD SWAP1 PUSH2 0x100 EXP SWAP1 DIV PUSH6 0xFFFFFFFFFFFF AND PUSH1 0x0 PUSH1 0x7 ADD PUSH1 0x6 SWAP1 SLOAD SWAP1 PUSH2 0x100 EXP SWAP1 DIV PUSH6 0xFFFFFFFFFFFF AND PUSH2 0x133F SWAP2 SWAP1 PUSH2 0x388F JUMP JUMPDEST PUSH6 0xFFFFFFFFFFFF AND SWAP1 POP PUSH1 0x0 DUP1 PUSH1 0x7 ADD PUSH1 0x0 SWAP1 SLOAD SWAP1 PUSH2 0x100 EXP SWAP1 DIV PUSH6 0xFFFFFFFFFFFF AND PUSH1 0x0 PUSH1 0x7 ADD PUSH1 0x6 SWAP1 SLOAD SWAP1 PUSH2 0x100 EXP SWAP1 DIV PUSH6 0xFFFFFFFFFFFF AND PUSH2 0x1384 SWAP2 SWAP1 PUSH2 0x388F JUMP JUMPDEST PUSH6 0xFFFFFFFFFFFF AND SWAP1 POP PUSH1 0x0 DUP1 PUSH1 0x0 PUSH1 0x6 ADD SLOAD EQ ISZERO DUP1 ISZERO PUSH2 0x13CE JUMPI POP DUP4 PUSH1 0x0 PUSH1 0x7 ADD PUSH1 0x12 SWAP1 SLOAD SWAP1 PUSH2 0x100 EXP SWAP1 DIV PUSH6 0xFFFFFFFFFFFF AND PUSH6 0xFFFFFFFFFFFF AND DUP5 PUSH2 0x13CC SWAP2 SWAP1 PUSH2 0x330F JUMP JUMPDEST LT JUMPDEST ISZERO PUSH2 0x13ED JUMPI PUSH2 0x13EA DUP2 PUSH2 0x13E5 PUSH1 0x0 PUSH1 0x6 ADD SLOAD PUSH2 0x1720 JUMP JUMPDEST PUSH2 0x22D9 JUMP JUMPDEST SWAP1 POP JUMPDEST PUSH1 0x0 PUSH2 0x1487 PUSH32 0x0 PUSH2 0x1466 PUSH32 0x0 PUSH2 0x1445 PUSH1 0x0 PUSH1 0x3 ADD SLOAD PUSH2 0x1720 JUMP JUMPDEST PUSH16 0xFFFFFFFFFFFFFFFFFFFFFFFFFFFFFFFF NOT AND PUSH2 0x179E SWAP1 SWAP2 SWAP1 PUSH4 0xFFFFFFFF AND JUMP JUMPDEST PUSH16 0xFFFFFFFFFFFFFFFFFFFFFFFFFFFFFFFF NOT AND PUSH2 0x179E SWAP1 SWAP2 SWAP1 PUSH4 0xFFFFFFFF AND JUMP JUMPDEST SWAP1 POP PUSH1 0x0 PUSH2 0x14E3 DUP3 PUSH2 0x14C2 PUSH1 0x0 PUSH1 0x7 ADD PUSH1 0x6 SWAP1 SLOAD SWAP1 PUSH2 0x100 EXP SWAP1 DIV PUSH6 0xFFFFFFFFFFFF AND PUSH6 0xFFFFFFFFFFFF AND DUP10 PUSH2 0x14BD SWAP2 SWAP1 PUSH2 0x3587 JUMP JUMPDEST PUSH2 0x1720 JUMP JUMPDEST PUSH16 0xFFFFFFFFFFFFFFFFFFFFFFFFFFFFFFFF NOT AND PUSH2 0x1C67 SWAP1 SWAP2 SWAP1 PUSH4 0xFFFFFFFF AND JUMP JUMPDEST SWAP1 POP PUSH1 0x0 PUSH2 0x151A DUP3 PUSH2 0x14F9 PUSH1 0x0 PUSH1 0x2 ADD SLOAD PUSH2 0x1720 JUMP JUMPDEST PUSH16 0xFFFFFFFFFFFFFFFFFFFFFFFFFFFFFFFF NOT AND PUSH2 0x1C67 SWAP1 SWAP2 SWAP1 PUSH4 0xFFFFFFFF AND JUMP JUMPDEST SWAP1 POP PUSH2 0x1526 DUP5 DUP3 PUSH2 0x22D9 JUMP JUMPDEST SWAP4 POP PUSH1 0x0 DUP1 PUSH1 0x7 ADD PUSH1 0x0 SWAP1 SLOAD SWAP1 PUSH2 0x100 EXP SWAP1 DIV PUSH6 0xFFFFFFFFFFFF AND PUSH6 0xFFFFFFFFFFFF AND EQ ISZERO DUP1 ISZERO PUSH2 0x1556 JUMPI POP DUP5 DUP8 LT JUMPDEST ISZERO PUSH2 0x16F8 JUMPI PUSH1 0x0 PUSH1 0x7 ADD PUSH1 0x1E SWAP1 SLOAD SWAP1 PUSH2 0x100 EXP SWAP1 DIV PUSH1 0xFF AND ISZERO PUSH2 0x167C JUMPI PUSH1 0x0 PUSH2 0x1589 DUP9 DUP8 PUSH2 0x1584 SWAP2 SWAP1 PUSH2 0x3587 JUMP JUMPDEST PUSH2 0x1720 JUMP JUMPDEST SWAP1 POP PUSH1 0x0 PUSH2 0x1667 PUSH2 0x15E3 PUSH32 0x0 PUSH2 0x15C2 PUSH1 0x0 PUSH1 0x2 ADD SLOAD PUSH2 0x1720 JUMP JUMPDEST PUSH16 0xFFFFFFFFFFFFFFFFFFFFFFFFFFFFFFFF NOT AND PUSH2 0x179E SWAP1 SWAP2 SWAP1 PUSH4 0xFFFFFFFF AND JUMP JUMPDEST PUSH2 0x1646 PUSH2 0x15F4 PUSH1 0x0 PUSH1 0x5 ADD SLOAD PUSH2 0x1720 JUMP JUMPDEST PUSH2 0x1625 DUP7 PUSH2 0x1620 PUSH1 0x0 PUSH1 0x7 ADD PUSH1 0x0 SWAP1 SLOAD SWAP1 PUSH2 0x100 EXP SWAP1 DIV PUSH6 0xFFFFFFFFFFFF AND PUSH6 0xFFFFFFFFFFFF AND PUSH2 0x1720 JUMP JUMPDEST PUSH2 0x179E JUMP JUMPDEST PUSH16 0xFFFFFFFFFFFFFFFFFFFFFFFFFFFFFFFF NOT AND PUSH2 0x1C67 SWAP1 SWAP2 SWAP1 PUSH4 0xFFFFFFFF AND JUMP JUMPDEST PUSH16 0xFFFFFFFFFFFFFFFFFFFFFFFFFFFFFFFF NOT AND PUSH2 0x1C67 SWAP1 SWAP2 SWAP1 PUSH4 0xFFFFFFFF AND JUMP JUMPDEST SWAP1 POP PUSH2 0x1673 DUP7 DUP3 PUSH2 0x22D9 JUMP JUMPDEST SWAP6 POP POP POP PUSH2 0x16F7 JUMP JUMPDEST PUSH1 0x0 PUSH2 0x16E7 PUSH2 0x168F PUSH1 0x0 PUSH1 0x2 ADD SLOAD PUSH2 0x1720 JUMP JUMPDEST PUSH2 0x16E2 PUSH32 0x0 PUSH2 0x16C1 PUSH1 0x0 PUSH1 0x5 ADD SLOAD PUSH2 0x1720 JUMP JUMPDEST PUSH16 0xFFFFFFFFFFFFFFFFFFFFFFFFFFFFFFFF NOT AND PUSH2 0x179E SWAP1 SWAP2 SWAP1 PUSH4 0xFFFFFFFF AND JUMP JUMPDEST PUSH2 0x1C67 JUMP JUMPDEST SWAP1 POP PUSH2 0x16F3 DUP6 DUP3 PUSH2 0x22D9 JUMP JUMPDEST SWAP5 POP POP JUMPDEST JUMPDEST PUSH2 0x1714 DUP5 PUSH16 0xFFFFFFFFFFFFFFFFFFFFFFFFFFFFFFFF NOT AND PUSH2 0x293E JUMP JUMPDEST SWAP8 POP POP POP POP POP POP POP POP SWAP1 JUMP JUMPDEST PUSH1 0x0 DUP1 DUP3 EQ ISZERO PUSH2 0x1736 JUMPI PUSH1 0x0 PUSH1 0x80 SHL SWAP1 POP PUSH2 0x1799 JUMP JUMPDEST PUSH1 0x0 DUP3 SWAP1 POP PUSH1 0x0 PUSH2 0x1746 DUP3 PUSH2 0x2A3C JUMP JUMPDEST SWAP1 POP PUSH1 0x70 DUP2 LT ISZERO PUSH2 0x175F JUMPI DUP1 PUSH1 0x70 SUB DUP3 SWAP1 SHL SWAP2 POP PUSH2 0x1773 JUMP JUMPDEST PUSH1 0x70 DUP2 GT ISZERO PUSH2 0x1772 JUMPI PUSH1 0x70 DUP2 SUB DUP3 SWAP1 SHR SWAP2 POP JUMPDEST JUMPDEST PUSH1 0x70 DUP2 PUSH2 0x3FFF ADD SWAP1 SHL PUSH14 0xFFFFFFFFFFFFFFFFFFFFFFFFFFFF DUP4 AND OR SWAP2 POP DUP2 PUSH1 0x80 SHL SWAP3 POP POP POP JUMPDEST SWAP2 SWAP1 POP JUMP JUMPDEST PUSH1 0x0 DUP1 PUSH2 0x7FFF PUSH1 0x70 DUP6 PUSH1 0x80 SHR PUSH16 0xFFFFFFFFFFFFFFFFFFFFFFFFFFFFFFFF AND SWAP1 SHR AND PUSH16 0xFFFFFFFFFFFFFFFFFFFFFFFFFFFFFFFF AND SWAP1 POP PUSH1 0x0 PUSH2 0x7FFF PUSH1 0x70 DUP6 PUSH1 0x80 SHR PUSH16 0xFFFFFFFFFFFFFFFFFFFFFFFFFFFFFFFF AND SWAP1 SHR AND PUSH16 0xFFFFFFFFFFFFFFFFFFFFFFFFFFFFFFFF AND SWAP1 POP PUSH2 0x7FFF DUP3 EQ ISZERO PUSH2 0x1859 JUMPI PUSH2 0x7FFF DUP2 EQ ISZERO PUSH2 0x1838 JUMPI PUSH16 0x7FFF8000000000000000000000000000 PUSH1 0x80 SHL SWAP3 POP POP POP PUSH2 0x1C61 JUMP JUMPDEST PUSH16 0x80000000000000000000000000000000 PUSH1 0x80 SHL DUP5 AND DUP6 XOR SWAP3 POP POP POP PUSH2 0x1C61 JUMP JUMPDEST PUSH2 0x7FFF DUP2 EQ ISZERO PUSH2 0x18D8 JUMPI PUSH1 0x0 PUSH1 0x80 SHL PUSH14 0xFFFFFFFFFFFFFFFFFFFFFFFFFFFF PUSH1 0x80 SHL DUP6 AND PUSH16 0xFFFFFFFFFFFFFFFFFFFFFFFFFFFFFFFF NOT AND EQ PUSH2 0x18B1 JUMPI PUSH16 0x7FFF8000000000000000000000000000 PUSH1 0x80 SHL SWAP3 POP POP POP PUSH2 0x1C61 JUMP JUMPDEST PUSH16 0x80000000000000000000000000000000 PUSH1 0x80 SHL DUP5 DUP7 XOR AND PUSH1 0x0 PUSH1 0x80 SHL OR SWAP3 POP POP POP PUSH2 0x1C61 JUMP JUMPDEST PUSH1 0x0 PUSH1 0x80 SHL PUSH16 0x7FFFFFFFFFFFFFFFFFFFFFFFFFFFFFFF PUSH1 0x80 SHL DUP6 AND PUSH16 0xFFFFFFFFFFFFFFFFFFFFFFFFFFFFFFFF NOT AND EQ ISZERO PUSH2 0x1993 JUMPI PUSH1 0x0 PUSH1 0x80 SHL PUSH16 0x7FFFFFFFFFFFFFFFFFFFFFFFFFFFFFFF PUSH1 0x80 SHL DUP7 AND PUSH16 0xFFFFFFFFFFFFFFFFFFFFFFFFFFFFFFFF NOT AND EQ ISZERO PUSH2 0x195D JUMPI PUSH16 0x7FFF8000000000000000000000000000 PUSH1 0x80 SHL SWAP3 POP POP POP PUSH2 0x1C61 JUMP JUMPDEST PUSH16 0x80000000000000000000000000000000 PUSH1 0x80 SHL DUP5 DUP7 XOR AND PUSH16 0x7FFF0000000000000000000000000000 PUSH1 0x80 SHL OR SWAP3 POP POP POP PUSH2 0x1C61 JUMP JUMPDEST PUSH1 0x0 PUSH14 0xFFFFFFFFFFFFFFFFFFFFFFFFFFFF DUP6 PUSH1 0x80 SHR AND PUSH16 0xFFFFFFFFFFFFFFFFFFFFFFFFFFFFFFFF AND SWAP1 POP PUSH1 0x0 DUP3 EQ ISZERO PUSH2 0x19CF JUMPI PUSH1 0x1 SWAP2 POP PUSH2 0x19E4 JUMP JUMPDEST PUSH15 0x10000000000000000000000000000 DUP2 OR SWAP1 POP JUMPDEST PUSH1 0x0 PUSH14 0xFFFFFFFFFFFFFFFFFFFFFFFFFFFF DUP8 PUSH1 0x80 SHR AND PUSH16 0xFFFFFFFFFFFFFFFFFFFFFFFFFFFFFFFF AND SWAP1 POP PUSH1 0x0 DUP5 EQ ISZERO PUSH2 0x1A48 JUMPI PUSH1 0x0 DUP2 EQ PUSH2 0x1A43 JUMPI PUSH1 0x0 PUSH2 0x1A2A DUP3 PUSH2 0x2A3C JUMP JUMPDEST PUSH1 0xE2 SUB SWAP1 POP DUP1 DUP3 SWAP1 SHL SWAP2 POP PUSH1 0x1 SWAP5 POP PUSH1 0x72 DUP2 SUB DUP5 ADD SWAP4 POP POP JUMPDEST PUSH2 0x1A61 JUMP JUMPDEST PUSH1 0x72 PUSH15 0x10000000000000000000000000000 DUP3 OR SWAP1 SHL SWAP1 POP JUMPDEST DUP2 DUP2 DUP2 PUSH2 0x1A71 JUMPI PUSH2 0x1A70 PUSH2 0x3AA7 JUMP JUMPDEST JUMPDEST DIV SWAP1 POP PUSH1 0x0 DUP2 EQ ISZERO PUSH2 0x1ADC JUMPI PUSH1 0x0 PUSH1 0x80 SHL PUSH16 0x80000000000000000000000000000000 PUSH1 0x80 SHL DUP8 DUP10 XOR AND PUSH16 0xFFFFFFFFFFFFFFFFFFFFFFFFFFFFFFFF NOT AND GT PUSH2 0x1ABC JUMPI PUSH1 0x0 PUSH1 0x80 SHL PUSH2 0x1AD1 JUMP JUMPDEST PUSH16 0x80000000000000000000000000000000 PUSH1 0x80 SHL JUMPDEST SWAP5 POP POP POP POP POP PUSH2 0x1C61 JUMP JUMPDEST PUSH14 0x1000000000000000000000000000 DUP2 LT ISZERO PUSH2 0x1AFB JUMPI PUSH2 0x1AFA PUSH2 0x3AD6 JUMP JUMPDEST JUMPDEST PUSH1 0x0 PUSH15 0x80000000000000000000000000000 DUP3 LT ISZERO PUSH2 0x1B5C JUMPI PUSH15 0x40000000000000000000000000000 DUP3 LT ISZERO PUSH2 0x1B51 JUMPI PUSH15 0x20000000000000000000000000000 DUP3 LT ISZERO PUSH2 0x1B49 JUMPI PUSH1 0x70 PUSH2 0x1B4C JUMP JUMPDEST PUSH1 0x71 JUMPDEST PUSH2 0x1B54 JUMP JUMPDEST PUSH1 0x72 JUMPDEST PUSH1 0xFF AND PUSH2 0x1B66 JUMP JUMPDEST PUSH2 0x1B65 DUP3 PUSH2 0x2A3C JUMP JUMPDEST JUMPDEST SWAP1 POP PUSH2 0x4071 DUP5 ADD DUP2 DUP7 ADD GT ISZERO PUSH2 0x1B84 JUMPI PUSH2 0x7FFF SWAP5 POP PUSH1 0x0 SWAP2 POP PUSH2 0x1C21 JUMP JUMPDEST DUP4 PUSH2 0x3FFC DUP3 DUP8 ADD ADD LT ISZERO PUSH2 0x1B9F JUMPI PUSH1 0x0 SWAP5 POP PUSH1 0x0 SWAP2 POP PUSH2 0x1C20 JUMP JUMPDEST DUP4 PUSH2 0x3F8C DUP3 DUP8 ADD ADD LT ISZERO PUSH2 0x1BED JUMPI DUP4 PUSH2 0x3FFC DUP7 ADD GT ISZERO PUSH2 0x1BCA JUMPI DUP4 PUSH2 0x3FFC DUP7 ADD SUB DUP3 SWAP1 SHL SWAP2 POP PUSH2 0x1BE4 JUMP JUMPDEST DUP4 PUSH2 0x3FFC DUP7 ADD LT ISZERO PUSH2 0x1BE3 JUMPI PUSH2 0x3FFC DUP6 DUP6 SUB SUB DUP3 SWAP1 SHR SWAP2 POP JUMPDEST JUMPDEST PUSH1 0x0 SWAP5 POP PUSH2 0x1C1F JUMP JUMPDEST PUSH1 0x70 DUP2 GT ISZERO PUSH2 0x1C00 JUMPI PUSH1 0x70 DUP2 SUB DUP3 SWAP1 SHR SWAP2 POP JUMPDEST PUSH14 0xFFFFFFFFFFFFFFFFFFFFFFFFFFFF DUP3 AND SWAP2 POP DUP4 PUSH2 0x3F8D DUP3 DUP8 ADD ADD SUB SWAP5 POP JUMPDEST JUMPDEST JUMPDEST DUP2 PUSH1 0x70 DUP7 SWAP1 SHL PUSH16 0x80000000000000000000000000000000 PUSH1 0x80 SHL DUP10 DUP12 XOR AND PUSH1 0x80 SHR PUSH16 0xFFFFFFFFFFFFFFFFFFFFFFFFFFFFFFFF AND OR OR PUSH1 0x80 SHL SWAP6 POP POP POP POP POP POP JUMPDEST SWAP3 SWAP2 POP POP JUMP JUMPDEST PUSH1 0x0 DUP1 PUSH2 0x7FFF PUSH1 0x70 DUP6 PUSH1 0x80 SHR PUSH16 0xFFFFFFFFFFFFFFFFFFFFFFFFFFFFFFFF AND SWAP1 SHR AND PUSH16 0xFFFFFFFFFFFFFFFFFFFFFFFFFFFFFFFF AND SWAP1 POP PUSH1 0x0 PUSH2 0x7FFF PUSH1 0x70 DUP6 PUSH1 0x80 SHR PUSH16 0xFFFFFFFFFFFFFFFFFFFFFFFFFFFFFFFF AND SWAP1 SHR AND PUSH16 0xFFFFFFFFFFFFFFFFFFFFFFFFFFFFFFFF AND SWAP1 POP PUSH2 0x7FFF DUP3 EQ ISZERO PUSH2 0x1DFE JUMPI PUSH2 0x7FFF DUP2 EQ ISZERO PUSH2 0x1D8C JUMPI DUP4 PUSH16 0xFFFFFFFFFFFFFFFFFFFFFFFFFFFFFFFF NOT AND DUP6 PUSH16 0xFFFFFFFFFFFFFFFFFFFFFFFFFFFFFFFF NOT AND EQ ISZERO PUSH2 0x1D33 JUMPI PUSH16 0x80000000000000000000000000000000 PUSH1 0x80 SHL DUP5 AND DUP6 XOR SWAP3 POP POP POP PUSH2 0x20F6 JUMP JUMPDEST PUSH16 0x80000000000000000000000000000000 PUSH1 0x80 SHL DUP5 DUP7 XOR PUSH16 0xFFFFFFFFFFFFFFFFFFFFFFFFFFFFFFFF NOT AND EQ ISZERO PUSH2 0x1D6F JUMPI DUP4 DUP6 OR SWAP3 POP POP POP PUSH2 0x20F6 JUMP JUMPDEST PUSH16 0x7FFF8000000000000000000000000000 PUSH1 0x80 SHL SWAP3 POP POP POP PUSH2 0x20F6 JUMP JUMPDEST PUSH1 0x0 PUSH1 0x80 SHL PUSH16 0x7FFFFFFFFFFFFFFFFFFFFFFFFFFFFFFF PUSH1 0x80 SHL DUP6 AND PUSH16 0xFFFFFFFFFFFFFFFFFFFFFFFFFFFFFFFF NOT AND EQ ISZERO PUSH2 0x1DDD JUMPI PUSH16 0x7FFF8000000000000000000000000000 PUSH1 0x80 SHL SWAP3 POP POP POP PUSH2 0x20F6 JUMP JUMPDEST PUSH16 0x80000000000000000000000000000000 PUSH1 0x80 SHL DUP5 AND DUP6 XOR SWAP3 POP POP POP PUSH2 0x20F6 JUMP JUMPDEST PUSH2 0x7FFF DUP2 EQ ISZERO PUSH2 0x1E7A JUMPI PUSH1 0x0 PUSH1 0x80 SHL PUSH16 0x7FFFFFFFFFFFFFFFFFFFFFFFFFFFFFFF PUSH1 0x80 SHL DUP7 AND PUSH16 0xFFFFFFFFFFFFFFFFFFFFFFFFFFFFFFFF NOT AND EQ ISZERO PUSH2 0x1E59 JUMPI PUSH16 0x7FFF8000000000000000000000000000 PUSH1 0x80 SHL SWAP3 POP POP POP PUSH2 0x20F6 JUMP JUMPDEST PUSH16 0x80000000000000000000000000000000 PUSH1 0x80 SHL DUP6 AND DUP5 XOR SWAP3 POP POP POP PUSH2 0x20F6 JUMP JUMPDEST PUSH1 0x0 PUSH14 0xFFFFFFFFFFFFFFFFFFFFFFFFFFFF DUP7 PUSH1 0x80 SHR AND PUSH16 0xFFFFFFFFFFFFFFFFFFFFFFFFFFFFFFFF AND SWAP1 POP PUSH1 0x0 DUP4 EQ ISZERO PUSH2 0x1EB6 JUMPI PUSH1 0x1 SWAP3 POP PUSH2 0x1ECB JUMP JUMPDEST PUSH15 0x10000000000000000000000000000 DUP2 OR SWAP1 POP JUMPDEST PUSH1 0x0 PUSH14 0xFFFFFFFFFFFFFFFFFFFFFFFFFFFF DUP7 PUSH1 0x80 SHR AND PUSH16 0xFFFFFFFFFFFFFFFFFFFFFFFFFFFFFFFF AND SWAP1 POP PUSH1 0x0 DUP4 EQ ISZERO PUSH2 0x1F07 JUMPI PUSH1 0x1 SWAP3 POP PUSH2 0x1F1C JUMP JUMPDEST PUSH15 0x10000000000000000000000000000 DUP2 OR SWAP1 POP JUMPDEST DUP1 DUP3 MUL SWAP2 POP PUSH1 0x0 DUP3 EQ ISZERO PUSH2 0x1F89 JUMPI PUSH1 0x0 PUSH1 0x80 SHL PUSH16 0x80000000000000000000000000000000 PUSH1 0x80 SHL DUP8 DUP10 XOR AND PUSH16 0xFFFFFFFFFFFFFFFFFFFFFFFFFFFFFFFF NOT AND GT PUSH2 0x1F69 JUMPI PUSH1 0x0 PUSH1 0x80 SHL PUSH2 0x1F7E JUMP JUMPDEST PUSH16 0x80000000000000000000000000000000 PUSH1 0x80 SHL JUMPDEST SWAP5 POP POP POP POP POP PUSH2 0x20F6 JUMP JUMPDEST DUP3 DUP5 ADD SWAP4 POP PUSH1 0x0 PUSH29 0x200000000000000000000000000000000000000000000000000000000 DUP4 LT ISZERO PUSH2 0x1FF0 JUMPI PUSH29 0x100000000000000000000000000000000000000000000000000000000 DUP4 LT ISZERO PUSH2 0x1FE8 JUMPI PUSH2 0x1FE3 DUP4 PUSH2 0x2A3C JUMP JUMPDEST PUSH2 0x1FEB JUMP JUMPDEST PUSH1 0xE0 JUMPDEST PUSH2 0x1FF3 JUMP JUMPDEST PUSH1 0xE1 JUMPDEST SWAP1 POP PUSH2 0x4070 DUP2 DUP7 ADD LT ISZERO PUSH2 0x200E JUMPI PUSH1 0x0 SWAP5 POP PUSH1 0x0 SWAP3 POP PUSH2 0x20B6 JUMP JUMPDEST PUSH2 0x40E0 DUP2 DUP7 ADD LT ISZERO PUSH2 0x2052 JUMPI PUSH2 0x4070 DUP6 LT ISZERO PUSH2 0x2033 JUMPI DUP5 PUSH2 0x4070 SUB DUP4 SWAP1 SHR SWAP3 POP PUSH2 0x2049 JUMP JUMPDEST PUSH2 0x4070 DUP6 GT ISZERO PUSH2 0x2048 JUMPI PUSH2 0x4070 DUP6 SUB DUP4 SWAP1 SHL SWAP3 POP JUMPDEST JUMPDEST PUSH1 0x0 SWAP5 POP PUSH2 0x20B5 JUMP JUMPDEST PUSH2 0xC0DD DUP2 DUP7 ADD GT ISZERO PUSH2 0x206C JUMPI PUSH2 0x7FFF SWAP5 POP PUSH1 0x0 SWAP3 POP PUSH2 0x20B4 JUMP JUMPDEST PUSH1 0x70 DUP2 GT ISZERO PUSH2 0x2083 JUMPI PUSH1 0x70 DUP2 SUB DUP4 SWAP1 SHR SWAP3 POP PUSH2 0x2097 JUMP JUMPDEST PUSH1 0x70 DUP2 LT ISZERO PUSH2 0x2096 JUMPI DUP1 PUSH1 0x70 SUB DUP4 SWAP1 SHL SWAP3 POP JUMPDEST JUMPDEST PUSH14 0xFFFFFFFFFFFFFFFFFFFFFFFFFFFF DUP4 AND SWAP3 POP PUSH2 0x40DF DUP2 DUP7 ADD SUB SWAP5 POP JUMPDEST JUMPDEST JUMPDEST DUP3 PUSH1 0x70 DUP7 SWAP1 SHL PUSH16 0x80000000000000000000000000000000 PUSH1 0x80 SHL DUP10 DUP12 XOR AND PUSH1 0x80 SHR PUSH16 0xFFFFFFFFFFFFFFFFFFFFFFFFFFFFFFFF AND OR OR PUSH1 0x80 SHL SWAP6 POP POP POP POP POP POP JUMPDEST SWAP3 SWAP2 POP POP JUMP JUMPDEST PUSH1 0x0 PUSH1 0x1 ADD PUSH1 0x0 SWAP1 SLOAD SWAP1 PUSH2 0x100 EXP SWAP1 DIV PUSH20 0xFFFFFFFFFFFFFFFFFFFFFFFFFFFFFFFFFFFFFFFF AND PUSH20 0xFFFFFFFFFFFFFFFFFFFFFFFFFFFFFFFFFFFFFFFF AND CALLER PUSH20 0xFFFFFFFFFFFFFFFFFFFFFFFFFFFFFFFFFFFFFFFF AND EQ PUSH2 0x218F JUMPI PUSH1 0x40 MLOAD PUSH32 0x8C379A000000000000000000000000000000000000000000000000000000000 DUP2 MSTORE PUSH1 0x4 ADD PUSH2 0x2186 SWAP1 PUSH2 0x3006 JUMP JUMPDEST PUSH1 0x40 MLOAD DUP1 SWAP2 SUB SWAP1 REVERT JUMPDEST PUSH1 0x0 DUP1 PUSH1 0x2 ADD SLOAD EQ DUP1 ISZERO PUSH2 0x21C1 JUMPI POP PUSH1 0x0 DUP1 PUSH1 0x7 ADD PUSH1 0x6 SWAP1 SLOAD SWAP1 PUSH2 0x100 EXP SWAP1 DIV PUSH6 0xFFFFFFFFFFFF AND PUSH6 0xFFFFFFFFFFFF AND GT JUMPDEST PUSH2 0x2200 JUMPI PUSH1 0x40 MLOAD PUSH32 0x8C379A000000000000000000000000000000000000000000000000000000000 DUP2 MSTORE PUSH1 0x4 ADD PUSH2 0x21F7 SWAP1 PUSH2 0x3B9D JUMP JUMPDEST PUSH1 0x40 MLOAD DUP1 SWAP2 SUB SWAP1 REVERT JUMPDEST PUSH1 0x0 DUP1 PUSH1 0x0 PUSH1 0x1 ADD PUSH1 0x0 SWAP1 SLOAD SWAP1 PUSH2 0x100 EXP SWAP1 DIV PUSH20 0xFFFFFFFFFFFFFFFFFFFFFFFFFFFFFFFFFFFFFFFF AND PUSH20 0xFFFFFFFFFFFFFFFFFFFFFFFFFFFFFFFFFFFFFFFF AND PUSH1 0x8 SLOAD PUSH1 0x40 MLOAD PUSH2 0x224E SWAP1 PUSH2 0x35EC JUMP JUMPDEST PUSH1 0x0 PUSH1 0x40 MLOAD DUP1 DUP4 SUB DUP2 DUP6 DUP8 GAS CALL SWAP3 POP POP POP RETURNDATASIZE DUP1 PUSH1 0x0 DUP2 EQ PUSH2 0x228B JUMPI PUSH1 0x40 MLOAD SWAP2 POP PUSH1 0x1F NOT PUSH1 0x3F RETURNDATASIZE ADD AND DUP3 ADD PUSH1 0x40 MSTORE RETURNDATASIZE DUP3 MSTORE RETURNDATASIZE PUSH1 0x0 PUSH1 0x20 DUP5 ADD RETURNDATACOPY PUSH2 0x2290 JUMP JUMPDEST PUSH1 0x60 SWAP2 POP JUMPDEST POP SWAP2 POP SWAP2 POP DUP2 PUSH2 0x22D5 JUMPI PUSH1 0x40 MLOAD PUSH32 0x8C379A000000000000000000000000000000000000000000000000000000000 DUP2 MSTORE PUSH1 0x4 ADD PUSH2 0x22CC SWAP1 PUSH2 0x3C09 JUMP JUMPDEST PUSH1 0x40 MLOAD DUP1 SWAP2 SUB SWAP1 REVERT JUMPDEST POP POP JUMP JUMPDEST PUSH1 0x0 DUP1 PUSH2 0x7FFF PUSH1 0x70 DUP6 PUSH1 0x80 SHR PUSH16 0xFFFFFFFFFFFFFFFFFFFFFFFFFFFFFFFF AND SWAP1 SHR AND PUSH16 0xFFFFFFFFFFFFFFFFFFFFFFFFFFFFFFFF AND SWAP1 POP PUSH1 0x0 PUSH2 0x7FFF PUSH1 0x70 DUP6 PUSH1 0x80 SHR PUSH16 0xFFFFFFFFFFFFFFFFFFFFFFFFFFFFFFFF AND SWAP1 SHR AND PUSH16 0xFFFFFFFFFFFFFFFFFFFFFFFFFFFFFFFF AND SWAP1 POP PUSH2 0x7FFF DUP3 EQ ISZERO PUSH2 0x23B5 JUMPI PUSH2 0x7FFF DUP2 EQ ISZERO PUSH2 0x23AB JUMPI DUP4 PUSH16 0xFFFFFFFFFFFFFFFFFFFFFFFFFFFFFFFF NOT AND DUP6 PUSH16 0xFFFFFFFFFFFFFFFFFFFFFFFFFFFFFFFF NOT AND EQ ISZERO PUSH2 0x238E JUMPI DUP5 SWAP3 POP POP POP PUSH2 0x2938 JUMP JUMPDEST PUSH16 0x7FFF8000000000000000000000000000 PUSH1 0x80 SHL SWAP3 POP POP POP PUSH2 0x2938 JUMP JUMPDEST DUP5 SWAP3 POP POP POP PUSH2 0x2938 JUMP JUMPDEST PUSH2 0x7FFF DUP2 EQ ISZERO PUSH2 0x23C9 JUMPI DUP4 SWAP3 POP POP POP PUSH2 0x2938 JUMP JUMPDEST PUSH1 0x0 PUSH16 0x80000000000000000000000000000000 DUP7 PUSH1 0x80 SHR PUSH16 0xFFFFFFFFFFFFFFFFFFFFFFFFFFFFFFFF AND LT ISZERO SWAP1 POP PUSH1 0x0 PUSH14 0xFFFFFFFFFFFFFFFFFFFFFFFFFFFF DUP8 PUSH1 0x80 SHR AND PUSH16 0xFFFFFFFFFFFFFFFFFFFFFFFFFFFFFFFF AND SWAP1 POP PUSH1 0x0 DUP5 EQ ISZERO PUSH2 0x2432 JUMPI PUSH1 0x1 SWAP4 POP PUSH2 0x2447 JUMP JUMPDEST PUSH15 0x10000000000000000000000000000 DUP2 OR SWAP1 POP JUMPDEST PUSH1 0x0 PUSH16 0x80000000000000000000000000000000 DUP8 PUSH1 0x80 SHR PUSH16 0xFFFFFFFFFFFFFFFFFFFFFFFFFFFFFFFF AND LT ISZERO SWAP1 POP PUSH1 0x0 PUSH14 0xFFFFFFFFFFFFFFFFFFFFFFFFFFFF DUP9 PUSH1 0x80 SHR AND PUSH16 0xFFFFFFFFFFFFFFFFFFFFFFFFFFFFFFFF AND SWAP1 POP PUSH1 0x0 DUP6 EQ ISZERO PUSH2 0x24B0 JUMPI PUSH1 0x1 SWAP5 POP PUSH2 0x24C5 JUMP JUMPDEST PUSH15 0x10000000000000000000000000000 DUP2 OR SWAP1 POP JUMPDEST PUSH1 0x0 DUP4 EQ ISZERO PUSH2 0x2527 JUMPI PUSH16 0x80000000000000000000000000000000 PUSH1 0x80 SHL PUSH16 0xFFFFFFFFFFFFFFFFFFFFFFFFFFFFFFFF NOT AND DUP9 PUSH16 0xFFFFFFFFFFFFFFFFFFFFFFFFFFFFFFFF NOT AND EQ PUSH2 0x2514 JUMPI DUP8 PUSH2 0x251A JUMP JUMPDEST PUSH1 0x0 PUSH1 0x80 SHL JUMPDEST SWAP7 POP POP POP POP POP POP POP PUSH2 0x2938 JUMP JUMPDEST PUSH1 0x0 DUP2 EQ ISZERO PUSH2 0x2589 JUMPI PUSH16 0x80000000000000000000000000000000 PUSH1 0x80 SHL PUSH16 0xFFFFFFFFFFFFFFFFFFFFFFFFFFFFFFFF NOT AND DUP10 PUSH16 0xFFFFFFFFFFFFFFFFFFFFFFFFFFFFFFFF NOT AND EQ PUSH2 0x2576 JUMPI DUP9 PUSH2 0x257C JUMP JUMPDEST PUSH1 0x0 PUSH1 0x80 SHL JUMPDEST SWAP7 POP POP POP POP POP POP POP PUSH2 0x2938 JUMP JUMPDEST PUSH1 0x0 DUP6 DUP8 SUB SWAP1 POP DUP3 ISZERO ISZERO DUP6 ISZERO ISZERO EQ ISZERO PUSH2 0x2707 JUMPI PUSH1 0x70 DUP2 SGT ISZERO PUSH2 0x25B4 JUMPI DUP10 SWAP8 POP POP POP POP POP POP POP POP PUSH2 0x2938 JUMP JUMPDEST PUSH1 0x0 DUP2 SGT ISZERO PUSH2 0x25C8 JUMPI DUP1 DUP3 SWAP1 SHR SWAP2 POP PUSH2 0x2616 JUMP JUMPDEST PUSH32 0xFFFFFFFFFFFFFFFFFFFFFFFFFFFFFFFFFFFFFFFFFFFFFFFFFFFFFFFFFFFFFF90 DUP2 SLT ISZERO PUSH2 0x25FF JUMPI DUP9 SWAP8 POP POP POP POP POP POP POP POP PUSH2 0x2938 JUMP JUMPDEST PUSH1 0x0 DUP2 SLT ISZERO PUSH2 0x2615 JUMPI DUP1 PUSH1 0x0 SUB DUP5 SWAP1 SHR SWAP4 POP DUP6 SWAP7 POP JUMPDEST JUMPDEST DUP2 DUP5 ADD SWAP4 POP PUSH15 0x20000000000000000000000000000 DUP5 LT PUSH2 0x263F JUMPI PUSH1 0x1 DUP5 SWAP1 SHR SWAP4 POP PUSH1 0x1 DUP8 ADD SWAP7 POP JUMPDEST PUSH2 0x7FFF DUP8 EQ ISZERO PUSH2 0x268A JUMPI DUP5 PUSH2 0x2667 JUMPI PUSH16 0x7FFF0000000000000000000000000000 PUSH1 0x80 SHL PUSH2 0x267C JUMP JUMPDEST PUSH16 0xFFFF0000000000000000000000000000 PUSH1 0x80 SHL JUMPDEST SWAP8 POP POP POP POP POP POP POP POP PUSH2 0x2938 JUMP JUMPDEST PUSH15 0x10000000000000000000000000000 DUP5 LT ISZERO PUSH2 0x26AA JUMPI PUSH1 0x0 SWAP7 POP PUSH2 0x26BE JUMP JUMPDEST PUSH14 0xFFFFFFFFFFFFFFFFFFFFFFFFFFFF DUP5 AND SWAP4 POP JUMPDEST DUP4 PUSH1 0x70 DUP9 SWAP1 SHL DUP7 PUSH2 0x26D0 JUMPI PUSH1 0x0 PUSH2 0x26E2 JUMP JUMPDEST PUSH16 0x80000000000000000000000000000000 JUMPDEST PUSH16 0xFFFFFFFFFFFFFFFFFFFFFFFFFFFFFFFF AND OR OR PUSH1 0x80 SHL SWAP8 POP POP POP POP POP POP POP POP PUSH2 0x2938 JUMP JUMPDEST PUSH1 0x0 DUP2 SGT ISZERO PUSH2 0x2722 JUMPI PUSH1 0x1 DUP5 SWAP1 SHL SWAP4 POP PUSH1 0x1 DUP8 SUB SWAP7 POP PUSH2 0x273A JUMP JUMPDEST PUSH1 0x0 DUP2 SLT ISZERO PUSH2 0x2739 JUMPI PUSH1 0x1 DUP3 SWAP1 SHL SWAP2 POP PUSH1 0x1 DUP7 SUB SWAP7 POP JUMPDEST JUMPDEST PUSH1 0x70 DUP2 SGT ISZERO PUSH2 0x274C JUMPI PUSH1 0x1 SWAP2 POP PUSH2 0x27D6 JUMP JUMPDEST PUSH1 0x1 DUP2 SGT ISZERO PUSH2 0x2768 JUMPI PUSH1 0x1 DUP1 DUP3 SUB PUSH1 0x1 DUP5 SUB SWAP1 SHR ADD SWAP2 POP PUSH2 0x27D5 JUMP JUMPDEST PUSH32 0xFFFFFFFFFFFFFFFFFFFFFFFFFFFFFFFFFFFFFFFFFFFFFFFFFFFFFFFFFFFFFF90 DUP2 SLT ISZERO PUSH2 0x2799 JUMPI PUSH1 0x1 SWAP4 POP PUSH2 0x27D4 JUMP JUMPDEST PUSH32 0xFFFFFFFFFFFFFFFFFFFFFFFFFFFFFFFFFFFFFFFFFFFFFFFFFFFFFFFFFFFFFFFF DUP2 SLT ISZERO PUSH2 0x27D3 JUMPI PUSH1 0x1 DUP1 DUP3 PUSH1 0x0 SUB SUB PUSH1 0x1 DUP7 SUB SWAP1 SHR ADD SWAP4 POP JUMPDEST JUMPDEST JUMPDEST JUMPDEST DUP2 DUP5 LT PUSH2 0x27E7 JUMPI DUP2 DUP5 SUB SWAP4 POP PUSH2 0x27F0 JUMP JUMPDEST DUP4 DUP3 SUB SWAP4 POP DUP3 SWAP5 POP JUMPDEST PUSH1 0x0 DUP5 EQ ISZERO PUSH2 0x280C JUMPI PUSH1 0x0 PUSH1 0x80 SHL SWAP8 POP POP POP POP POP POP POP POP PUSH2 0x2938 JUMP JUMPDEST PUSH1 0x0 PUSH2 0x2817 DUP6 PUSH2 0x2A3C JUMP JUMPDEST SWAP1 POP PUSH1 0x71 DUP2 EQ ISZERO PUSH2 0x2844 JUMPI PUSH14 0xFFFFFFFFFFFFFFFFFFFFFFFFFFFF PUSH1 0x1 DUP7 SWAP1 SHR AND SWAP5 POP PUSH1 0x1 DUP9 ADD SWAP8 POP PUSH2 0x28A6 JUMP JUMPDEST PUSH1 0x70 DUP2 LT ISZERO PUSH2 0x2891 JUMPI PUSH1 0x0 DUP2 PUSH1 0x70 SUB SWAP1 POP DUP1 DUP10 GT ISZERO PUSH2 0x287D JUMPI PUSH14 0xFFFFFFFFFFFFFFFFFFFFFFFFFFFF DUP2 DUP8 SWAP1 SHL AND SWAP6 POP DUP1 DUP10 SUB SWAP9 POP PUSH2 0x288B JUMP JUMPDEST PUSH1 0x1 DUP10 SUB DUP7 SWAP1 SHL SWAP6 POP PUSH1 0x0 SWAP9 POP JUMPDEST POP PUSH2 0x28A5 JUMP JUMPDEST PUSH14 0xFFFFFFFFFFFFFFFFFFFFFFFFFFFF DUP6 AND SWAP5 POP JUMPDEST JUMPDEST PUSH2 0x7FFF DUP9 EQ ISZERO PUSH2 0x28F2 JUMPI DUP6 PUSH2 0x28CE JUMPI PUSH16 0x7FFF0000000000000000000000000000 PUSH1 0x80 SHL PUSH2 0x28E3 JUMP JUMPDEST PUSH16 0xFFFF0000000000000000000000000000 PUSH1 0x80 SHL JUMPDEST SWAP9 POP POP POP POP POP POP POP POP POP PUSH2 0x2938 JUMP JUMPDEST DUP5 PUSH1 0x70 DUP10 SWAP1 SHL DUP8 PUSH2 0x2904 JUMPI PUSH1 0x0 PUSH2 0x2916 JUMP JUMPDEST PUSH16 0x80000000000000000000000000000000 JUMPDEST PUSH16 0xFFFFFFFFFFFFFFFFFFFFFFFFFFFFFFFF AND OR OR PUSH1 0x80 SHL SWAP9 POP POP POP POP POP POP POP POP POP JUMPDEST SWAP3 SWAP2 POP POP JUMP JUMPDEST PUSH1 0x0 DUP1 PUSH2 0x7FFF PUSH1 0x70 DUP5 PUSH1 0x80 SHR PUSH16 0xFFFFFFFFFFFFFFFFFFFFFFFFFFFFFFFF AND SWAP1 SHR AND PUSH16 0xFFFFFFFFFFFFFFFFFFFFFFFFFFFFFFFF AND SWAP1 POP PUSH2 0x3FFF DUP2 LT ISZERO PUSH2 0x2987 JUMPI PUSH1 0x0 SWAP2 POP POP PUSH2 0x2A37 JUMP JUMPDEST PUSH16 0x80000000000000000000000000000000 DUP4 PUSH1 0x80 SHR PUSH16 0xFFFFFFFFFFFFFFFFFFFFFFFFFFFFFFFF AND LT PUSH2 0x29B8 JUMPI PUSH1 0x0 DUP1 REVERT JUMPDEST PUSH2 0x40FE DUP2 GT ISZERO PUSH2 0x29C7 JUMPI PUSH1 0x0 DUP1 REVERT JUMPDEST PUSH1 0x0 PUSH15 0x10000000000000000000000000000 PUSH14 0xFFFFFFFFFFFFFFFFFFFFFFFFFFFF DUP6 PUSH1 0x80 SHR PUSH16 0xFFFFFFFFFFFFFFFFFFFFFFFFFFFFFFFF AND AND OR SWAP1 POP PUSH2 0x406F DUP3 LT ISZERO PUSH2 0x2A1B JUMPI DUP2 PUSH2 0x406F SUB DUP2 SWAP1 SHR SWAP1 POP PUSH2 0x2A31 JUMP JUMPDEST PUSH2 0x406F DUP3 GT ISZERO PUSH2 0x2A30 JUMPI PUSH2 0x406F DUP3 SUB DUP2 SWAP1 SHL SWAP1 POP JUMPDEST JUMPDEST DUP1 SWAP3 POP POP POP JUMPDEST SWAP2 SWAP1 POP JUMP JUMPDEST PUSH1 0x0 DUP1 DUP3 GT PUSH2 0x2A4A JUMPI PUSH1 0x0 DUP1 REVERT JUMPDEST PUSH1 0x0 PUSH17 0x100000000000000000000000000000000 DUP4 LT PUSH2 0x2A72 JUMPI PUSH1 0x80 DUP4 SWAP1 SHR SWAP3 POP PUSH1 0x80 DUP2 ADD SWAP1 POP JUMPDEST PUSH9 0x10000000000000000 DUP4 LT PUSH2 0x2A90 JUMPI PUSH1 0x40 DUP4 SWAP1 SHR SWAP3 POP PUSH1 0x40 DUP2 ADD SWAP1 POP JUMPDEST PUSH5 0x100000000 DUP4 LT PUSH2 0x2AAA JUMPI PUSH1 0x20 DUP4 SWAP1 SHR SWAP3 POP PUSH1 0x20 DUP2 ADD SWAP1 POP JUMPDEST PUSH3 0x10000 DUP4 LT PUSH2 0x2AC2 JUMPI PUSH1 0x10 DUP4 SWAP1 SHR SWAP3 POP PUSH1 0x10 DUP2 ADD SWAP1 POP JUMPDEST PUSH2 0x100 DUP4 LT PUSH2 0x2AD9 JUMPI PUSH1 0x8 DUP4 SWAP1 SHR SWAP3 POP PUSH1 0x8 DUP2 ADD SWAP1 POP JUMPDEST PUSH1 0x10 DUP4 LT PUSH2 0x2AEF JUMPI PUSH1 0x4 DUP4 SWAP1 SHR SWAP3 POP PUSH1 0x4 DUP2 ADD SWAP1 POP JUMPDEST PUSH1 0x4 DUP4 LT PUSH2 0x2B05 JUMPI PUSH1 0x2 DUP4 SWAP1 SHR SWAP3 POP PUSH1 0x2 DUP2 ADD SWAP1 POP JUMPDEST PUSH1 0x2 DUP4 LT PUSH2 0x2B14 JUMPI PUSH1 0x1 DUP2 ADD SWAP1 POP JUMPDEST DUP1 SWAP2 POP POP SWAP2 SWAP1 POP JUMP JUMPDEST PUSH1 0x40 MLOAD DUP1 PUSH2 0x1A0 ADD PUSH1 0x40 MSTORE DUP1 PUSH1 0x0 PUSH20 0xFFFFFFFFFFFFFFFFFFFFFFFFFFFFFFFFFFFFFFFF AND DUP2 MSTORE PUSH1 0x20 ADD PUSH1 0x0 PUSH20 0xFFFFFFFFFFFFFFFFFFFFFFFFFFFFFFFFFFFFFFFF AND DUP2 MSTORE PUSH1 0x20 ADD PUSH1 0x0 DUP2 MSTORE PUSH1 0x20 ADD PUSH1 0x0 DUP2 MSTORE PUSH1 0x20 ADD PUSH1 0x0 DUP2 MSTORE PUSH1 0x20 ADD PUSH1 0x0 DUP2 MSTORE PUSH1 0x20 ADD PUSH1 0x0 DUP2 MSTORE PUSH1 0x20 ADD PUSH1 0x0 PUSH6 0xFFFFFFFFFFFF AND DUP2 MSTORE PUSH1 0x20 ADD PUSH1 0x0 PUSH6 0xFFFFFFFFFFFF AND DUP2 MSTORE PUSH1 0x20 ADD PUSH1 0x0 PUSH6 0xFFFFFFFFFFFF AND DUP2 MSTORE PUSH1 0x20 ADD PUSH1 0x0 PUSH6 0xFFFFFFFFFFFF AND DUP2 MSTORE PUSH1 0x20 ADD PUSH1 0x0 PUSH6 0xFFFFFFFFFFFF AND DUP2 MSTORE PUSH1 0x20 ADD PUSH1 0x0 ISZERO ISZERO DUP2 MSTORE POP SWAP1 JUMP JUMPDEST PUSH1 0x0 DUP2 SWAP1 POP SWAP2 SWAP1 POP JUMP JUMPDEST PUSH2 0x2BEE DUP2 PUSH2 0x2BDB JUMP JUMPDEST DUP3 MSTORE POP POP JUMP JUMPDEST PUSH1 0x0 PUSH1 0x20 DUP3 ADD SWAP1 POP PUSH2 0x2C09 PUSH1 0x0 DUP4 ADD DUP5 PUSH2 0x2BE5 JUMP JUMPDEST SWAP3 SWAP2 POP POP JUMP JUMPDEST PUSH1 0x0 DUP1 REVERT JUMPDEST PUSH1 0x0 PUSH20 0xFFFFFFFFFFFFFFFFFFFFFFFFFFFFFFFFFFFFFFFF DUP3 AND SWAP1 POP SWAP2 SWAP1 POP JUMP JUMPDEST PUSH1 0x0 PUSH2 0x2C3F DUP3 PUSH2 0x2C14 JUMP JUMPDEST SWAP1 POP SWAP2 SWAP1 POP JUMP JUMPDEST PUSH2 0x2C4F DUP2 PUSH2 0x2C34 JUMP JUMPDEST DUP2 EQ PUSH2 0x2C5A JUMPI PUSH1 0x0 DUP1 REVERT JUMPDEST POP JUMP JUMPDEST PUSH1 0x0 DUP2 CALLDATALOAD SWAP1 POP PUSH2 0x2C6C DUP2 PUSH2 0x2C46 JUMP JUMPDEST SWAP3 SWAP2 POP POP JUMP JUMPDEST PUSH1 0x0 PUSH6 0xFFFFFFFFFFFF DUP3 AND SWAP1 POP SWAP2 SWAP1 POP JUMP JUMPDEST PUSH2 0x2C8D DUP2 PUSH2 0x2C72 JUMP JUMPDEST DUP2 EQ PUSH2 0x2C98 JUMPI PUSH1 0x0 DUP1 REVERT JUMPDEST POP JUMP JUMPDEST PUSH1 0x0 DUP2 CALLDATALOAD SWAP1 POP PUSH2 0x2CAA DUP2 PUSH2 0x2C84 JUMP JUMPDEST SWAP3 SWAP2 POP POP JUMP JUMPDEST PUSH2 0x2CB9 DUP2 PUSH2 0x2BDB JUMP JUMPDEST DUP2 EQ PUSH2 0x2CC4 JUMPI PUSH1 0x0 DUP1 REVERT JUMPDEST POP JUMP JUMPDEST PUSH1 0x0 DUP2 CALLDATALOAD SWAP1 POP PUSH2 0x2CD6 DUP2 PUSH2 0x2CB0 JUMP JUMPDEST SWAP3 SWAP2 POP POP JUMP JUMPDEST PUSH1 0x0 DUP2 ISZERO ISZERO SWAP1 POP SWAP2 SWAP1 POP JUMP JUMPDEST PUSH2 0x2CF1 DUP2 PUSH2 0x2CDC JUMP JUMPDEST DUP2 EQ PUSH2 0x2CFC JUMPI PUSH1 0x0 DUP1 REVERT JUMPDEST POP JUMP JUMPDEST PUSH1 0x0 DUP2 CALLDATALOAD SWAP1 POP PUSH2 0x2D0E DUP2 PUSH2 0x2CE8 JUMP JUMPDEST SWAP3 SWAP2 POP POP JUMP JUMPDEST PUSH1 0x0 DUP1 PUSH1 0x0 DUP1 PUSH1 0x0 DUP1 PUSH1 0x0 DUP1 PUSH1 0x0 DUP1 PUSH2 0x140 DUP12 DUP14 SUB SLT ISZERO PUSH2 0x2D38 JUMPI PUSH2 0x2D37 PUSH2 0x2C0F JUMP JUMPDEST JUMPDEST PUSH1 0x0 PUSH2 0x2D46 DUP14 DUP3 DUP15 ADD PUSH2 0x2C5D JUMP JUMPDEST SWAP11 POP POP PUSH1 0x20 PUSH2 0x2D57 DUP14 DUP3 DUP15 ADD PUSH2 0x2C9B JUMP JUMPDEST SWAP10 POP POP PUSH1 0x40 PUSH2 0x2D68 DUP14 DUP3 DUP15 ADD PUSH2 0x2CC7 JUMP JUMPDEST SWAP9 POP POP PUSH1 0x60 PUSH2 0x2D79 DUP14 DUP3 DUP15 ADD PUSH2 0x2CC7 JUMP JUMPDEST SWAP8 POP POP PUSH1 0x80 PUSH2 0x2D8A DUP14 DUP3 DUP15 ADD PUSH2 0x2CC7 JUMP JUMPDEST SWAP7 POP POP PUSH1 0xA0 PUSH2 0x2D9B DUP14 DUP3 DUP15 ADD PUSH2 0x2C9B JUMP JUMPDEST SWAP6 POP POP PUSH1 0xC0 PUSH2 0x2DAC DUP14 DUP3 DUP15 ADD PUSH2 0x2CFF JUMP JUMPDEST SWAP5 POP POP PUSH1 0xE0 PUSH2 0x2DBD DUP14 DUP3 DUP15 ADD PUSH2 0x2CC7 JUMP JUMPDEST SWAP4 POP POP PUSH2 0x100 PUSH2 0x2DCF DUP14 DUP3 DUP15 ADD PUSH2 0x2C9B JUMP JUMPDEST SWAP3 POP POP PUSH2 0x120 PUSH2 0x2DE1 DUP14 DUP3 DUP15 ADD PUSH2 0x2C9B JUMP JUMPDEST SWAP2 POP POP SWAP3 SWAP6 SWAP9 SWAP12 SWAP2 SWAP5 SWAP8 SWAP11 POP SWAP3 SWAP6 SWAP9 POP JUMP JUMPDEST PUSH2 0x2DFC DUP2 PUSH2 0x2C34 JUMP JUMPDEST DUP3 MSTORE POP POP JUMP JUMPDEST PUSH2 0x2E0B DUP2 PUSH2 0x2BDB JUMP JUMPDEST DUP3 MSTORE POP POP JUMP JUMPDEST PUSH2 0x2E1A DUP2 PUSH2 0x2C72 JUMP JUMPDEST DUP3 MSTORE POP POP JUMP JUMPDEST PUSH2 0x2E29 DUP2 PUSH2 0x2CDC JUMP JUMPDEST DUP3 MSTORE POP POP JUMP JUMPDEST PUSH2 0x1A0 DUP3 ADD PUSH1 0x0 DUP3 ADD MLOAD PUSH2 0x2E46 PUSH1 0x0 DUP6 ADD DUP3 PUSH2 0x2DF3 JUMP JUMPDEST POP PUSH1 0x20 DUP3 ADD MLOAD PUSH2 0x2E59 PUSH1 0x20 DUP6 ADD DUP3 PUSH2 0x2DF3 JUMP JUMPDEST POP PUSH1 0x40 DUP3 ADD MLOAD PUSH2 0x2E6C PUSH1 0x40 DUP6 ADD DUP3 PUSH2 0x2E02 JUMP JUMPDEST POP PUSH1 0x60 DUP3 ADD MLOAD PUSH2 0x2E7F PUSH1 0x60 DUP6 ADD DUP3 PUSH2 0x2E02 JUMP JUMPDEST POP PUSH1 0x80 DUP3 ADD MLOAD PUSH2 0x2E92 PUSH1 0x80 DUP6 ADD DUP3 PUSH2 0x2E02 JUMP JUMPDEST POP PUSH1 0xA0 DUP3 ADD MLOAD PUSH2 0x2EA5 PUSH1 0xA0 DUP6 ADD DUP3 PUSH2 0x2E02 JUMP JUMPDEST POP PUSH1 0xC0 DUP3 ADD MLOAD PUSH2 0x2EB8 PUSH1 0xC0 DUP6 ADD DUP3 PUSH2 0x2E02 JUMP JUMPDEST POP PUSH1 0xE0 DUP3 ADD MLOAD PUSH2 0x2ECB PUSH1 0xE0 DUP6 ADD DUP3 PUSH2 0x2E11 JUMP JUMPDEST POP PUSH2 0x100 DUP3 ADD MLOAD PUSH2 0x2EE0 PUSH2 0x100 DUP6 ADD DUP3 PUSH2 0x2E11 JUMP JUMPDEST POP PUSH2 0x120 DUP3 ADD MLOAD PUSH2 0x2EF5 PUSH2 0x120 DUP6 ADD DUP3 PUSH2 0x2E11 JUMP JUMPDEST POP PUSH2 0x140 DUP3 ADD MLOAD PUSH2 0x2F0A PUSH2 0x140 DUP6 ADD DUP3 PUSH2 0x2E11 JUMP JUMPDEST POP PUSH2 0x160 DUP3 ADD MLOAD PUSH2 0x2F1F PUSH2 0x160 DUP6 ADD DUP3 PUSH2 0x2E11 JUMP JUMPDEST POP PUSH2 0x180 DUP3 ADD MLOAD PUSH2 0x2F34 PUSH2 0x180 DUP6 ADD DUP3 PUSH2 0x2E20 JUMP JUMPDEST POP POP POP POP JUMP JUMPDEST PUSH1 0x0 PUSH2 0x1A0 DUP3 ADD SWAP1 POP PUSH2 0x2F50 PUSH1 0x0 DUP4 ADD DUP5 PUSH2 0x2E2F JUMP JUMPDEST SWAP3 SWAP2 POP POP JUMP JUMPDEST PUSH1 0x0 PUSH1 0x20 DUP3 DUP5 SUB SLT ISZERO PUSH2 0x2F6C JUMPI PUSH2 0x2F6B PUSH2 0x2C0F JUMP JUMPDEST JUMPDEST PUSH1 0x0 PUSH2 0x2F7A DUP5 DUP3 DUP6 ADD PUSH2 0x2C5D JUMP JUMPDEST SWAP2 POP POP SWAP3 SWAP2 POP POP JUMP JUMPDEST PUSH1 0x0 DUP3 DUP3 MSTORE PUSH1 0x20 DUP3 ADD SWAP1 POP SWAP3 SWAP2 POP POP JUMP JUMPDEST PUSH32 0x4F6E6C792074686520626F72726F776572206F662074686520636F6E74726163 PUSH1 0x0 DUP3 ADD MSTORE PUSH32 0x742063616E20706572666F726D2074686973206F7065726174696F6E00000000 PUSH1 0x20 DUP3 ADD MSTORE POP JUMP JUMPDEST PUSH1 0x0 PUSH2 0x2FF0 PUSH1 0x3C DUP4 PUSH2 0x2F83 JUMP JUMPDEST SWAP2 POP PUSH2 0x2FFB DUP3 PUSH2 0x2F94 JUMP JUMPDEST PUSH1 0x40 DUP3 ADD SWAP1 POP SWAP2 SWAP1 POP JUMP JUMPDEST PUSH1 0x0 PUSH1 0x20 DUP3 ADD SWAP1 POP DUP2 DUP2 SUB PUSH1 0x0 DUP4 ADD MSTORE PUSH2 0x301F DUP2 PUSH2 0x2FE3 JUMP JUMPDEST SWAP1 POP SWAP2 SWAP1 POP JUMP JUMPDEST PUSH32 0x4E6F20636F6C6C61746572616C206973206E656365737361727920666F722074 PUSH1 0x0 DUP3 ADD MSTORE PUSH32 0x686973206C6F616E000000000000000000000000000000000000000000000000 PUSH1 0x20 DUP3 ADD MSTORE POP JUMP JUMPDEST PUSH1 0x0 PUSH2 0x3082 PUSH1 0x28 DUP4 PUSH2 0x2F83 JUMP JUMPDEST SWAP2 POP PUSH2 0x308D DUP3 PUSH2 0x3026 JUMP JUMPDEST PUSH1 0x40 DUP3 ADD SWAP1 POP SWAP2 SWAP1 POP JUMP JUMPDEST PUSH1 0x0 PUSH1 0x20 DUP3 ADD SWAP1 POP DUP2 DUP2 SUB PUSH1 0x0 DUP4 ADD MSTORE PUSH2 0x30B1 DUP2 PUSH2 0x3075 JUMP JUMPDEST SWAP1 POP SWAP2 SWAP1 POP JUMP JUMPDEST PUSH32 0x4C6F616E206D7573742062652066756E646564206265666F726520636F6C6C61 PUSH1 0x0 DUP3 ADD MSTORE PUSH32 0x746572616C20697320616C6C6F63617465640000000000000000000000000000 PUSH1 0x20 DUP3 ADD MSTORE POP JUMP JUMPDEST PUSH1 0x0 PUSH2 0x3114 PUSH1 0x32 DUP4 PUSH2 0x2F83 JUMP JUMPDEST SWAP2 POP PUSH2 0x311F DUP3 PUSH2 0x30B8 JUMP JUMPDEST PUSH1 0x40 DUP3 ADD SWAP1 POP SWAP2 SWAP1 POP JUMP JUMPDEST PUSH1 0x0 PUSH1 0x20 DUP3 ADD SWAP1 POP DUP2 DUP2 SUB PUSH1 0x0 DUP4 ADD MSTORE PUSH2 0x3143 DUP2 PUSH2 0x3107 JUMP JUMPDEST SWAP1 POP SWAP2 SWAP1 POP JUMP JUMPDEST PUSH32 0x436F6C6C61746572616C20616C6C6F6361746564206D75737420626520677265 PUSH1 0x0 DUP3 ADD MSTORE PUSH32 0x61746572207468616E206F7220657175616C20746F2074686520636F6C6C6174 PUSH1 0x20 DUP3 ADD MSTORE PUSH32 0x6572616C20726571756972656D656E74202A20696E697469616C207072696E63 PUSH1 0x40 DUP3 ADD MSTORE PUSH32 0x6970616C206F6620746865206C6F616E00000000000000000000000000000000 PUSH1 0x60 DUP3 ADD MSTORE POP JUMP JUMPDEST PUSH1 0x0 PUSH2 0x31F2 PUSH1 0x70 DUP4 PUSH2 0x2F83 JUMP JUMPDEST SWAP2 POP PUSH2 0x31FD DUP3 PUSH2 0x314A JUMP JUMPDEST PUSH1 0x80 DUP3 ADD SWAP1 POP SWAP2 SWAP1 POP JUMP JUMPDEST PUSH1 0x0 PUSH1 0x20 DUP3 ADD SWAP1 POP DUP2 DUP2 SUB PUSH1 0x0 DUP4 ADD MSTORE PUSH2 0x3221 DUP2 PUSH2 0x31E5 JUMP JUMPDEST SWAP1 POP SWAP2 SWAP1 POP JUMP JUMPDEST PUSH32 0x4E6F206F75747374616E64696E672062616C616E63652073696E6365206C6F61 PUSH1 0x0 DUP3 ADD MSTORE PUSH32 0x6E20697320656974686572206E6F7420697373756564206F7220616C72656164 PUSH1 0x20 DUP3 ADD MSTORE PUSH32 0x792070616964206F666600000000000000000000000000000000000000000000 PUSH1 0x40 DUP3 ADD MSTORE POP JUMP JUMPDEST PUSH1 0x0 PUSH2 0x32AA PUSH1 0x4A DUP4 PUSH2 0x2F83 JUMP JUMPDEST SWAP2 POP PUSH2 0x32B5 DUP3 PUSH2 0x3228 JUMP JUMPDEST PUSH1 0x60 DUP3 ADD SWAP1 POP SWAP2 SWAP1 POP JUMP JUMPDEST PUSH1 0x0 PUSH1 0x20 DUP3 ADD SWAP1 POP DUP2 DUP2 SUB PUSH1 0x0 DUP4 ADD MSTORE PUSH2 0x32D9 DUP2 PUSH2 0x329D JUMP JUMPDEST SWAP1 POP SWAP2 SWAP1 POP JUMP JUMPDEST PUSH32 0x4E487B7100000000000000000000000000000000000000000000000000000000 PUSH1 0x0 MSTORE PUSH1 0x11 PUSH1 0x4 MSTORE PUSH1 0x24 PUSH1 0x0 REVERT JUMPDEST PUSH1 0x0 PUSH2 0x331A DUP3 PUSH2 0x2BDB JUMP JUMPDEST SWAP2 POP PUSH2 0x3325 DUP4 PUSH2 0x2BDB JUMP JUMPDEST SWAP3 POP DUP3 PUSH32 0xFFFFFFFFFFFFFFFFFFFFFFFFFFFFFFFFFFFFFFFFFFFFFFFFFFFFFFFFFFFFFFFF SUB DUP3 GT ISZERO PUSH2 0x335A JUMPI PUSH2 0x3359 PUSH2 0x32E0 JUMP JUMPDEST JUMPDEST DUP3 DUP3 ADD SWAP1 POP SWAP3 SWAP2 POP POP JUMP JUMPDEST PUSH32 0x4F6E6C7920746865206F776E6572206F662074686520636F6E74726163742063 PUSH1 0x0 DUP3 ADD MSTORE PUSH32 0x616E20706572666F726D2074686973206F7065726174696F6E00000000000000 PUSH1 0x20 DUP3 ADD MSTORE POP JUMP JUMPDEST PUSH1 0x0 PUSH2 0x33C1 PUSH1 0x39 DUP4 PUSH2 0x2F83 JUMP JUMPDEST SWAP2 POP PUSH2 0x33CC DUP3 PUSH2 0x3365 JUMP JUMPDEST PUSH1 0x40 DUP3 ADD SWAP1 POP SWAP2 SWAP1 POP JUMP JUMPDEST PUSH1 0x0 PUSH1 0x20 DUP3 ADD SWAP1 POP DUP2 DUP2 SUB PUSH1 0x0 DUP4 ADD MSTORE PUSH2 0x33F0 DUP2 PUSH2 0x33B4 JUMP JUMPDEST SWAP1 POP SWAP2 SWAP1 POP JUMP JUMPDEST PUSH32 0x5465726D732063616E6E6F74206265206368616E676564206166746572206C6F PUSH1 0x0 DUP3 ADD MSTORE PUSH32 0x616E20686173206265656E206973737565640000000000000000000000000000 PUSH1 0x20 DUP3 ADD MSTORE POP JUMP JUMPDEST PUSH1 0x0 PUSH2 0x3453 PUSH1 0x32 DUP4 PUSH2 0x2F83 JUMP JUMPDEST SWAP2 POP PUSH2 0x345E DUP3 PUSH2 0x33F7 JUMP JUMPDEST PUSH1 0x40 DUP3 ADD SWAP1 POP SWAP2 SWAP1 POP JUMP JUMPDEST PUSH1 0x0 PUSH1 0x20 DUP3 ADD SWAP1 POP DUP2 DUP2 SUB PUSH1 0x0 DUP4 ADD MSTORE PUSH2 0x3482 DUP2 PUSH2 0x3446 JUMP JUMPDEST SWAP1 POP SWAP2 SWAP1 POP JUMP JUMPDEST PUSH32 0x7465726D206D7573742062652067726561746572207468616E207A65726F0000 PUSH1 0x0 DUP3 ADD MSTORE POP JUMP JUMPDEST PUSH1 0x0 PUSH2 0x34BF PUSH1 0x1E DUP4 PUSH2 0x2F83 JUMP JUMPDEST SWAP2 POP PUSH2 0x34CA DUP3 PUSH2 0x3489 JUMP JUMPDEST PUSH1 0x20 DUP3 ADD SWAP1 POP SWAP2 SWAP1 POP JUMP JUMPDEST PUSH1 0x0 PUSH1 0x20 DUP3 ADD SWAP1 POP DUP2 DUP2 SUB PUSH1 0x0 DUP4 ADD MSTORE PUSH2 0x34EE DUP2 PUSH2 0x34B2 JUMP JUMPDEST SWAP1 POP SWAP2 SWAP1 POP JUMP JUMPDEST PUSH32 0x436F6E74726163742062616C616E636520697320302C20746865726520697320 PUSH1 0x0 DUP3 ADD MSTORE PUSH32 0x6E6F7468696E6720617661696C61626C6520746F207769746864726177000000 PUSH1 0x20 DUP3 ADD MSTORE POP JUMP JUMPDEST PUSH1 0x0 PUSH2 0x3551 PUSH1 0x3D DUP4 PUSH2 0x2F83 JUMP JUMPDEST SWAP2 POP PUSH2 0x355C DUP3 PUSH2 0x34F5 JUMP JUMPDEST PUSH1 0x40 DUP3 ADD SWAP1 POP SWAP2 SWAP1 POP JUMP JUMPDEST PUSH1 0x0 PUSH1 0x20 DUP3 ADD SWAP1 POP DUP2 DUP2 SUB PUSH1 0x0 DUP4 ADD MSTORE PUSH2 0x3580 DUP2 PUSH2 0x3544 JUMP JUMPDEST SWAP1 POP SWAP2 SWAP1 POP JUMP JUMPDEST PUSH1 0x0 PUSH2 0x3592 DUP3 PUSH2 0x2BDB JUMP JUMPDEST SWAP2 POP PUSH2 0x359D DUP4 PUSH2 0x2BDB JUMP JUMPDEST SWAP3 POP DUP3 DUP3 LT ISZERO PUSH2 0x35B0 JUMPI PUSH2 0x35AF PUSH2 0x32E0 JUMP JUMPDEST JUMPDEST DUP3 DUP3 SUB SWAP1 POP SWAP3 SWAP2 POP POP JUMP JUMPDEST PUSH1 0x0 DUP2 SWAP1 POP SWAP3 SWAP2 POP POP JUMP JUMPDEST POP JUMP JUMPDEST PUSH1 0x0 PUSH2 0x35D6 PUSH1 0x0 DUP4 PUSH2 0x35BB JUMP JUMPDEST SWAP2 POP PUSH2 0x35E1 DUP3 PUSH2 0x35C6 JUMP JUMPDEST PUSH1 0x0 DUP3 ADD SWAP1 POP SWAP2 SWAP1 POP JUMP JUMPDEST PUSH1 0x0 PUSH2 0x35F7 DUP3 PUSH2 0x35C9 JUMP JUMPDEST SWAP2 POP DUP2 SWAP1 POP SWAP2 SWAP1 POP JUMP JUMPDEST PUSH32 0x4661696C656420746F2077697468647261770000000000000000000000000000 PUSH1 0x0 DUP3 ADD MSTORE POP JUMP JUMPDEST PUSH1 0x0 PUSH2 0x3637 PUSH1 0x12 DUP4 PUSH2 0x2F83 JUMP JUMPDEST SWAP2 POP PUSH2 0x3642 DUP3 PUSH2 0x3601 JUMP JUMPDEST PUSH1 0x20 DUP3 ADD SWAP1 POP SWAP2 SWAP1 POP JUMP JUMPDEST PUSH1 0x0 PUSH1 0x20 DUP3 ADD SWAP1 POP DUP2 DUP2 SUB PUSH1 0x0 DUP4 ADD MSTORE PUSH2 0x3666 DUP2 PUSH2 0x362A JUMP JUMPDEST SWAP1 POP SWAP2 SWAP1 POP JUMP JUMPDEST PUSH32 0x4120626F72726F776572206D7573742062652061737369676E6564206265666F PUSH1 0x0 DUP3 ADD MSTORE PUSH32 0x72652069737375696E67206C6F616E0000000000000000000000000000000000 PUSH1 0x20 DUP3 ADD MSTORE POP JUMP JUMPDEST PUSH1 0x0 PUSH2 0x36C9 PUSH1 0x2F DUP4 PUSH2 0x2F83 JUMP JUMPDEST SWAP2 POP PUSH2 0x36D4 DUP3 PUSH2 0x366D JUMP JUMPDEST PUSH1 0x40 DUP3 ADD SWAP1 POP SWAP2 SWAP1 POP JUMP JUMPDEST PUSH1 0x0 PUSH1 0x20 DUP3 ADD SWAP1 POP DUP2 DUP2 SUB PUSH1 0x0 DUP4 ADD MSTORE PUSH2 0x36F8 DUP2 PUSH2 0x36BC JUMP JUMPDEST SWAP1 POP SWAP2 SWAP1 POP JUMP JUMPDEST PUSH32 0x4C6F616E206D7573742062652066756E646564206265666F7265206973737569 PUSH1 0x0 DUP3 ADD MSTORE PUSH32 0x6E67000000000000000000000000000000000000000000000000000000000000 PUSH1 0x20 DUP3 ADD MSTORE POP JUMP JUMPDEST PUSH1 0x0 PUSH2 0x375B PUSH1 0x22 DUP4 PUSH2 0x2F83 JUMP JUMPDEST SWAP2 POP PUSH2 0x3766 DUP3 PUSH2 0x36FF JUMP JUMPDEST PUSH1 0x40 DUP3 ADD SWAP1 POP SWAP2 SWAP1 POP JUMP JUMPDEST PUSH1 0x0 PUSH1 0x20 DUP3 ADD SWAP1 POP DUP2 DUP2 SUB PUSH1 0x0 DUP4 ADD MSTORE PUSH2 0x378A DUP2 PUSH2 0x374E JUMP JUMPDEST SWAP1 POP SWAP2 SWAP1 POP JUMP JUMPDEST PUSH32 0x436F6C6C61746572616C206D75737420626520616C6C6F636174656420626566 PUSH1 0x0 DUP3 ADD MSTORE PUSH32 0x6F72652069737375696E67206C6F616E00000000000000000000000000000000 PUSH1 0x20 DUP3 ADD MSTORE POP JUMP JUMPDEST PUSH1 0x0 PUSH2 0x37ED PUSH1 0x30 DUP4 PUSH2 0x2F83 JUMP JUMPDEST SWAP2 POP PUSH2 0x37F8 DUP3 PUSH2 0x3791 JUMP JUMPDEST PUSH1 0x40 DUP3 ADD SWAP1 POP SWAP2 SWAP1 POP JUMP JUMPDEST PUSH1 0x0 PUSH1 0x20 DUP3 ADD SWAP1 POP DUP2 DUP2 SUB PUSH1 0x0 DUP4 ADD MSTORE PUSH2 0x381C DUP2 PUSH2 0x37E0 JUMP JUMPDEST SWAP1 POP SWAP2 SWAP1 POP JUMP JUMPDEST PUSH32 0x4661696C656420746F2073656E64207061796D656E7400000000000000000000 PUSH1 0x0 DUP3 ADD MSTORE POP JUMP JUMPDEST PUSH1 0x0 PUSH2 0x3859 PUSH1 0x16 DUP4 PUSH2 0x2F83 JUMP JUMPDEST SWAP2 POP PUSH2 0x3864 DUP3 PUSH2 0x3823 JUMP JUMPDEST PUSH1 0x20 DUP3 ADD SWAP1 POP SWAP2 SWAP1 POP JUMP JUMPDEST PUSH1 0x0 PUSH1 0x20 DUP3 ADD SWAP1 POP DUP2 DUP2 SUB PUSH1 0x0 DUP4 ADD MSTORE PUSH2 0x3888 DUP2 PUSH2 0x384C JUMP JUMPDEST SWAP1 POP SWAP2 SWAP1 POP JUMP JUMPDEST PUSH1 0x0 PUSH2 0x389A DUP3 PUSH2 0x2C72 JUMP JUMPDEST SWAP2 POP PUSH2 0x38A5 DUP4 PUSH2 0x2C72 JUMP JUMPDEST SWAP3 POP DUP3 PUSH6 0xFFFFFFFFFFFF SUB DUP3 GT ISZERO PUSH2 0x38C0 JUMPI PUSH2 0x38BF PUSH2 0x32E0 JUMP JUMPDEST JUMPDEST DUP3 DUP3 ADD SWAP1 POP SWAP3 SWAP2 POP POP JUMP JUMPDEST PUSH32 0x436F6C6C61746572616C2063616E206F6E6C79206265207365697A6564206F6E PUSH1 0x0 DUP3 ADD MSTORE PUSH32 0x6365206C6F616E20697320696E2064656661756C740000000000000000000000 PUSH1 0x20 DUP3 ADD MSTORE POP JUMP JUMPDEST PUSH1 0x0 PUSH2 0x3927 PUSH1 0x35 DUP4 PUSH2 0x2F83 JUMP JUMPDEST SWAP2 POP PUSH2 0x3932 DUP3 PUSH2 0x38CB JUMP JUMPDEST PUSH1 0x40 DUP3 ADD SWAP1 POP SWAP2 SWAP1 POP JUMP JUMPDEST PUSH1 0x0 PUSH1 0x20 DUP3 ADD SWAP1 POP DUP2 DUP2 SUB PUSH1 0x0 DUP4 ADD MSTORE PUSH2 0x3956 DUP2 PUSH2 0x391A JUMP JUMPDEST SWAP1 POP SWAP2 SWAP1 POP JUMP JUMPDEST PUSH32 0x54686572652069732063757272656E746C79206E6F20636F6C6C61746572616C PUSH1 0x0 DUP3 ADD MSTORE PUSH32 0x20746F207365697A650000000000000000000000000000000000000000000000 PUSH1 0x20 DUP3 ADD MSTORE POP JUMP JUMPDEST PUSH1 0x0 PUSH2 0x39B9 PUSH1 0x29 DUP4 PUSH2 0x2F83 JUMP JUMPDEST SWAP2 POP PUSH2 0x39C4 DUP3 PUSH2 0x395D JUMP JUMPDEST PUSH1 0x40 DUP3 ADD SWAP1 POP SWAP2 SWAP1 POP JUMP JUMPDEST PUSH1 0x0 PUSH1 0x20 DUP3 ADD SWAP1 POP DUP2 DUP2 SUB PUSH1 0x0 DUP4 ADD MSTORE PUSH2 0x39E8 DUP2 PUSH2 0x39AC JUMP JUMPDEST SWAP1 POP SWAP2 SWAP1 POP JUMP JUMPDEST PUSH32 0x5061796D656E74206D75737420626520657175616C20746F20746865206F7574 PUSH1 0x0 DUP3 ADD MSTORE PUSH32 0x7374616E64696E672062616C616E636520287072696E636970616C202B20696E PUSH1 0x20 DUP3 ADD MSTORE PUSH32 0x746572657374202B206665657329000000000000000000000000000000000000 PUSH1 0x40 DUP3 ADD MSTORE POP JUMP JUMPDEST PUSH1 0x0 PUSH2 0x3A71 PUSH1 0x4E DUP4 PUSH2 0x2F83 JUMP JUMPDEST SWAP2 POP PUSH2 0x3A7C DUP3 PUSH2 0x39EF JUMP JUMPDEST PUSH1 0x60 DUP3 ADD SWAP1 POP SWAP2 SWAP1 POP JUMP JUMPDEST PUSH1 0x0 PUSH1 0x20 DUP3 ADD SWAP1 POP DUP2 DUP2 SUB PUSH1 0x0 DUP4 ADD MSTORE PUSH2 0x3AA0 DUP2 PUSH2 0x3A64 JUMP JUMPDEST SWAP1 POP SWAP2 SWAP1 POP JUMP JUMPDEST PUSH32 0x4E487B7100000000000000000000000000000000000000000000000000000000 PUSH1 0x0 MSTORE PUSH1 0x12 PUSH1 0x4 MSTORE PUSH1 0x24 PUSH1 0x0 REVERT JUMPDEST PUSH32 0x4E487B7100000000000000000000000000000000000000000000000000000000 PUSH1 0x0 MSTORE PUSH1 0x1 PUSH1 0x4 MSTORE PUSH1 0x24 PUSH1 0x0 REVERT JUMPDEST PUSH32 0x43616E6E6F74206672656520636F6C6C61746572616C207768696C65206F7574 PUSH1 0x0 DUP3 ADD MSTORE PUSH32 0x7374616E64696E672062616C616E6365203E2030206F72206C6F616E20686173 PUSH1 0x20 DUP3 ADD MSTORE PUSH32 0x2079657420746F20626520697373756564000000000000000000000000000000 PUSH1 0x40 DUP3 ADD MSTORE POP JUMP JUMPDEST PUSH1 0x0 PUSH2 0x3B87 PUSH1 0x51 DUP4 PUSH2 0x2F83 JUMP JUMPDEST SWAP2 POP PUSH2 0x3B92 DUP3 PUSH2 0x3B05 JUMP JUMPDEST PUSH1 0x60 DUP3 ADD SWAP1 POP SWAP2 SWAP1 POP JUMP JUMPDEST PUSH1 0x0 PUSH1 0x20 DUP3 ADD SWAP1 POP DUP2 DUP2 SUB PUSH1 0x0 DUP4 ADD MSTORE PUSH2 0x3BB6 DUP2 PUSH2 0x3B7A JUMP JUMPDEST SWAP1 POP SWAP2 SWAP1 POP JUMP JUMPDEST PUSH32 0x4661696C656420746F20776974686472617720636F6C6C61746572616C000000 PUSH1 0x0 DUP3 ADD MSTORE POP JUMP JUMPDEST PUSH1 0x0 PUSH2 0x3BF3 PUSH1 0x1D DUP4 PUSH2 0x2F83 JUMP JUMPDEST SWAP2 POP PUSH2 0x3BFE DUP3 PUSH2 0x3BBD JUMP JUMPDEST PUSH1 0x20 DUP3 ADD SWAP1 POP SWAP2 SWAP1 POP JUMP JUMPDEST PUSH1 0x0 PUSH1 0x20 DUP3 ADD SWAP1 POP DUP2 DUP2 SUB PUSH1 0x0 DUP4 ADD MSTORE PUSH2 0x3C22 DUP2 PUSH2 0x3BE6 JUMP JUMPDEST SWAP1 POP SWAP2 SWAP1 POP JUMP INVALID LOG2 PUSH5 0x6970667358 0x22 SLT KECCAK256 PUSH24 0xA49B398F7323C0AB2B3B895FB4BBCAD091DADD9B70F8DEBF 0x4B SWAP6 REVERT MULMOD PUSH29 0x50EB64736F6C634300080A003300000000000000000000000000000000 "
		},
		"gasEstimates": {
			"creation": {
				"codeDepositCost": "3091000",
				"executionCost": "infinite",
				"totalCost": "infinite"
			},
			"external": {
				"allocateCollateral()": "infinite",
				"changeLender(address)": "26927",
				"fundLoan()": "24459",
				"getCollateralBalance()": "2460",
				"getContractBalance()": "361",
				"getFees()": "infinite",
				"getOutstandingBalance()": "infinite",
				"getTerms()": "infinite",
				"issueLoan()": "infinite",
				"makePayment()": "infinite",
				"seizeCollateral()": "infinite",
				"setTerms(address,uint48,uint256,uint256,uint256,uint48,bool,uint256,uint48,uint48)": "infinite",
				"withdraw()": "infinite"
			},
			"internal": {
				"freeCollateral()": "infinite"
			}
		},
		"methodIdentifiers": {
			"allocateCollateral()": "0e6f3dd8",
			"changeLender(address)": "57f7d74f",
			"fundLoan()": "8db57994",
			"getCollateralBalance()": "1529a639",
			"getContractBalance()": "6f9fb98a",
			"getFees()": "db8d55f1",
			"getOutstandingBalance()": "28a11702",
			"getTerms()": "4173b417",
			"issueLoan()": "5c0df55b",
			"makePayment()": "d8d79700",
			"seizeCollateral()": "62949963",
			"setTerms(address,uint48,uint256,uint256,uint256,uint48,bool,uint256,uint48,uint48)": "396c079c",
			"withdraw()": "3ccfd60b"
		}
	},
	"abi": [
		{
			"inputs": [],
			"stateMutability": "nonpayable",
			"type": "constructor"
		},
		{
			"inputs": [],
			"name": "allocateCollateral",
			"outputs": [],
			"stateMutability": "payable",
			"type": "function"
		},
		{
			"inputs": [
				{
					"internalType": "address",
					"name": "new_lender",
					"type": "address"
				}
			],
			"name": "changeLender",
			"outputs": [],
			"stateMutability": "nonpayable",
			"type": "function"
		},
		{
			"inputs": [],
			"name": "fundLoan",
			"outputs": [],
			"stateMutability": "payable",
			"type": "function"
		},
		{
			"inputs": [],
			"name": "getCollateralBalance",
			"outputs": [
				{
					"internalType": "uint256",
					"name": "",
					"type": "uint256"
				}
			],
			"stateMutability": "view",
			"type": "function"
		},
		{
			"inputs": [],
			"name": "getContractBalance",
			"outputs": [
				{
					"internalType": "uint256",
					"name": "",
					"type": "uint256"
				}
			],
			"stateMutability": "view",
			"type": "function"
		},
		{
			"inputs": [],
			"name": "getFees",
			"outputs": [
				{
					"internalType": "uint256",
					"name": "",
					"type": "uint256"
				}
			],
			"stateMutability": "view",
			"type": "function"
		},
		{
			"inputs": [],
			"name": "getOutstandingBalance",
			"outputs": [
				{
					"internalType": "uint256",
					"name": "",
					"type": "uint256"
				}
			],
			"stateMutability": "view",
			"type": "function"
		},
		{
			"inputs": [],
			"name": "getTerms",
			"outputs": [
				{
					"components": [
						{
							"internalType": "address",
							"name": "lender",
							"type": "address"
						},
						{
							"internalType": "address",
							"name": "borrower",
							"type": "address"
						},
						{
							"internalType": "uint256",
							"name": "principal",
							"type": "uint256"
						},
						{
							"internalType": "uint256",
							"name": "apr",
							"type": "uint256"
						},
						{
							"internalType": "uint256",
							"name": "collateral_req",
							"type": "uint256"
						},
						{
							"internalType": "uint256",
							"name": "prepayment_penalty",
							"type": "uint256"
						},
						{
							"internalType": "uint256",
							"name": "late_fee",
							"type": "uint256"
						},
						{
							"internalType": "uint48",
							"name": "prepayment_period",
							"type": "uint48"
						},
						{
							"internalType": "uint48",
							"name": "issuance_time",
							"type": "uint48"
						},
						{
							"internalType": "uint48",
							"name": "term",
							"type": "uint48"
						},
						{
							"internalType": "uint48",
							"name": "grace_period",
							"type": "uint48"
						},
						{
							"internalType": "uint48",
							"name": "time_before_default",
							"type": "uint48"
						},
						{
							"internalType": "bool",
							"name": "sliding_scale_prepayment_penalty",
							"type": "bool"
						}
					],
					"internalType": "struct loan.LendingTerms",
					"name": "",
					"type": "tuple"
				}
			],
			"stateMutability": "view",
			"type": "function"
		},
		{
			"inputs": [],
			"name": "issueLoan",
			"outputs": [],
			"stateMutability": "payable",
			"type": "function"
		},
		{
			"inputs": [],
			"name": "makePayment",
			"outputs": [],
			"stateMutability": "payable",
			"type": "function"
		},
		{
			"inputs": [],
			"name": "seizeCollateral",
			"outputs": [],
			"stateMutability": "payable",
			"type": "function"
		},
		{
			"inputs": [
				{
					"internalType": "address",
					"name": "borrower",
					"type": "address"
				},
				{
					"internalType": "uint48",
					"name": "term",
					"type": "uint48"
				},
				{
					"internalType": "uint256",
					"name": "apr",
					"type": "uint256"
				},
				{
					"internalType": "uint256",
					"name": "collateral_req",
					"type": "uint256"
				},
				{
					"internalType": "uint256",
					"name": "prepayment_penalty",
					"type": "uint256"
				},
				{
					"internalType": "uint48",
					"name": "prepayment_period",
					"type": "uint48"
				},
				{
					"internalType": "bool",
					"name": "sliding_scale_prepayment_penalty",
					"type": "bool"
				},
				{
					"internalType": "uint256",
					"name": "late_fee",
					"type": "uint256"
				},
				{
					"internalType": "uint48",
					"name": "grace_period",
					"type": "uint48"
				},
				{
					"internalType": "uint48",
					"name": "time_before_default",
					"type": "uint48"
				}
			],
			"name": "setTerms",
			"outputs": [],
			"stateMutability": "nonpayable",
			"type": "function"
		},
		{
			"inputs": [],
			"name": "withdraw",
			"outputs": [],
			"stateMutability": "payable",
			"type": "function"
		}
	]
}