{
	"data": {
		"bytecode": {
			"linkReferences": {},
			"object": "60c06040526301e18558600e556200002a670de0b6b3a7640000620000f260201b620012341760201c565b6fffffffffffffffffffffffffffffffff19166080906fffffffffffffffffffffffffffffffff19168152506200006e600e54620000f260201b620012341760201c565b6fffffffffffffffffffffffffffffffff191660a0906fffffffffffffffffffffffffffffffff1916815250348015620000a757600080fd5b5033600260000160006101000a81548173ffffffffffffffffffffffffffffffffffffffff021916908373ffffffffffffffffffffffffffffffffffffffff16021790555062000267565b6000808214156200010a57600060801b905062000178565b6000829050600062000122826200017d60201b60201c565b905060708110156200013d578060700382901b915062000152565b607081111562000151576070810382901c91505b5b607081613fff01901b6dffffffffffffffffffffffffffff83161791508160801b925050505b919050565b60008082116200018c57600080fd5b60007001000000000000000000000000000000008310620001b557608083901c92506080810190505b680100000000000000008310620001d457604083901c92506040810190505b6401000000008310620001ef57602083901c92506020810190505b6201000083106200020857601083901c92506010810190505b61010083106200022057600883901c92506008810190505b601083106200023757600483901c92506004810190505b600483106200024e57600283901c92506002810190505b600283106200025e576001810190505b80915050919050565b60805160a051613468620002a26000396000610f5801526000818161050201528181610f7c015281816110c501526111a801526134686000f3fe6080604052600436106100a75760003560e01c806357f7d74f1161006457806357f7d74f1461016a5780635c0df55b146101935780636f9fb98a1461019d5780638db57994146101c8578063d8d79700146101d2578063db8d55f1146101dc576100a7565b8063035788be146100ac5780630e6f3dd8146100d55780631529a639146100df57806328a117021461010a5780633ccfd60b146101355780634173b4171461013f575b600080fd5b3480156100b857600080fd5b506100d360048036038101906100ce919061276a565b610207565b005b6100dd6103d6565b005b3480156100eb57600080fd5b506100f46105e0565b6040516101019190612843565b60405180910390f35b34801561011657600080fd5b5061011f6105ec565b60405161012c9190612843565b60405180910390f35b61013d61060b565b005b34801561014b57600080fd5b506101546107cd565b6040516101619190612981565b60405180910390f35b34801561017657600080fd5b50610191600480360381019061018c919061299d565b610909565b005b61019b6109e3565b005b3480156101a957600080fd5b506101b2610c9c565b6040516101bf9190612843565b60405180910390f35b6101d0610ca4565b005b6101da610d42565b005b3480156101e857600080fd5b506101f1610ed2565b6040516101fe9190612843565b60405180910390f35b600260000160009054906101000a900473ffffffffffffffffffffffffffffffffffffffff1673ffffffffffffffffffffffffffffffffffffffff163373ffffffffffffffffffffffffffffffffffffffff161461029a576040517f08c379a000000000000000000000000000000000000000000000000000000000815260040161029190612a4d565b60405180910390fd5b60008060010154146102e1576040517f08c379a00000000000000000000000000000000000000000000000000000000081526004016102d890612adf565b60405180910390fd5b60008811610324576040517f08c379a000000000000000000000000000000000000000000000000000000000815260040161031b90612b4b565b60405180910390fd5b88600260010160006101000a81548173ffffffffffffffffffffffffffffffffffffffff021916908373ffffffffffffffffffffffffffffffffffffffff160217905550876002600401819055508660026005018190555085600260060181905550846002600701819055508360026008018190555082600260090160006101000a81548160ff021916908315150217905550816002600a0181905550806002600b0181905550505050505050505050565b600260010160009054906101000a900473ffffffffffffffffffffffffffffffffffffffff1673ffffffffffffffffffffffffffffffffffffffff163373ffffffffffffffffffffffffffffffffffffffff1614610469576040517f08c379a000000000000000000000000000000000000000000000000000000000815260040161046090612bdd565b60405180910390fd5b6000600260060154146104b1576040517f08c379a00000000000000000000000000000000000000000000000000000000081526004016104a890612c6f565b60405180910390fd5b60006002800154116104f8576040517f08c379a00000000000000000000000000000000000000000000000000000000081526004016104ef90612d01565b60405180910390fd5b60006105626105507f000000000000000000000000000000000000000000000000000000000000000061052f600260060154611234565b6fffffffffffffffffffffffffffffffff19166112b290919063ffffffff16565b61055d6002800154611234565b61177b565b9050806fffffffffffffffffffffffffffffffff191661058134611234565b6fffffffffffffffffffffffffffffffff1916146105d4576040517f08c379a00000000000000000000000000000000000000000000000000000000081526004016105cb90612ddf565b60405180910390fd5b34600080018190555050565b60008060000154905090565b60006105f6610ed2565b6000600101546106069190612e2e565b905090565b600260000160009054906101000a900473ffffffffffffffffffffffffffffffffffffffff1673ffffffffffffffffffffffffffffffffffffffff163373ffffffffffffffffffffffffffffffffffffffff161461069e576040517f08c379a000000000000000000000000000000000000000000000000000000000815260040161069590612a4d565b60405180910390fd5b600047116106e1576040517f08c379a00000000000000000000000000000000000000000000000000000000081526004016106d890612ef6565b60405180910390fd5b60008060000154476106f39190612f16565b9050600080600260000160009054906101000a900473ffffffffffffffffffffffffffffffffffffffff1673ffffffffffffffffffffffffffffffffffffffff168360405161074190612f7b565b60006040518083038185875af1925050503d806000811461077e576040519150601f19603f3d011682016040523d82523d6000602084013e610783565b606091505b5091509150816107c8576040517f08c379a00000000000000000000000000000000000000000000000000000000081526004016107bf90612fdc565b60405180910390fd5b505050565b6107d561260a565b6002604051806101800160405290816000820160009054906101000a900473ffffffffffffffffffffffffffffffffffffffff1673ffffffffffffffffffffffffffffffffffffffff1673ffffffffffffffffffffffffffffffffffffffff1681526020016001820160009054906101000a900473ffffffffffffffffffffffffffffffffffffffff1673ffffffffffffffffffffffffffffffffffffffff1673ffffffffffffffffffffffffffffffffffffffff168152602001600282015481526020016003820154815260200160048201548152602001600582015481526020016006820154815260200160078201548152602001600882015481526020016009820160009054906101000a900460ff16151515158152602001600a8201548152602001600b82015481525050905090565b600260000160009054906101000a900473ffffffffffffffffffffffffffffffffffffffff1673ffffffffffffffffffffffffffffffffffffffff163373ffffffffffffffffffffffffffffffffffffffff161461099c576040517f08c379a000000000000000000000000000000000000000000000000000000000815260040161099390612a4d565b60405180910390fd5b80600260000160006101000a81548173ffffffffffffffffffffffffffffffffffffffff021916908373ffffffffffffffffffffffffffffffffffffffff16021790555050565b600260000160009054906101000a900473ffffffffffffffffffffffffffffffffffffffff1673ffffffffffffffffffffffffffffffffffffffff163373ffffffffffffffffffffffffffffffffffffffff1614610a76576040517f08c379a0000000000000000000000000000000000000000000000000000000008152600401610a6d90612a4d565b60405180910390fd5b600073ffffffffffffffffffffffffffffffffffffffff16600260010160009054906101000a900473ffffffffffffffffffffffffffffffffffffffff1673ffffffffffffffffffffffffffffffffffffffff161415610b0b576040517f08c379a0000000000000000000000000000000000000000000000000000000008152600401610b029061306e565b60405180910390fd5b600060028001541415610b53576040517f08c379a0000000000000000000000000000000000000000000000000000000008152600401610b4a90613100565b60405180910390fd5b60006002600601541115610ba9576000806000015411610ba8576040517f08c379a0000000000000000000000000000000000000000000000000000000008152600401610b9f90613192565b60405180910390fd5b5b600080600260010160009054906101000a900473ffffffffffffffffffffffffffffffffffffffff1673ffffffffffffffffffffffffffffffffffffffff166002800154604051610bf990612f7b565b60006040518083038185875af1925050503d8060008114610c36576040519150601f19603f3d011682016040523d82523d6000602084013e610c3b565b606091505b509150915081610c80576040517f08c379a0000000000000000000000000000000000000000000000000000000008152600401610c77906131fe565b60405180910390fd5b4260026003018190555060028001546000600101819055505050565b600047905090565b600260000160009054906101000a900473ffffffffffffffffffffffffffffffffffffffff1673ffffffffffffffffffffffffffffffffffffffff163373ffffffffffffffffffffffffffffffffffffffff1614610d37576040517f08c379a0000000000000000000000000000000000000000000000000000000008152600401610d2e90612a4d565b60405180910390fd5b346002800181905550565b600260010160009054906101000a900473ffffffffffffffffffffffffffffffffffffffff1673ffffffffffffffffffffffffffffffffffffffff163373ffffffffffffffffffffffffffffffffffffffff1614610dd5576040517f08c379a0000000000000000000000000000000000000000000000000000000008152600401610dcc90612bdd565b60405180910390fd5b6000349050610de26105ec565b6000600101819055506000600101548114610e32576040517f08c379a0000000000000000000000000000000000000000000000000000000008152600401610e29906132b6565b60405180910390fd5b600080600260000160009054906101000a900473ffffffffffffffffffffffffffffffffffffffff1673ffffffffffffffffffffffffffffffffffffffff1647604051610e7e90612f7b565b60006040518083038185875af1925050503d8060008114610ebb576040519150601f19603f3d011682016040523d82523d6000602084013e610ec0565b606091505b5091509150610ecd611c10565b505050565b6000804290506000600260040154600260030154610ef09190612e2e565b90506000600260080154600260030154610f0a9190612e2e565b90506000806002600a015414158015610f325750836002600b015484610f309190612e2e565b105b15610f5157610f4e81610f496002600a0154611234565b611dc6565b90505b6000610feb7f0000000000000000000000000000000000000000000000000000000000000000610fca7f0000000000000000000000000000000000000000000000000000000000000000610fa9600260050154611234565b6fffffffffffffffffffffffffffffffff19166112b290919063ffffffff16565b6fffffffffffffffffffffffffffffffff19166112b290919063ffffffff16565b9050600061102d8261100c600260030154896110079190612f16565b611234565b6fffffffffffffffffffffffffffffffff191661177b90919063ffffffff16565b90506000611063826110426002800154611234565b6fffffffffffffffffffffffffffffffff191661177b90919063ffffffff16565b905061106f8482611dc6565b935060006002600801541415801561108657508487105b1561120c57600260090160009054906101000a900460ff16156111915760006110b988876110b49190612f16565b611234565b9050600061117c6111127f00000000000000000000000000000000000000000000000000000000000000006110f16002800154611234565b6fffffffffffffffffffffffffffffffff19166112b290919063ffffffff16565b61115b611123600260070154611234565b61113a86611135600260080154611234565b6112b2565b6fffffffffffffffffffffffffffffffff191661177b90919063ffffffff16565b6fffffffffffffffffffffffffffffffff191661177b90919063ffffffff16565b90506111888682611dc6565b9550505061120b565b60006111fb6111a36002800154611234565b6111f67f00000000000000000000000000000000000000000000000000000000000000006111d5600260070154611234565b6fffffffffffffffffffffffffffffffff19166112b290919063ffffffff16565b61177b565b90506112078582611dc6565b9450505b5b611228846fffffffffffffffffffffffffffffffff191661242b565b97505050505050505090565b60008082141561124a57600060801b90506112ad565b6000829050600061125a82612529565b90506070811015611273578060700382901b9150611287565b6070811115611286576070810382901c91505b5b607081613fff01901b6dffffffffffffffffffffffffffff83161791508160801b925050505b919050565b600080617fff60708560801c6fffffffffffffffffffffffffffffffff16901c166fffffffffffffffffffffffffffffffff1690506000617fff60708560801c6fffffffffffffffffffffffffffffffff16901c166fffffffffffffffffffffffffffffffff169050617fff82141561136d57617fff81141561134c576f7fff800000000000000000000000000060801b92505050611775565b6f8000000000000000000000000000000060801b8416851892505050611775565b617fff8114156113ec57600060801b6dffffffffffffffffffffffffffff60801b85166fffffffffffffffffffffffffffffffff1916146113c5576f7fff800000000000000000000000000060801b92505050611775565b6f8000000000000000000000000000000060801b84861816600060801b1792505050611775565b600060801b6f7fffffffffffffffffffffffffffffff60801b85166fffffffffffffffffffffffffffffffff191614156114a757600060801b6f7fffffffffffffffffffffffffffffff60801b86166fffffffffffffffffffffffffffffffff19161415611471576f7fff800000000000000000000000000060801b92505050611775565b6f8000000000000000000000000000000060801b848618166f7fff000000000000000000000000000060801b1792505050611775565b60006dffffffffffffffffffffffffffff8560801c166fffffffffffffffffffffffffffffffff16905060008214156114e357600191506114f8565b6e010000000000000000000000000000811790505b60006dffffffffffffffffffffffffffff8760801c166fffffffffffffffffffffffffffffffff169050600084141561155c576000811461155757600061153e82612529565b60e20390508082901b9150600194506072810384019350505b611575565b60726e0100000000000000000000000000008217901b90505b818181611585576115846132d6565b5b04905060008114156115f057600060801b6f8000000000000000000000000000000060801b878918166fffffffffffffffffffffffffffffffff1916116115d057600060801b6115e5565b6f8000000000000000000000000000000060801b5b945050505050611775565b6d100000000000000000000000000081101561160f5761160e613305565b5b60006e080000000000000000000000000000821015611670576e040000000000000000000000000000821015611665576e02000000000000000000000000000082101561165d576070611660565b60715b611668565b60725b60ff1661167a565b61167982612529565b5b90506140718401818601111561169857617fff945060009150611735565b83613ffc8287010110156116b3576000945060009150611734565b83613f8c8287010110156117015783613ffc860111156116de5783613ffc86010382901b91506116f8565b83613ffc860110156116f757613ffc8585030382901c91505b5b60009450611733565b6070811115611714576070810382901c91505b6dffffffffffffffffffffffffffff8216915083613f8d828701010394505b5b5b81607086901b6f8000000000000000000000000000000060801b898b181660801c6fffffffffffffffffffffffffffffffff16171760801b955050505050505b92915050565b600080617fff60708560801c6fffffffffffffffffffffffffffffffff16901c166fffffffffffffffffffffffffffffffff1690506000617fff60708560801c6fffffffffffffffffffffffffffffffff16901c166fffffffffffffffffffffffffffffffff169050617fff82141561191257617fff8114156118a057836fffffffffffffffffffffffffffffffff1916856fffffffffffffffffffffffffffffffff19161415611847576f8000000000000000000000000000000060801b8416851892505050611c0a565b6f8000000000000000000000000000000060801b8486186fffffffffffffffffffffffffffffffff191614156118835783851792505050611c0a565b6f7fff800000000000000000000000000060801b92505050611c0a565b600060801b6f7fffffffffffffffffffffffffffffff60801b85166fffffffffffffffffffffffffffffffff191614156118f1576f7fff800000000000000000000000000060801b92505050611c0a565b6f8000000000000000000000000000000060801b8416851892505050611c0a565b617fff81141561198e57600060801b6f7fffffffffffffffffffffffffffffff60801b86166fffffffffffffffffffffffffffffffff1916141561196d576f7fff800000000000000000000000000060801b92505050611c0a565b6f8000000000000000000000000000000060801b8516841892505050611c0a565b60006dffffffffffffffffffffffffffff8660801c166fffffffffffffffffffffffffffffffff16905060008314156119ca57600192506119df565b6e010000000000000000000000000000811790505b60006dffffffffffffffffffffffffffff8660801c166fffffffffffffffffffffffffffffffff1690506000831415611a1b5760019250611a30565b6e010000000000000000000000000000811790505b80820291506000821415611a9d57600060801b6f8000000000000000000000000000000060801b878918166fffffffffffffffffffffffffffffffff191611611a7d57600060801b611a92565b6f8000000000000000000000000000000060801b5b945050505050611c0a565b828401935060007c0200000000000000000000000000000000000000000000000000000000831015611b04577c0100000000000000000000000000000000000000000000000000000000831015611afc57611af783612529565b611aff565b60e05b611b07565b60e15b90506140708186011015611b22576000945060009250611bca565b6140e08186011015611b6657614070851015611b4757846140700383901c9250611b5d565b614070851115611b5c57614070850383901b92505b5b60009450611bc9565b61c0dd8186011115611b8057617fff945060009250611bc8565b6070811115611b97576070810383901c9250611bab565b6070811015611baa578060700383901b92505b5b6dffffffffffffffffffffffffffff831692506140df8186010394505b5b5b82607086901b6f8000000000000000000000000000000060801b898b181660801c6fffffffffffffffffffffffffffffffff16171760801b955050505050505b92915050565b600260010160009054906101000a900473ffffffffffffffffffffffffffffffffffffffff1673ffffffffffffffffffffffffffffffffffffffff163373ffffffffffffffffffffffffffffffffffffffff1614611ca3576040517f08c379a0000000000000000000000000000000000000000000000000000000008152600401611c9a90612bdd565b60405180910390fd5b600080600101541115611ceb576040517f08c379a0000000000000000000000000000000000000000000000000000000008152600401611ce2906133a6565b60405180910390fd5b600080600260000160009054906101000a900473ffffffffffffffffffffffffffffffffffffffff1673ffffffffffffffffffffffffffffffffffffffff166000800154604051611d3b90612f7b565b60006040518083038185875af1925050503d8060008114611d78576040519150601f19603f3d011682016040523d82523d6000602084013e611d7d565b606091505b509150915081611dc2576040517f08c379a0000000000000000000000000000000000000000000000000000000008152600401611db990613412565b60405180910390fd5b5050565b600080617fff60708560801c6fffffffffffffffffffffffffffffffff16901c166fffffffffffffffffffffffffffffffff1690506000617fff60708560801c6fffffffffffffffffffffffffffffffff16901c166fffffffffffffffffffffffffffffffff169050617fff821415611ea257617fff811415611e9857836fffffffffffffffffffffffffffffffff1916856fffffffffffffffffffffffffffffffff19161415611e7b578492505050612425565b6f7fff800000000000000000000000000060801b92505050612425565b8492505050612425565b617fff811415611eb6578392505050612425565b60006f800000000000000000000000000000008660801c6fffffffffffffffffffffffffffffffff161015905060006dffffffffffffffffffffffffffff8760801c166fffffffffffffffffffffffffffffffff1690506000841415611f1f5760019350611f34565b6e010000000000000000000000000000811790505b60006f800000000000000000000000000000008760801c6fffffffffffffffffffffffffffffffff161015905060006dffffffffffffffffffffffffffff8860801c166fffffffffffffffffffffffffffffffff1690506000851415611f9d5760019450611fb2565b6e010000000000000000000000000000811790505b6000831415612014576f8000000000000000000000000000000060801b6fffffffffffffffffffffffffffffffff1916886fffffffffffffffffffffffffffffffff1916146120015787612007565b600060801b5b9650505050505050612425565b6000811415612076576f8000000000000000000000000000000060801b6fffffffffffffffffffffffffffffffff1916896fffffffffffffffffffffffffffffffff1916146120635788612069565b600060801b5b9650505050505050612425565b6000858703905082151585151514156121f45760708113156120a15789975050505050505050612425565b60008113156120b5578082901c9150612103565b7fffffffffffffffffffffffffffffffffffffffffffffffffffffffffffffff908112156120ec5788975050505050505050612425565b6000811215612102578060000384901c93508596505b5b81840193506e020000000000000000000000000000841061212c57600184901c93506001870196505b617fff8714156121775784612154576f7fff000000000000000000000000000060801b612169565b6fffff000000000000000000000000000060801b5b975050505050505050612425565b6e01000000000000000000000000000084101561219757600096506121ab565b6dffffffffffffffffffffffffffff841693505b83607088901b866121bd5760006121cf565b6f800000000000000000000000000000005b6fffffffffffffffffffffffffffffffff16171760801b975050505050505050612425565b600081131561220f57600184901b9350600187039650612227565b600081121561222657600182901b91506001860396505b5b607081131561223957600191506122c3565b600181131561225557600180820360018403901c0191506122c2565b7fffffffffffffffffffffffffffffffffffffffffffffffffffffffffffffff9081121561228657600193506122c1565b7fffffffffffffffffffffffffffffffffffffffffffffffffffffffffffffffff8112156122c057600180826000030360018603901c0193505b5b5b5b8184106122d45781840393506122dd565b83820393508294505b60008414156122f957600060801b975050505050505050612425565b600061230485612529565b90506071811415612331576dffffffffffffffffffffffffffff600186901c169450600188019750612393565b607081101561237e5760008160700390508089111561236a576dffffffffffffffffffffffffffff8187901b1695508089039850612378565b6001890386901b9550600098505b50612392565b6dffffffffffffffffffffffffffff851694505b5b617fff8814156123df57856123bb576f7fff000000000000000000000000000060801b6123d0565b6fffff000000000000000000000000000060801b5b98505050505050505050612425565b84607089901b876123f1576000612403565b6f800000000000000000000000000000005b6fffffffffffffffffffffffffffffffff16171760801b985050505050505050505b92915050565b600080617fff60708460801c6fffffffffffffffffffffffffffffffff16901c166fffffffffffffffffffffffffffffffff169050613fff811015612474576000915050612524565b6f800000000000000000000000000000008360801c6fffffffffffffffffffffffffffffffff16106124a557600080fd5b6140fe8111156124b457600080fd5b60006e0100000000000000000000000000006dffffffffffffffffffffffffffff8560801c6fffffffffffffffffffffffffffffffff161617905061406f821015612508578161406f0381901c905061251e565b61406f82111561251d5761406f820381901b90505b5b80925050505b919050565b600080821161253757600080fd5b6000700100000000000000000000000000000000831061255f57608083901c92506080810190505b68010000000000000000831061257d57604083901c92506040810190505b640100000000831061259757602083901c92506020810190505b6201000083106125af57601083901c92506010810190505b61010083106125c657600883901c92506008810190505b601083106125dc57600483901c92506004810190505b600483106125f257600283901c92506002810190505b60028310612601576001810190505b80915050919050565b604051806101800160405280600073ffffffffffffffffffffffffffffffffffffffff168152602001600073ffffffffffffffffffffffffffffffffffffffff1681526020016000815260200160008152602001600081526020016000815260200160008152602001600081526020016000815260200160001515815260200160008152602001600081525090565b600080fd5b600073ffffffffffffffffffffffffffffffffffffffff82169050919050565b60006126c98261269e565b9050919050565b6126d9816126be565b81146126e457600080fd5b50565b6000813590506126f6816126d0565b92915050565b6000819050919050565b61270f816126fc565b811461271a57600080fd5b50565b60008135905061272c81612706565b92915050565b60008115159050919050565b61274781612732565b811461275257600080fd5b50565b6000813590506127648161273e565b92915050565b60008060008060008060008060006101208a8c03121561278d5761278c612699565b5b600061279b8c828d016126e7565b99505060206127ac8c828d0161271d565b98505060406127bd8c828d0161271d565b97505060606127ce8c828d0161271d565b96505060806127df8c828d0161271d565b95505060a06127f08c828d0161271d565b94505060c06128018c828d01612755565b93505060e06128128c828d0161271d565b9250506101006128248c828d0161271d565b9150509295985092959850929598565b61283d816126fc565b82525050565b60006020820190506128586000830184612834565b92915050565b612867816126be565b82525050565b612876816126fc565b82525050565b61288581612732565b82525050565b610180820160008201516128a2600085018261285e565b5060208201516128b5602085018261285e565b5060408201516128c8604085018261286d565b5060608201516128db606085018261286d565b5060808201516128ee608085018261286d565b5060a082015161290160a085018261286d565b5060c082015161291460c085018261286d565b5060e082015161292760e085018261286d565b5061010082015161293c61010085018261286d565b5061012082015161295161012085018261287c565b5061014082015161296661014085018261286d565b5061016082015161297b61016085018261286d565b50505050565b600061018082019050612997600083018461288b565b92915050565b6000602082840312156129b3576129b2612699565b5b60006129c1848285016126e7565b91505092915050565b600082825260208201905092915050565b7f4f6e6c7920746865206f776e6572206f662074686520636f6e7472616374206360008201527f616e20706572666f726d2074686973206f7065726174696f6e00000000000000602082015250565b6000612a376039836129ca565b9150612a42826129db565b604082019050919050565b60006020820190508181036000830152612a6681612a2a565b9050919050565b7f5465726d732063616e6e6f74206265206368616e676564206166746572206c6f60008201527f616e20686173206265656e206973737565640000000000000000000000000000602082015250565b6000612ac96032836129ca565b9150612ad482612a6d565b604082019050919050565b60006020820190508181036000830152612af881612abc565b9050919050565b7f7465726d206d7573742062652067726561746572207468616e207a65726f0000600082015250565b6000612b35601e836129ca565b9150612b4082612aff565b602082019050919050565b60006020820190508181036000830152612b6481612b28565b9050919050565b7f4f6e6c792074686520626f72726f776572206f662074686520636f6e7472616360008201527f742063616e20706572666f726d2074686973206f7065726174696f6e00000000602082015250565b6000612bc7603c836129ca565b9150612bd282612b6b565b604082019050919050565b60006020820190508181036000830152612bf681612bba565b9050919050565b7f4e6f20636f6c6c61746572616c206973206e656365737361727920666f72207460008201527f686973206c6f616e000000000000000000000000000000000000000000000000602082015250565b6000612c596028836129ca565b9150612c6482612bfd565b604082019050919050565b60006020820190508181036000830152612c8881612c4c565b9050919050565b7f4c6f616e206d7573742062652066756e646564206265666f726520636f6c6c6160008201527f746572616c20697320616c6c6f63617465640000000000000000000000000000602082015250565b6000612ceb6032836129ca565b9150612cf682612c8f565b604082019050919050565b60006020820190508181036000830152612d1a81612cde565b9050919050565b7f436f6c6c61746572616c20616c6c6f6361746564206d7573742062652067726560008201527f61746572207468616e206f7220657175616c20746f2074686520636f6c6c617460208201527f6572616c20726571756972656d656e74202a20696e697469616c207072696e6360408201527f6970616c206f6620746865206c6f616e00000000000000000000000000000000606082015250565b6000612dc96070836129ca565b9150612dd482612d21565b608082019050919050565b60006020820190508181036000830152612df881612dbc565b9050919050565b7f4e487b7100000000000000000000000000000000000000000000000000000000600052601160045260246000fd5b6000612e39826126fc565b9150612e44836126fc565b9250827fffffffffffffffffffffffffffffffffffffffffffffffffffffffffffffffff03821115612e7957612e78612dff565b5b828201905092915050565b7f436f6e74726163742062616c616e636520697320302c2074686572652069732060008201527f6e6f7468696e6720617661696c61626c6520746f207769746864726177000000602082015250565b6000612ee0603d836129ca565b9150612eeb82612e84565b604082019050919050565b60006020820190508181036000830152612f0f81612ed3565b9050919050565b6000612f21826126fc565b9150612f2c836126fc565b925082821015612f3f57612f3e612dff565b5b828203905092915050565b600081905092915050565b50565b6000612f65600083612f4a565b9150612f7082612f55565b600082019050919050565b6000612f8682612f58565b9150819050919050565b7f4661696c656420746f2077697468647261770000000000000000000000000000600082015250565b6000612fc66012836129ca565b9150612fd182612f90565b602082019050919050565b60006020820190508181036000830152612ff581612fb9565b9050919050565b7f4120626f72726f776572206d7573742062652061737369676e6564206265666f60008201527f72652069737375696e67206c6f616e0000000000000000000000000000000000602082015250565b6000613058602f836129ca565b915061306382612ffc565b604082019050919050565b600060208201905081810360008301526130878161304b565b9050919050565b7f4c6f616e206d7573742062652066756e646564206265666f726520697373756960008201527f6e67000000000000000000000000000000000000000000000000000000000000602082015250565b60006130ea6022836129ca565b91506130f58261308e565b604082019050919050565b60006020820190508181036000830152613119816130dd565b9050919050565b7f436f6c6c61746572616c206d75737420626520616c6c6f63617465642062656660008201527f6f72652069737375696e67206c6f616e00000000000000000000000000000000602082015250565b600061317c6030836129ca565b915061318782613120565b604082019050919050565b600060208201905081810360008301526131ab8161316f565b9050919050565b7f4661696c656420746f2073656e64207061796d656e7400000000000000000000600082015250565b60006131e86016836129ca565b91506131f3826131b2565b602082019050919050565b60006020820190508181036000830152613217816131db565b9050919050565b7f5061796d656e74206d75737420626520657175616c20746f20746865206f757460008201527f7374616e64696e672062616c616e636520287072696e636970616c202b20696e60208201527f746572657374202b206665657329000000000000000000000000000000000000604082015250565b60006132a0604e836129ca565b91506132ab8261321e565b606082019050919050565b600060208201905081810360008301526132cf81613293565b9050919050565b7f4e487b7100000000000000000000000000000000000000000000000000000000600052601260045260246000fd5b7f4e487b7100000000000000000000000000000000000000000000000000000000600052600160045260246000fd5b7f43616e6e6f74206672656520636f6c6c61746572616c207768696c65206f757460008201527f7374616e64696e672062616c616e6365203e2030000000000000000000000000602082015250565b60006133906034836129ca565b915061339b82613334565b604082019050919050565b600060208201905081810360008301526133bf81613383565b9050919050565b7f4661696c656420746f20776974686472617720636f6c6c61746572616c000000600082015250565b60006133fc601d836129ca565b9150613407826133c6565b602082019050919050565b6000602082019050818103600083015261342b816133ef565b905091905056fea264697066735822122090e71350de2aa86ef8cb265e183f61ec7ca633814dda4770a889eec22fcb280464736f6c634300080a0033",
			"opcodes": "PUSH1 0xC0 PUSH1 0x40 MSTORE PUSH4 0x1E18558 PUSH1 0xE SSTORE PUSH3 0x2A PUSH8 0xDE0B6B3A7640000 PUSH3 0xF2 PUSH1 0x20 SHL PUSH3 0x1234 OR PUSH1 0x20 SHR JUMP JUMPDEST PUSH16 0xFFFFFFFFFFFFFFFFFFFFFFFFFFFFFFFF NOT AND PUSH1 0x80 SWAP1 PUSH16 0xFFFFFFFFFFFFFFFFFFFFFFFFFFFFFFFF NOT AND DUP2 MSTORE POP PUSH3 0x6E PUSH1 0xE SLOAD PUSH3 0xF2 PUSH1 0x20 SHL PUSH3 0x1234 OR PUSH1 0x20 SHR JUMP JUMPDEST PUSH16 0xFFFFFFFFFFFFFFFFFFFFFFFFFFFFFFFF NOT AND PUSH1 0xA0 SWAP1 PUSH16 0xFFFFFFFFFFFFFFFFFFFFFFFFFFFFFFFF NOT AND DUP2 MSTORE POP CALLVALUE DUP1 ISZERO PUSH3 0xA7 JUMPI PUSH1 0x0 DUP1 REVERT JUMPDEST POP CALLER PUSH1 0x2 PUSH1 0x0 ADD PUSH1 0x0 PUSH2 0x100 EXP DUP2 SLOAD DUP2 PUSH20 0xFFFFFFFFFFFFFFFFFFFFFFFFFFFFFFFFFFFFFFFF MUL NOT AND SWAP1 DUP4 PUSH20 0xFFFFFFFFFFFFFFFFFFFFFFFFFFFFFFFFFFFFFFFF AND MUL OR SWAP1 SSTORE POP PUSH3 0x267 JUMP JUMPDEST PUSH1 0x0 DUP1 DUP3 EQ ISZERO PUSH3 0x10A JUMPI PUSH1 0x0 PUSH1 0x80 SHL SWAP1 POP PUSH3 0x178 JUMP JUMPDEST PUSH1 0x0 DUP3 SWAP1 POP PUSH1 0x0 PUSH3 0x122 DUP3 PUSH3 0x17D PUSH1 0x20 SHL PUSH1 0x20 SHR JUMP JUMPDEST SWAP1 POP PUSH1 0x70 DUP2 LT ISZERO PUSH3 0x13D JUMPI DUP1 PUSH1 0x70 SUB DUP3 SWAP1 SHL SWAP2 POP PUSH3 0x152 JUMP JUMPDEST PUSH1 0x70 DUP2 GT ISZERO PUSH3 0x151 JUMPI PUSH1 0x70 DUP2 SUB DUP3 SWAP1 SHR SWAP2 POP JUMPDEST JUMPDEST PUSH1 0x70 DUP2 PUSH2 0x3FFF ADD SWAP1 SHL PUSH14 0xFFFFFFFFFFFFFFFFFFFFFFFFFFFF DUP4 AND OR SWAP2 POP DUP2 PUSH1 0x80 SHL SWAP3 POP POP POP JUMPDEST SWAP2 SWAP1 POP JUMP JUMPDEST PUSH1 0x0 DUP1 DUP3 GT PUSH3 0x18C JUMPI PUSH1 0x0 DUP1 REVERT JUMPDEST PUSH1 0x0 PUSH17 0x100000000000000000000000000000000 DUP4 LT PUSH3 0x1B5 JUMPI PUSH1 0x80 DUP4 SWAP1 SHR SWAP3 POP PUSH1 0x80 DUP2 ADD SWAP1 POP JUMPDEST PUSH9 0x10000000000000000 DUP4 LT PUSH3 0x1D4 JUMPI PUSH1 0x40 DUP4 SWAP1 SHR SWAP3 POP PUSH1 0x40 DUP2 ADD SWAP1 POP JUMPDEST PUSH5 0x100000000 DUP4 LT PUSH3 0x1EF JUMPI PUSH1 0x20 DUP4 SWAP1 SHR SWAP3 POP PUSH1 0x20 DUP2 ADD SWAP1 POP JUMPDEST PUSH3 0x10000 DUP4 LT PUSH3 0x208 JUMPI PUSH1 0x10 DUP4 SWAP1 SHR SWAP3 POP PUSH1 0x10 DUP2 ADD SWAP1 POP JUMPDEST PUSH2 0x100 DUP4 LT PUSH3 0x220 JUMPI PUSH1 0x8 DUP4 SWAP1 SHR SWAP3 POP PUSH1 0x8 DUP2 ADD SWAP1 POP JUMPDEST PUSH1 0x10 DUP4 LT PUSH3 0x237 JUMPI PUSH1 0x4 DUP4 SWAP1 SHR SWAP3 POP PUSH1 0x4 DUP2 ADD SWAP1 POP JUMPDEST PUSH1 0x4 DUP4 LT PUSH3 0x24E JUMPI PUSH1 0x2 DUP4 SWAP1 SHR SWAP3 POP PUSH1 0x2 DUP2 ADD SWAP1 POP JUMPDEST PUSH1 0x2 DUP4 LT PUSH3 0x25E JUMPI PUSH1 0x1 DUP2 ADD SWAP1 POP JUMPDEST DUP1 SWAP2 POP POP SWAP2 SWAP1 POP JUMP JUMPDEST PUSH1 0x80 MLOAD PUSH1 0xA0 MLOAD PUSH2 0x3468 PUSH3 0x2A2 PUSH1 0x0 CODECOPY PUSH1 0x0 PUSH2 0xF58 ADD MSTORE PUSH1 0x0 DUP2 DUP2 PUSH2 0x502 ADD MSTORE DUP2 DUP2 PUSH2 0xF7C ADD MSTORE DUP2 DUP2 PUSH2 0x10C5 ADD MSTORE PUSH2 0x11A8 ADD MSTORE PUSH2 0x3468 PUSH1 0x0 RETURN INVALID PUSH1 0x80 PUSH1 0x40 MSTORE PUSH1 0x4 CALLDATASIZE LT PUSH2 0xA7 JUMPI PUSH1 0x0 CALLDATALOAD PUSH1 0xE0 SHR DUP1 PUSH4 0x57F7D74F GT PUSH2 0x64 JUMPI DUP1 PUSH4 0x57F7D74F EQ PUSH2 0x16A JUMPI DUP1 PUSH4 0x5C0DF55B EQ PUSH2 0x193 JUMPI DUP1 PUSH4 0x6F9FB98A EQ PUSH2 0x19D JUMPI DUP1 PUSH4 0x8DB57994 EQ PUSH2 0x1C8 JUMPI DUP1 PUSH4 0xD8D79700 EQ PUSH2 0x1D2 JUMPI DUP1 PUSH4 0xDB8D55F1 EQ PUSH2 0x1DC JUMPI PUSH2 0xA7 JUMP JUMPDEST DUP1 PUSH4 0x35788BE EQ PUSH2 0xAC JUMPI DUP1 PUSH4 0xE6F3DD8 EQ PUSH2 0xD5 JUMPI DUP1 PUSH4 0x1529A639 EQ PUSH2 0xDF JUMPI DUP1 PUSH4 0x28A11702 EQ PUSH2 0x10A JUMPI DUP1 PUSH4 0x3CCFD60B EQ PUSH2 0x135 JUMPI DUP1 PUSH4 0x4173B417 EQ PUSH2 0x13F JUMPI JUMPDEST PUSH1 0x0 DUP1 REVERT JUMPDEST CALLVALUE DUP1 ISZERO PUSH2 0xB8 JUMPI PUSH1 0x0 DUP1 REVERT JUMPDEST POP PUSH2 0xD3 PUSH1 0x4 DUP1 CALLDATASIZE SUB DUP2 ADD SWAP1 PUSH2 0xCE SWAP2 SWAP1 PUSH2 0x276A JUMP JUMPDEST PUSH2 0x207 JUMP JUMPDEST STOP JUMPDEST PUSH2 0xDD PUSH2 0x3D6 JUMP JUMPDEST STOP JUMPDEST CALLVALUE DUP1 ISZERO PUSH2 0xEB JUMPI PUSH1 0x0 DUP1 REVERT JUMPDEST POP PUSH2 0xF4 PUSH2 0x5E0 JUMP JUMPDEST PUSH1 0x40 MLOAD PUSH2 0x101 SWAP2 SWAP1 PUSH2 0x2843 JUMP JUMPDEST PUSH1 0x40 MLOAD DUP1 SWAP2 SUB SWAP1 RETURN JUMPDEST CALLVALUE DUP1 ISZERO PUSH2 0x116 JUMPI PUSH1 0x0 DUP1 REVERT JUMPDEST POP PUSH2 0x11F PUSH2 0x5EC JUMP JUMPDEST PUSH1 0x40 MLOAD PUSH2 0x12C SWAP2 SWAP1 PUSH2 0x2843 JUMP JUMPDEST PUSH1 0x40 MLOAD DUP1 SWAP2 SUB SWAP1 RETURN JUMPDEST PUSH2 0x13D PUSH2 0x60B JUMP JUMPDEST STOP JUMPDEST CALLVALUE DUP1 ISZERO PUSH2 0x14B JUMPI PUSH1 0x0 DUP1 REVERT JUMPDEST POP PUSH2 0x154 PUSH2 0x7CD JUMP JUMPDEST PUSH1 0x40 MLOAD PUSH2 0x161 SWAP2 SWAP1 PUSH2 0x2981 JUMP JUMPDEST PUSH1 0x40 MLOAD DUP1 SWAP2 SUB SWAP1 RETURN JUMPDEST CALLVALUE DUP1 ISZERO PUSH2 0x176 JUMPI PUSH1 0x0 DUP1 REVERT JUMPDEST POP PUSH2 0x191 PUSH1 0x4 DUP1 CALLDATASIZE SUB DUP2 ADD SWAP1 PUSH2 0x18C SWAP2 SWAP1 PUSH2 0x299D JUMP JUMPDEST PUSH2 0x909 JUMP JUMPDEST STOP JUMPDEST PUSH2 0x19B PUSH2 0x9E3 JUMP JUMPDEST STOP JUMPDEST CALLVALUE DUP1 ISZERO PUSH2 0x1A9 JUMPI PUSH1 0x0 DUP1 REVERT JUMPDEST POP PUSH2 0x1B2 PUSH2 0xC9C JUMP JUMPDEST PUSH1 0x40 MLOAD PUSH2 0x1BF SWAP2 SWAP1 PUSH2 0x2843 JUMP JUMPDEST PUSH1 0x40 MLOAD DUP1 SWAP2 SUB SWAP1 RETURN JUMPDEST PUSH2 0x1D0 PUSH2 0xCA4 JUMP JUMPDEST STOP JUMPDEST PUSH2 0x1DA PUSH2 0xD42 JUMP JUMPDEST STOP JUMPDEST CALLVALUE DUP1 ISZERO PUSH2 0x1E8 JUMPI PUSH1 0x0 DUP1 REVERT JUMPDEST POP PUSH2 0x1F1 PUSH2 0xED2 JUMP JUMPDEST PUSH1 0x40 MLOAD PUSH2 0x1FE SWAP2 SWAP1 PUSH2 0x2843 JUMP JUMPDEST PUSH1 0x40 MLOAD DUP1 SWAP2 SUB SWAP1 RETURN JUMPDEST PUSH1 0x2 PUSH1 0x0 ADD PUSH1 0x0 SWAP1 SLOAD SWAP1 PUSH2 0x100 EXP SWAP1 DIV PUSH20 0xFFFFFFFFFFFFFFFFFFFFFFFFFFFFFFFFFFFFFFFF AND PUSH20 0xFFFFFFFFFFFFFFFFFFFFFFFFFFFFFFFFFFFFFFFF AND CALLER PUSH20 0xFFFFFFFFFFFFFFFFFFFFFFFFFFFFFFFFFFFFFFFF AND EQ PUSH2 0x29A JUMPI PUSH1 0x40 MLOAD PUSH32 0x8C379A000000000000000000000000000000000000000000000000000000000 DUP2 MSTORE PUSH1 0x4 ADD PUSH2 0x291 SWAP1 PUSH2 0x2A4D JUMP JUMPDEST PUSH1 0x40 MLOAD DUP1 SWAP2 SUB SWAP1 REVERT JUMPDEST PUSH1 0x0 DUP1 PUSH1 0x1 ADD SLOAD EQ PUSH2 0x2E1 JUMPI PUSH1 0x40 MLOAD PUSH32 0x8C379A000000000000000000000000000000000000000000000000000000000 DUP2 MSTORE PUSH1 0x4 ADD PUSH2 0x2D8 SWAP1 PUSH2 0x2ADF JUMP JUMPDEST PUSH1 0x40 MLOAD DUP1 SWAP2 SUB SWAP1 REVERT JUMPDEST PUSH1 0x0 DUP9 GT PUSH2 0x324 JUMPI PUSH1 0x40 MLOAD PUSH32 0x8C379A000000000000000000000000000000000000000000000000000000000 DUP2 MSTORE PUSH1 0x4 ADD PUSH2 0x31B SWAP1 PUSH2 0x2B4B JUMP JUMPDEST PUSH1 0x40 MLOAD DUP1 SWAP2 SUB SWAP1 REVERT JUMPDEST DUP9 PUSH1 0x2 PUSH1 0x1 ADD PUSH1 0x0 PUSH2 0x100 EXP DUP2 SLOAD DUP2 PUSH20 0xFFFFFFFFFFFFFFFFFFFFFFFFFFFFFFFFFFFFFFFF MUL NOT AND SWAP1 DUP4 PUSH20 0xFFFFFFFFFFFFFFFFFFFFFFFFFFFFFFFFFFFFFFFF AND MUL OR SWAP1 SSTORE POP DUP8 PUSH1 0x2 PUSH1 0x4 ADD DUP2 SWAP1 SSTORE POP DUP7 PUSH1 0x2 PUSH1 0x5 ADD DUP2 SWAP1 SSTORE POP DUP6 PUSH1 0x2 PUSH1 0x6 ADD DUP2 SWAP1 SSTORE POP DUP5 PUSH1 0x2 PUSH1 0x7 ADD DUP2 SWAP1 SSTORE POP DUP4 PUSH1 0x2 PUSH1 0x8 ADD DUP2 SWAP1 SSTORE POP DUP3 PUSH1 0x2 PUSH1 0x9 ADD PUSH1 0x0 PUSH2 0x100 EXP DUP2 SLOAD DUP2 PUSH1 0xFF MUL NOT AND SWAP1 DUP4 ISZERO ISZERO MUL OR SWAP1 SSTORE POP DUP2 PUSH1 0x2 PUSH1 0xA ADD DUP2 SWAP1 SSTORE POP DUP1 PUSH1 0x2 PUSH1 0xB ADD DUP2 SWAP1 SSTORE POP POP POP POP POP POP POP POP POP POP JUMP JUMPDEST PUSH1 0x2 PUSH1 0x1 ADD PUSH1 0x0 SWAP1 SLOAD SWAP1 PUSH2 0x100 EXP SWAP1 DIV PUSH20 0xFFFFFFFFFFFFFFFFFFFFFFFFFFFFFFFFFFFFFFFF AND PUSH20 0xFFFFFFFFFFFFFFFFFFFFFFFFFFFFFFFFFFFFFFFF AND CALLER PUSH20 0xFFFFFFFFFFFFFFFFFFFFFFFFFFFFFFFFFFFFFFFF AND EQ PUSH2 0x469 JUMPI PUSH1 0x40 MLOAD PUSH32 0x8C379A000000000000000000000000000000000000000000000000000000000 DUP2 MSTORE PUSH1 0x4 ADD PUSH2 0x460 SWAP1 PUSH2 0x2BDD JUMP JUMPDEST PUSH1 0x40 MLOAD DUP1 SWAP2 SUB SWAP1 REVERT JUMPDEST PUSH1 0x0 PUSH1 0x2 PUSH1 0x6 ADD SLOAD EQ PUSH2 0x4B1 JUMPI PUSH1 0x40 MLOAD PUSH32 0x8C379A000000000000000000000000000000000000000000000000000000000 DUP2 MSTORE PUSH1 0x4 ADD PUSH2 0x4A8 SWAP1 PUSH2 0x2C6F JUMP JUMPDEST PUSH1 0x40 MLOAD DUP1 SWAP2 SUB SWAP1 REVERT JUMPDEST PUSH1 0x0 PUSH1 0x2 DUP1 ADD SLOAD GT PUSH2 0x4F8 JUMPI PUSH1 0x40 MLOAD PUSH32 0x8C379A000000000000000000000000000000000000000000000000000000000 DUP2 MSTORE PUSH1 0x4 ADD PUSH2 0x4EF SWAP1 PUSH2 0x2D01 JUMP JUMPDEST PUSH1 0x40 MLOAD DUP1 SWAP2 SUB SWAP1 REVERT JUMPDEST PUSH1 0x0 PUSH2 0x562 PUSH2 0x550 PUSH32 0x0 PUSH2 0x52F PUSH1 0x2 PUSH1 0x6 ADD SLOAD PUSH2 0x1234 JUMP JUMPDEST PUSH16 0xFFFFFFFFFFFFFFFFFFFFFFFFFFFFFFFF NOT AND PUSH2 0x12B2 SWAP1 SWAP2 SWAP1 PUSH4 0xFFFFFFFF AND JUMP JUMPDEST PUSH2 0x55D PUSH1 0x2 DUP1 ADD SLOAD PUSH2 0x1234 JUMP JUMPDEST PUSH2 0x177B JUMP JUMPDEST SWAP1 POP DUP1 PUSH16 0xFFFFFFFFFFFFFFFFFFFFFFFFFFFFFFFF NOT AND PUSH2 0x581 CALLVALUE PUSH2 0x1234 JUMP JUMPDEST PUSH16 0xFFFFFFFFFFFFFFFFFFFFFFFFFFFFFFFF NOT AND EQ PUSH2 0x5D4 JUMPI PUSH1 0x40 MLOAD PUSH32 0x8C379A000000000000000000000000000000000000000000000000000000000 DUP2 MSTORE PUSH1 0x4 ADD PUSH2 0x5CB SWAP1 PUSH2 0x2DDF JUMP JUMPDEST PUSH1 0x40 MLOAD DUP1 SWAP2 SUB SWAP1 REVERT JUMPDEST CALLVALUE PUSH1 0x0 DUP1 ADD DUP2 SWAP1 SSTORE POP POP JUMP JUMPDEST PUSH1 0x0 DUP1 PUSH1 0x0 ADD SLOAD SWAP1 POP SWAP1 JUMP JUMPDEST PUSH1 0x0 PUSH2 0x5F6 PUSH2 0xED2 JUMP JUMPDEST PUSH1 0x0 PUSH1 0x1 ADD SLOAD PUSH2 0x606 SWAP2 SWAP1 PUSH2 0x2E2E JUMP JUMPDEST SWAP1 POP SWAP1 JUMP JUMPDEST PUSH1 0x2 PUSH1 0x0 ADD PUSH1 0x0 SWAP1 SLOAD SWAP1 PUSH2 0x100 EXP SWAP1 DIV PUSH20 0xFFFFFFFFFFFFFFFFFFFFFFFFFFFFFFFFFFFFFFFF AND PUSH20 0xFFFFFFFFFFFFFFFFFFFFFFFFFFFFFFFFFFFFFFFF AND CALLER PUSH20 0xFFFFFFFFFFFFFFFFFFFFFFFFFFFFFFFFFFFFFFFF AND EQ PUSH2 0x69E JUMPI PUSH1 0x40 MLOAD PUSH32 0x8C379A000000000000000000000000000000000000000000000000000000000 DUP2 MSTORE PUSH1 0x4 ADD PUSH2 0x695 SWAP1 PUSH2 0x2A4D JUMP JUMPDEST PUSH1 0x40 MLOAD DUP1 SWAP2 SUB SWAP1 REVERT JUMPDEST PUSH1 0x0 SELFBALANCE GT PUSH2 0x6E1 JUMPI PUSH1 0x40 MLOAD PUSH32 0x8C379A000000000000000000000000000000000000000000000000000000000 DUP2 MSTORE PUSH1 0x4 ADD PUSH2 0x6D8 SWAP1 PUSH2 0x2EF6 JUMP JUMPDEST PUSH1 0x40 MLOAD DUP1 SWAP2 SUB SWAP1 REVERT JUMPDEST PUSH1 0x0 DUP1 PUSH1 0x0 ADD SLOAD SELFBALANCE PUSH2 0x6F3 SWAP2 SWAP1 PUSH2 0x2F16 JUMP JUMPDEST SWAP1 POP PUSH1 0x0 DUP1 PUSH1 0x2 PUSH1 0x0 ADD PUSH1 0x0 SWAP1 SLOAD SWAP1 PUSH2 0x100 EXP SWAP1 DIV PUSH20 0xFFFFFFFFFFFFFFFFFFFFFFFFFFFFFFFFFFFFFFFF AND PUSH20 0xFFFFFFFFFFFFFFFFFFFFFFFFFFFFFFFFFFFFFFFF AND DUP4 PUSH1 0x40 MLOAD PUSH2 0x741 SWAP1 PUSH2 0x2F7B JUMP JUMPDEST PUSH1 0x0 PUSH1 0x40 MLOAD DUP1 DUP4 SUB DUP2 DUP6 DUP8 GAS CALL SWAP3 POP POP POP RETURNDATASIZE DUP1 PUSH1 0x0 DUP2 EQ PUSH2 0x77E JUMPI PUSH1 0x40 MLOAD SWAP2 POP PUSH1 0x1F NOT PUSH1 0x3F RETURNDATASIZE ADD AND DUP3 ADD PUSH1 0x40 MSTORE RETURNDATASIZE DUP3 MSTORE RETURNDATASIZE PUSH1 0x0 PUSH1 0x20 DUP5 ADD RETURNDATACOPY PUSH2 0x783 JUMP JUMPDEST PUSH1 0x60 SWAP2 POP JUMPDEST POP SWAP2 POP SWAP2 POP DUP2 PUSH2 0x7C8 JUMPI PUSH1 0x40 MLOAD PUSH32 0x8C379A000000000000000000000000000000000000000000000000000000000 DUP2 MSTORE PUSH1 0x4 ADD PUSH2 0x7BF SWAP1 PUSH2 0x2FDC JUMP JUMPDEST PUSH1 0x40 MLOAD DUP1 SWAP2 SUB SWAP1 REVERT JUMPDEST POP POP POP JUMP JUMPDEST PUSH2 0x7D5 PUSH2 0x260A JUMP JUMPDEST PUSH1 0x2 PUSH1 0x40 MLOAD DUP1 PUSH2 0x180 ADD PUSH1 0x40 MSTORE SWAP1 DUP2 PUSH1 0x0 DUP3 ADD PUSH1 0x0 SWAP1 SLOAD SWAP1 PUSH2 0x100 EXP SWAP1 DIV PUSH20 0xFFFFFFFFFFFFFFFFFFFFFFFFFFFFFFFFFFFFFFFF AND PUSH20 0xFFFFFFFFFFFFFFFFFFFFFFFFFFFFFFFFFFFFFFFF AND PUSH20 0xFFFFFFFFFFFFFFFFFFFFFFFFFFFFFFFFFFFFFFFF AND DUP2 MSTORE PUSH1 0x20 ADD PUSH1 0x1 DUP3 ADD PUSH1 0x0 SWAP1 SLOAD SWAP1 PUSH2 0x100 EXP SWAP1 DIV PUSH20 0xFFFFFFFFFFFFFFFFFFFFFFFFFFFFFFFFFFFFFFFF AND PUSH20 0xFFFFFFFFFFFFFFFFFFFFFFFFFFFFFFFFFFFFFFFF AND PUSH20 0xFFFFFFFFFFFFFFFFFFFFFFFFFFFFFFFFFFFFFFFF AND DUP2 MSTORE PUSH1 0x20 ADD PUSH1 0x2 DUP3 ADD SLOAD DUP2 MSTORE PUSH1 0x20 ADD PUSH1 0x3 DUP3 ADD SLOAD DUP2 MSTORE PUSH1 0x20 ADD PUSH1 0x4 DUP3 ADD SLOAD DUP2 MSTORE PUSH1 0x20 ADD PUSH1 0x5 DUP3 ADD SLOAD DUP2 MSTORE PUSH1 0x20 ADD PUSH1 0x6 DUP3 ADD SLOAD DUP2 MSTORE PUSH1 0x20 ADD PUSH1 0x7 DUP3 ADD SLOAD DUP2 MSTORE PUSH1 0x20 ADD PUSH1 0x8 DUP3 ADD SLOAD DUP2 MSTORE PUSH1 0x20 ADD PUSH1 0x9 DUP3 ADD PUSH1 0x0 SWAP1 SLOAD SWAP1 PUSH2 0x100 EXP SWAP1 DIV PUSH1 0xFF AND ISZERO ISZERO ISZERO ISZERO DUP2 MSTORE PUSH1 0x20 ADD PUSH1 0xA DUP3 ADD SLOAD DUP2 MSTORE PUSH1 0x20 ADD PUSH1 0xB DUP3 ADD SLOAD DUP2 MSTORE POP POP SWAP1 POP SWAP1 JUMP JUMPDEST PUSH1 0x2 PUSH1 0x0 ADD PUSH1 0x0 SWAP1 SLOAD SWAP1 PUSH2 0x100 EXP SWAP1 DIV PUSH20 0xFFFFFFFFFFFFFFFFFFFFFFFFFFFFFFFFFFFFFFFF AND PUSH20 0xFFFFFFFFFFFFFFFFFFFFFFFFFFFFFFFFFFFFFFFF AND CALLER PUSH20 0xFFFFFFFFFFFFFFFFFFFFFFFFFFFFFFFFFFFFFFFF AND EQ PUSH2 0x99C JUMPI PUSH1 0x40 MLOAD PUSH32 0x8C379A000000000000000000000000000000000000000000000000000000000 DUP2 MSTORE PUSH1 0x4 ADD PUSH2 0x993 SWAP1 PUSH2 0x2A4D JUMP JUMPDEST PUSH1 0x40 MLOAD DUP1 SWAP2 SUB SWAP1 REVERT JUMPDEST DUP1 PUSH1 0x2 PUSH1 0x0 ADD PUSH1 0x0 PUSH2 0x100 EXP DUP2 SLOAD DUP2 PUSH20 0xFFFFFFFFFFFFFFFFFFFFFFFFFFFFFFFFFFFFFFFF MUL NOT AND SWAP1 DUP4 PUSH20 0xFFFFFFFFFFFFFFFFFFFFFFFFFFFFFFFFFFFFFFFF AND MUL OR SWAP1 SSTORE POP POP JUMP JUMPDEST PUSH1 0x2 PUSH1 0x0 ADD PUSH1 0x0 SWAP1 SLOAD SWAP1 PUSH2 0x100 EXP SWAP1 DIV PUSH20 0xFFFFFFFFFFFFFFFFFFFFFFFFFFFFFFFFFFFFFFFF AND PUSH20 0xFFFFFFFFFFFFFFFFFFFFFFFFFFFFFFFFFFFFFFFF AND CALLER PUSH20 0xFFFFFFFFFFFFFFFFFFFFFFFFFFFFFFFFFFFFFFFF AND EQ PUSH2 0xA76 JUMPI PUSH1 0x40 MLOAD PUSH32 0x8C379A000000000000000000000000000000000000000000000000000000000 DUP2 MSTORE PUSH1 0x4 ADD PUSH2 0xA6D SWAP1 PUSH2 0x2A4D JUMP JUMPDEST PUSH1 0x40 MLOAD DUP1 SWAP2 SUB SWAP1 REVERT JUMPDEST PUSH1 0x0 PUSH20 0xFFFFFFFFFFFFFFFFFFFFFFFFFFFFFFFFFFFFFFFF AND PUSH1 0x2 PUSH1 0x1 ADD PUSH1 0x0 SWAP1 SLOAD SWAP1 PUSH2 0x100 EXP SWAP1 DIV PUSH20 0xFFFFFFFFFFFFFFFFFFFFFFFFFFFFFFFFFFFFFFFF AND PUSH20 0xFFFFFFFFFFFFFFFFFFFFFFFFFFFFFFFFFFFFFFFF AND EQ ISZERO PUSH2 0xB0B JUMPI PUSH1 0x40 MLOAD PUSH32 0x8C379A000000000000000000000000000000000000000000000000000000000 DUP2 MSTORE PUSH1 0x4 ADD PUSH2 0xB02 SWAP1 PUSH2 0x306E JUMP JUMPDEST PUSH1 0x40 MLOAD DUP1 SWAP2 SUB SWAP1 REVERT JUMPDEST PUSH1 0x0 PUSH1 0x2 DUP1 ADD SLOAD EQ ISZERO PUSH2 0xB53 JUMPI PUSH1 0x40 MLOAD PUSH32 0x8C379A000000000000000000000000000000000000000000000000000000000 DUP2 MSTORE PUSH1 0x4 ADD PUSH2 0xB4A SWAP1 PUSH2 0x3100 JUMP JUMPDEST PUSH1 0x40 MLOAD DUP1 SWAP2 SUB SWAP1 REVERT JUMPDEST PUSH1 0x0 PUSH1 0x2 PUSH1 0x6 ADD SLOAD GT ISZERO PUSH2 0xBA9 JUMPI PUSH1 0x0 DUP1 PUSH1 0x0 ADD SLOAD GT PUSH2 0xBA8 JUMPI PUSH1 0x40 MLOAD PUSH32 0x8C379A000000000000000000000000000000000000000000000000000000000 DUP2 MSTORE PUSH1 0x4 ADD PUSH2 0xB9F SWAP1 PUSH2 0x3192 JUMP JUMPDEST PUSH1 0x40 MLOAD DUP1 SWAP2 SUB SWAP1 REVERT JUMPDEST JUMPDEST PUSH1 0x0 DUP1 PUSH1 0x2 PUSH1 0x1 ADD PUSH1 0x0 SWAP1 SLOAD SWAP1 PUSH2 0x100 EXP SWAP1 DIV PUSH20 0xFFFFFFFFFFFFFFFFFFFFFFFFFFFFFFFFFFFFFFFF AND PUSH20 0xFFFFFFFFFFFFFFFFFFFFFFFFFFFFFFFFFFFFFFFF AND PUSH1 0x2 DUP1 ADD SLOAD PUSH1 0x40 MLOAD PUSH2 0xBF9 SWAP1 PUSH2 0x2F7B JUMP JUMPDEST PUSH1 0x0 PUSH1 0x40 MLOAD DUP1 DUP4 SUB DUP2 DUP6 DUP8 GAS CALL SWAP3 POP POP POP RETURNDATASIZE DUP1 PUSH1 0x0 DUP2 EQ PUSH2 0xC36 JUMPI PUSH1 0x40 MLOAD SWAP2 POP PUSH1 0x1F NOT PUSH1 0x3F RETURNDATASIZE ADD AND DUP3 ADD PUSH1 0x40 MSTORE RETURNDATASIZE DUP3 MSTORE RETURNDATASIZE PUSH1 0x0 PUSH1 0x20 DUP5 ADD RETURNDATACOPY PUSH2 0xC3B JUMP JUMPDEST PUSH1 0x60 SWAP2 POP JUMPDEST POP SWAP2 POP SWAP2 POP DUP2 PUSH2 0xC80 JUMPI PUSH1 0x40 MLOAD PUSH32 0x8C379A000000000000000000000000000000000000000000000000000000000 DUP2 MSTORE PUSH1 0x4 ADD PUSH2 0xC77 SWAP1 PUSH2 0x31FE JUMP JUMPDEST PUSH1 0x40 MLOAD DUP1 SWAP2 SUB SWAP1 REVERT JUMPDEST TIMESTAMP PUSH1 0x2 PUSH1 0x3 ADD DUP2 SWAP1 SSTORE POP PUSH1 0x2 DUP1 ADD SLOAD PUSH1 0x0 PUSH1 0x1 ADD DUP2 SWAP1 SSTORE POP POP POP JUMP JUMPDEST PUSH1 0x0 SELFBALANCE SWAP1 POP SWAP1 JUMP JUMPDEST PUSH1 0x2 PUSH1 0x0 ADD PUSH1 0x0 SWAP1 SLOAD SWAP1 PUSH2 0x100 EXP SWAP1 DIV PUSH20 0xFFFFFFFFFFFFFFFFFFFFFFFFFFFFFFFFFFFFFFFF AND PUSH20 0xFFFFFFFFFFFFFFFFFFFFFFFFFFFFFFFFFFFFFFFF AND CALLER PUSH20 0xFFFFFFFFFFFFFFFFFFFFFFFFFFFFFFFFFFFFFFFF AND EQ PUSH2 0xD37 JUMPI PUSH1 0x40 MLOAD PUSH32 0x8C379A000000000000000000000000000000000000000000000000000000000 DUP2 MSTORE PUSH1 0x4 ADD PUSH2 0xD2E SWAP1 PUSH2 0x2A4D JUMP JUMPDEST PUSH1 0x40 MLOAD DUP1 SWAP2 SUB SWAP1 REVERT JUMPDEST CALLVALUE PUSH1 0x2 DUP1 ADD DUP2 SWAP1 SSTORE POP JUMP JUMPDEST PUSH1 0x2 PUSH1 0x1 ADD PUSH1 0x0 SWAP1 SLOAD SWAP1 PUSH2 0x100 EXP SWAP1 DIV PUSH20 0xFFFFFFFFFFFFFFFFFFFFFFFFFFFFFFFFFFFFFFFF AND PUSH20 0xFFFFFFFFFFFFFFFFFFFFFFFFFFFFFFFFFFFFFFFF AND CALLER PUSH20 0xFFFFFFFFFFFFFFFFFFFFFFFFFFFFFFFFFFFFFFFF AND EQ PUSH2 0xDD5 JUMPI PUSH1 0x40 MLOAD PUSH32 0x8C379A000000000000000000000000000000000000000000000000000000000 DUP2 MSTORE PUSH1 0x4 ADD PUSH2 0xDCC SWAP1 PUSH2 0x2BDD JUMP JUMPDEST PUSH1 0x40 MLOAD DUP1 SWAP2 SUB SWAP1 REVERT JUMPDEST PUSH1 0x0 CALLVALUE SWAP1 POP PUSH2 0xDE2 PUSH2 0x5EC JUMP JUMPDEST PUSH1 0x0 PUSH1 0x1 ADD DUP2 SWAP1 SSTORE POP PUSH1 0x0 PUSH1 0x1 ADD SLOAD DUP2 EQ PUSH2 0xE32 JUMPI PUSH1 0x40 MLOAD PUSH32 0x8C379A000000000000000000000000000000000000000000000000000000000 DUP2 MSTORE PUSH1 0x4 ADD PUSH2 0xE29 SWAP1 PUSH2 0x32B6 JUMP JUMPDEST PUSH1 0x40 MLOAD DUP1 SWAP2 SUB SWAP1 REVERT JUMPDEST PUSH1 0x0 DUP1 PUSH1 0x2 PUSH1 0x0 ADD PUSH1 0x0 SWAP1 SLOAD SWAP1 PUSH2 0x100 EXP SWAP1 DIV PUSH20 0xFFFFFFFFFFFFFFFFFFFFFFFFFFFFFFFFFFFFFFFF AND PUSH20 0xFFFFFFFFFFFFFFFFFFFFFFFFFFFFFFFFFFFFFFFF AND SELFBALANCE PUSH1 0x40 MLOAD PUSH2 0xE7E SWAP1 PUSH2 0x2F7B JUMP JUMPDEST PUSH1 0x0 PUSH1 0x40 MLOAD DUP1 DUP4 SUB DUP2 DUP6 DUP8 GAS CALL SWAP3 POP POP POP RETURNDATASIZE DUP1 PUSH1 0x0 DUP2 EQ PUSH2 0xEBB JUMPI PUSH1 0x40 MLOAD SWAP2 POP PUSH1 0x1F NOT PUSH1 0x3F RETURNDATASIZE ADD AND DUP3 ADD PUSH1 0x40 MSTORE RETURNDATASIZE DUP3 MSTORE RETURNDATASIZE PUSH1 0x0 PUSH1 0x20 DUP5 ADD RETURNDATACOPY PUSH2 0xEC0 JUMP JUMPDEST PUSH1 0x60 SWAP2 POP JUMPDEST POP SWAP2 POP SWAP2 POP PUSH2 0xECD PUSH2 0x1C10 JUMP JUMPDEST POP POP POP JUMP JUMPDEST PUSH1 0x0 DUP1 TIMESTAMP SWAP1 POP PUSH1 0x0 PUSH1 0x2 PUSH1 0x4 ADD SLOAD PUSH1 0x2 PUSH1 0x3 ADD SLOAD PUSH2 0xEF0 SWAP2 SWAP1 PUSH2 0x2E2E JUMP JUMPDEST SWAP1 POP PUSH1 0x0 PUSH1 0x2 PUSH1 0x8 ADD SLOAD PUSH1 0x2 PUSH1 0x3 ADD SLOAD PUSH2 0xF0A SWAP2 SWAP1 PUSH2 0x2E2E JUMP JUMPDEST SWAP1 POP PUSH1 0x0 DUP1 PUSH1 0x2 PUSH1 0xA ADD SLOAD EQ ISZERO DUP1 ISZERO PUSH2 0xF32 JUMPI POP DUP4 PUSH1 0x2 PUSH1 0xB ADD SLOAD DUP5 PUSH2 0xF30 SWAP2 SWAP1 PUSH2 0x2E2E JUMP JUMPDEST LT JUMPDEST ISZERO PUSH2 0xF51 JUMPI PUSH2 0xF4E DUP2 PUSH2 0xF49 PUSH1 0x2 PUSH1 0xA ADD SLOAD PUSH2 0x1234 JUMP JUMPDEST PUSH2 0x1DC6 JUMP JUMPDEST SWAP1 POP JUMPDEST PUSH1 0x0 PUSH2 0xFEB PUSH32 0x0 PUSH2 0xFCA PUSH32 0x0 PUSH2 0xFA9 PUSH1 0x2 PUSH1 0x5 ADD SLOAD PUSH2 0x1234 JUMP JUMPDEST PUSH16 0xFFFFFFFFFFFFFFFFFFFFFFFFFFFFFFFF NOT AND PUSH2 0x12B2 SWAP1 SWAP2 SWAP1 PUSH4 0xFFFFFFFF AND JUMP JUMPDEST PUSH16 0xFFFFFFFFFFFFFFFFFFFFFFFFFFFFFFFF NOT AND PUSH2 0x12B2 SWAP1 SWAP2 SWAP1 PUSH4 0xFFFFFFFF AND JUMP JUMPDEST SWAP1 POP PUSH1 0x0 PUSH2 0x102D DUP3 PUSH2 0x100C PUSH1 0x2 PUSH1 0x3 ADD SLOAD DUP10 PUSH2 0x1007 SWAP2 SWAP1 PUSH2 0x2F16 JUMP JUMPDEST PUSH2 0x1234 JUMP JUMPDEST PUSH16 0xFFFFFFFFFFFFFFFFFFFFFFFFFFFFFFFF NOT AND PUSH2 0x177B SWAP1 SWAP2 SWAP1 PUSH4 0xFFFFFFFF AND JUMP JUMPDEST SWAP1 POP PUSH1 0x0 PUSH2 0x1063 DUP3 PUSH2 0x1042 PUSH1 0x2 DUP1 ADD SLOAD PUSH2 0x1234 JUMP JUMPDEST PUSH16 0xFFFFFFFFFFFFFFFFFFFFFFFFFFFFFFFF NOT AND PUSH2 0x177B SWAP1 SWAP2 SWAP1 PUSH4 0xFFFFFFFF AND JUMP JUMPDEST SWAP1 POP PUSH2 0x106F DUP5 DUP3 PUSH2 0x1DC6 JUMP JUMPDEST SWAP4 POP PUSH1 0x0 PUSH1 0x2 PUSH1 0x8 ADD SLOAD EQ ISZERO DUP1 ISZERO PUSH2 0x1086 JUMPI POP DUP5 DUP8 LT JUMPDEST ISZERO PUSH2 0x120C JUMPI PUSH1 0x2 PUSH1 0x9 ADD PUSH1 0x0 SWAP1 SLOAD SWAP1 PUSH2 0x100 EXP SWAP1 DIV PUSH1 0xFF AND ISZERO PUSH2 0x1191 JUMPI PUSH1 0x0 PUSH2 0x10B9 DUP9 DUP8 PUSH2 0x10B4 SWAP2 SWAP1 PUSH2 0x2F16 JUMP JUMPDEST PUSH2 0x1234 JUMP JUMPDEST SWAP1 POP PUSH1 0x0 PUSH2 0x117C PUSH2 0x1112 PUSH32 0x0 PUSH2 0x10F1 PUSH1 0x2 DUP1 ADD SLOAD PUSH2 0x1234 JUMP JUMPDEST PUSH16 0xFFFFFFFFFFFFFFFFFFFFFFFFFFFFFFFF NOT AND PUSH2 0x12B2 SWAP1 SWAP2 SWAP1 PUSH4 0xFFFFFFFF AND JUMP JUMPDEST PUSH2 0x115B PUSH2 0x1123 PUSH1 0x2 PUSH1 0x7 ADD SLOAD PUSH2 0x1234 JUMP JUMPDEST PUSH2 0x113A DUP7 PUSH2 0x1135 PUSH1 0x2 PUSH1 0x8 ADD SLOAD PUSH2 0x1234 JUMP JUMPDEST PUSH2 0x12B2 JUMP JUMPDEST PUSH16 0xFFFFFFFFFFFFFFFFFFFFFFFFFFFFFFFF NOT AND PUSH2 0x177B SWAP1 SWAP2 SWAP1 PUSH4 0xFFFFFFFF AND JUMP JUMPDEST PUSH16 0xFFFFFFFFFFFFFFFFFFFFFFFFFFFFFFFF NOT AND PUSH2 0x177B SWAP1 SWAP2 SWAP1 PUSH4 0xFFFFFFFF AND JUMP JUMPDEST SWAP1 POP PUSH2 0x1188 DUP7 DUP3 PUSH2 0x1DC6 JUMP JUMPDEST SWAP6 POP POP POP PUSH2 0x120B JUMP JUMPDEST PUSH1 0x0 PUSH2 0x11FB PUSH2 0x11A3 PUSH1 0x2 DUP1 ADD SLOAD PUSH2 0x1234 JUMP JUMPDEST PUSH2 0x11F6 PUSH32 0x0 PUSH2 0x11D5 PUSH1 0x2 PUSH1 0x7 ADD SLOAD PUSH2 0x1234 JUMP JUMPDEST PUSH16 0xFFFFFFFFFFFFFFFFFFFFFFFFFFFFFFFF NOT AND PUSH2 0x12B2 SWAP1 SWAP2 SWAP1 PUSH4 0xFFFFFFFF AND JUMP JUMPDEST PUSH2 0x177B JUMP JUMPDEST SWAP1 POP PUSH2 0x1207 DUP6 DUP3 PUSH2 0x1DC6 JUMP JUMPDEST SWAP5 POP POP JUMPDEST JUMPDEST PUSH2 0x1228 DUP5 PUSH16 0xFFFFFFFFFFFFFFFFFFFFFFFFFFFFFFFF NOT AND PUSH2 0x242B JUMP JUMPDEST SWAP8 POP POP POP POP POP POP POP POP SWAP1 JUMP JUMPDEST PUSH1 0x0 DUP1 DUP3 EQ ISZERO PUSH2 0x124A JUMPI PUSH1 0x0 PUSH1 0x80 SHL SWAP1 POP PUSH2 0x12AD JUMP JUMPDEST PUSH1 0x0 DUP3 SWAP1 POP PUSH1 0x0 PUSH2 0x125A DUP3 PUSH2 0x2529 JUMP JUMPDEST SWAP1 POP PUSH1 0x70 DUP2 LT ISZERO PUSH2 0x1273 JUMPI DUP1 PUSH1 0x70 SUB DUP3 SWAP1 SHL SWAP2 POP PUSH2 0x1287 JUMP JUMPDEST PUSH1 0x70 DUP2 GT ISZERO PUSH2 0x1286 JUMPI PUSH1 0x70 DUP2 SUB DUP3 SWAP1 SHR SWAP2 POP JUMPDEST JUMPDEST PUSH1 0x70 DUP2 PUSH2 0x3FFF ADD SWAP1 SHL PUSH14 0xFFFFFFFFFFFFFFFFFFFFFFFFFFFF DUP4 AND OR SWAP2 POP DUP2 PUSH1 0x80 SHL SWAP3 POP POP POP JUMPDEST SWAP2 SWAP1 POP JUMP JUMPDEST PUSH1 0x0 DUP1 PUSH2 0x7FFF PUSH1 0x70 DUP6 PUSH1 0x80 SHR PUSH16 0xFFFFFFFFFFFFFFFFFFFFFFFFFFFFFFFF AND SWAP1 SHR AND PUSH16 0xFFFFFFFFFFFFFFFFFFFFFFFFFFFFFFFF AND SWAP1 POP PUSH1 0x0 PUSH2 0x7FFF PUSH1 0x70 DUP6 PUSH1 0x80 SHR PUSH16 0xFFFFFFFFFFFFFFFFFFFFFFFFFFFFFFFF AND SWAP1 SHR AND PUSH16 0xFFFFFFFFFFFFFFFFFFFFFFFFFFFFFFFF AND SWAP1 POP PUSH2 0x7FFF DUP3 EQ ISZERO PUSH2 0x136D JUMPI PUSH2 0x7FFF DUP2 EQ ISZERO PUSH2 0x134C JUMPI PUSH16 0x7FFF8000000000000000000000000000 PUSH1 0x80 SHL SWAP3 POP POP POP PUSH2 0x1775 JUMP JUMPDEST PUSH16 0x80000000000000000000000000000000 PUSH1 0x80 SHL DUP5 AND DUP6 XOR SWAP3 POP POP POP PUSH2 0x1775 JUMP JUMPDEST PUSH2 0x7FFF DUP2 EQ ISZERO PUSH2 0x13EC JUMPI PUSH1 0x0 PUSH1 0x80 SHL PUSH14 0xFFFFFFFFFFFFFFFFFFFFFFFFFFFF PUSH1 0x80 SHL DUP6 AND PUSH16 0xFFFFFFFFFFFFFFFFFFFFFFFFFFFFFFFF NOT AND EQ PUSH2 0x13C5 JUMPI PUSH16 0x7FFF8000000000000000000000000000 PUSH1 0x80 SHL SWAP3 POP POP POP PUSH2 0x1775 JUMP JUMPDEST PUSH16 0x80000000000000000000000000000000 PUSH1 0x80 SHL DUP5 DUP7 XOR AND PUSH1 0x0 PUSH1 0x80 SHL OR SWAP3 POP POP POP PUSH2 0x1775 JUMP JUMPDEST PUSH1 0x0 PUSH1 0x80 SHL PUSH16 0x7FFFFFFFFFFFFFFFFFFFFFFFFFFFFFFF PUSH1 0x80 SHL DUP6 AND PUSH16 0xFFFFFFFFFFFFFFFFFFFFFFFFFFFFFFFF NOT AND EQ ISZERO PUSH2 0x14A7 JUMPI PUSH1 0x0 PUSH1 0x80 SHL PUSH16 0x7FFFFFFFFFFFFFFFFFFFFFFFFFFFFFFF PUSH1 0x80 SHL DUP7 AND PUSH16 0xFFFFFFFFFFFFFFFFFFFFFFFFFFFFFFFF NOT AND EQ ISZERO PUSH2 0x1471 JUMPI PUSH16 0x7FFF8000000000000000000000000000 PUSH1 0x80 SHL SWAP3 POP POP POP PUSH2 0x1775 JUMP JUMPDEST PUSH16 0x80000000000000000000000000000000 PUSH1 0x80 SHL DUP5 DUP7 XOR AND PUSH16 0x7FFF0000000000000000000000000000 PUSH1 0x80 SHL OR SWAP3 POP POP POP PUSH2 0x1775 JUMP JUMPDEST PUSH1 0x0 PUSH14 0xFFFFFFFFFFFFFFFFFFFFFFFFFFFF DUP6 PUSH1 0x80 SHR AND PUSH16 0xFFFFFFFFFFFFFFFFFFFFFFFFFFFFFFFF AND SWAP1 POP PUSH1 0x0 DUP3 EQ ISZERO PUSH2 0x14E3 JUMPI PUSH1 0x1 SWAP2 POP PUSH2 0x14F8 JUMP JUMPDEST PUSH15 0x10000000000000000000000000000 DUP2 OR SWAP1 POP JUMPDEST PUSH1 0x0 PUSH14 0xFFFFFFFFFFFFFFFFFFFFFFFFFFFF DUP8 PUSH1 0x80 SHR AND PUSH16 0xFFFFFFFFFFFFFFFFFFFFFFFFFFFFFFFF AND SWAP1 POP PUSH1 0x0 DUP5 EQ ISZERO PUSH2 0x155C JUMPI PUSH1 0x0 DUP2 EQ PUSH2 0x1557 JUMPI PUSH1 0x0 PUSH2 0x153E DUP3 PUSH2 0x2529 JUMP JUMPDEST PUSH1 0xE2 SUB SWAP1 POP DUP1 DUP3 SWAP1 SHL SWAP2 POP PUSH1 0x1 SWAP5 POP PUSH1 0x72 DUP2 SUB DUP5 ADD SWAP4 POP POP JUMPDEST PUSH2 0x1575 JUMP JUMPDEST PUSH1 0x72 PUSH15 0x10000000000000000000000000000 DUP3 OR SWAP1 SHL SWAP1 POP JUMPDEST DUP2 DUP2 DUP2 PUSH2 0x1585 JUMPI PUSH2 0x1584 PUSH2 0x32D6 JUMP JUMPDEST JUMPDEST DIV SWAP1 POP PUSH1 0x0 DUP2 EQ ISZERO PUSH2 0x15F0 JUMPI PUSH1 0x0 PUSH1 0x80 SHL PUSH16 0x80000000000000000000000000000000 PUSH1 0x80 SHL DUP8 DUP10 XOR AND PUSH16 0xFFFFFFFFFFFFFFFFFFFFFFFFFFFFFFFF NOT AND GT PUSH2 0x15D0 JUMPI PUSH1 0x0 PUSH1 0x80 SHL PUSH2 0x15E5 JUMP JUMPDEST PUSH16 0x80000000000000000000000000000000 PUSH1 0x80 SHL JUMPDEST SWAP5 POP POP POP POP POP PUSH2 0x1775 JUMP JUMPDEST PUSH14 0x1000000000000000000000000000 DUP2 LT ISZERO PUSH2 0x160F JUMPI PUSH2 0x160E PUSH2 0x3305 JUMP JUMPDEST JUMPDEST PUSH1 0x0 PUSH15 0x80000000000000000000000000000 DUP3 LT ISZERO PUSH2 0x1670 JUMPI PUSH15 0x40000000000000000000000000000 DUP3 LT ISZERO PUSH2 0x1665 JUMPI PUSH15 0x20000000000000000000000000000 DUP3 LT ISZERO PUSH2 0x165D JUMPI PUSH1 0x70 PUSH2 0x1660 JUMP JUMPDEST PUSH1 0x71 JUMPDEST PUSH2 0x1668 JUMP JUMPDEST PUSH1 0x72 JUMPDEST PUSH1 0xFF AND PUSH2 0x167A JUMP JUMPDEST PUSH2 0x1679 DUP3 PUSH2 0x2529 JUMP JUMPDEST JUMPDEST SWAP1 POP PUSH2 0x4071 DUP5 ADD DUP2 DUP7 ADD GT ISZERO PUSH2 0x1698 JUMPI PUSH2 0x7FFF SWAP5 POP PUSH1 0x0 SWAP2 POP PUSH2 0x1735 JUMP JUMPDEST DUP4 PUSH2 0x3FFC DUP3 DUP8 ADD ADD LT ISZERO PUSH2 0x16B3 JUMPI PUSH1 0x0 SWAP5 POP PUSH1 0x0 SWAP2 POP PUSH2 0x1734 JUMP JUMPDEST DUP4 PUSH2 0x3F8C DUP3 DUP8 ADD ADD LT ISZERO PUSH2 0x1701 JUMPI DUP4 PUSH2 0x3FFC DUP7 ADD GT ISZERO PUSH2 0x16DE JUMPI DUP4 PUSH2 0x3FFC DUP7 ADD SUB DUP3 SWAP1 SHL SWAP2 POP PUSH2 0x16F8 JUMP JUMPDEST DUP4 PUSH2 0x3FFC DUP7 ADD LT ISZERO PUSH2 0x16F7 JUMPI PUSH2 0x3FFC DUP6 DUP6 SUB SUB DUP3 SWAP1 SHR SWAP2 POP JUMPDEST JUMPDEST PUSH1 0x0 SWAP5 POP PUSH2 0x1733 JUMP JUMPDEST PUSH1 0x70 DUP2 GT ISZERO PUSH2 0x1714 JUMPI PUSH1 0x70 DUP2 SUB DUP3 SWAP1 SHR SWAP2 POP JUMPDEST PUSH14 0xFFFFFFFFFFFFFFFFFFFFFFFFFFFF DUP3 AND SWAP2 POP DUP4 PUSH2 0x3F8D DUP3 DUP8 ADD ADD SUB SWAP5 POP JUMPDEST JUMPDEST JUMPDEST DUP2 PUSH1 0x70 DUP7 SWAP1 SHL PUSH16 0x80000000000000000000000000000000 PUSH1 0x80 SHL DUP10 DUP12 XOR AND PUSH1 0x80 SHR PUSH16 0xFFFFFFFFFFFFFFFFFFFFFFFFFFFFFFFF AND OR OR PUSH1 0x80 SHL SWAP6 POP POP POP POP POP POP JUMPDEST SWAP3 SWAP2 POP POP JUMP JUMPDEST PUSH1 0x0 DUP1 PUSH2 0x7FFF PUSH1 0x70 DUP6 PUSH1 0x80 SHR PUSH16 0xFFFFFFFFFFFFFFFFFFFFFFFFFFFFFFFF AND SWAP1 SHR AND PUSH16 0xFFFFFFFFFFFFFFFFFFFFFFFFFFFFFFFF AND SWAP1 POP PUSH1 0x0 PUSH2 0x7FFF PUSH1 0x70 DUP6 PUSH1 0x80 SHR PUSH16 0xFFFFFFFFFFFFFFFFFFFFFFFFFFFFFFFF AND SWAP1 SHR AND PUSH16 0xFFFFFFFFFFFFFFFFFFFFFFFFFFFFFFFF AND SWAP1 POP PUSH2 0x7FFF DUP3 EQ ISZERO PUSH2 0x1912 JUMPI PUSH2 0x7FFF DUP2 EQ ISZERO PUSH2 0x18A0 JUMPI DUP4 PUSH16 0xFFFFFFFFFFFFFFFFFFFFFFFFFFFFFFFF NOT AND DUP6 PUSH16 0xFFFFFFFFFFFFFFFFFFFFFFFFFFFFFFFF NOT AND EQ ISZERO PUSH2 0x1847 JUMPI PUSH16 0x80000000000000000000000000000000 PUSH1 0x80 SHL DUP5 AND DUP6 XOR SWAP3 POP POP POP PUSH2 0x1C0A JUMP JUMPDEST PUSH16 0x80000000000000000000000000000000 PUSH1 0x80 SHL DUP5 DUP7 XOR PUSH16 0xFFFFFFFFFFFFFFFFFFFFFFFFFFFFFFFF NOT AND EQ ISZERO PUSH2 0x1883 JUMPI DUP4 DUP6 OR SWAP3 POP POP POP PUSH2 0x1C0A JUMP JUMPDEST PUSH16 0x7FFF8000000000000000000000000000 PUSH1 0x80 SHL SWAP3 POP POP POP PUSH2 0x1C0A JUMP JUMPDEST PUSH1 0x0 PUSH1 0x80 SHL PUSH16 0x7FFFFFFFFFFFFFFFFFFFFFFFFFFFFFFF PUSH1 0x80 SHL DUP6 AND PUSH16 0xFFFFFFFFFFFFFFFFFFFFFFFFFFFFFFFF NOT AND EQ ISZERO PUSH2 0x18F1 JUMPI PUSH16 0x7FFF8000000000000000000000000000 PUSH1 0x80 SHL SWAP3 POP POP POP PUSH2 0x1C0A JUMP JUMPDEST PUSH16 0x80000000000000000000000000000000 PUSH1 0x80 SHL DUP5 AND DUP6 XOR SWAP3 POP POP POP PUSH2 0x1C0A JUMP JUMPDEST PUSH2 0x7FFF DUP2 EQ ISZERO PUSH2 0x198E JUMPI PUSH1 0x0 PUSH1 0x80 SHL PUSH16 0x7FFFFFFFFFFFFFFFFFFFFFFFFFFFFFFF PUSH1 0x80 SHL DUP7 AND PUSH16 0xFFFFFFFFFFFFFFFFFFFFFFFFFFFFFFFF NOT AND EQ ISZERO PUSH2 0x196D JUMPI PUSH16 0x7FFF8000000000000000000000000000 PUSH1 0x80 SHL SWAP3 POP POP POP PUSH2 0x1C0A JUMP JUMPDEST PUSH16 0x80000000000000000000000000000000 PUSH1 0x80 SHL DUP6 AND DUP5 XOR SWAP3 POP POP POP PUSH2 0x1C0A JUMP JUMPDEST PUSH1 0x0 PUSH14 0xFFFFFFFFFFFFFFFFFFFFFFFFFFFF DUP7 PUSH1 0x80 SHR AND PUSH16 0xFFFFFFFFFFFFFFFFFFFFFFFFFFFFFFFF AND SWAP1 POP PUSH1 0x0 DUP4 EQ ISZERO PUSH2 0x19CA JUMPI PUSH1 0x1 SWAP3 POP PUSH2 0x19DF JUMP JUMPDEST PUSH15 0x10000000000000000000000000000 DUP2 OR SWAP1 POP JUMPDEST PUSH1 0x0 PUSH14 0xFFFFFFFFFFFFFFFFFFFFFFFFFFFF DUP7 PUSH1 0x80 SHR AND PUSH16 0xFFFFFFFFFFFFFFFFFFFFFFFFFFFFFFFF AND SWAP1 POP PUSH1 0x0 DUP4 EQ ISZERO PUSH2 0x1A1B JUMPI PUSH1 0x1 SWAP3 POP PUSH2 0x1A30 JUMP JUMPDEST PUSH15 0x10000000000000000000000000000 DUP2 OR SWAP1 POP JUMPDEST DUP1 DUP3 MUL SWAP2 POP PUSH1 0x0 DUP3 EQ ISZERO PUSH2 0x1A9D JUMPI PUSH1 0x0 PUSH1 0x80 SHL PUSH16 0x80000000000000000000000000000000 PUSH1 0x80 SHL DUP8 DUP10 XOR AND PUSH16 0xFFFFFFFFFFFFFFFFFFFFFFFFFFFFFFFF NOT AND GT PUSH2 0x1A7D JUMPI PUSH1 0x0 PUSH1 0x80 SHL PUSH2 0x1A92 JUMP JUMPDEST PUSH16 0x80000000000000000000000000000000 PUSH1 0x80 SHL JUMPDEST SWAP5 POP POP POP POP POP PUSH2 0x1C0A JUMP JUMPDEST DUP3 DUP5 ADD SWAP4 POP PUSH1 0x0 PUSH29 0x200000000000000000000000000000000000000000000000000000000 DUP4 LT ISZERO PUSH2 0x1B04 JUMPI PUSH29 0x100000000000000000000000000000000000000000000000000000000 DUP4 LT ISZERO PUSH2 0x1AFC JUMPI PUSH2 0x1AF7 DUP4 PUSH2 0x2529 JUMP JUMPDEST PUSH2 0x1AFF JUMP JUMPDEST PUSH1 0xE0 JUMPDEST PUSH2 0x1B07 JUMP JUMPDEST PUSH1 0xE1 JUMPDEST SWAP1 POP PUSH2 0x4070 DUP2 DUP7 ADD LT ISZERO PUSH2 0x1B22 JUMPI PUSH1 0x0 SWAP5 POP PUSH1 0x0 SWAP3 POP PUSH2 0x1BCA JUMP JUMPDEST PUSH2 0x40E0 DUP2 DUP7 ADD LT ISZERO PUSH2 0x1B66 JUMPI PUSH2 0x4070 DUP6 LT ISZERO PUSH2 0x1B47 JUMPI DUP5 PUSH2 0x4070 SUB DUP4 SWAP1 SHR SWAP3 POP PUSH2 0x1B5D JUMP JUMPDEST PUSH2 0x4070 DUP6 GT ISZERO PUSH2 0x1B5C JUMPI PUSH2 0x4070 DUP6 SUB DUP4 SWAP1 SHL SWAP3 POP JUMPDEST JUMPDEST PUSH1 0x0 SWAP5 POP PUSH2 0x1BC9 JUMP JUMPDEST PUSH2 0xC0DD DUP2 DUP7 ADD GT ISZERO PUSH2 0x1B80 JUMPI PUSH2 0x7FFF SWAP5 POP PUSH1 0x0 SWAP3 POP PUSH2 0x1BC8 JUMP JUMPDEST PUSH1 0x70 DUP2 GT ISZERO PUSH2 0x1B97 JUMPI PUSH1 0x70 DUP2 SUB DUP4 SWAP1 SHR SWAP3 POP PUSH2 0x1BAB JUMP JUMPDEST PUSH1 0x70 DUP2 LT ISZERO PUSH2 0x1BAA JUMPI DUP1 PUSH1 0x70 SUB DUP4 SWAP1 SHL SWAP3 POP JUMPDEST JUMPDEST PUSH14 0xFFFFFFFFFFFFFFFFFFFFFFFFFFFF DUP4 AND SWAP3 POP PUSH2 0x40DF DUP2 DUP7 ADD SUB SWAP5 POP JUMPDEST JUMPDEST JUMPDEST DUP3 PUSH1 0x70 DUP7 SWAP1 SHL PUSH16 0x80000000000000000000000000000000 PUSH1 0x80 SHL DUP10 DUP12 XOR AND PUSH1 0x80 SHR PUSH16 0xFFFFFFFFFFFFFFFFFFFFFFFFFFFFFFFF AND OR OR PUSH1 0x80 SHL SWAP6 POP POP POP POP POP POP JUMPDEST SWAP3 SWAP2 POP POP JUMP JUMPDEST PUSH1 0x2 PUSH1 0x1 ADD PUSH1 0x0 SWAP1 SLOAD SWAP1 PUSH2 0x100 EXP SWAP1 DIV PUSH20 0xFFFFFFFFFFFFFFFFFFFFFFFFFFFFFFFFFFFFFFFF AND PUSH20 0xFFFFFFFFFFFFFFFFFFFFFFFFFFFFFFFFFFFFFFFF AND CALLER PUSH20 0xFFFFFFFFFFFFFFFFFFFFFFFFFFFFFFFFFFFFFFFF AND EQ PUSH2 0x1CA3 JUMPI PUSH1 0x40 MLOAD PUSH32 0x8C379A000000000000000000000000000000000000000000000000000000000 DUP2 MSTORE PUSH1 0x4 ADD PUSH2 0x1C9A SWAP1 PUSH2 0x2BDD JUMP JUMPDEST PUSH1 0x40 MLOAD DUP1 SWAP2 SUB SWAP1 REVERT JUMPDEST PUSH1 0x0 DUP1 PUSH1 0x1 ADD SLOAD GT ISZERO PUSH2 0x1CEB JUMPI PUSH1 0x40 MLOAD PUSH32 0x8C379A000000000000000000000000000000000000000000000000000000000 DUP2 MSTORE PUSH1 0x4 ADD PUSH2 0x1CE2 SWAP1 PUSH2 0x33A6 JUMP JUMPDEST PUSH1 0x40 MLOAD DUP1 SWAP2 SUB SWAP1 REVERT JUMPDEST PUSH1 0x0 DUP1 PUSH1 0x2 PUSH1 0x0 ADD PUSH1 0x0 SWAP1 SLOAD SWAP1 PUSH2 0x100 EXP SWAP1 DIV PUSH20 0xFFFFFFFFFFFFFFFFFFFFFFFFFFFFFFFFFFFFFFFF AND PUSH20 0xFFFFFFFFFFFFFFFFFFFFFFFFFFFFFFFFFFFFFFFF AND PUSH1 0x0 DUP1 ADD SLOAD PUSH1 0x40 MLOAD PUSH2 0x1D3B SWAP1 PUSH2 0x2F7B JUMP JUMPDEST PUSH1 0x0 PUSH1 0x40 MLOAD DUP1 DUP4 SUB DUP2 DUP6 DUP8 GAS CALL SWAP3 POP POP POP RETURNDATASIZE DUP1 PUSH1 0x0 DUP2 EQ PUSH2 0x1D78 JUMPI PUSH1 0x40 MLOAD SWAP2 POP PUSH1 0x1F NOT PUSH1 0x3F RETURNDATASIZE ADD AND DUP3 ADD PUSH1 0x40 MSTORE RETURNDATASIZE DUP3 MSTORE RETURNDATASIZE PUSH1 0x0 PUSH1 0x20 DUP5 ADD RETURNDATACOPY PUSH2 0x1D7D JUMP JUMPDEST PUSH1 0x60 SWAP2 POP JUMPDEST POP SWAP2 POP SWAP2 POP DUP2 PUSH2 0x1DC2 JUMPI PUSH1 0x40 MLOAD PUSH32 0x8C379A000000000000000000000000000000000000000000000000000000000 DUP2 MSTORE PUSH1 0x4 ADD PUSH2 0x1DB9 SWAP1 PUSH2 0x3412 JUMP JUMPDEST PUSH1 0x40 MLOAD DUP1 SWAP2 SUB SWAP1 REVERT JUMPDEST POP POP JUMP JUMPDEST PUSH1 0x0 DUP1 PUSH2 0x7FFF PUSH1 0x70 DUP6 PUSH1 0x80 SHR PUSH16 0xFFFFFFFFFFFFFFFFFFFFFFFFFFFFFFFF AND SWAP1 SHR AND PUSH16 0xFFFFFFFFFFFFFFFFFFFFFFFFFFFFFFFF AND SWAP1 POP PUSH1 0x0 PUSH2 0x7FFF PUSH1 0x70 DUP6 PUSH1 0x80 SHR PUSH16 0xFFFFFFFFFFFFFFFFFFFFFFFFFFFFFFFF AND SWAP1 SHR AND PUSH16 0xFFFFFFFFFFFFFFFFFFFFFFFFFFFFFFFF AND SWAP1 POP PUSH2 0x7FFF DUP3 EQ ISZERO PUSH2 0x1EA2 JUMPI PUSH2 0x7FFF DUP2 EQ ISZERO PUSH2 0x1E98 JUMPI DUP4 PUSH16 0xFFFFFFFFFFFFFFFFFFFFFFFFFFFFFFFF NOT AND DUP6 PUSH16 0xFFFFFFFFFFFFFFFFFFFFFFFFFFFFFFFF NOT AND EQ ISZERO PUSH2 0x1E7B JUMPI DUP5 SWAP3 POP POP POP PUSH2 0x2425 JUMP JUMPDEST PUSH16 0x7FFF8000000000000000000000000000 PUSH1 0x80 SHL SWAP3 POP POP POP PUSH2 0x2425 JUMP JUMPDEST DUP5 SWAP3 POP POP POP PUSH2 0x2425 JUMP JUMPDEST PUSH2 0x7FFF DUP2 EQ ISZERO PUSH2 0x1EB6 JUMPI DUP4 SWAP3 POP POP POP PUSH2 0x2425 JUMP JUMPDEST PUSH1 0x0 PUSH16 0x80000000000000000000000000000000 DUP7 PUSH1 0x80 SHR PUSH16 0xFFFFFFFFFFFFFFFFFFFFFFFFFFFFFFFF AND LT ISZERO SWAP1 POP PUSH1 0x0 PUSH14 0xFFFFFFFFFFFFFFFFFFFFFFFFFFFF DUP8 PUSH1 0x80 SHR AND PUSH16 0xFFFFFFFFFFFFFFFFFFFFFFFFFFFFFFFF AND SWAP1 POP PUSH1 0x0 DUP5 EQ ISZERO PUSH2 0x1F1F JUMPI PUSH1 0x1 SWAP4 POP PUSH2 0x1F34 JUMP JUMPDEST PUSH15 0x10000000000000000000000000000 DUP2 OR SWAP1 POP JUMPDEST PUSH1 0x0 PUSH16 0x80000000000000000000000000000000 DUP8 PUSH1 0x80 SHR PUSH16 0xFFFFFFFFFFFFFFFFFFFFFFFFFFFFFFFF AND LT ISZERO SWAP1 POP PUSH1 0x0 PUSH14 0xFFFFFFFFFFFFFFFFFFFFFFFFFFFF DUP9 PUSH1 0x80 SHR AND PUSH16 0xFFFFFFFFFFFFFFFFFFFFFFFFFFFFFFFF AND SWAP1 POP PUSH1 0x0 DUP6 EQ ISZERO PUSH2 0x1F9D JUMPI PUSH1 0x1 SWAP5 POP PUSH2 0x1FB2 JUMP JUMPDEST PUSH15 0x10000000000000000000000000000 DUP2 OR SWAP1 POP JUMPDEST PUSH1 0x0 DUP4 EQ ISZERO PUSH2 0x2014 JUMPI PUSH16 0x80000000000000000000000000000000 PUSH1 0x80 SHL PUSH16 0xFFFFFFFFFFFFFFFFFFFFFFFFFFFFFFFF NOT AND DUP9 PUSH16 0xFFFFFFFFFFFFFFFFFFFFFFFFFFFFFFFF NOT AND EQ PUSH2 0x2001 JUMPI DUP8 PUSH2 0x2007 JUMP JUMPDEST PUSH1 0x0 PUSH1 0x80 SHL JUMPDEST SWAP7 POP POP POP POP POP POP POP PUSH2 0x2425 JUMP JUMPDEST PUSH1 0x0 DUP2 EQ ISZERO PUSH2 0x2076 JUMPI PUSH16 0x80000000000000000000000000000000 PUSH1 0x80 SHL PUSH16 0xFFFFFFFFFFFFFFFFFFFFFFFFFFFFFFFF NOT AND DUP10 PUSH16 0xFFFFFFFFFFFFFFFFFFFFFFFFFFFFFFFF NOT AND EQ PUSH2 0x2063 JUMPI DUP9 PUSH2 0x2069 JUMP JUMPDEST PUSH1 0x0 PUSH1 0x80 SHL JUMPDEST SWAP7 POP POP POP POP POP POP POP PUSH2 0x2425 JUMP JUMPDEST PUSH1 0x0 DUP6 DUP8 SUB SWAP1 POP DUP3 ISZERO ISZERO DUP6 ISZERO ISZERO EQ ISZERO PUSH2 0x21F4 JUMPI PUSH1 0x70 DUP2 SGT ISZERO PUSH2 0x20A1 JUMPI DUP10 SWAP8 POP POP POP POP POP POP POP POP PUSH2 0x2425 JUMP JUMPDEST PUSH1 0x0 DUP2 SGT ISZERO PUSH2 0x20B5 JUMPI DUP1 DUP3 SWAP1 SHR SWAP2 POP PUSH2 0x2103 JUMP JUMPDEST PUSH32 0xFFFFFFFFFFFFFFFFFFFFFFFFFFFFFFFFFFFFFFFFFFFFFFFFFFFFFFFFFFFFFF90 DUP2 SLT ISZERO PUSH2 0x20EC JUMPI DUP9 SWAP8 POP POP POP POP POP POP POP POP PUSH2 0x2425 JUMP JUMPDEST PUSH1 0x0 DUP2 SLT ISZERO PUSH2 0x2102 JUMPI DUP1 PUSH1 0x0 SUB DUP5 SWAP1 SHR SWAP4 POP DUP6 SWAP7 POP JUMPDEST JUMPDEST DUP2 DUP5 ADD SWAP4 POP PUSH15 0x20000000000000000000000000000 DUP5 LT PUSH2 0x212C JUMPI PUSH1 0x1 DUP5 SWAP1 SHR SWAP4 POP PUSH1 0x1 DUP8 ADD SWAP7 POP JUMPDEST PUSH2 0x7FFF DUP8 EQ ISZERO PUSH2 0x2177 JUMPI DUP5 PUSH2 0x2154 JUMPI PUSH16 0x7FFF0000000000000000000000000000 PUSH1 0x80 SHL PUSH2 0x2169 JUMP JUMPDEST PUSH16 0xFFFF0000000000000000000000000000 PUSH1 0x80 SHL JUMPDEST SWAP8 POP POP POP POP POP POP POP POP PUSH2 0x2425 JUMP JUMPDEST PUSH15 0x10000000000000000000000000000 DUP5 LT ISZERO PUSH2 0x2197 JUMPI PUSH1 0x0 SWAP7 POP PUSH2 0x21AB JUMP JUMPDEST PUSH14 0xFFFFFFFFFFFFFFFFFFFFFFFFFFFF DUP5 AND SWAP4 POP JUMPDEST DUP4 PUSH1 0x70 DUP9 SWAP1 SHL DUP7 PUSH2 0x21BD JUMPI PUSH1 0x0 PUSH2 0x21CF JUMP JUMPDEST PUSH16 0x80000000000000000000000000000000 JUMPDEST PUSH16 0xFFFFFFFFFFFFFFFFFFFFFFFFFFFFFFFF AND OR OR PUSH1 0x80 SHL SWAP8 POP POP POP POP POP POP POP POP PUSH2 0x2425 JUMP JUMPDEST PUSH1 0x0 DUP2 SGT ISZERO PUSH2 0x220F JUMPI PUSH1 0x1 DUP5 SWAP1 SHL SWAP4 POP PUSH1 0x1 DUP8 SUB SWAP7 POP PUSH2 0x2227 JUMP JUMPDEST PUSH1 0x0 DUP2 SLT ISZERO PUSH2 0x2226 JUMPI PUSH1 0x1 DUP3 SWAP1 SHL SWAP2 POP PUSH1 0x1 DUP7 SUB SWAP7 POP JUMPDEST JUMPDEST PUSH1 0x70 DUP2 SGT ISZERO PUSH2 0x2239 JUMPI PUSH1 0x1 SWAP2 POP PUSH2 0x22C3 JUMP JUMPDEST PUSH1 0x1 DUP2 SGT ISZERO PUSH2 0x2255 JUMPI PUSH1 0x1 DUP1 DUP3 SUB PUSH1 0x1 DUP5 SUB SWAP1 SHR ADD SWAP2 POP PUSH2 0x22C2 JUMP JUMPDEST PUSH32 0xFFFFFFFFFFFFFFFFFFFFFFFFFFFFFFFFFFFFFFFFFFFFFFFFFFFFFFFFFFFFFF90 DUP2 SLT ISZERO PUSH2 0x2286 JUMPI PUSH1 0x1 SWAP4 POP PUSH2 0x22C1 JUMP JUMPDEST PUSH32 0xFFFFFFFFFFFFFFFFFFFFFFFFFFFFFFFFFFFFFFFFFFFFFFFFFFFFFFFFFFFFFFFF DUP2 SLT ISZERO PUSH2 0x22C0 JUMPI PUSH1 0x1 DUP1 DUP3 PUSH1 0x0 SUB SUB PUSH1 0x1 DUP7 SUB SWAP1 SHR ADD SWAP4 POP JUMPDEST JUMPDEST JUMPDEST JUMPDEST DUP2 DUP5 LT PUSH2 0x22D4 JUMPI DUP2 DUP5 SUB SWAP4 POP PUSH2 0x22DD JUMP JUMPDEST DUP4 DUP3 SUB SWAP4 POP DUP3 SWAP5 POP JUMPDEST PUSH1 0x0 DUP5 EQ ISZERO PUSH2 0x22F9 JUMPI PUSH1 0x0 PUSH1 0x80 SHL SWAP8 POP POP POP POP POP POP POP POP PUSH2 0x2425 JUMP JUMPDEST PUSH1 0x0 PUSH2 0x2304 DUP6 PUSH2 0x2529 JUMP JUMPDEST SWAP1 POP PUSH1 0x71 DUP2 EQ ISZERO PUSH2 0x2331 JUMPI PUSH14 0xFFFFFFFFFFFFFFFFFFFFFFFFFFFF PUSH1 0x1 DUP7 SWAP1 SHR AND SWAP5 POP PUSH1 0x1 DUP9 ADD SWAP8 POP PUSH2 0x2393 JUMP JUMPDEST PUSH1 0x70 DUP2 LT ISZERO PUSH2 0x237E JUMPI PUSH1 0x0 DUP2 PUSH1 0x70 SUB SWAP1 POP DUP1 DUP10 GT ISZERO PUSH2 0x236A JUMPI PUSH14 0xFFFFFFFFFFFFFFFFFFFFFFFFFFFF DUP2 DUP8 SWAP1 SHL AND SWAP6 POP DUP1 DUP10 SUB SWAP9 POP PUSH2 0x2378 JUMP JUMPDEST PUSH1 0x1 DUP10 SUB DUP7 SWAP1 SHL SWAP6 POP PUSH1 0x0 SWAP9 POP JUMPDEST POP PUSH2 0x2392 JUMP JUMPDEST PUSH14 0xFFFFFFFFFFFFFFFFFFFFFFFFFFFF DUP6 AND SWAP5 POP JUMPDEST JUMPDEST PUSH2 0x7FFF DUP9 EQ ISZERO PUSH2 0x23DF JUMPI DUP6 PUSH2 0x23BB JUMPI PUSH16 0x7FFF0000000000000000000000000000 PUSH1 0x80 SHL PUSH2 0x23D0 JUMP JUMPDEST PUSH16 0xFFFF0000000000000000000000000000 PUSH1 0x80 SHL JUMPDEST SWAP9 POP POP POP POP POP POP POP POP POP PUSH2 0x2425 JUMP JUMPDEST DUP5 PUSH1 0x70 DUP10 SWAP1 SHL DUP8 PUSH2 0x23F1 JUMPI PUSH1 0x0 PUSH2 0x2403 JUMP JUMPDEST PUSH16 0x80000000000000000000000000000000 JUMPDEST PUSH16 0xFFFFFFFFFFFFFFFFFFFFFFFFFFFFFFFF AND OR OR PUSH1 0x80 SHL SWAP9 POP POP POP POP POP POP POP POP POP JUMPDEST SWAP3 SWAP2 POP POP JUMP JUMPDEST PUSH1 0x0 DUP1 PUSH2 0x7FFF PUSH1 0x70 DUP5 PUSH1 0x80 SHR PUSH16 0xFFFFFFFFFFFFFFFFFFFFFFFFFFFFFFFF AND SWAP1 SHR AND PUSH16 0xFFFFFFFFFFFFFFFFFFFFFFFFFFFFFFFF AND SWAP1 POP PUSH2 0x3FFF DUP2 LT ISZERO PUSH2 0x2474 JUMPI PUSH1 0x0 SWAP2 POP POP PUSH2 0x2524 JUMP JUMPDEST PUSH16 0x80000000000000000000000000000000 DUP4 PUSH1 0x80 SHR PUSH16 0xFFFFFFFFFFFFFFFFFFFFFFFFFFFFFFFF AND LT PUSH2 0x24A5 JUMPI PUSH1 0x0 DUP1 REVERT JUMPDEST PUSH2 0x40FE DUP2 GT ISZERO PUSH2 0x24B4 JUMPI PUSH1 0x0 DUP1 REVERT JUMPDEST PUSH1 0x0 PUSH15 0x10000000000000000000000000000 PUSH14 0xFFFFFFFFFFFFFFFFFFFFFFFFFFFF DUP6 PUSH1 0x80 SHR PUSH16 0xFFFFFFFFFFFFFFFFFFFFFFFFFFFFFFFF AND AND OR SWAP1 POP PUSH2 0x406F DUP3 LT ISZERO PUSH2 0x2508 JUMPI DUP2 PUSH2 0x406F SUB DUP2 SWAP1 SHR SWAP1 POP PUSH2 0x251E JUMP JUMPDEST PUSH2 0x406F DUP3 GT ISZERO PUSH2 0x251D JUMPI PUSH2 0x406F DUP3 SUB DUP2 SWAP1 SHL SWAP1 POP JUMPDEST JUMPDEST DUP1 SWAP3 POP POP POP JUMPDEST SWAP2 SWAP1 POP JUMP JUMPDEST PUSH1 0x0 DUP1 DUP3 GT PUSH2 0x2537 JUMPI PUSH1 0x0 DUP1 REVERT JUMPDEST PUSH1 0x0 PUSH17 0x100000000000000000000000000000000 DUP4 LT PUSH2 0x255F JUMPI PUSH1 0x80 DUP4 SWAP1 SHR SWAP3 POP PUSH1 0x80 DUP2 ADD SWAP1 POP JUMPDEST PUSH9 0x10000000000000000 DUP4 LT PUSH2 0x257D JUMPI PUSH1 0x40 DUP4 SWAP1 SHR SWAP3 POP PUSH1 0x40 DUP2 ADD SWAP1 POP JUMPDEST PUSH5 0x100000000 DUP4 LT PUSH2 0x2597 JUMPI PUSH1 0x20 DUP4 SWAP1 SHR SWAP3 POP PUSH1 0x20 DUP2 ADD SWAP1 POP JUMPDEST PUSH3 0x10000 DUP4 LT PUSH2 0x25AF JUMPI PUSH1 0x10 DUP4 SWAP1 SHR SWAP3 POP PUSH1 0x10 DUP2 ADD SWAP1 POP JUMPDEST PUSH2 0x100 DUP4 LT PUSH2 0x25C6 JUMPI PUSH1 0x8 DUP4 SWAP1 SHR SWAP3 POP PUSH1 0x8 DUP2 ADD SWAP1 POP JUMPDEST PUSH1 0x10 DUP4 LT PUSH2 0x25DC JUMPI PUSH1 0x4 DUP4 SWAP1 SHR SWAP3 POP PUSH1 0x4 DUP2 ADD SWAP1 POP JUMPDEST PUSH1 0x4 DUP4 LT PUSH2 0x25F2 JUMPI PUSH1 0x2 DUP4 SWAP1 SHR SWAP3 POP PUSH1 0x2 DUP2 ADD SWAP1 POP JUMPDEST PUSH1 0x2 DUP4 LT PUSH2 0x2601 JUMPI PUSH1 0x1 DUP2 ADD SWAP1 POP JUMPDEST DUP1 SWAP2 POP POP SWAP2 SWAP1 POP JUMP JUMPDEST PUSH1 0x40 MLOAD DUP1 PUSH2 0x180 ADD PUSH1 0x40 MSTORE DUP1 PUSH1 0x0 PUSH20 0xFFFFFFFFFFFFFFFFFFFFFFFFFFFFFFFFFFFFFFFF AND DUP2 MSTORE PUSH1 0x20 ADD PUSH1 0x0 PUSH20 0xFFFFFFFFFFFFFFFFFFFFFFFFFFFFFFFFFFFFFFFF AND DUP2 MSTORE PUSH1 0x20 ADD PUSH1 0x0 DUP2 MSTORE PUSH1 0x20 ADD PUSH1 0x0 DUP2 MSTORE PUSH1 0x20 ADD PUSH1 0x0 DUP2 MSTORE PUSH1 0x20 ADD PUSH1 0x0 DUP2 MSTORE PUSH1 0x20 ADD PUSH1 0x0 DUP2 MSTORE PUSH1 0x20 ADD PUSH1 0x0 DUP2 MSTORE PUSH1 0x20 ADD PUSH1 0x0 DUP2 MSTORE PUSH1 0x20 ADD PUSH1 0x0 ISZERO ISZERO DUP2 MSTORE PUSH1 0x20 ADD PUSH1 0x0 DUP2 MSTORE PUSH1 0x20 ADD PUSH1 0x0 DUP2 MSTORE POP SWAP1 JUMP JUMPDEST PUSH1 0x0 DUP1 REVERT JUMPDEST PUSH1 0x0 PUSH20 0xFFFFFFFFFFFFFFFFFFFFFFFFFFFFFFFFFFFFFFFF DUP3 AND SWAP1 POP SWAP2 SWAP1 POP JUMP JUMPDEST PUSH1 0x0 PUSH2 0x26C9 DUP3 PUSH2 0x269E JUMP JUMPDEST SWAP1 POP SWAP2 SWAP1 POP JUMP JUMPDEST PUSH2 0x26D9 DUP2 PUSH2 0x26BE JUMP JUMPDEST DUP2 EQ PUSH2 0x26E4 JUMPI PUSH1 0x0 DUP1 REVERT JUMPDEST POP JUMP JUMPDEST PUSH1 0x0 DUP2 CALLDATALOAD SWAP1 POP PUSH2 0x26F6 DUP2 PUSH2 0x26D0 JUMP JUMPDEST SWAP3 SWAP2 POP POP JUMP JUMPDEST PUSH1 0x0 DUP2 SWAP1 POP SWAP2 SWAP1 POP JUMP JUMPDEST PUSH2 0x270F DUP2 PUSH2 0x26FC JUMP JUMPDEST DUP2 EQ PUSH2 0x271A JUMPI PUSH1 0x0 DUP1 REVERT JUMPDEST POP JUMP JUMPDEST PUSH1 0x0 DUP2 CALLDATALOAD SWAP1 POP PUSH2 0x272C DUP2 PUSH2 0x2706 JUMP JUMPDEST SWAP3 SWAP2 POP POP JUMP JUMPDEST PUSH1 0x0 DUP2 ISZERO ISZERO SWAP1 POP SWAP2 SWAP1 POP JUMP JUMPDEST PUSH2 0x2747 DUP2 PUSH2 0x2732 JUMP JUMPDEST DUP2 EQ PUSH2 0x2752 JUMPI PUSH1 0x0 DUP1 REVERT JUMPDEST POP JUMP JUMPDEST PUSH1 0x0 DUP2 CALLDATALOAD SWAP1 POP PUSH2 0x2764 DUP2 PUSH2 0x273E JUMP JUMPDEST SWAP3 SWAP2 POP POP JUMP JUMPDEST PUSH1 0x0 DUP1 PUSH1 0x0 DUP1 PUSH1 0x0 DUP1 PUSH1 0x0 DUP1 PUSH1 0x0 PUSH2 0x120 DUP11 DUP13 SUB SLT ISZERO PUSH2 0x278D JUMPI PUSH2 0x278C PUSH2 0x2699 JUMP JUMPDEST JUMPDEST PUSH1 0x0 PUSH2 0x279B DUP13 DUP3 DUP14 ADD PUSH2 0x26E7 JUMP JUMPDEST SWAP10 POP POP PUSH1 0x20 PUSH2 0x27AC DUP13 DUP3 DUP14 ADD PUSH2 0x271D JUMP JUMPDEST SWAP9 POP POP PUSH1 0x40 PUSH2 0x27BD DUP13 DUP3 DUP14 ADD PUSH2 0x271D JUMP JUMPDEST SWAP8 POP POP PUSH1 0x60 PUSH2 0x27CE DUP13 DUP3 DUP14 ADD PUSH2 0x271D JUMP JUMPDEST SWAP7 POP POP PUSH1 0x80 PUSH2 0x27DF DUP13 DUP3 DUP14 ADD PUSH2 0x271D JUMP JUMPDEST SWAP6 POP POP PUSH1 0xA0 PUSH2 0x27F0 DUP13 DUP3 DUP14 ADD PUSH2 0x271D JUMP JUMPDEST SWAP5 POP POP PUSH1 0xC0 PUSH2 0x2801 DUP13 DUP3 DUP14 ADD PUSH2 0x2755 JUMP JUMPDEST SWAP4 POP POP PUSH1 0xE0 PUSH2 0x2812 DUP13 DUP3 DUP14 ADD PUSH2 0x271D JUMP JUMPDEST SWAP3 POP POP PUSH2 0x100 PUSH2 0x2824 DUP13 DUP3 DUP14 ADD PUSH2 0x271D JUMP JUMPDEST SWAP2 POP POP SWAP3 SWAP6 SWAP9 POP SWAP3 SWAP6 SWAP9 POP SWAP3 SWAP6 SWAP9 JUMP JUMPDEST PUSH2 0x283D DUP2 PUSH2 0x26FC JUMP JUMPDEST DUP3 MSTORE POP POP JUMP JUMPDEST PUSH1 0x0 PUSH1 0x20 DUP3 ADD SWAP1 POP PUSH2 0x2858 PUSH1 0x0 DUP4 ADD DUP5 PUSH2 0x2834 JUMP JUMPDEST SWAP3 SWAP2 POP POP JUMP JUMPDEST PUSH2 0x2867 DUP2 PUSH2 0x26BE JUMP JUMPDEST DUP3 MSTORE POP POP JUMP JUMPDEST PUSH2 0x2876 DUP2 PUSH2 0x26FC JUMP JUMPDEST DUP3 MSTORE POP POP JUMP JUMPDEST PUSH2 0x2885 DUP2 PUSH2 0x2732 JUMP JUMPDEST DUP3 MSTORE POP POP JUMP JUMPDEST PUSH2 0x180 DUP3 ADD PUSH1 0x0 DUP3 ADD MLOAD PUSH2 0x28A2 PUSH1 0x0 DUP6 ADD DUP3 PUSH2 0x285E JUMP JUMPDEST POP PUSH1 0x20 DUP3 ADD MLOAD PUSH2 0x28B5 PUSH1 0x20 DUP6 ADD DUP3 PUSH2 0x285E JUMP JUMPDEST POP PUSH1 0x40 DUP3 ADD MLOAD PUSH2 0x28C8 PUSH1 0x40 DUP6 ADD DUP3 PUSH2 0x286D JUMP JUMPDEST POP PUSH1 0x60 DUP3 ADD MLOAD PUSH2 0x28DB PUSH1 0x60 DUP6 ADD DUP3 PUSH2 0x286D JUMP JUMPDEST POP PUSH1 0x80 DUP3 ADD MLOAD PUSH2 0x28EE PUSH1 0x80 DUP6 ADD DUP3 PUSH2 0x286D JUMP JUMPDEST POP PUSH1 0xA0 DUP3 ADD MLOAD PUSH2 0x2901 PUSH1 0xA0 DUP6 ADD DUP3 PUSH2 0x286D JUMP JUMPDEST POP PUSH1 0xC0 DUP3 ADD MLOAD PUSH2 0x2914 PUSH1 0xC0 DUP6 ADD DUP3 PUSH2 0x286D JUMP JUMPDEST POP PUSH1 0xE0 DUP3 ADD MLOAD PUSH2 0x2927 PUSH1 0xE0 DUP6 ADD DUP3 PUSH2 0x286D JUMP JUMPDEST POP PUSH2 0x100 DUP3 ADD MLOAD PUSH2 0x293C PUSH2 0x100 DUP6 ADD DUP3 PUSH2 0x286D JUMP JUMPDEST POP PUSH2 0x120 DUP3 ADD MLOAD PUSH2 0x2951 PUSH2 0x120 DUP6 ADD DUP3 PUSH2 0x287C JUMP JUMPDEST POP PUSH2 0x140 DUP3 ADD MLOAD PUSH2 0x2966 PUSH2 0x140 DUP6 ADD DUP3 PUSH2 0x286D JUMP JUMPDEST POP PUSH2 0x160 DUP3 ADD MLOAD PUSH2 0x297B PUSH2 0x160 DUP6 ADD DUP3 PUSH2 0x286D JUMP JUMPDEST POP POP POP POP JUMP JUMPDEST PUSH1 0x0 PUSH2 0x180 DUP3 ADD SWAP1 POP PUSH2 0x2997 PUSH1 0x0 DUP4 ADD DUP5 PUSH2 0x288B JUMP JUMPDEST SWAP3 SWAP2 POP POP JUMP JUMPDEST PUSH1 0x0 PUSH1 0x20 DUP3 DUP5 SUB SLT ISZERO PUSH2 0x29B3 JUMPI PUSH2 0x29B2 PUSH2 0x2699 JUMP JUMPDEST JUMPDEST PUSH1 0x0 PUSH2 0x29C1 DUP5 DUP3 DUP6 ADD PUSH2 0x26E7 JUMP JUMPDEST SWAP2 POP POP SWAP3 SWAP2 POP POP JUMP JUMPDEST PUSH1 0x0 DUP3 DUP3 MSTORE PUSH1 0x20 DUP3 ADD SWAP1 POP SWAP3 SWAP2 POP POP JUMP JUMPDEST PUSH32 0x4F6E6C7920746865206F776E6572206F662074686520636F6E74726163742063 PUSH1 0x0 DUP3 ADD MSTORE PUSH32 0x616E20706572666F726D2074686973206F7065726174696F6E00000000000000 PUSH1 0x20 DUP3 ADD MSTORE POP JUMP JUMPDEST PUSH1 0x0 PUSH2 0x2A37 PUSH1 0x39 DUP4 PUSH2 0x29CA JUMP JUMPDEST SWAP2 POP PUSH2 0x2A42 DUP3 PUSH2 0x29DB JUMP JUMPDEST PUSH1 0x40 DUP3 ADD SWAP1 POP SWAP2 SWAP1 POP JUMP JUMPDEST PUSH1 0x0 PUSH1 0x20 DUP3 ADD SWAP1 POP DUP2 DUP2 SUB PUSH1 0x0 DUP4 ADD MSTORE PUSH2 0x2A66 DUP2 PUSH2 0x2A2A JUMP JUMPDEST SWAP1 POP SWAP2 SWAP1 POP JUMP JUMPDEST PUSH32 0x5465726D732063616E6E6F74206265206368616E676564206166746572206C6F PUSH1 0x0 DUP3 ADD MSTORE PUSH32 0x616E20686173206265656E206973737565640000000000000000000000000000 PUSH1 0x20 DUP3 ADD MSTORE POP JUMP JUMPDEST PUSH1 0x0 PUSH2 0x2AC9 PUSH1 0x32 DUP4 PUSH2 0x29CA JUMP JUMPDEST SWAP2 POP PUSH2 0x2AD4 DUP3 PUSH2 0x2A6D JUMP JUMPDEST PUSH1 0x40 DUP3 ADD SWAP1 POP SWAP2 SWAP1 POP JUMP JUMPDEST PUSH1 0x0 PUSH1 0x20 DUP3 ADD SWAP1 POP DUP2 DUP2 SUB PUSH1 0x0 DUP4 ADD MSTORE PUSH2 0x2AF8 DUP2 PUSH2 0x2ABC JUMP JUMPDEST SWAP1 POP SWAP2 SWAP1 POP JUMP JUMPDEST PUSH32 0x7465726D206D7573742062652067726561746572207468616E207A65726F0000 PUSH1 0x0 DUP3 ADD MSTORE POP JUMP JUMPDEST PUSH1 0x0 PUSH2 0x2B35 PUSH1 0x1E DUP4 PUSH2 0x29CA JUMP JUMPDEST SWAP2 POP PUSH2 0x2B40 DUP3 PUSH2 0x2AFF JUMP JUMPDEST PUSH1 0x20 DUP3 ADD SWAP1 POP SWAP2 SWAP1 POP JUMP JUMPDEST PUSH1 0x0 PUSH1 0x20 DUP3 ADD SWAP1 POP DUP2 DUP2 SUB PUSH1 0x0 DUP4 ADD MSTORE PUSH2 0x2B64 DUP2 PUSH2 0x2B28 JUMP JUMPDEST SWAP1 POP SWAP2 SWAP1 POP JUMP JUMPDEST PUSH32 0x4F6E6C792074686520626F72726F776572206F662074686520636F6E74726163 PUSH1 0x0 DUP3 ADD MSTORE PUSH32 0x742063616E20706572666F726D2074686973206F7065726174696F6E00000000 PUSH1 0x20 DUP3 ADD MSTORE POP JUMP JUMPDEST PUSH1 0x0 PUSH2 0x2BC7 PUSH1 0x3C DUP4 PUSH2 0x29CA JUMP JUMPDEST SWAP2 POP PUSH2 0x2BD2 DUP3 PUSH2 0x2B6B JUMP JUMPDEST PUSH1 0x40 DUP3 ADD SWAP1 POP SWAP2 SWAP1 POP JUMP JUMPDEST PUSH1 0x0 PUSH1 0x20 DUP3 ADD SWAP1 POP DUP2 DUP2 SUB PUSH1 0x0 DUP4 ADD MSTORE PUSH2 0x2BF6 DUP2 PUSH2 0x2BBA JUMP JUMPDEST SWAP1 POP SWAP2 SWAP1 POP JUMP JUMPDEST PUSH32 0x4E6F20636F6C6C61746572616C206973206E656365737361727920666F722074 PUSH1 0x0 DUP3 ADD MSTORE PUSH32 0x686973206C6F616E000000000000000000000000000000000000000000000000 PUSH1 0x20 DUP3 ADD MSTORE POP JUMP JUMPDEST PUSH1 0x0 PUSH2 0x2C59 PUSH1 0x28 DUP4 PUSH2 0x29CA JUMP JUMPDEST SWAP2 POP PUSH2 0x2C64 DUP3 PUSH2 0x2BFD JUMP JUMPDEST PUSH1 0x40 DUP3 ADD SWAP1 POP SWAP2 SWAP1 POP JUMP JUMPDEST PUSH1 0x0 PUSH1 0x20 DUP3 ADD SWAP1 POP DUP2 DUP2 SUB PUSH1 0x0 DUP4 ADD MSTORE PUSH2 0x2C88 DUP2 PUSH2 0x2C4C JUMP JUMPDEST SWAP1 POP SWAP2 SWAP1 POP JUMP JUMPDEST PUSH32 0x4C6F616E206D7573742062652066756E646564206265666F726520636F6C6C61 PUSH1 0x0 DUP3 ADD MSTORE PUSH32 0x746572616C20697320616C6C6F63617465640000000000000000000000000000 PUSH1 0x20 DUP3 ADD MSTORE POP JUMP JUMPDEST PUSH1 0x0 PUSH2 0x2CEB PUSH1 0x32 DUP4 PUSH2 0x29CA JUMP JUMPDEST SWAP2 POP PUSH2 0x2CF6 DUP3 PUSH2 0x2C8F JUMP JUMPDEST PUSH1 0x40 DUP3 ADD SWAP1 POP SWAP2 SWAP1 POP JUMP JUMPDEST PUSH1 0x0 PUSH1 0x20 DUP3 ADD SWAP1 POP DUP2 DUP2 SUB PUSH1 0x0 DUP4 ADD MSTORE PUSH2 0x2D1A DUP2 PUSH2 0x2CDE JUMP JUMPDEST SWAP1 POP SWAP2 SWAP1 POP JUMP JUMPDEST PUSH32 0x436F6C6C61746572616C20616C6C6F6361746564206D75737420626520677265 PUSH1 0x0 DUP3 ADD MSTORE PUSH32 0x61746572207468616E206F7220657175616C20746F2074686520636F6C6C6174 PUSH1 0x20 DUP3 ADD MSTORE PUSH32 0x6572616C20726571756972656D656E74202A20696E697469616C207072696E63 PUSH1 0x40 DUP3 ADD MSTORE PUSH32 0x6970616C206F6620746865206C6F616E00000000000000000000000000000000 PUSH1 0x60 DUP3 ADD MSTORE POP JUMP JUMPDEST PUSH1 0x0 PUSH2 0x2DC9 PUSH1 0x70 DUP4 PUSH2 0x29CA JUMP JUMPDEST SWAP2 POP PUSH2 0x2DD4 DUP3 PUSH2 0x2D21 JUMP JUMPDEST PUSH1 0x80 DUP3 ADD SWAP1 POP SWAP2 SWAP1 POP JUMP JUMPDEST PUSH1 0x0 PUSH1 0x20 DUP3 ADD SWAP1 POP DUP2 DUP2 SUB PUSH1 0x0 DUP4 ADD MSTORE PUSH2 0x2DF8 DUP2 PUSH2 0x2DBC JUMP JUMPDEST SWAP1 POP SWAP2 SWAP1 POP JUMP JUMPDEST PUSH32 0x4E487B7100000000000000000000000000000000000000000000000000000000 PUSH1 0x0 MSTORE PUSH1 0x11 PUSH1 0x4 MSTORE PUSH1 0x24 PUSH1 0x0 REVERT JUMPDEST PUSH1 0x0 PUSH2 0x2E39 DUP3 PUSH2 0x26FC JUMP JUMPDEST SWAP2 POP PUSH2 0x2E44 DUP4 PUSH2 0x26FC JUMP JUMPDEST SWAP3 POP DUP3 PUSH32 0xFFFFFFFFFFFFFFFFFFFFFFFFFFFFFFFFFFFFFFFFFFFFFFFFFFFFFFFFFFFFFFFF SUB DUP3 GT ISZERO PUSH2 0x2E79 JUMPI PUSH2 0x2E78 PUSH2 0x2DFF JUMP JUMPDEST JUMPDEST DUP3 DUP3 ADD SWAP1 POP SWAP3 SWAP2 POP POP JUMP JUMPDEST PUSH32 0x436F6E74726163742062616C616E636520697320302C20746865726520697320 PUSH1 0x0 DUP3 ADD MSTORE PUSH32 0x6E6F7468696E6720617661696C61626C6520746F207769746864726177000000 PUSH1 0x20 DUP3 ADD MSTORE POP JUMP JUMPDEST PUSH1 0x0 PUSH2 0x2EE0 PUSH1 0x3D DUP4 PUSH2 0x29CA JUMP JUMPDEST SWAP2 POP PUSH2 0x2EEB DUP3 PUSH2 0x2E84 JUMP JUMPDEST PUSH1 0x40 DUP3 ADD SWAP1 POP SWAP2 SWAP1 POP JUMP JUMPDEST PUSH1 0x0 PUSH1 0x20 DUP3 ADD SWAP1 POP DUP2 DUP2 SUB PUSH1 0x0 DUP4 ADD MSTORE PUSH2 0x2F0F DUP2 PUSH2 0x2ED3 JUMP JUMPDEST SWAP1 POP SWAP2 SWAP1 POP JUMP JUMPDEST PUSH1 0x0 PUSH2 0x2F21 DUP3 PUSH2 0x26FC JUMP JUMPDEST SWAP2 POP PUSH2 0x2F2C DUP4 PUSH2 0x26FC JUMP JUMPDEST SWAP3 POP DUP3 DUP3 LT ISZERO PUSH2 0x2F3F JUMPI PUSH2 0x2F3E PUSH2 0x2DFF JUMP JUMPDEST JUMPDEST DUP3 DUP3 SUB SWAP1 POP SWAP3 SWAP2 POP POP JUMP JUMPDEST PUSH1 0x0 DUP2 SWAP1 POP SWAP3 SWAP2 POP POP JUMP JUMPDEST POP JUMP JUMPDEST PUSH1 0x0 PUSH2 0x2F65 PUSH1 0x0 DUP4 PUSH2 0x2F4A JUMP JUMPDEST SWAP2 POP PUSH2 0x2F70 DUP3 PUSH2 0x2F55 JUMP JUMPDEST PUSH1 0x0 DUP3 ADD SWAP1 POP SWAP2 SWAP1 POP JUMP JUMPDEST PUSH1 0x0 PUSH2 0x2F86 DUP3 PUSH2 0x2F58 JUMP JUMPDEST SWAP2 POP DUP2 SWAP1 POP SWAP2 SWAP1 POP JUMP JUMPDEST PUSH32 0x4661696C656420746F2077697468647261770000000000000000000000000000 PUSH1 0x0 DUP3 ADD MSTORE POP JUMP JUMPDEST PUSH1 0x0 PUSH2 0x2FC6 PUSH1 0x12 DUP4 PUSH2 0x29CA JUMP JUMPDEST SWAP2 POP PUSH2 0x2FD1 DUP3 PUSH2 0x2F90 JUMP JUMPDEST PUSH1 0x20 DUP3 ADD SWAP1 POP SWAP2 SWAP1 POP JUMP JUMPDEST PUSH1 0x0 PUSH1 0x20 DUP3 ADD SWAP1 POP DUP2 DUP2 SUB PUSH1 0x0 DUP4 ADD MSTORE PUSH2 0x2FF5 DUP2 PUSH2 0x2FB9 JUMP JUMPDEST SWAP1 POP SWAP2 SWAP1 POP JUMP JUMPDEST PUSH32 0x4120626F72726F776572206D7573742062652061737369676E6564206265666F PUSH1 0x0 DUP3 ADD MSTORE PUSH32 0x72652069737375696E67206C6F616E0000000000000000000000000000000000 PUSH1 0x20 DUP3 ADD MSTORE POP JUMP JUMPDEST PUSH1 0x0 PUSH2 0x3058 PUSH1 0x2F DUP4 PUSH2 0x29CA JUMP JUMPDEST SWAP2 POP PUSH2 0x3063 DUP3 PUSH2 0x2FFC JUMP JUMPDEST PUSH1 0x40 DUP3 ADD SWAP1 POP SWAP2 SWAP1 POP JUMP JUMPDEST PUSH1 0x0 PUSH1 0x20 DUP3 ADD SWAP1 POP DUP2 DUP2 SUB PUSH1 0x0 DUP4 ADD MSTORE PUSH2 0x3087 DUP2 PUSH2 0x304B JUMP JUMPDEST SWAP1 POP SWAP2 SWAP1 POP JUMP JUMPDEST PUSH32 0x4C6F616E206D7573742062652066756E646564206265666F7265206973737569 PUSH1 0x0 DUP3 ADD MSTORE PUSH32 0x6E67000000000000000000000000000000000000000000000000000000000000 PUSH1 0x20 DUP3 ADD MSTORE POP JUMP JUMPDEST PUSH1 0x0 PUSH2 0x30EA PUSH1 0x22 DUP4 PUSH2 0x29CA JUMP JUMPDEST SWAP2 POP PUSH2 0x30F5 DUP3 PUSH2 0x308E JUMP JUMPDEST PUSH1 0x40 DUP3 ADD SWAP1 POP SWAP2 SWAP1 POP JUMP JUMPDEST PUSH1 0x0 PUSH1 0x20 DUP3 ADD SWAP1 POP DUP2 DUP2 SUB PUSH1 0x0 DUP4 ADD MSTORE PUSH2 0x3119 DUP2 PUSH2 0x30DD JUMP JUMPDEST SWAP1 POP SWAP2 SWAP1 POP JUMP JUMPDEST PUSH32 0x436F6C6C61746572616C206D75737420626520616C6C6F636174656420626566 PUSH1 0x0 DUP3 ADD MSTORE PUSH32 0x6F72652069737375696E67206C6F616E00000000000000000000000000000000 PUSH1 0x20 DUP3 ADD MSTORE POP JUMP JUMPDEST PUSH1 0x0 PUSH2 0x317C PUSH1 0x30 DUP4 PUSH2 0x29CA JUMP JUMPDEST SWAP2 POP PUSH2 0x3187 DUP3 PUSH2 0x3120 JUMP JUMPDEST PUSH1 0x40 DUP3 ADD SWAP1 POP SWAP2 SWAP1 POP JUMP JUMPDEST PUSH1 0x0 PUSH1 0x20 DUP3 ADD SWAP1 POP DUP2 DUP2 SUB PUSH1 0x0 DUP4 ADD MSTORE PUSH2 0x31AB DUP2 PUSH2 0x316F JUMP JUMPDEST SWAP1 POP SWAP2 SWAP1 POP JUMP JUMPDEST PUSH32 0x4661696C656420746F2073656E64207061796D656E7400000000000000000000 PUSH1 0x0 DUP3 ADD MSTORE POP JUMP JUMPDEST PUSH1 0x0 PUSH2 0x31E8 PUSH1 0x16 DUP4 PUSH2 0x29CA JUMP JUMPDEST SWAP2 POP PUSH2 0x31F3 DUP3 PUSH2 0x31B2 JUMP JUMPDEST PUSH1 0x20 DUP3 ADD SWAP1 POP SWAP2 SWAP1 POP JUMP JUMPDEST PUSH1 0x0 PUSH1 0x20 DUP3 ADD SWAP1 POP DUP2 DUP2 SUB PUSH1 0x0 DUP4 ADD MSTORE PUSH2 0x3217 DUP2 PUSH2 0x31DB JUMP JUMPDEST SWAP1 POP SWAP2 SWAP1 POP JUMP JUMPDEST PUSH32 0x5061796D656E74206D75737420626520657175616C20746F20746865206F7574 PUSH1 0x0 DUP3 ADD MSTORE PUSH32 0x7374616E64696E672062616C616E636520287072696E636970616C202B20696E PUSH1 0x20 DUP3 ADD MSTORE PUSH32 0x746572657374202B206665657329000000000000000000000000000000000000 PUSH1 0x40 DUP3 ADD MSTORE POP JUMP JUMPDEST PUSH1 0x0 PUSH2 0x32A0 PUSH1 0x4E DUP4 PUSH2 0x29CA JUMP JUMPDEST SWAP2 POP PUSH2 0x32AB DUP3 PUSH2 0x321E JUMP JUMPDEST PUSH1 0x60 DUP3 ADD SWAP1 POP SWAP2 SWAP1 POP JUMP JUMPDEST PUSH1 0x0 PUSH1 0x20 DUP3 ADD SWAP1 POP DUP2 DUP2 SUB PUSH1 0x0 DUP4 ADD MSTORE PUSH2 0x32CF DUP2 PUSH2 0x3293 JUMP JUMPDEST SWAP1 POP SWAP2 SWAP1 POP JUMP JUMPDEST PUSH32 0x4E487B7100000000000000000000000000000000000000000000000000000000 PUSH1 0x0 MSTORE PUSH1 0x12 PUSH1 0x4 MSTORE PUSH1 0x24 PUSH1 0x0 REVERT JUMPDEST PUSH32 0x4E487B7100000000000000000000000000000000000000000000000000000000 PUSH1 0x0 MSTORE PUSH1 0x1 PUSH1 0x4 MSTORE PUSH1 0x24 PUSH1 0x0 REVERT JUMPDEST PUSH32 0x43616E6E6F74206672656520636F6C6C61746572616C207768696C65206F7574 PUSH1 0x0 DUP3 ADD MSTORE PUSH32 0x7374616E64696E672062616C616E6365203E2030000000000000000000000000 PUSH1 0x20 DUP3 ADD MSTORE POP JUMP JUMPDEST PUSH1 0x0 PUSH2 0x3390 PUSH1 0x34 DUP4 PUSH2 0x29CA JUMP JUMPDEST SWAP2 POP PUSH2 0x339B DUP3 PUSH2 0x3334 JUMP JUMPDEST PUSH1 0x40 DUP3 ADD SWAP1 POP SWAP2 SWAP1 POP JUMP JUMPDEST PUSH1 0x0 PUSH1 0x20 DUP3 ADD SWAP1 POP DUP2 DUP2 SUB PUSH1 0x0 DUP4 ADD MSTORE PUSH2 0x33BF DUP2 PUSH2 0x3383 JUMP JUMPDEST SWAP1 POP SWAP2 SWAP1 POP JUMP JUMPDEST PUSH32 0x4661696C656420746F20776974686472617720636F6C6C61746572616C000000 PUSH1 0x0 DUP3 ADD MSTORE POP JUMP JUMPDEST PUSH1 0x0 PUSH2 0x33FC PUSH1 0x1D DUP4 PUSH2 0x29CA JUMP JUMPDEST SWAP2 POP PUSH2 0x3407 DUP3 PUSH2 0x33C6 JUMP JUMPDEST PUSH1 0x20 DUP3 ADD SWAP1 POP SWAP2 SWAP1 POP JUMP JUMPDEST PUSH1 0x0 PUSH1 0x20 DUP3 ADD SWAP1 POP DUP2 DUP2 SUB PUSH1 0x0 DUP4 ADD MSTORE PUSH2 0x342B DUP2 PUSH2 0x33EF JUMP JUMPDEST SWAP1 POP SWAP2 SWAP1 POP JUMP INVALID LOG2 PUSH5 0x6970667358 0x22 SLT KECCAK256 SWAP1 0xE7 SGT POP 0xDE 0x2A 0xA8 PUSH15 0xF8CB265E183F61EC7CA633814DDA47 PUSH17 0xA889EEC22FCB280464736F6C634300080A STOP CALLER "
		},
		"gasEstimates": {
			"creation": {
				"codeDepositCost": "2683200",
				"executionCost": "infinite",
				"totalCost": "infinite"
			},
			"external": {
				"allocateCollateral()": "infinite",
				"changeLender(address)": "26904",
				"fundLoan()": "24481",
				"getCollateralBalance()": "2488",
				"getContractBalance()": "383",
				"getFees()": "infinite",
				"getOutstandingBalance()": "infinite",
				"getTerms()": "infinite",
				"issueLoan()": "infinite",
				"makePayment()": "infinite",
				"setTerms(address,uint256,uint256,uint256,uint256,uint256,bool,uint256,uint256)": "infinite",
				"withdraw()": "infinite"
			},
			"internal": {
				"freeCollateral()": "infinite"
			}
		},
		"methodIdentifiers": {
			"allocateCollateral()": "0e6f3dd8",
			"changeLender(address)": "57f7d74f",
			"fundLoan()": "8db57994",
			"getCollateralBalance()": "1529a639",
			"getContractBalance()": "6f9fb98a",
			"getFees()": "db8d55f1",
			"getOutstandingBalance()": "28a11702",
			"getTerms()": "4173b417",
			"issueLoan()": "5c0df55b",
			"makePayment()": "d8d79700",
			"setTerms(address,uint256,uint256,uint256,uint256,uint256,bool,uint256,uint256)": "035788be",
			"withdraw()": "3ccfd60b"
		}
	},
	"abi": [
		{
			"inputs": [],
			"stateMutability": "nonpayable",
			"type": "constructor"
		},
		{
			"inputs": [],
			"name": "allocateCollateral",
			"outputs": [],
			"stateMutability": "payable",
			"type": "function"
		},
		{
			"inputs": [
				{
					"internalType": "address",
					"name": "new_lender",
					"type": "address"
				}
			],
			"name": "changeLender",
			"outputs": [],
			"stateMutability": "nonpayable",
			"type": "function"
		},
		{
			"inputs": [],
			"name": "fundLoan",
			"outputs": [],
			"stateMutability": "payable",
			"type": "function"
		},
		{
			"inputs": [],
			"name": "getCollateralBalance",
			"outputs": [
				{
					"internalType": "uint256",
					"name": "",
					"type": "uint256"
				}
			],
			"stateMutability": "view",
			"type": "function"
		},
		{
			"inputs": [],
			"name": "getContractBalance",
			"outputs": [
				{
					"internalType": "uint256",
					"name": "",
					"type": "uint256"
				}
			],
			"stateMutability": "view",
			"type": "function"
		},
		{
			"inputs": [],
			"name": "getFees",
			"outputs": [
				{
					"internalType": "uint256",
					"name": "",
					"type": "uint256"
				}
			],
			"stateMutability": "view",
			"type": "function"
		},
		{
			"inputs": [],
			"name": "getOutstandingBalance",
			"outputs": [
				{
					"internalType": "uint256",
					"name": "",
					"type": "uint256"
				}
			],
			"stateMutability": "view",
			"type": "function"
		},
		{
			"inputs": [],
			"name": "getTerms",
			"outputs": [
				{
					"components": [
						{
							"internalType": "address",
							"name": "lender",
							"type": "address"
						},
						{
							"internalType": "address",
							"name": "borrower",
							"type": "address"
						},
						{
							"internalType": "uint256",
							"name": "principal",
							"type": "uint256"
						},
						{
							"internalType": "uint256",
							"name": "issuance_time",
							"type": "uint256"
						},
						{
							"internalType": "uint256",
							"name": "term",
							"type": "uint256"
						},
						{
							"internalType": "uint256",
							"name": "apr",
							"type": "uint256"
						},
						{
							"internalType": "uint256",
							"name": "collateral_req",
							"type": "uint256"
						},
						{
							"internalType": "uint256",
							"name": "prepayment_penalty",
							"type": "uint256"
						},
						{
							"internalType": "uint256",
							"name": "prepayment_period",
							"type": "uint256"
						},
						{
							"internalType": "bool",
							"name": "sliding_scale_prepayment_penalty",
							"type": "bool"
						},
						{
							"internalType": "uint256",
							"name": "late_fee",
							"type": "uint256"
						},
						{
							"internalType": "uint256",
							"name": "grace_period",
							"type": "uint256"
						}
					],
					"internalType": "struct loan.LendingTerms",
					"name": "",
					"type": "tuple"
				}
			],
			"stateMutability": "view",
			"type": "function"
		},
		{
			"inputs": [],
			"name": "issueLoan",
			"outputs": [],
			"stateMutability": "payable",
			"type": "function"
		},
		{
			"inputs": [],
			"name": "makePayment",
			"outputs": [],
			"stateMutability": "payable",
			"type": "function"
		},
		{
			"inputs": [
				{
					"internalType": "address",
					"name": "borrower",
					"type": "address"
				},
				{
					"internalType": "uint256",
					"name": "term",
					"type": "uint256"
				},
				{
					"internalType": "uint256",
					"name": "apr",
					"type": "uint256"
				},
				{
					"internalType": "uint256",
					"name": "collateral_req",
					"type": "uint256"
				},
				{
					"internalType": "uint256",
					"name": "prepayment_penalty",
					"type": "uint256"
				},
				{
					"internalType": "uint256",
					"name": "prepayment_period",
					"type": "uint256"
				},
				{
					"internalType": "bool",
					"name": "sliding_scale_prepayment_penalty",
					"type": "bool"
				},
				{
					"internalType": "uint256",
					"name": "late_fee",
					"type": "uint256"
				},
				{
					"internalType": "uint256",
					"name": "grace_period",
					"type": "uint256"
				}
			],
			"name": "setTerms",
			"outputs": [],
			"stateMutability": "nonpayable",
			"type": "function"
		},
		{
			"inputs": [],
			"name": "withdraw",
			"outputs": [],
			"stateMutability": "payable",
			"type": "function"
		}
	]
}