{
	"data": {
		"bytecode": {
			"linkReferences": {},
			"object": "60c06040526301e18558600e556200002a670de0b6b3a7640000620000f160201b6200146b1760201c565b6fffffffffffffffffffffffffffffffff19166080906fffffffffffffffffffffffffffffffff19168152506200006e600e54620000f160201b6200146b1760201c565b6fffffffffffffffffffffffffffffffff191660a0906fffffffffffffffffffffffffffffffff1916815250348015620000a757600080fd5b50336000800160006101000a81548173ffffffffffffffffffffffffffffffffffffffff021916908373ffffffffffffffffffffffffffffffffffffffff16021790555062000266565b6000808214156200010957600060801b905062000177565b6000829050600062000121826200017c60201b60201c565b905060708110156200013c578060700382901b915062000151565b607081111562000150576070810382901c91505b5b607081613fff01901b6dffffffffffffffffffffffffffff83161791508160801b925050505b919050565b60008082116200018b57600080fd5b60007001000000000000000000000000000000008310620001b457608083901c92506080810190505b680100000000000000008310620001d357604083901c92506040810190505b6401000000008310620001ee57602083901c92506020810190505b6201000083106200020757601083901c92506010810190505b61010083106200021f57600883901c92506008810190505b601083106200023657600483901c92506004810190505b600483106200024d57600283901c92506002810190505b600283106200025d576001810190505b80915050919050565b60805160a0516137f4620002a1600039600061118d015260008181610357015281816111b1015281816112fa01526113df01526137f46000f3fe6080604052600436106100c25760003560e01c80635c0df55b1161007f5780638db57994116100595780638db57994146101c4578063a3af6eb2146101ce578063d8d79700146101f7578063db8d55f114610201576100c2565b80635c0df55b14610185578063629499631461018f5780636f9fb98a14610199576100c2565b80630e6f3dd8146100c75780631529a639146100d157806328a11702146100fc5780633ccfd60b146101275780634173b4171461013157806357f7d74f1461015c575b600080fd5b6100cf61022c565b005b3480156100dd57600080fd5b506100e6610434565b6040516100f391906128f0565b60405180910390f35b34801561010857600080fd5b5061011161043e565b60405161011e91906128f0565b60405180910390f35b61012f61045d565b005b34801561013d57600080fd5b5061014661061b565b6040516101539190612a81565b60405180910390f35b34801561016857600080fd5b50610183600480360381019061017e9190612ace565b610761565b005b61018d610839565b005b610197610ae1565b005b3480156101a557600080fd5b506101ae610d08565b6040516101bb91906128f0565b60405180910390f35b6101cc610d10565b005b3480156101da57600080fd5b506101f560048036038101906101f09190612b53565b610dae565b005b6101ff610f8a565b005b34801561020d57600080fd5b50610216611109565b60405161022391906128f0565b60405180910390f35b600060010160009054906101000a900473ffffffffffffffffffffffffffffffffffffffff1673ffffffffffffffffffffffffffffffffffffffff163373ffffffffffffffffffffffffffffffffffffffff16146102bf576040517f08c379a00000000000000000000000000000000000000000000000000000000081526004016102b690612cb5565b60405180910390fd5b6000806006015414610306576040517f08c379a00000000000000000000000000000000000000000000000000000000081526004016102fd90612d47565b60405180910390fd5b600080600201541161034d576040517f08c379a000000000000000000000000000000000000000000000000000000000815260040161034490612dd9565b60405180910390fd5b60006103b86103a57f000000000000000000000000000000000000000000000000000000000000000061038460006006015461146b565b6fffffffffffffffffffffffffffffffff19166114e990919063ffffffff16565b6103b360006002015461146b565b6119b2565b9050806fffffffffffffffffffffffffffffffff19166103d73461146b565b6fffffffffffffffffffffffffffffffff19161461042a576040517f08c379a000000000000000000000000000000000000000000000000000000000815260040161042190612eb7565b60405180910390fd5b34600d8190555050565b6000600d54905090565b6000610448611109565b6000600201546104589190612f06565b905090565b6000800160009054906101000a900473ffffffffffffffffffffffffffffffffffffffff1673ffffffffffffffffffffffffffffffffffffffff163373ffffffffffffffffffffffffffffffffffffffff16146104ef576040517f08c379a00000000000000000000000000000000000000000000000000000000081526004016104e690612fce565b60405180910390fd5b60004711610532576040517f08c379a000000000000000000000000000000000000000000000000000000000815260040161052990613060565b60405180910390fd5b6000600d54476105429190613080565b90506000806000800160009054906101000a900473ffffffffffffffffffffffffffffffffffffffff1673ffffffffffffffffffffffffffffffffffffffff168360405161058f906130e5565b60006040518083038185875af1925050503d80600081146105cc576040519150601f19603f3d011682016040523d82523d6000602084013e6105d1565b606091505b509150915081610616576040517f08c379a000000000000000000000000000000000000000000000000000000000815260040161060d90613146565b60405180910390fd5b505050565b610623612841565b6000604051806101a00160405290816000820160009054906101000a900473ffffffffffffffffffffffffffffffffffffffff1673ffffffffffffffffffffffffffffffffffffffff1673ffffffffffffffffffffffffffffffffffffffff1681526020016001820160009054906101000a900473ffffffffffffffffffffffffffffffffffffffff1673ffffffffffffffffffffffffffffffffffffffff1673ffffffffffffffffffffffffffffffffffffffff168152602001600282015481526020016003820154815260200160048201548152602001600582015481526020016006820154815260200160078201548152602001600882015481526020016009820160009054906101000a900460ff16151515158152602001600a8201548152602001600b8201548152602001600c82015481525050905090565b6000800160009054906101000a900473ffffffffffffffffffffffffffffffffffffffff1673ffffffffffffffffffffffffffffffffffffffff163373ffffffffffffffffffffffffffffffffffffffff16146107f3576040517f08c379a00000000000000000000000000000000000000000000000000000000081526004016107ea90612fce565b60405180910390fd5b806000800160006101000a81548173ffffffffffffffffffffffffffffffffffffffff021916908373ffffffffffffffffffffffffffffffffffffffff16021790555050565b6000800160009054906101000a900473ffffffffffffffffffffffffffffffffffffffff1673ffffffffffffffffffffffffffffffffffffffff163373ffffffffffffffffffffffffffffffffffffffff16146108cb576040517f08c379a00000000000000000000000000000000000000000000000000000000081526004016108c290612fce565b60405180910390fd5b600073ffffffffffffffffffffffffffffffffffffffff16600060010160009054906101000a900473ffffffffffffffffffffffffffffffffffffffff1673ffffffffffffffffffffffffffffffffffffffff161415610960576040517f08c379a0000000000000000000000000000000000000000000000000000000008152600401610957906131d8565b60405180910390fd5b6000806002015414156109a8576040517f08c379a000000000000000000000000000000000000000000000000000000000815260040161099f9061326a565b60405180910390fd5b6000806006015411156109fb576000600d54116109fa576040517f08c379a00000000000000000000000000000000000000000000000000000000081526004016109f1906132fc565b60405180910390fd5b5b600080600060010160009054906101000a900473ffffffffffffffffffffffffffffffffffffffff1673ffffffffffffffffffffffffffffffffffffffff16600060020154604051610a4c906130e5565b60006040518083038185875af1925050503d8060008114610a89576040519150601f19603f3d011682016040523d82523d6000602084013e610a8e565b606091505b509150915081610ad3576040517f08c379a0000000000000000000000000000000000000000000000000000000008152600401610aca90613368565b60405180910390fd5b426000600301819055505050565b6000800160009054906101000a900473ffffffffffffffffffffffffffffffffffffffff1673ffffffffffffffffffffffffffffffffffffffff163373ffffffffffffffffffffffffffffffffffffffff1614610b73576040517f08c379a0000000000000000000000000000000000000000000000000000000008152600401610b6a90612fce565b60405180910390fd5b426000600c0154600060030154600060040154610b909190612f06565b610b9a9190612f06565b10610bda576040517f08c379a0000000000000000000000000000000000000000000000000000000008152600401610bd1906133fa565b60405180910390fd5b6000600d5411610c1f576040517f08c379a0000000000000000000000000000000000000000000000000000000008152600401610c169061348c565b60405180910390fd5b6000600d5447610c2f9190613080565b90506000806000800160009054906101000a900473ffffffffffffffffffffffffffffffffffffffff1673ffffffffffffffffffffffffffffffffffffffff1683604051610c7c906130e5565b60006040518083038185875af1925050503d8060008114610cb9576040519150601f19603f3d011682016040523d82523d6000602084013e610cbe565b606091505b509150915081610d03576040517f08c379a0000000000000000000000000000000000000000000000000000000008152600401610cfa90613146565b60405180910390fd5b505050565b600047905090565b6000800160009054906101000a900473ffffffffffffffffffffffffffffffffffffffff1673ffffffffffffffffffffffffffffffffffffffff163373ffffffffffffffffffffffffffffffffffffffff1614610da2576040517f08c379a0000000000000000000000000000000000000000000000000000000008152600401610d9990612fce565b60405180910390fd5b34600060020181905550565b6000800160009054906101000a900473ffffffffffffffffffffffffffffffffffffffff1673ffffffffffffffffffffffffffffffffffffffff163373ffffffffffffffffffffffffffffffffffffffff1614610e40576040517f08c379a0000000000000000000000000000000000000000000000000000000008152600401610e3790612fce565b60405180910390fd5b6000610e4a61043e565b14610e8a576040517f08c379a0000000000000000000000000000000000000000000000000000000008152600401610e819061351e565b60405180910390fd5b60008911610ecd576040517f08c379a0000000000000000000000000000000000000000000000000000000008152600401610ec49061358a565b60405180910390fd5b89600060010160006101000a81548173ffffffffffffffffffffffffffffffffffffffff021916908373ffffffffffffffffffffffffffffffffffffffff160217905550886000600401819055508760006005018190555086600060060181905550856000600701819055508460006008018190555083600060090160006101000a81548160ff021916908315150217905550826000600a0181905550816000600b0181905550806000600c018190555050505050505050505050565b600060010160009054906101000a900473ffffffffffffffffffffffffffffffffffffffff1673ffffffffffffffffffffffffffffffffffffffff163373ffffffffffffffffffffffffffffffffffffffff161461101d576040517f08c379a000000000000000000000000000000000000000000000000000000000815260040161101490612cb5565b60405180910390fd5b6000349050600061102c61043e565b9050808214611070576040517f08c379a000000000000000000000000000000000000000000000000000000000815260040161106790613642565b60405180910390fd5b6000800160009054906101000a900473ffffffffffffffffffffffffffffffffffffffff1673ffffffffffffffffffffffffffffffffffffffff16476040516110b8906130e5565b60006040518083038185875af1925050503d80600081146110f5576040519150601f19603f3d011682016040523d82523d6000602084013e6110fa565b606091505b505050611105611e47565b5050565b600080429050600080600401546000600301546111269190612f06565b90506000806008015460006003015461113f9190612f06565b90506000806000600a0154141580156111675750836000600b0154846111659190612f06565b105b15611186576111838161117e6000600a015461146b565b611ffd565b90505b60006112207f00000000000000000000000000000000000000000000000000000000000000006111ff7f00000000000000000000000000000000000000000000000000000000000000006111de60006005015461146b565b6fffffffffffffffffffffffffffffffff19166114e990919063ffffffff16565b6fffffffffffffffffffffffffffffffff19166114e990919063ffffffff16565b90506000611262826112416000600301548961123c9190613080565b61146b565b6fffffffffffffffffffffffffffffffff19166119b290919063ffffffff16565b905060006112998261127860006002015461146b565b6fffffffffffffffffffffffffffffffff19166119b290919063ffffffff16565b90506112a58482611ffd565b935060008060080154141580156112bb57508487105b1561144357600060090160009054906101000a900460ff16156113c75760006112ee88876112e99190613080565b61146b565b905060006113b26113487f000000000000000000000000000000000000000000000000000000000000000061132760006002015461146b565b6fffffffffffffffffffffffffffffffff19166114e990919063ffffffff16565b61139161135960006007015461146b565b6113708661136b60006008015461146b565b6114e9565b6fffffffffffffffffffffffffffffffff19166119b290919063ffffffff16565b6fffffffffffffffffffffffffffffffff19166119b290919063ffffffff16565b90506113be8682611ffd565b95505050611442565b60006114326113da60006002015461146b565b61142d7f000000000000000000000000000000000000000000000000000000000000000061140c60006007015461146b565b6fffffffffffffffffffffffffffffffff19166114e990919063ffffffff16565b6119b2565b905061143e8582611ffd565b9450505b5b61145f846fffffffffffffffffffffffffffffffff1916612662565b97505050505050505090565b60008082141561148157600060801b90506114e4565b6000829050600061149182612760565b905060708110156114aa578060700382901b91506114be565b60708111156114bd576070810382901c91505b5b607081613fff01901b6dffffffffffffffffffffffffffff83161791508160801b925050505b919050565b600080617fff60708560801c6fffffffffffffffffffffffffffffffff16901c166fffffffffffffffffffffffffffffffff1690506000617fff60708560801c6fffffffffffffffffffffffffffffffff16901c166fffffffffffffffffffffffffffffffff169050617fff8214156115a457617fff811415611583576f7fff800000000000000000000000000060801b925050506119ac565b6f8000000000000000000000000000000060801b84168518925050506119ac565b617fff81141561162357600060801b6dffffffffffffffffffffffffffff60801b85166fffffffffffffffffffffffffffffffff1916146115fc576f7fff800000000000000000000000000060801b925050506119ac565b6f8000000000000000000000000000000060801b84861816600060801b17925050506119ac565b600060801b6f7fffffffffffffffffffffffffffffff60801b85166fffffffffffffffffffffffffffffffff191614156116de57600060801b6f7fffffffffffffffffffffffffffffff60801b86166fffffffffffffffffffffffffffffffff191614156116a8576f7fff800000000000000000000000000060801b925050506119ac565b6f8000000000000000000000000000000060801b848618166f7fff000000000000000000000000000060801b17925050506119ac565b60006dffffffffffffffffffffffffffff8560801c166fffffffffffffffffffffffffffffffff169050600082141561171a576001915061172f565b6e010000000000000000000000000000811790505b60006dffffffffffffffffffffffffffff8760801c166fffffffffffffffffffffffffffffffff1690506000841415611793576000811461178e57600061177582612760565b60e20390508082901b9150600194506072810384019350505b6117ac565b60726e0100000000000000000000000000008217901b90505b8181816117bc576117bb613662565b5b049050600081141561182757600060801b6f8000000000000000000000000000000060801b878918166fffffffffffffffffffffffffffffffff19161161180757600060801b61181c565b6f8000000000000000000000000000000060801b5b9450505050506119ac565b6d100000000000000000000000000081101561184657611845613691565b5b60006e0800000000000000000000000000008210156118a7576e04000000000000000000000000000082101561189c576e020000000000000000000000000000821015611894576070611897565b60715b61189f565b60725b60ff166118b1565b6118b082612760565b5b9050614071840181860111156118cf57617fff94506000915061196c565b83613ffc8287010110156118ea57600094506000915061196b565b83613f8c8287010110156119385783613ffc860111156119155783613ffc86010382901b915061192f565b83613ffc8601101561192e57613ffc8585030382901c91505b5b6000945061196a565b607081111561194b576070810382901c91505b6dffffffffffffffffffffffffffff8216915083613f8d828701010394505b5b5b81607086901b6f8000000000000000000000000000000060801b898b181660801c6fffffffffffffffffffffffffffffffff16171760801b955050505050505b92915050565b600080617fff60708560801c6fffffffffffffffffffffffffffffffff16901c166fffffffffffffffffffffffffffffffff1690506000617fff60708560801c6fffffffffffffffffffffffffffffffff16901c166fffffffffffffffffffffffffffffffff169050617fff821415611b4957617fff811415611ad757836fffffffffffffffffffffffffffffffff1916856fffffffffffffffffffffffffffffffff19161415611a7e576f8000000000000000000000000000000060801b8416851892505050611e41565b6f8000000000000000000000000000000060801b8486186fffffffffffffffffffffffffffffffff19161415611aba5783851792505050611e41565b6f7fff800000000000000000000000000060801b92505050611e41565b600060801b6f7fffffffffffffffffffffffffffffff60801b85166fffffffffffffffffffffffffffffffff19161415611b28576f7fff800000000000000000000000000060801b92505050611e41565b6f8000000000000000000000000000000060801b8416851892505050611e41565b617fff811415611bc557600060801b6f7fffffffffffffffffffffffffffffff60801b86166fffffffffffffffffffffffffffffffff19161415611ba4576f7fff800000000000000000000000000060801b92505050611e41565b6f8000000000000000000000000000000060801b8516841892505050611e41565b60006dffffffffffffffffffffffffffff8660801c166fffffffffffffffffffffffffffffffff1690506000831415611c015760019250611c16565b6e010000000000000000000000000000811790505b60006dffffffffffffffffffffffffffff8660801c166fffffffffffffffffffffffffffffffff1690506000831415611c525760019250611c67565b6e010000000000000000000000000000811790505b80820291506000821415611cd457600060801b6f8000000000000000000000000000000060801b878918166fffffffffffffffffffffffffffffffff191611611cb457600060801b611cc9565b6f8000000000000000000000000000000060801b5b945050505050611e41565b828401935060007c0200000000000000000000000000000000000000000000000000000000831015611d3b577c0100000000000000000000000000000000000000000000000000000000831015611d3357611d2e83612760565b611d36565b60e05b611d3e565b60e15b90506140708186011015611d59576000945060009250611e01565b6140e08186011015611d9d57614070851015611d7e57846140700383901c9250611d94565b614070851115611d9357614070850383901b92505b5b60009450611e00565b61c0dd8186011115611db757617fff945060009250611dff565b6070811115611dce576070810383901c9250611de2565b6070811015611de1578060700383901b92505b5b6dffffffffffffffffffffffffffff831692506140df8186010394505b5b5b82607086901b6f8000000000000000000000000000000060801b898b181660801c6fffffffffffffffffffffffffffffffff16171760801b955050505050505b92915050565b600060010160009054906101000a900473ffffffffffffffffffffffffffffffffffffffff1673ffffffffffffffffffffffffffffffffffffffff163373ffffffffffffffffffffffffffffffffffffffff1614611eda576040517f08c379a0000000000000000000000000000000000000000000000000000000008152600401611ed190612cb5565b60405180910390fd5b6000611ee461043e565b1115611f25576040517f08c379a0000000000000000000000000000000000000000000000000000000008152600401611f1c90613732565b60405180910390fd5b6000806000800160009054906101000a900473ffffffffffffffffffffffffffffffffffffffff1673ffffffffffffffffffffffffffffffffffffffff16600d54604051611f72906130e5565b60006040518083038185875af1925050503d8060008114611faf576040519150601f19603f3d011682016040523d82523d6000602084013e611fb4565b606091505b509150915081611ff9576040517f08c379a0000000000000000000000000000000000000000000000000000000008152600401611ff09061379e565b60405180910390fd5b5050565b600080617fff60708560801c6fffffffffffffffffffffffffffffffff16901c166fffffffffffffffffffffffffffffffff1690506000617fff60708560801c6fffffffffffffffffffffffffffffffff16901c166fffffffffffffffffffffffffffffffff169050617fff8214156120d957617fff8114156120cf57836fffffffffffffffffffffffffffffffff1916856fffffffffffffffffffffffffffffffff191614156120b257849250505061265c565b6f7fff800000000000000000000000000060801b9250505061265c565b849250505061265c565b617fff8114156120ed57839250505061265c565b60006f800000000000000000000000000000008660801c6fffffffffffffffffffffffffffffffff161015905060006dffffffffffffffffffffffffffff8760801c166fffffffffffffffffffffffffffffffff1690506000841415612156576001935061216b565b6e010000000000000000000000000000811790505b60006f800000000000000000000000000000008760801c6fffffffffffffffffffffffffffffffff161015905060006dffffffffffffffffffffffffffff8860801c166fffffffffffffffffffffffffffffffff16905060008514156121d457600194506121e9565b6e010000000000000000000000000000811790505b600083141561224b576f8000000000000000000000000000000060801b6fffffffffffffffffffffffffffffffff1916886fffffffffffffffffffffffffffffffff191614612238578761223e565b600060801b5b965050505050505061265c565b60008114156122ad576f8000000000000000000000000000000060801b6fffffffffffffffffffffffffffffffff1916896fffffffffffffffffffffffffffffffff19161461229a57886122a0565b600060801b5b965050505050505061265c565b60008587039050821515851515141561242b5760708113156122d8578997505050505050505061265c565b60008113156122ec578082901c915061233a565b7fffffffffffffffffffffffffffffffffffffffffffffffffffffffffffffff90811215612323578897505050505050505061265c565b6000811215612339578060000384901c93508596505b5b81840193506e020000000000000000000000000000841061236357600184901c93506001870196505b617fff8714156123ae578461238b576f7fff000000000000000000000000000060801b6123a0565b6fffff000000000000000000000000000060801b5b97505050505050505061265c565b6e0100000000000000000000000000008410156123ce57600096506123e2565b6dffffffffffffffffffffffffffff841693505b83607088901b866123f4576000612406565b6f800000000000000000000000000000005b6fffffffffffffffffffffffffffffffff16171760801b97505050505050505061265c565b600081131561244657600184901b935060018703965061245e565b600081121561245d57600182901b91506001860396505b5b607081131561247057600191506124fa565b600181131561248c57600180820360018403901c0191506124f9565b7fffffffffffffffffffffffffffffffffffffffffffffffffffffffffffffff908112156124bd57600193506124f8565b7fffffffffffffffffffffffffffffffffffffffffffffffffffffffffffffffff8112156124f757600180826000030360018603901c0193505b5b5b5b81841061250b578184039350612514565b83820393508294505b600084141561253057600060801b97505050505050505061265c565b600061253b85612760565b90506071811415612568576dffffffffffffffffffffffffffff600186901c1694506001880197506125ca565b60708110156125b5576000816070039050808911156125a1576dffffffffffffffffffffffffffff8187901b16955080890398506125af565b6001890386901b9550600098505b506125c9565b6dffffffffffffffffffffffffffff851694505b5b617fff88141561261657856125f2576f7fff000000000000000000000000000060801b612607565b6fffff000000000000000000000000000060801b5b9850505050505050505061265c565b84607089901b8761262857600061263a565b6f800000000000000000000000000000005b6fffffffffffffffffffffffffffffffff16171760801b985050505050505050505b92915050565b600080617fff60708460801c6fffffffffffffffffffffffffffffffff16901c166fffffffffffffffffffffffffffffffff169050613fff8110156126ab57600091505061275b565b6f800000000000000000000000000000008360801c6fffffffffffffffffffffffffffffffff16106126dc57600080fd5b6140fe8111156126eb57600080fd5b60006e0100000000000000000000000000006dffffffffffffffffffffffffffff8560801c6fffffffffffffffffffffffffffffffff161617905061406f82101561273f578161406f0381901c9050612755565b61406f8211156127545761406f820381901b90505b5b80925050505b919050565b600080821161276e57600080fd5b6000700100000000000000000000000000000000831061279657608083901c92506080810190505b6801000000000000000083106127b457604083901c92506040810190505b64010000000083106127ce57602083901c92506020810190505b6201000083106127e657601083901c92506010810190505b61010083106127fd57600883901c92506008810190505b6010831061281357600483901c92506004810190505b6004831061282957600283901c92506002810190505b60028310612838576001810190505b80915050919050565b604051806101a00160405280600073ffffffffffffffffffffffffffffffffffffffff168152602001600073ffffffffffffffffffffffffffffffffffffffff168152602001600081526020016000815260200160008152602001600081526020016000815260200160008152602001600081526020016000151581526020016000815260200160008152602001600081525090565b6000819050919050565b6128ea816128d7565b82525050565b600060208201905061290560008301846128e1565b92915050565b600073ffffffffffffffffffffffffffffffffffffffff82169050919050565b60006129368261290b565b9050919050565b6129468161292b565b82525050565b612955816128d7565b82525050565b60008115159050919050565b6129708161295b565b82525050565b6101a08201600082015161298d600085018261293d565b5060208201516129a0602085018261293d565b5060408201516129b3604085018261294c565b5060608201516129c6606085018261294c565b5060808201516129d9608085018261294c565b5060a08201516129ec60a085018261294c565b5060c08201516129ff60c085018261294c565b5060e0820151612a1260e085018261294c565b50610100820151612a2761010085018261294c565b50610120820151612a3c610120850182612967565b50610140820151612a5161014085018261294c565b50610160820151612a6661016085018261294c565b50610180820151612a7b61018085018261294c565b50505050565b60006101a082019050612a976000830184612976565b92915050565b600080fd5b612aab8161292b565b8114612ab657600080fd5b50565b600081359050612ac881612aa2565b92915050565b600060208284031215612ae457612ae3612a9d565b5b6000612af284828501612ab9565b91505092915050565b612b04816128d7565b8114612b0f57600080fd5b50565b600081359050612b2181612afb565b92915050565b612b308161295b565b8114612b3b57600080fd5b50565b600081359050612b4d81612b27565b92915050565b6000806000806000806000806000806101408b8d031215612b7757612b76612a9d565b5b6000612b858d828e01612ab9565b9a50506020612b968d828e01612b12565b9950506040612ba78d828e01612b12565b9850506060612bb88d828e01612b12565b9750506080612bc98d828e01612b12565b96505060a0612bda8d828e01612b12565b95505060c0612beb8d828e01612b3e565b94505060e0612bfc8d828e01612b12565b935050610100612c0e8d828e01612b12565b925050610120612c208d828e01612b12565b9150509295989b9194979a5092959850565b600082825260208201905092915050565b7f4f6e6c792074686520626f72726f776572206f662074686520636f6e7472616360008201527f742063616e20706572666f726d2074686973206f7065726174696f6e00000000602082015250565b6000612c9f603c83612c32565b9150612caa82612c43565b604082019050919050565b60006020820190508181036000830152612cce81612c92565b9050919050565b7f4e6f20636f6c6c61746572616c206973206e656365737361727920666f72207460008201527f686973206c6f616e000000000000000000000000000000000000000000000000602082015250565b6000612d31602883612c32565b9150612d3c82612cd5565b604082019050919050565b60006020820190508181036000830152612d6081612d24565b9050919050565b7f4c6f616e206d7573742062652066756e646564206265666f726520636f6c6c6160008201527f746572616c20697320616c6c6f63617465640000000000000000000000000000602082015250565b6000612dc3603283612c32565b9150612dce82612d67565b604082019050919050565b60006020820190508181036000830152612df281612db6565b9050919050565b7f436f6c6c61746572616c20616c6c6f6361746564206d7573742062652067726560008201527f61746572207468616e206f7220657175616c20746f2074686520636f6c6c617460208201527f6572616c20726571756972656d656e74202a20696e697469616c207072696e6360408201527f6970616c206f6620746865206c6f616e00000000000000000000000000000000606082015250565b6000612ea1607083612c32565b9150612eac82612df9565b608082019050919050565b60006020820190508181036000830152612ed081612e94565b9050919050565b7f4e487b7100000000000000000000000000000000000000000000000000000000600052601160045260246000fd5b6000612f11826128d7565b9150612f1c836128d7565b9250827fffffffffffffffffffffffffffffffffffffffffffffffffffffffffffffffff03821115612f5157612f50612ed7565b5b828201905092915050565b7f4f6e6c7920746865206f776e6572206f662074686520636f6e7472616374206360008201527f616e20706572666f726d2074686973206f7065726174696f6e00000000000000602082015250565b6000612fb8603983612c32565b9150612fc382612f5c565b604082019050919050565b60006020820190508181036000830152612fe781612fab565b9050919050565b7f436f6e74726163742062616c616e636520697320302c2074686572652069732060008201527f6e6f7468696e6720617661696c61626c6520746f207769746864726177000000602082015250565b600061304a603d83612c32565b915061305582612fee565b604082019050919050565b600060208201905081810360008301526130798161303d565b9050919050565b600061308b826128d7565b9150613096836128d7565b9250828210156130a9576130a8612ed7565b5b828203905092915050565b600081905092915050565b50565b60006130cf6000836130b4565b91506130da826130bf565b600082019050919050565b60006130f0826130c2565b9150819050919050565b7f4661696c656420746f2077697468647261770000000000000000000000000000600082015250565b6000613130601283612c32565b915061313b826130fa565b602082019050919050565b6000602082019050818103600083015261315f81613123565b9050919050565b7f4120626f72726f776572206d7573742062652061737369676e6564206265666f60008201527f72652069737375696e67206c6f616e0000000000000000000000000000000000602082015250565b60006131c2602f83612c32565b91506131cd82613166565b604082019050919050565b600060208201905081810360008301526131f1816131b5565b9050919050565b7f4c6f616e206d7573742062652066756e646564206265666f726520697373756960008201527f6e67000000000000000000000000000000000000000000000000000000000000602082015250565b6000613254602283612c32565b915061325f826131f8565b604082019050919050565b6000602082019050818103600083015261328381613247565b9050919050565b7f436f6c6c61746572616c206d75737420626520616c6c6f63617465642062656660008201527f6f72652069737375696e67206c6f616e00000000000000000000000000000000602082015250565b60006132e6603083612c32565b91506132f18261328a565b604082019050919050565b60006020820190508181036000830152613315816132d9565b9050919050565b7f4661696c656420746f2073656e64207061796d656e7400000000000000000000600082015250565b6000613352601683612c32565b915061335d8261331c565b602082019050919050565b6000602082019050818103600083015261338181613345565b9050919050565b7f436f6c6c61746572616c2063616e206f6e6c79206265207365697a6564206f6e60008201527f6365206c6f616e20697320696e2064656661756c740000000000000000000000602082015250565b60006133e4603583612c32565b91506133ef82613388565b604082019050919050565b60006020820190508181036000830152613413816133d7565b9050919050565b7f54686572652069732063757272656e746c79206e6f20636f6c6c61746572616c60008201527f20746f207365697a650000000000000000000000000000000000000000000000602082015250565b6000613476602983612c32565b91506134818261341a565b604082019050919050565b600060208201905081810360008301526134a581613469565b9050919050565b7f5465726d732063616e6e6f74206265206368616e676564206166746572206c6f60008201527f616e20686173206265656e206973737565640000000000000000000000000000602082015250565b6000613508603283612c32565b9150613513826134ac565b604082019050919050565b60006020820190508181036000830152613537816134fb565b9050919050565b7f7465726d206d7573742062652067726561746572207468616e207a65726f0000600082015250565b6000613574601e83612c32565b915061357f8261353e565b602082019050919050565b600060208201905081810360008301526135a381613567565b9050919050565b7f5061796d656e74206d75737420626520657175616c20746f20746865206f757460008201527f7374616e64696e672062616c616e636520287072696e636970616c202b20696e60208201527f746572657374202b206665657329000000000000000000000000000000000000604082015250565b600061362c604e83612c32565b9150613637826135aa565b606082019050919050565b6000602082019050818103600083015261365b8161361f565b9050919050565b7f4e487b7100000000000000000000000000000000000000000000000000000000600052601260045260246000fd5b7f4e487b7100000000000000000000000000000000000000000000000000000000600052600160045260246000fd5b7f43616e6e6f74206672656520636f6c6c61746572616c207768696c65206f757460008201527f7374616e64696e672062616c616e6365203e2030000000000000000000000000602082015250565b600061371c603483612c32565b9150613727826136c0565b604082019050919050565b6000602082019050818103600083015261374b8161370f565b9050919050565b7f4661696c656420746f20776974686472617720636f6c6c61746572616c000000600082015250565b6000613788601d83612c32565b915061379382613752565b602082019050919050565b600060208201905081810360008301526137b78161377b565b905091905056fea26469706673582212208d106df7be9fb3ae3402b1f0cabacf592ddf93971da211cf1d891c086f963ccc64736f6c634300080a0033",
			"opcodes": "PUSH1 0xC0 PUSH1 0x40 MSTORE PUSH4 0x1E18558 PUSH1 0xE SSTORE PUSH3 0x2A PUSH8 0xDE0B6B3A7640000 PUSH3 0xF1 PUSH1 0x20 SHL PUSH3 0x146B OR PUSH1 0x20 SHR JUMP JUMPDEST PUSH16 0xFFFFFFFFFFFFFFFFFFFFFFFFFFFFFFFF NOT AND PUSH1 0x80 SWAP1 PUSH16 0xFFFFFFFFFFFFFFFFFFFFFFFFFFFFFFFF NOT AND DUP2 MSTORE POP PUSH3 0x6E PUSH1 0xE SLOAD PUSH3 0xF1 PUSH1 0x20 SHL PUSH3 0x146B OR PUSH1 0x20 SHR JUMP JUMPDEST PUSH16 0xFFFFFFFFFFFFFFFFFFFFFFFFFFFFFFFF NOT AND PUSH1 0xA0 SWAP1 PUSH16 0xFFFFFFFFFFFFFFFFFFFFFFFFFFFFFFFF NOT AND DUP2 MSTORE POP CALLVALUE DUP1 ISZERO PUSH3 0xA7 JUMPI PUSH1 0x0 DUP1 REVERT JUMPDEST POP CALLER PUSH1 0x0 DUP1 ADD PUSH1 0x0 PUSH2 0x100 EXP DUP2 SLOAD DUP2 PUSH20 0xFFFFFFFFFFFFFFFFFFFFFFFFFFFFFFFFFFFFFFFF MUL NOT AND SWAP1 DUP4 PUSH20 0xFFFFFFFFFFFFFFFFFFFFFFFFFFFFFFFFFFFFFFFF AND MUL OR SWAP1 SSTORE POP PUSH3 0x266 JUMP JUMPDEST PUSH1 0x0 DUP1 DUP3 EQ ISZERO PUSH3 0x109 JUMPI PUSH1 0x0 PUSH1 0x80 SHL SWAP1 POP PUSH3 0x177 JUMP JUMPDEST PUSH1 0x0 DUP3 SWAP1 POP PUSH1 0x0 PUSH3 0x121 DUP3 PUSH3 0x17C PUSH1 0x20 SHL PUSH1 0x20 SHR JUMP JUMPDEST SWAP1 POP PUSH1 0x70 DUP2 LT ISZERO PUSH3 0x13C JUMPI DUP1 PUSH1 0x70 SUB DUP3 SWAP1 SHL SWAP2 POP PUSH3 0x151 JUMP JUMPDEST PUSH1 0x70 DUP2 GT ISZERO PUSH3 0x150 JUMPI PUSH1 0x70 DUP2 SUB DUP3 SWAP1 SHR SWAP2 POP JUMPDEST JUMPDEST PUSH1 0x70 DUP2 PUSH2 0x3FFF ADD SWAP1 SHL PUSH14 0xFFFFFFFFFFFFFFFFFFFFFFFFFFFF DUP4 AND OR SWAP2 POP DUP2 PUSH1 0x80 SHL SWAP3 POP POP POP JUMPDEST SWAP2 SWAP1 POP JUMP JUMPDEST PUSH1 0x0 DUP1 DUP3 GT PUSH3 0x18B JUMPI PUSH1 0x0 DUP1 REVERT JUMPDEST PUSH1 0x0 PUSH17 0x100000000000000000000000000000000 DUP4 LT PUSH3 0x1B4 JUMPI PUSH1 0x80 DUP4 SWAP1 SHR SWAP3 POP PUSH1 0x80 DUP2 ADD SWAP1 POP JUMPDEST PUSH9 0x10000000000000000 DUP4 LT PUSH3 0x1D3 JUMPI PUSH1 0x40 DUP4 SWAP1 SHR SWAP3 POP PUSH1 0x40 DUP2 ADD SWAP1 POP JUMPDEST PUSH5 0x100000000 DUP4 LT PUSH3 0x1EE JUMPI PUSH1 0x20 DUP4 SWAP1 SHR SWAP3 POP PUSH1 0x20 DUP2 ADD SWAP1 POP JUMPDEST PUSH3 0x10000 DUP4 LT PUSH3 0x207 JUMPI PUSH1 0x10 DUP4 SWAP1 SHR SWAP3 POP PUSH1 0x10 DUP2 ADD SWAP1 POP JUMPDEST PUSH2 0x100 DUP4 LT PUSH3 0x21F JUMPI PUSH1 0x8 DUP4 SWAP1 SHR SWAP3 POP PUSH1 0x8 DUP2 ADD SWAP1 POP JUMPDEST PUSH1 0x10 DUP4 LT PUSH3 0x236 JUMPI PUSH1 0x4 DUP4 SWAP1 SHR SWAP3 POP PUSH1 0x4 DUP2 ADD SWAP1 POP JUMPDEST PUSH1 0x4 DUP4 LT PUSH3 0x24D JUMPI PUSH1 0x2 DUP4 SWAP1 SHR SWAP3 POP PUSH1 0x2 DUP2 ADD SWAP1 POP JUMPDEST PUSH1 0x2 DUP4 LT PUSH3 0x25D JUMPI PUSH1 0x1 DUP2 ADD SWAP1 POP JUMPDEST DUP1 SWAP2 POP POP SWAP2 SWAP1 POP JUMP JUMPDEST PUSH1 0x80 MLOAD PUSH1 0xA0 MLOAD PUSH2 0x37F4 PUSH3 0x2A1 PUSH1 0x0 CODECOPY PUSH1 0x0 PUSH2 0x118D ADD MSTORE PUSH1 0x0 DUP2 DUP2 PUSH2 0x357 ADD MSTORE DUP2 DUP2 PUSH2 0x11B1 ADD MSTORE DUP2 DUP2 PUSH2 0x12FA ADD MSTORE PUSH2 0x13DF ADD MSTORE PUSH2 0x37F4 PUSH1 0x0 RETURN INVALID PUSH1 0x80 PUSH1 0x40 MSTORE PUSH1 0x4 CALLDATASIZE LT PUSH2 0xC2 JUMPI PUSH1 0x0 CALLDATALOAD PUSH1 0xE0 SHR DUP1 PUSH4 0x5C0DF55B GT PUSH2 0x7F JUMPI DUP1 PUSH4 0x8DB57994 GT PUSH2 0x59 JUMPI DUP1 PUSH4 0x8DB57994 EQ PUSH2 0x1C4 JUMPI DUP1 PUSH4 0xA3AF6EB2 EQ PUSH2 0x1CE JUMPI DUP1 PUSH4 0xD8D79700 EQ PUSH2 0x1F7 JUMPI DUP1 PUSH4 0xDB8D55F1 EQ PUSH2 0x201 JUMPI PUSH2 0xC2 JUMP JUMPDEST DUP1 PUSH4 0x5C0DF55B EQ PUSH2 0x185 JUMPI DUP1 PUSH4 0x62949963 EQ PUSH2 0x18F JUMPI DUP1 PUSH4 0x6F9FB98A EQ PUSH2 0x199 JUMPI PUSH2 0xC2 JUMP JUMPDEST DUP1 PUSH4 0xE6F3DD8 EQ PUSH2 0xC7 JUMPI DUP1 PUSH4 0x1529A639 EQ PUSH2 0xD1 JUMPI DUP1 PUSH4 0x28A11702 EQ PUSH2 0xFC JUMPI DUP1 PUSH4 0x3CCFD60B EQ PUSH2 0x127 JUMPI DUP1 PUSH4 0x4173B417 EQ PUSH2 0x131 JUMPI DUP1 PUSH4 0x57F7D74F EQ PUSH2 0x15C JUMPI JUMPDEST PUSH1 0x0 DUP1 REVERT JUMPDEST PUSH2 0xCF PUSH2 0x22C JUMP JUMPDEST STOP JUMPDEST CALLVALUE DUP1 ISZERO PUSH2 0xDD JUMPI PUSH1 0x0 DUP1 REVERT JUMPDEST POP PUSH2 0xE6 PUSH2 0x434 JUMP JUMPDEST PUSH1 0x40 MLOAD PUSH2 0xF3 SWAP2 SWAP1 PUSH2 0x28F0 JUMP JUMPDEST PUSH1 0x40 MLOAD DUP1 SWAP2 SUB SWAP1 RETURN JUMPDEST CALLVALUE DUP1 ISZERO PUSH2 0x108 JUMPI PUSH1 0x0 DUP1 REVERT JUMPDEST POP PUSH2 0x111 PUSH2 0x43E JUMP JUMPDEST PUSH1 0x40 MLOAD PUSH2 0x11E SWAP2 SWAP1 PUSH2 0x28F0 JUMP JUMPDEST PUSH1 0x40 MLOAD DUP1 SWAP2 SUB SWAP1 RETURN JUMPDEST PUSH2 0x12F PUSH2 0x45D JUMP JUMPDEST STOP JUMPDEST CALLVALUE DUP1 ISZERO PUSH2 0x13D JUMPI PUSH1 0x0 DUP1 REVERT JUMPDEST POP PUSH2 0x146 PUSH2 0x61B JUMP JUMPDEST PUSH1 0x40 MLOAD PUSH2 0x153 SWAP2 SWAP1 PUSH2 0x2A81 JUMP JUMPDEST PUSH1 0x40 MLOAD DUP1 SWAP2 SUB SWAP1 RETURN JUMPDEST CALLVALUE DUP1 ISZERO PUSH2 0x168 JUMPI PUSH1 0x0 DUP1 REVERT JUMPDEST POP PUSH2 0x183 PUSH1 0x4 DUP1 CALLDATASIZE SUB DUP2 ADD SWAP1 PUSH2 0x17E SWAP2 SWAP1 PUSH2 0x2ACE JUMP JUMPDEST PUSH2 0x761 JUMP JUMPDEST STOP JUMPDEST PUSH2 0x18D PUSH2 0x839 JUMP JUMPDEST STOP JUMPDEST PUSH2 0x197 PUSH2 0xAE1 JUMP JUMPDEST STOP JUMPDEST CALLVALUE DUP1 ISZERO PUSH2 0x1A5 JUMPI PUSH1 0x0 DUP1 REVERT JUMPDEST POP PUSH2 0x1AE PUSH2 0xD08 JUMP JUMPDEST PUSH1 0x40 MLOAD PUSH2 0x1BB SWAP2 SWAP1 PUSH2 0x28F0 JUMP JUMPDEST PUSH1 0x40 MLOAD DUP1 SWAP2 SUB SWAP1 RETURN JUMPDEST PUSH2 0x1CC PUSH2 0xD10 JUMP JUMPDEST STOP JUMPDEST CALLVALUE DUP1 ISZERO PUSH2 0x1DA JUMPI PUSH1 0x0 DUP1 REVERT JUMPDEST POP PUSH2 0x1F5 PUSH1 0x4 DUP1 CALLDATASIZE SUB DUP2 ADD SWAP1 PUSH2 0x1F0 SWAP2 SWAP1 PUSH2 0x2B53 JUMP JUMPDEST PUSH2 0xDAE JUMP JUMPDEST STOP JUMPDEST PUSH2 0x1FF PUSH2 0xF8A JUMP JUMPDEST STOP JUMPDEST CALLVALUE DUP1 ISZERO PUSH2 0x20D JUMPI PUSH1 0x0 DUP1 REVERT JUMPDEST POP PUSH2 0x216 PUSH2 0x1109 JUMP JUMPDEST PUSH1 0x40 MLOAD PUSH2 0x223 SWAP2 SWAP1 PUSH2 0x28F0 JUMP JUMPDEST PUSH1 0x40 MLOAD DUP1 SWAP2 SUB SWAP1 RETURN JUMPDEST PUSH1 0x0 PUSH1 0x1 ADD PUSH1 0x0 SWAP1 SLOAD SWAP1 PUSH2 0x100 EXP SWAP1 DIV PUSH20 0xFFFFFFFFFFFFFFFFFFFFFFFFFFFFFFFFFFFFFFFF AND PUSH20 0xFFFFFFFFFFFFFFFFFFFFFFFFFFFFFFFFFFFFFFFF AND CALLER PUSH20 0xFFFFFFFFFFFFFFFFFFFFFFFFFFFFFFFFFFFFFFFF AND EQ PUSH2 0x2BF JUMPI PUSH1 0x40 MLOAD PUSH32 0x8C379A000000000000000000000000000000000000000000000000000000000 DUP2 MSTORE PUSH1 0x4 ADD PUSH2 0x2B6 SWAP1 PUSH2 0x2CB5 JUMP JUMPDEST PUSH1 0x40 MLOAD DUP1 SWAP2 SUB SWAP1 REVERT JUMPDEST PUSH1 0x0 DUP1 PUSH1 0x6 ADD SLOAD EQ PUSH2 0x306 JUMPI PUSH1 0x40 MLOAD PUSH32 0x8C379A000000000000000000000000000000000000000000000000000000000 DUP2 MSTORE PUSH1 0x4 ADD PUSH2 0x2FD SWAP1 PUSH2 0x2D47 JUMP JUMPDEST PUSH1 0x40 MLOAD DUP1 SWAP2 SUB SWAP1 REVERT JUMPDEST PUSH1 0x0 DUP1 PUSH1 0x2 ADD SLOAD GT PUSH2 0x34D JUMPI PUSH1 0x40 MLOAD PUSH32 0x8C379A000000000000000000000000000000000000000000000000000000000 DUP2 MSTORE PUSH1 0x4 ADD PUSH2 0x344 SWAP1 PUSH2 0x2DD9 JUMP JUMPDEST PUSH1 0x40 MLOAD DUP1 SWAP2 SUB SWAP1 REVERT JUMPDEST PUSH1 0x0 PUSH2 0x3B8 PUSH2 0x3A5 PUSH32 0x0 PUSH2 0x384 PUSH1 0x0 PUSH1 0x6 ADD SLOAD PUSH2 0x146B JUMP JUMPDEST PUSH16 0xFFFFFFFFFFFFFFFFFFFFFFFFFFFFFFFF NOT AND PUSH2 0x14E9 SWAP1 SWAP2 SWAP1 PUSH4 0xFFFFFFFF AND JUMP JUMPDEST PUSH2 0x3B3 PUSH1 0x0 PUSH1 0x2 ADD SLOAD PUSH2 0x146B JUMP JUMPDEST PUSH2 0x19B2 JUMP JUMPDEST SWAP1 POP DUP1 PUSH16 0xFFFFFFFFFFFFFFFFFFFFFFFFFFFFFFFF NOT AND PUSH2 0x3D7 CALLVALUE PUSH2 0x146B JUMP JUMPDEST PUSH16 0xFFFFFFFFFFFFFFFFFFFFFFFFFFFFFFFF NOT AND EQ PUSH2 0x42A JUMPI PUSH1 0x40 MLOAD PUSH32 0x8C379A000000000000000000000000000000000000000000000000000000000 DUP2 MSTORE PUSH1 0x4 ADD PUSH2 0x421 SWAP1 PUSH2 0x2EB7 JUMP JUMPDEST PUSH1 0x40 MLOAD DUP1 SWAP2 SUB SWAP1 REVERT JUMPDEST CALLVALUE PUSH1 0xD DUP2 SWAP1 SSTORE POP POP JUMP JUMPDEST PUSH1 0x0 PUSH1 0xD SLOAD SWAP1 POP SWAP1 JUMP JUMPDEST PUSH1 0x0 PUSH2 0x448 PUSH2 0x1109 JUMP JUMPDEST PUSH1 0x0 PUSH1 0x2 ADD SLOAD PUSH2 0x458 SWAP2 SWAP1 PUSH2 0x2F06 JUMP JUMPDEST SWAP1 POP SWAP1 JUMP JUMPDEST PUSH1 0x0 DUP1 ADD PUSH1 0x0 SWAP1 SLOAD SWAP1 PUSH2 0x100 EXP SWAP1 DIV PUSH20 0xFFFFFFFFFFFFFFFFFFFFFFFFFFFFFFFFFFFFFFFF AND PUSH20 0xFFFFFFFFFFFFFFFFFFFFFFFFFFFFFFFFFFFFFFFF AND CALLER PUSH20 0xFFFFFFFFFFFFFFFFFFFFFFFFFFFFFFFFFFFFFFFF AND EQ PUSH2 0x4EF JUMPI PUSH1 0x40 MLOAD PUSH32 0x8C379A000000000000000000000000000000000000000000000000000000000 DUP2 MSTORE PUSH1 0x4 ADD PUSH2 0x4E6 SWAP1 PUSH2 0x2FCE JUMP JUMPDEST PUSH1 0x40 MLOAD DUP1 SWAP2 SUB SWAP1 REVERT JUMPDEST PUSH1 0x0 SELFBALANCE GT PUSH2 0x532 JUMPI PUSH1 0x40 MLOAD PUSH32 0x8C379A000000000000000000000000000000000000000000000000000000000 DUP2 MSTORE PUSH1 0x4 ADD PUSH2 0x529 SWAP1 PUSH2 0x3060 JUMP JUMPDEST PUSH1 0x40 MLOAD DUP1 SWAP2 SUB SWAP1 REVERT JUMPDEST PUSH1 0x0 PUSH1 0xD SLOAD SELFBALANCE PUSH2 0x542 SWAP2 SWAP1 PUSH2 0x3080 JUMP JUMPDEST SWAP1 POP PUSH1 0x0 DUP1 PUSH1 0x0 DUP1 ADD PUSH1 0x0 SWAP1 SLOAD SWAP1 PUSH2 0x100 EXP SWAP1 DIV PUSH20 0xFFFFFFFFFFFFFFFFFFFFFFFFFFFFFFFFFFFFFFFF AND PUSH20 0xFFFFFFFFFFFFFFFFFFFFFFFFFFFFFFFFFFFFFFFF AND DUP4 PUSH1 0x40 MLOAD PUSH2 0x58F SWAP1 PUSH2 0x30E5 JUMP JUMPDEST PUSH1 0x0 PUSH1 0x40 MLOAD DUP1 DUP4 SUB DUP2 DUP6 DUP8 GAS CALL SWAP3 POP POP POP RETURNDATASIZE DUP1 PUSH1 0x0 DUP2 EQ PUSH2 0x5CC JUMPI PUSH1 0x40 MLOAD SWAP2 POP PUSH1 0x1F NOT PUSH1 0x3F RETURNDATASIZE ADD AND DUP3 ADD PUSH1 0x40 MSTORE RETURNDATASIZE DUP3 MSTORE RETURNDATASIZE PUSH1 0x0 PUSH1 0x20 DUP5 ADD RETURNDATACOPY PUSH2 0x5D1 JUMP JUMPDEST PUSH1 0x60 SWAP2 POP JUMPDEST POP SWAP2 POP SWAP2 POP DUP2 PUSH2 0x616 JUMPI PUSH1 0x40 MLOAD PUSH32 0x8C379A000000000000000000000000000000000000000000000000000000000 DUP2 MSTORE PUSH1 0x4 ADD PUSH2 0x60D SWAP1 PUSH2 0x3146 JUMP JUMPDEST PUSH1 0x40 MLOAD DUP1 SWAP2 SUB SWAP1 REVERT JUMPDEST POP POP POP JUMP JUMPDEST PUSH2 0x623 PUSH2 0x2841 JUMP JUMPDEST PUSH1 0x0 PUSH1 0x40 MLOAD DUP1 PUSH2 0x1A0 ADD PUSH1 0x40 MSTORE SWAP1 DUP2 PUSH1 0x0 DUP3 ADD PUSH1 0x0 SWAP1 SLOAD SWAP1 PUSH2 0x100 EXP SWAP1 DIV PUSH20 0xFFFFFFFFFFFFFFFFFFFFFFFFFFFFFFFFFFFFFFFF AND PUSH20 0xFFFFFFFFFFFFFFFFFFFFFFFFFFFFFFFFFFFFFFFF AND PUSH20 0xFFFFFFFFFFFFFFFFFFFFFFFFFFFFFFFFFFFFFFFF AND DUP2 MSTORE PUSH1 0x20 ADD PUSH1 0x1 DUP3 ADD PUSH1 0x0 SWAP1 SLOAD SWAP1 PUSH2 0x100 EXP SWAP1 DIV PUSH20 0xFFFFFFFFFFFFFFFFFFFFFFFFFFFFFFFFFFFFFFFF AND PUSH20 0xFFFFFFFFFFFFFFFFFFFFFFFFFFFFFFFFFFFFFFFF AND PUSH20 0xFFFFFFFFFFFFFFFFFFFFFFFFFFFFFFFFFFFFFFFF AND DUP2 MSTORE PUSH1 0x20 ADD PUSH1 0x2 DUP3 ADD SLOAD DUP2 MSTORE PUSH1 0x20 ADD PUSH1 0x3 DUP3 ADD SLOAD DUP2 MSTORE PUSH1 0x20 ADD PUSH1 0x4 DUP3 ADD SLOAD DUP2 MSTORE PUSH1 0x20 ADD PUSH1 0x5 DUP3 ADD SLOAD DUP2 MSTORE PUSH1 0x20 ADD PUSH1 0x6 DUP3 ADD SLOAD DUP2 MSTORE PUSH1 0x20 ADD PUSH1 0x7 DUP3 ADD SLOAD DUP2 MSTORE PUSH1 0x20 ADD PUSH1 0x8 DUP3 ADD SLOAD DUP2 MSTORE PUSH1 0x20 ADD PUSH1 0x9 DUP3 ADD PUSH1 0x0 SWAP1 SLOAD SWAP1 PUSH2 0x100 EXP SWAP1 DIV PUSH1 0xFF AND ISZERO ISZERO ISZERO ISZERO DUP2 MSTORE PUSH1 0x20 ADD PUSH1 0xA DUP3 ADD SLOAD DUP2 MSTORE PUSH1 0x20 ADD PUSH1 0xB DUP3 ADD SLOAD DUP2 MSTORE PUSH1 0x20 ADD PUSH1 0xC DUP3 ADD SLOAD DUP2 MSTORE POP POP SWAP1 POP SWAP1 JUMP JUMPDEST PUSH1 0x0 DUP1 ADD PUSH1 0x0 SWAP1 SLOAD SWAP1 PUSH2 0x100 EXP SWAP1 DIV PUSH20 0xFFFFFFFFFFFFFFFFFFFFFFFFFFFFFFFFFFFFFFFF AND PUSH20 0xFFFFFFFFFFFFFFFFFFFFFFFFFFFFFFFFFFFFFFFF AND CALLER PUSH20 0xFFFFFFFFFFFFFFFFFFFFFFFFFFFFFFFFFFFFFFFF AND EQ PUSH2 0x7F3 JUMPI PUSH1 0x40 MLOAD PUSH32 0x8C379A000000000000000000000000000000000000000000000000000000000 DUP2 MSTORE PUSH1 0x4 ADD PUSH2 0x7EA SWAP1 PUSH2 0x2FCE JUMP JUMPDEST PUSH1 0x40 MLOAD DUP1 SWAP2 SUB SWAP1 REVERT JUMPDEST DUP1 PUSH1 0x0 DUP1 ADD PUSH1 0x0 PUSH2 0x100 EXP DUP2 SLOAD DUP2 PUSH20 0xFFFFFFFFFFFFFFFFFFFFFFFFFFFFFFFFFFFFFFFF MUL NOT AND SWAP1 DUP4 PUSH20 0xFFFFFFFFFFFFFFFFFFFFFFFFFFFFFFFFFFFFFFFF AND MUL OR SWAP1 SSTORE POP POP JUMP JUMPDEST PUSH1 0x0 DUP1 ADD PUSH1 0x0 SWAP1 SLOAD SWAP1 PUSH2 0x100 EXP SWAP1 DIV PUSH20 0xFFFFFFFFFFFFFFFFFFFFFFFFFFFFFFFFFFFFFFFF AND PUSH20 0xFFFFFFFFFFFFFFFFFFFFFFFFFFFFFFFFFFFFFFFF AND CALLER PUSH20 0xFFFFFFFFFFFFFFFFFFFFFFFFFFFFFFFFFFFFFFFF AND EQ PUSH2 0x8CB JUMPI PUSH1 0x40 MLOAD PUSH32 0x8C379A000000000000000000000000000000000000000000000000000000000 DUP2 MSTORE PUSH1 0x4 ADD PUSH2 0x8C2 SWAP1 PUSH2 0x2FCE JUMP JUMPDEST PUSH1 0x40 MLOAD DUP1 SWAP2 SUB SWAP1 REVERT JUMPDEST PUSH1 0x0 PUSH20 0xFFFFFFFFFFFFFFFFFFFFFFFFFFFFFFFFFFFFFFFF AND PUSH1 0x0 PUSH1 0x1 ADD PUSH1 0x0 SWAP1 SLOAD SWAP1 PUSH2 0x100 EXP SWAP1 DIV PUSH20 0xFFFFFFFFFFFFFFFFFFFFFFFFFFFFFFFFFFFFFFFF AND PUSH20 0xFFFFFFFFFFFFFFFFFFFFFFFFFFFFFFFFFFFFFFFF AND EQ ISZERO PUSH2 0x960 JUMPI PUSH1 0x40 MLOAD PUSH32 0x8C379A000000000000000000000000000000000000000000000000000000000 DUP2 MSTORE PUSH1 0x4 ADD PUSH2 0x957 SWAP1 PUSH2 0x31D8 JUMP JUMPDEST PUSH1 0x40 MLOAD DUP1 SWAP2 SUB SWAP1 REVERT JUMPDEST PUSH1 0x0 DUP1 PUSH1 0x2 ADD SLOAD EQ ISZERO PUSH2 0x9A8 JUMPI PUSH1 0x40 MLOAD PUSH32 0x8C379A000000000000000000000000000000000000000000000000000000000 DUP2 MSTORE PUSH1 0x4 ADD PUSH2 0x99F SWAP1 PUSH2 0x326A JUMP JUMPDEST PUSH1 0x40 MLOAD DUP1 SWAP2 SUB SWAP1 REVERT JUMPDEST PUSH1 0x0 DUP1 PUSH1 0x6 ADD SLOAD GT ISZERO PUSH2 0x9FB JUMPI PUSH1 0x0 PUSH1 0xD SLOAD GT PUSH2 0x9FA JUMPI PUSH1 0x40 MLOAD PUSH32 0x8C379A000000000000000000000000000000000000000000000000000000000 DUP2 MSTORE PUSH1 0x4 ADD PUSH2 0x9F1 SWAP1 PUSH2 0x32FC JUMP JUMPDEST PUSH1 0x40 MLOAD DUP1 SWAP2 SUB SWAP1 REVERT JUMPDEST JUMPDEST PUSH1 0x0 DUP1 PUSH1 0x0 PUSH1 0x1 ADD PUSH1 0x0 SWAP1 SLOAD SWAP1 PUSH2 0x100 EXP SWAP1 DIV PUSH20 0xFFFFFFFFFFFFFFFFFFFFFFFFFFFFFFFFFFFFFFFF AND PUSH20 0xFFFFFFFFFFFFFFFFFFFFFFFFFFFFFFFFFFFFFFFF AND PUSH1 0x0 PUSH1 0x2 ADD SLOAD PUSH1 0x40 MLOAD PUSH2 0xA4C SWAP1 PUSH2 0x30E5 JUMP JUMPDEST PUSH1 0x0 PUSH1 0x40 MLOAD DUP1 DUP4 SUB DUP2 DUP6 DUP8 GAS CALL SWAP3 POP POP POP RETURNDATASIZE DUP1 PUSH1 0x0 DUP2 EQ PUSH2 0xA89 JUMPI PUSH1 0x40 MLOAD SWAP2 POP PUSH1 0x1F NOT PUSH1 0x3F RETURNDATASIZE ADD AND DUP3 ADD PUSH1 0x40 MSTORE RETURNDATASIZE DUP3 MSTORE RETURNDATASIZE PUSH1 0x0 PUSH1 0x20 DUP5 ADD RETURNDATACOPY PUSH2 0xA8E JUMP JUMPDEST PUSH1 0x60 SWAP2 POP JUMPDEST POP SWAP2 POP SWAP2 POP DUP2 PUSH2 0xAD3 JUMPI PUSH1 0x40 MLOAD PUSH32 0x8C379A000000000000000000000000000000000000000000000000000000000 DUP2 MSTORE PUSH1 0x4 ADD PUSH2 0xACA SWAP1 PUSH2 0x3368 JUMP JUMPDEST PUSH1 0x40 MLOAD DUP1 SWAP2 SUB SWAP1 REVERT JUMPDEST TIMESTAMP PUSH1 0x0 PUSH1 0x3 ADD DUP2 SWAP1 SSTORE POP POP POP JUMP JUMPDEST PUSH1 0x0 DUP1 ADD PUSH1 0x0 SWAP1 SLOAD SWAP1 PUSH2 0x100 EXP SWAP1 DIV PUSH20 0xFFFFFFFFFFFFFFFFFFFFFFFFFFFFFFFFFFFFFFFF AND PUSH20 0xFFFFFFFFFFFFFFFFFFFFFFFFFFFFFFFFFFFFFFFF AND CALLER PUSH20 0xFFFFFFFFFFFFFFFFFFFFFFFFFFFFFFFFFFFFFFFF AND EQ PUSH2 0xB73 JUMPI PUSH1 0x40 MLOAD PUSH32 0x8C379A000000000000000000000000000000000000000000000000000000000 DUP2 MSTORE PUSH1 0x4 ADD PUSH2 0xB6A SWAP1 PUSH2 0x2FCE JUMP JUMPDEST PUSH1 0x40 MLOAD DUP1 SWAP2 SUB SWAP1 REVERT JUMPDEST TIMESTAMP PUSH1 0x0 PUSH1 0xC ADD SLOAD PUSH1 0x0 PUSH1 0x3 ADD SLOAD PUSH1 0x0 PUSH1 0x4 ADD SLOAD PUSH2 0xB90 SWAP2 SWAP1 PUSH2 0x2F06 JUMP JUMPDEST PUSH2 0xB9A SWAP2 SWAP1 PUSH2 0x2F06 JUMP JUMPDEST LT PUSH2 0xBDA JUMPI PUSH1 0x40 MLOAD PUSH32 0x8C379A000000000000000000000000000000000000000000000000000000000 DUP2 MSTORE PUSH1 0x4 ADD PUSH2 0xBD1 SWAP1 PUSH2 0x33FA JUMP JUMPDEST PUSH1 0x40 MLOAD DUP1 SWAP2 SUB SWAP1 REVERT JUMPDEST PUSH1 0x0 PUSH1 0xD SLOAD GT PUSH2 0xC1F JUMPI PUSH1 0x40 MLOAD PUSH32 0x8C379A000000000000000000000000000000000000000000000000000000000 DUP2 MSTORE PUSH1 0x4 ADD PUSH2 0xC16 SWAP1 PUSH2 0x348C JUMP JUMPDEST PUSH1 0x40 MLOAD DUP1 SWAP2 SUB SWAP1 REVERT JUMPDEST PUSH1 0x0 PUSH1 0xD SLOAD SELFBALANCE PUSH2 0xC2F SWAP2 SWAP1 PUSH2 0x3080 JUMP JUMPDEST SWAP1 POP PUSH1 0x0 DUP1 PUSH1 0x0 DUP1 ADD PUSH1 0x0 SWAP1 SLOAD SWAP1 PUSH2 0x100 EXP SWAP1 DIV PUSH20 0xFFFFFFFFFFFFFFFFFFFFFFFFFFFFFFFFFFFFFFFF AND PUSH20 0xFFFFFFFFFFFFFFFFFFFFFFFFFFFFFFFFFFFFFFFF AND DUP4 PUSH1 0x40 MLOAD PUSH2 0xC7C SWAP1 PUSH2 0x30E5 JUMP JUMPDEST PUSH1 0x0 PUSH1 0x40 MLOAD DUP1 DUP4 SUB DUP2 DUP6 DUP8 GAS CALL SWAP3 POP POP POP RETURNDATASIZE DUP1 PUSH1 0x0 DUP2 EQ PUSH2 0xCB9 JUMPI PUSH1 0x40 MLOAD SWAP2 POP PUSH1 0x1F NOT PUSH1 0x3F RETURNDATASIZE ADD AND DUP3 ADD PUSH1 0x40 MSTORE RETURNDATASIZE DUP3 MSTORE RETURNDATASIZE PUSH1 0x0 PUSH1 0x20 DUP5 ADD RETURNDATACOPY PUSH2 0xCBE JUMP JUMPDEST PUSH1 0x60 SWAP2 POP JUMPDEST POP SWAP2 POP SWAP2 POP DUP2 PUSH2 0xD03 JUMPI PUSH1 0x40 MLOAD PUSH32 0x8C379A000000000000000000000000000000000000000000000000000000000 DUP2 MSTORE PUSH1 0x4 ADD PUSH2 0xCFA SWAP1 PUSH2 0x3146 JUMP JUMPDEST PUSH1 0x40 MLOAD DUP1 SWAP2 SUB SWAP1 REVERT JUMPDEST POP POP POP JUMP JUMPDEST PUSH1 0x0 SELFBALANCE SWAP1 POP SWAP1 JUMP JUMPDEST PUSH1 0x0 DUP1 ADD PUSH1 0x0 SWAP1 SLOAD SWAP1 PUSH2 0x100 EXP SWAP1 DIV PUSH20 0xFFFFFFFFFFFFFFFFFFFFFFFFFFFFFFFFFFFFFFFF AND PUSH20 0xFFFFFFFFFFFFFFFFFFFFFFFFFFFFFFFFFFFFFFFF AND CALLER PUSH20 0xFFFFFFFFFFFFFFFFFFFFFFFFFFFFFFFFFFFFFFFF AND EQ PUSH2 0xDA2 JUMPI PUSH1 0x40 MLOAD PUSH32 0x8C379A000000000000000000000000000000000000000000000000000000000 DUP2 MSTORE PUSH1 0x4 ADD PUSH2 0xD99 SWAP1 PUSH2 0x2FCE JUMP JUMPDEST PUSH1 0x40 MLOAD DUP1 SWAP2 SUB SWAP1 REVERT JUMPDEST CALLVALUE PUSH1 0x0 PUSH1 0x2 ADD DUP2 SWAP1 SSTORE POP JUMP JUMPDEST PUSH1 0x0 DUP1 ADD PUSH1 0x0 SWAP1 SLOAD SWAP1 PUSH2 0x100 EXP SWAP1 DIV PUSH20 0xFFFFFFFFFFFFFFFFFFFFFFFFFFFFFFFFFFFFFFFF AND PUSH20 0xFFFFFFFFFFFFFFFFFFFFFFFFFFFFFFFFFFFFFFFF AND CALLER PUSH20 0xFFFFFFFFFFFFFFFFFFFFFFFFFFFFFFFFFFFFFFFF AND EQ PUSH2 0xE40 JUMPI PUSH1 0x40 MLOAD PUSH32 0x8C379A000000000000000000000000000000000000000000000000000000000 DUP2 MSTORE PUSH1 0x4 ADD PUSH2 0xE37 SWAP1 PUSH2 0x2FCE JUMP JUMPDEST PUSH1 0x40 MLOAD DUP1 SWAP2 SUB SWAP1 REVERT JUMPDEST PUSH1 0x0 PUSH2 0xE4A PUSH2 0x43E JUMP JUMPDEST EQ PUSH2 0xE8A JUMPI PUSH1 0x40 MLOAD PUSH32 0x8C379A000000000000000000000000000000000000000000000000000000000 DUP2 MSTORE PUSH1 0x4 ADD PUSH2 0xE81 SWAP1 PUSH2 0x351E JUMP JUMPDEST PUSH1 0x40 MLOAD DUP1 SWAP2 SUB SWAP1 REVERT JUMPDEST PUSH1 0x0 DUP10 GT PUSH2 0xECD JUMPI PUSH1 0x40 MLOAD PUSH32 0x8C379A000000000000000000000000000000000000000000000000000000000 DUP2 MSTORE PUSH1 0x4 ADD PUSH2 0xEC4 SWAP1 PUSH2 0x358A JUMP JUMPDEST PUSH1 0x40 MLOAD DUP1 SWAP2 SUB SWAP1 REVERT JUMPDEST DUP10 PUSH1 0x0 PUSH1 0x1 ADD PUSH1 0x0 PUSH2 0x100 EXP DUP2 SLOAD DUP2 PUSH20 0xFFFFFFFFFFFFFFFFFFFFFFFFFFFFFFFFFFFFFFFF MUL NOT AND SWAP1 DUP4 PUSH20 0xFFFFFFFFFFFFFFFFFFFFFFFFFFFFFFFFFFFFFFFF AND MUL OR SWAP1 SSTORE POP DUP9 PUSH1 0x0 PUSH1 0x4 ADD DUP2 SWAP1 SSTORE POP DUP8 PUSH1 0x0 PUSH1 0x5 ADD DUP2 SWAP1 SSTORE POP DUP7 PUSH1 0x0 PUSH1 0x6 ADD DUP2 SWAP1 SSTORE POP DUP6 PUSH1 0x0 PUSH1 0x7 ADD DUP2 SWAP1 SSTORE POP DUP5 PUSH1 0x0 PUSH1 0x8 ADD DUP2 SWAP1 SSTORE POP DUP4 PUSH1 0x0 PUSH1 0x9 ADD PUSH1 0x0 PUSH2 0x100 EXP DUP2 SLOAD DUP2 PUSH1 0xFF MUL NOT AND SWAP1 DUP4 ISZERO ISZERO MUL OR SWAP1 SSTORE POP DUP3 PUSH1 0x0 PUSH1 0xA ADD DUP2 SWAP1 SSTORE POP DUP2 PUSH1 0x0 PUSH1 0xB ADD DUP2 SWAP1 SSTORE POP DUP1 PUSH1 0x0 PUSH1 0xC ADD DUP2 SWAP1 SSTORE POP POP POP POP POP POP POP POP POP POP POP JUMP JUMPDEST PUSH1 0x0 PUSH1 0x1 ADD PUSH1 0x0 SWAP1 SLOAD SWAP1 PUSH2 0x100 EXP SWAP1 DIV PUSH20 0xFFFFFFFFFFFFFFFFFFFFFFFFFFFFFFFFFFFFFFFF AND PUSH20 0xFFFFFFFFFFFFFFFFFFFFFFFFFFFFFFFFFFFFFFFF AND CALLER PUSH20 0xFFFFFFFFFFFFFFFFFFFFFFFFFFFFFFFFFFFFFFFF AND EQ PUSH2 0x101D JUMPI PUSH1 0x40 MLOAD PUSH32 0x8C379A000000000000000000000000000000000000000000000000000000000 DUP2 MSTORE PUSH1 0x4 ADD PUSH2 0x1014 SWAP1 PUSH2 0x2CB5 JUMP JUMPDEST PUSH1 0x40 MLOAD DUP1 SWAP2 SUB SWAP1 REVERT JUMPDEST PUSH1 0x0 CALLVALUE SWAP1 POP PUSH1 0x0 PUSH2 0x102C PUSH2 0x43E JUMP JUMPDEST SWAP1 POP DUP1 DUP3 EQ PUSH2 0x1070 JUMPI PUSH1 0x40 MLOAD PUSH32 0x8C379A000000000000000000000000000000000000000000000000000000000 DUP2 MSTORE PUSH1 0x4 ADD PUSH2 0x1067 SWAP1 PUSH2 0x3642 JUMP JUMPDEST PUSH1 0x40 MLOAD DUP1 SWAP2 SUB SWAP1 REVERT JUMPDEST PUSH1 0x0 DUP1 ADD PUSH1 0x0 SWAP1 SLOAD SWAP1 PUSH2 0x100 EXP SWAP1 DIV PUSH20 0xFFFFFFFFFFFFFFFFFFFFFFFFFFFFFFFFFFFFFFFF AND PUSH20 0xFFFFFFFFFFFFFFFFFFFFFFFFFFFFFFFFFFFFFFFF AND SELFBALANCE PUSH1 0x40 MLOAD PUSH2 0x10B8 SWAP1 PUSH2 0x30E5 JUMP JUMPDEST PUSH1 0x0 PUSH1 0x40 MLOAD DUP1 DUP4 SUB DUP2 DUP6 DUP8 GAS CALL SWAP3 POP POP POP RETURNDATASIZE DUP1 PUSH1 0x0 DUP2 EQ PUSH2 0x10F5 JUMPI PUSH1 0x40 MLOAD SWAP2 POP PUSH1 0x1F NOT PUSH1 0x3F RETURNDATASIZE ADD AND DUP3 ADD PUSH1 0x40 MSTORE RETURNDATASIZE DUP3 MSTORE RETURNDATASIZE PUSH1 0x0 PUSH1 0x20 DUP5 ADD RETURNDATACOPY PUSH2 0x10FA JUMP JUMPDEST PUSH1 0x60 SWAP2 POP JUMPDEST POP POP POP PUSH2 0x1105 PUSH2 0x1E47 JUMP JUMPDEST POP POP JUMP JUMPDEST PUSH1 0x0 DUP1 TIMESTAMP SWAP1 POP PUSH1 0x0 DUP1 PUSH1 0x4 ADD SLOAD PUSH1 0x0 PUSH1 0x3 ADD SLOAD PUSH2 0x1126 SWAP2 SWAP1 PUSH2 0x2F06 JUMP JUMPDEST SWAP1 POP PUSH1 0x0 DUP1 PUSH1 0x8 ADD SLOAD PUSH1 0x0 PUSH1 0x3 ADD SLOAD PUSH2 0x113F SWAP2 SWAP1 PUSH2 0x2F06 JUMP JUMPDEST SWAP1 POP PUSH1 0x0 DUP1 PUSH1 0x0 PUSH1 0xA ADD SLOAD EQ ISZERO DUP1 ISZERO PUSH2 0x1167 JUMPI POP DUP4 PUSH1 0x0 PUSH1 0xB ADD SLOAD DUP5 PUSH2 0x1165 SWAP2 SWAP1 PUSH2 0x2F06 JUMP JUMPDEST LT JUMPDEST ISZERO PUSH2 0x1186 JUMPI PUSH2 0x1183 DUP2 PUSH2 0x117E PUSH1 0x0 PUSH1 0xA ADD SLOAD PUSH2 0x146B JUMP JUMPDEST PUSH2 0x1FFD JUMP JUMPDEST SWAP1 POP JUMPDEST PUSH1 0x0 PUSH2 0x1220 PUSH32 0x0 PUSH2 0x11FF PUSH32 0x0 PUSH2 0x11DE PUSH1 0x0 PUSH1 0x5 ADD SLOAD PUSH2 0x146B JUMP JUMPDEST PUSH16 0xFFFFFFFFFFFFFFFFFFFFFFFFFFFFFFFF NOT AND PUSH2 0x14E9 SWAP1 SWAP2 SWAP1 PUSH4 0xFFFFFFFF AND JUMP JUMPDEST PUSH16 0xFFFFFFFFFFFFFFFFFFFFFFFFFFFFFFFF NOT AND PUSH2 0x14E9 SWAP1 SWAP2 SWAP1 PUSH4 0xFFFFFFFF AND JUMP JUMPDEST SWAP1 POP PUSH1 0x0 PUSH2 0x1262 DUP3 PUSH2 0x1241 PUSH1 0x0 PUSH1 0x3 ADD SLOAD DUP10 PUSH2 0x123C SWAP2 SWAP1 PUSH2 0x3080 JUMP JUMPDEST PUSH2 0x146B JUMP JUMPDEST PUSH16 0xFFFFFFFFFFFFFFFFFFFFFFFFFFFFFFFF NOT AND PUSH2 0x19B2 SWAP1 SWAP2 SWAP1 PUSH4 0xFFFFFFFF AND JUMP JUMPDEST SWAP1 POP PUSH1 0x0 PUSH2 0x1299 DUP3 PUSH2 0x1278 PUSH1 0x0 PUSH1 0x2 ADD SLOAD PUSH2 0x146B JUMP JUMPDEST PUSH16 0xFFFFFFFFFFFFFFFFFFFFFFFFFFFFFFFF NOT AND PUSH2 0x19B2 SWAP1 SWAP2 SWAP1 PUSH4 0xFFFFFFFF AND JUMP JUMPDEST SWAP1 POP PUSH2 0x12A5 DUP5 DUP3 PUSH2 0x1FFD JUMP JUMPDEST SWAP4 POP PUSH1 0x0 DUP1 PUSH1 0x8 ADD SLOAD EQ ISZERO DUP1 ISZERO PUSH2 0x12BB JUMPI POP DUP5 DUP8 LT JUMPDEST ISZERO PUSH2 0x1443 JUMPI PUSH1 0x0 PUSH1 0x9 ADD PUSH1 0x0 SWAP1 SLOAD SWAP1 PUSH2 0x100 EXP SWAP1 DIV PUSH1 0xFF AND ISZERO PUSH2 0x13C7 JUMPI PUSH1 0x0 PUSH2 0x12EE DUP9 DUP8 PUSH2 0x12E9 SWAP2 SWAP1 PUSH2 0x3080 JUMP JUMPDEST PUSH2 0x146B JUMP JUMPDEST SWAP1 POP PUSH1 0x0 PUSH2 0x13B2 PUSH2 0x1348 PUSH32 0x0 PUSH2 0x1327 PUSH1 0x0 PUSH1 0x2 ADD SLOAD PUSH2 0x146B JUMP JUMPDEST PUSH16 0xFFFFFFFFFFFFFFFFFFFFFFFFFFFFFFFF NOT AND PUSH2 0x14E9 SWAP1 SWAP2 SWAP1 PUSH4 0xFFFFFFFF AND JUMP JUMPDEST PUSH2 0x1391 PUSH2 0x1359 PUSH1 0x0 PUSH1 0x7 ADD SLOAD PUSH2 0x146B JUMP JUMPDEST PUSH2 0x1370 DUP7 PUSH2 0x136B PUSH1 0x0 PUSH1 0x8 ADD SLOAD PUSH2 0x146B JUMP JUMPDEST PUSH2 0x14E9 JUMP JUMPDEST PUSH16 0xFFFFFFFFFFFFFFFFFFFFFFFFFFFFFFFF NOT AND PUSH2 0x19B2 SWAP1 SWAP2 SWAP1 PUSH4 0xFFFFFFFF AND JUMP JUMPDEST PUSH16 0xFFFFFFFFFFFFFFFFFFFFFFFFFFFFFFFF NOT AND PUSH2 0x19B2 SWAP1 SWAP2 SWAP1 PUSH4 0xFFFFFFFF AND JUMP JUMPDEST SWAP1 POP PUSH2 0x13BE DUP7 DUP3 PUSH2 0x1FFD JUMP JUMPDEST SWAP6 POP POP POP PUSH2 0x1442 JUMP JUMPDEST PUSH1 0x0 PUSH2 0x1432 PUSH2 0x13DA PUSH1 0x0 PUSH1 0x2 ADD SLOAD PUSH2 0x146B JUMP JUMPDEST PUSH2 0x142D PUSH32 0x0 PUSH2 0x140C PUSH1 0x0 PUSH1 0x7 ADD SLOAD PUSH2 0x146B JUMP JUMPDEST PUSH16 0xFFFFFFFFFFFFFFFFFFFFFFFFFFFFFFFF NOT AND PUSH2 0x14E9 SWAP1 SWAP2 SWAP1 PUSH4 0xFFFFFFFF AND JUMP JUMPDEST PUSH2 0x19B2 JUMP JUMPDEST SWAP1 POP PUSH2 0x143E DUP6 DUP3 PUSH2 0x1FFD JUMP JUMPDEST SWAP5 POP POP JUMPDEST JUMPDEST PUSH2 0x145F DUP5 PUSH16 0xFFFFFFFFFFFFFFFFFFFFFFFFFFFFFFFF NOT AND PUSH2 0x2662 JUMP JUMPDEST SWAP8 POP POP POP POP POP POP POP POP SWAP1 JUMP JUMPDEST PUSH1 0x0 DUP1 DUP3 EQ ISZERO PUSH2 0x1481 JUMPI PUSH1 0x0 PUSH1 0x80 SHL SWAP1 POP PUSH2 0x14E4 JUMP JUMPDEST PUSH1 0x0 DUP3 SWAP1 POP PUSH1 0x0 PUSH2 0x1491 DUP3 PUSH2 0x2760 JUMP JUMPDEST SWAP1 POP PUSH1 0x70 DUP2 LT ISZERO PUSH2 0x14AA JUMPI DUP1 PUSH1 0x70 SUB DUP3 SWAP1 SHL SWAP2 POP PUSH2 0x14BE JUMP JUMPDEST PUSH1 0x70 DUP2 GT ISZERO PUSH2 0x14BD JUMPI PUSH1 0x70 DUP2 SUB DUP3 SWAP1 SHR SWAP2 POP JUMPDEST JUMPDEST PUSH1 0x70 DUP2 PUSH2 0x3FFF ADD SWAP1 SHL PUSH14 0xFFFFFFFFFFFFFFFFFFFFFFFFFFFF DUP4 AND OR SWAP2 POP DUP2 PUSH1 0x80 SHL SWAP3 POP POP POP JUMPDEST SWAP2 SWAP1 POP JUMP JUMPDEST PUSH1 0x0 DUP1 PUSH2 0x7FFF PUSH1 0x70 DUP6 PUSH1 0x80 SHR PUSH16 0xFFFFFFFFFFFFFFFFFFFFFFFFFFFFFFFF AND SWAP1 SHR AND PUSH16 0xFFFFFFFFFFFFFFFFFFFFFFFFFFFFFFFF AND SWAP1 POP PUSH1 0x0 PUSH2 0x7FFF PUSH1 0x70 DUP6 PUSH1 0x80 SHR PUSH16 0xFFFFFFFFFFFFFFFFFFFFFFFFFFFFFFFF AND SWAP1 SHR AND PUSH16 0xFFFFFFFFFFFFFFFFFFFFFFFFFFFFFFFF AND SWAP1 POP PUSH2 0x7FFF DUP3 EQ ISZERO PUSH2 0x15A4 JUMPI PUSH2 0x7FFF DUP2 EQ ISZERO PUSH2 0x1583 JUMPI PUSH16 0x7FFF8000000000000000000000000000 PUSH1 0x80 SHL SWAP3 POP POP POP PUSH2 0x19AC JUMP JUMPDEST PUSH16 0x80000000000000000000000000000000 PUSH1 0x80 SHL DUP5 AND DUP6 XOR SWAP3 POP POP POP PUSH2 0x19AC JUMP JUMPDEST PUSH2 0x7FFF DUP2 EQ ISZERO PUSH2 0x1623 JUMPI PUSH1 0x0 PUSH1 0x80 SHL PUSH14 0xFFFFFFFFFFFFFFFFFFFFFFFFFFFF PUSH1 0x80 SHL DUP6 AND PUSH16 0xFFFFFFFFFFFFFFFFFFFFFFFFFFFFFFFF NOT AND EQ PUSH2 0x15FC JUMPI PUSH16 0x7FFF8000000000000000000000000000 PUSH1 0x80 SHL SWAP3 POP POP POP PUSH2 0x19AC JUMP JUMPDEST PUSH16 0x80000000000000000000000000000000 PUSH1 0x80 SHL DUP5 DUP7 XOR AND PUSH1 0x0 PUSH1 0x80 SHL OR SWAP3 POP POP POP PUSH2 0x19AC JUMP JUMPDEST PUSH1 0x0 PUSH1 0x80 SHL PUSH16 0x7FFFFFFFFFFFFFFFFFFFFFFFFFFFFFFF PUSH1 0x80 SHL DUP6 AND PUSH16 0xFFFFFFFFFFFFFFFFFFFFFFFFFFFFFFFF NOT AND EQ ISZERO PUSH2 0x16DE JUMPI PUSH1 0x0 PUSH1 0x80 SHL PUSH16 0x7FFFFFFFFFFFFFFFFFFFFFFFFFFFFFFF PUSH1 0x80 SHL DUP7 AND PUSH16 0xFFFFFFFFFFFFFFFFFFFFFFFFFFFFFFFF NOT AND EQ ISZERO PUSH2 0x16A8 JUMPI PUSH16 0x7FFF8000000000000000000000000000 PUSH1 0x80 SHL SWAP3 POP POP POP PUSH2 0x19AC JUMP JUMPDEST PUSH16 0x80000000000000000000000000000000 PUSH1 0x80 SHL DUP5 DUP7 XOR AND PUSH16 0x7FFF0000000000000000000000000000 PUSH1 0x80 SHL OR SWAP3 POP POP POP PUSH2 0x19AC JUMP JUMPDEST PUSH1 0x0 PUSH14 0xFFFFFFFFFFFFFFFFFFFFFFFFFFFF DUP6 PUSH1 0x80 SHR AND PUSH16 0xFFFFFFFFFFFFFFFFFFFFFFFFFFFFFFFF AND SWAP1 POP PUSH1 0x0 DUP3 EQ ISZERO PUSH2 0x171A JUMPI PUSH1 0x1 SWAP2 POP PUSH2 0x172F JUMP JUMPDEST PUSH15 0x10000000000000000000000000000 DUP2 OR SWAP1 POP JUMPDEST PUSH1 0x0 PUSH14 0xFFFFFFFFFFFFFFFFFFFFFFFFFFFF DUP8 PUSH1 0x80 SHR AND PUSH16 0xFFFFFFFFFFFFFFFFFFFFFFFFFFFFFFFF AND SWAP1 POP PUSH1 0x0 DUP5 EQ ISZERO PUSH2 0x1793 JUMPI PUSH1 0x0 DUP2 EQ PUSH2 0x178E JUMPI PUSH1 0x0 PUSH2 0x1775 DUP3 PUSH2 0x2760 JUMP JUMPDEST PUSH1 0xE2 SUB SWAP1 POP DUP1 DUP3 SWAP1 SHL SWAP2 POP PUSH1 0x1 SWAP5 POP PUSH1 0x72 DUP2 SUB DUP5 ADD SWAP4 POP POP JUMPDEST PUSH2 0x17AC JUMP JUMPDEST PUSH1 0x72 PUSH15 0x10000000000000000000000000000 DUP3 OR SWAP1 SHL SWAP1 POP JUMPDEST DUP2 DUP2 DUP2 PUSH2 0x17BC JUMPI PUSH2 0x17BB PUSH2 0x3662 JUMP JUMPDEST JUMPDEST DIV SWAP1 POP PUSH1 0x0 DUP2 EQ ISZERO PUSH2 0x1827 JUMPI PUSH1 0x0 PUSH1 0x80 SHL PUSH16 0x80000000000000000000000000000000 PUSH1 0x80 SHL DUP8 DUP10 XOR AND PUSH16 0xFFFFFFFFFFFFFFFFFFFFFFFFFFFFFFFF NOT AND GT PUSH2 0x1807 JUMPI PUSH1 0x0 PUSH1 0x80 SHL PUSH2 0x181C JUMP JUMPDEST PUSH16 0x80000000000000000000000000000000 PUSH1 0x80 SHL JUMPDEST SWAP5 POP POP POP POP POP PUSH2 0x19AC JUMP JUMPDEST PUSH14 0x1000000000000000000000000000 DUP2 LT ISZERO PUSH2 0x1846 JUMPI PUSH2 0x1845 PUSH2 0x3691 JUMP JUMPDEST JUMPDEST PUSH1 0x0 PUSH15 0x80000000000000000000000000000 DUP3 LT ISZERO PUSH2 0x18A7 JUMPI PUSH15 0x40000000000000000000000000000 DUP3 LT ISZERO PUSH2 0x189C JUMPI PUSH15 0x20000000000000000000000000000 DUP3 LT ISZERO PUSH2 0x1894 JUMPI PUSH1 0x70 PUSH2 0x1897 JUMP JUMPDEST PUSH1 0x71 JUMPDEST PUSH2 0x189F JUMP JUMPDEST PUSH1 0x72 JUMPDEST PUSH1 0xFF AND PUSH2 0x18B1 JUMP JUMPDEST PUSH2 0x18B0 DUP3 PUSH2 0x2760 JUMP JUMPDEST JUMPDEST SWAP1 POP PUSH2 0x4071 DUP5 ADD DUP2 DUP7 ADD GT ISZERO PUSH2 0x18CF JUMPI PUSH2 0x7FFF SWAP5 POP PUSH1 0x0 SWAP2 POP PUSH2 0x196C JUMP JUMPDEST DUP4 PUSH2 0x3FFC DUP3 DUP8 ADD ADD LT ISZERO PUSH2 0x18EA JUMPI PUSH1 0x0 SWAP5 POP PUSH1 0x0 SWAP2 POP PUSH2 0x196B JUMP JUMPDEST DUP4 PUSH2 0x3F8C DUP3 DUP8 ADD ADD LT ISZERO PUSH2 0x1938 JUMPI DUP4 PUSH2 0x3FFC DUP7 ADD GT ISZERO PUSH2 0x1915 JUMPI DUP4 PUSH2 0x3FFC DUP7 ADD SUB DUP3 SWAP1 SHL SWAP2 POP PUSH2 0x192F JUMP JUMPDEST DUP4 PUSH2 0x3FFC DUP7 ADD LT ISZERO PUSH2 0x192E JUMPI PUSH2 0x3FFC DUP6 DUP6 SUB SUB DUP3 SWAP1 SHR SWAP2 POP JUMPDEST JUMPDEST PUSH1 0x0 SWAP5 POP PUSH2 0x196A JUMP JUMPDEST PUSH1 0x70 DUP2 GT ISZERO PUSH2 0x194B JUMPI PUSH1 0x70 DUP2 SUB DUP3 SWAP1 SHR SWAP2 POP JUMPDEST PUSH14 0xFFFFFFFFFFFFFFFFFFFFFFFFFFFF DUP3 AND SWAP2 POP DUP4 PUSH2 0x3F8D DUP3 DUP8 ADD ADD SUB SWAP5 POP JUMPDEST JUMPDEST JUMPDEST DUP2 PUSH1 0x70 DUP7 SWAP1 SHL PUSH16 0x80000000000000000000000000000000 PUSH1 0x80 SHL DUP10 DUP12 XOR AND PUSH1 0x80 SHR PUSH16 0xFFFFFFFFFFFFFFFFFFFFFFFFFFFFFFFF AND OR OR PUSH1 0x80 SHL SWAP6 POP POP POP POP POP POP JUMPDEST SWAP3 SWAP2 POP POP JUMP JUMPDEST PUSH1 0x0 DUP1 PUSH2 0x7FFF PUSH1 0x70 DUP6 PUSH1 0x80 SHR PUSH16 0xFFFFFFFFFFFFFFFFFFFFFFFFFFFFFFFF AND SWAP1 SHR AND PUSH16 0xFFFFFFFFFFFFFFFFFFFFFFFFFFFFFFFF AND SWAP1 POP PUSH1 0x0 PUSH2 0x7FFF PUSH1 0x70 DUP6 PUSH1 0x80 SHR PUSH16 0xFFFFFFFFFFFFFFFFFFFFFFFFFFFFFFFF AND SWAP1 SHR AND PUSH16 0xFFFFFFFFFFFFFFFFFFFFFFFFFFFFFFFF AND SWAP1 POP PUSH2 0x7FFF DUP3 EQ ISZERO PUSH2 0x1B49 JUMPI PUSH2 0x7FFF DUP2 EQ ISZERO PUSH2 0x1AD7 JUMPI DUP4 PUSH16 0xFFFFFFFFFFFFFFFFFFFFFFFFFFFFFFFF NOT AND DUP6 PUSH16 0xFFFFFFFFFFFFFFFFFFFFFFFFFFFFFFFF NOT AND EQ ISZERO PUSH2 0x1A7E JUMPI PUSH16 0x80000000000000000000000000000000 PUSH1 0x80 SHL DUP5 AND DUP6 XOR SWAP3 POP POP POP PUSH2 0x1E41 JUMP JUMPDEST PUSH16 0x80000000000000000000000000000000 PUSH1 0x80 SHL DUP5 DUP7 XOR PUSH16 0xFFFFFFFFFFFFFFFFFFFFFFFFFFFFFFFF NOT AND EQ ISZERO PUSH2 0x1ABA JUMPI DUP4 DUP6 OR SWAP3 POP POP POP PUSH2 0x1E41 JUMP JUMPDEST PUSH16 0x7FFF8000000000000000000000000000 PUSH1 0x80 SHL SWAP3 POP POP POP PUSH2 0x1E41 JUMP JUMPDEST PUSH1 0x0 PUSH1 0x80 SHL PUSH16 0x7FFFFFFFFFFFFFFFFFFFFFFFFFFFFFFF PUSH1 0x80 SHL DUP6 AND PUSH16 0xFFFFFFFFFFFFFFFFFFFFFFFFFFFFFFFF NOT AND EQ ISZERO PUSH2 0x1B28 JUMPI PUSH16 0x7FFF8000000000000000000000000000 PUSH1 0x80 SHL SWAP3 POP POP POP PUSH2 0x1E41 JUMP JUMPDEST PUSH16 0x80000000000000000000000000000000 PUSH1 0x80 SHL DUP5 AND DUP6 XOR SWAP3 POP POP POP PUSH2 0x1E41 JUMP JUMPDEST PUSH2 0x7FFF DUP2 EQ ISZERO PUSH2 0x1BC5 JUMPI PUSH1 0x0 PUSH1 0x80 SHL PUSH16 0x7FFFFFFFFFFFFFFFFFFFFFFFFFFFFFFF PUSH1 0x80 SHL DUP7 AND PUSH16 0xFFFFFFFFFFFFFFFFFFFFFFFFFFFFFFFF NOT AND EQ ISZERO PUSH2 0x1BA4 JUMPI PUSH16 0x7FFF8000000000000000000000000000 PUSH1 0x80 SHL SWAP3 POP POP POP PUSH2 0x1E41 JUMP JUMPDEST PUSH16 0x80000000000000000000000000000000 PUSH1 0x80 SHL DUP6 AND DUP5 XOR SWAP3 POP POP POP PUSH2 0x1E41 JUMP JUMPDEST PUSH1 0x0 PUSH14 0xFFFFFFFFFFFFFFFFFFFFFFFFFFFF DUP7 PUSH1 0x80 SHR AND PUSH16 0xFFFFFFFFFFFFFFFFFFFFFFFFFFFFFFFF AND SWAP1 POP PUSH1 0x0 DUP4 EQ ISZERO PUSH2 0x1C01 JUMPI PUSH1 0x1 SWAP3 POP PUSH2 0x1C16 JUMP JUMPDEST PUSH15 0x10000000000000000000000000000 DUP2 OR SWAP1 POP JUMPDEST PUSH1 0x0 PUSH14 0xFFFFFFFFFFFFFFFFFFFFFFFFFFFF DUP7 PUSH1 0x80 SHR AND PUSH16 0xFFFFFFFFFFFFFFFFFFFFFFFFFFFFFFFF AND SWAP1 POP PUSH1 0x0 DUP4 EQ ISZERO PUSH2 0x1C52 JUMPI PUSH1 0x1 SWAP3 POP PUSH2 0x1C67 JUMP JUMPDEST PUSH15 0x10000000000000000000000000000 DUP2 OR SWAP1 POP JUMPDEST DUP1 DUP3 MUL SWAP2 POP PUSH1 0x0 DUP3 EQ ISZERO PUSH2 0x1CD4 JUMPI PUSH1 0x0 PUSH1 0x80 SHL PUSH16 0x80000000000000000000000000000000 PUSH1 0x80 SHL DUP8 DUP10 XOR AND PUSH16 0xFFFFFFFFFFFFFFFFFFFFFFFFFFFFFFFF NOT AND GT PUSH2 0x1CB4 JUMPI PUSH1 0x0 PUSH1 0x80 SHL PUSH2 0x1CC9 JUMP JUMPDEST PUSH16 0x80000000000000000000000000000000 PUSH1 0x80 SHL JUMPDEST SWAP5 POP POP POP POP POP PUSH2 0x1E41 JUMP JUMPDEST DUP3 DUP5 ADD SWAP4 POP PUSH1 0x0 PUSH29 0x200000000000000000000000000000000000000000000000000000000 DUP4 LT ISZERO PUSH2 0x1D3B JUMPI PUSH29 0x100000000000000000000000000000000000000000000000000000000 DUP4 LT ISZERO PUSH2 0x1D33 JUMPI PUSH2 0x1D2E DUP4 PUSH2 0x2760 JUMP JUMPDEST PUSH2 0x1D36 JUMP JUMPDEST PUSH1 0xE0 JUMPDEST PUSH2 0x1D3E JUMP JUMPDEST PUSH1 0xE1 JUMPDEST SWAP1 POP PUSH2 0x4070 DUP2 DUP7 ADD LT ISZERO PUSH2 0x1D59 JUMPI PUSH1 0x0 SWAP5 POP PUSH1 0x0 SWAP3 POP PUSH2 0x1E01 JUMP JUMPDEST PUSH2 0x40E0 DUP2 DUP7 ADD LT ISZERO PUSH2 0x1D9D JUMPI PUSH2 0x4070 DUP6 LT ISZERO PUSH2 0x1D7E JUMPI DUP5 PUSH2 0x4070 SUB DUP4 SWAP1 SHR SWAP3 POP PUSH2 0x1D94 JUMP JUMPDEST PUSH2 0x4070 DUP6 GT ISZERO PUSH2 0x1D93 JUMPI PUSH2 0x4070 DUP6 SUB DUP4 SWAP1 SHL SWAP3 POP JUMPDEST JUMPDEST PUSH1 0x0 SWAP5 POP PUSH2 0x1E00 JUMP JUMPDEST PUSH2 0xC0DD DUP2 DUP7 ADD GT ISZERO PUSH2 0x1DB7 JUMPI PUSH2 0x7FFF SWAP5 POP PUSH1 0x0 SWAP3 POP PUSH2 0x1DFF JUMP JUMPDEST PUSH1 0x70 DUP2 GT ISZERO PUSH2 0x1DCE JUMPI PUSH1 0x70 DUP2 SUB DUP4 SWAP1 SHR SWAP3 POP PUSH2 0x1DE2 JUMP JUMPDEST PUSH1 0x70 DUP2 LT ISZERO PUSH2 0x1DE1 JUMPI DUP1 PUSH1 0x70 SUB DUP4 SWAP1 SHL SWAP3 POP JUMPDEST JUMPDEST PUSH14 0xFFFFFFFFFFFFFFFFFFFFFFFFFFFF DUP4 AND SWAP3 POP PUSH2 0x40DF DUP2 DUP7 ADD SUB SWAP5 POP JUMPDEST JUMPDEST JUMPDEST DUP3 PUSH1 0x70 DUP7 SWAP1 SHL PUSH16 0x80000000000000000000000000000000 PUSH1 0x80 SHL DUP10 DUP12 XOR AND PUSH1 0x80 SHR PUSH16 0xFFFFFFFFFFFFFFFFFFFFFFFFFFFFFFFF AND OR OR PUSH1 0x80 SHL SWAP6 POP POP POP POP POP POP JUMPDEST SWAP3 SWAP2 POP POP JUMP JUMPDEST PUSH1 0x0 PUSH1 0x1 ADD PUSH1 0x0 SWAP1 SLOAD SWAP1 PUSH2 0x100 EXP SWAP1 DIV PUSH20 0xFFFFFFFFFFFFFFFFFFFFFFFFFFFFFFFFFFFFFFFF AND PUSH20 0xFFFFFFFFFFFFFFFFFFFFFFFFFFFFFFFFFFFFFFFF AND CALLER PUSH20 0xFFFFFFFFFFFFFFFFFFFFFFFFFFFFFFFFFFFFFFFF AND EQ PUSH2 0x1EDA JUMPI PUSH1 0x40 MLOAD PUSH32 0x8C379A000000000000000000000000000000000000000000000000000000000 DUP2 MSTORE PUSH1 0x4 ADD PUSH2 0x1ED1 SWAP1 PUSH2 0x2CB5 JUMP JUMPDEST PUSH1 0x40 MLOAD DUP1 SWAP2 SUB SWAP1 REVERT JUMPDEST PUSH1 0x0 PUSH2 0x1EE4 PUSH2 0x43E JUMP JUMPDEST GT ISZERO PUSH2 0x1F25 JUMPI PUSH1 0x40 MLOAD PUSH32 0x8C379A000000000000000000000000000000000000000000000000000000000 DUP2 MSTORE PUSH1 0x4 ADD PUSH2 0x1F1C SWAP1 PUSH2 0x3732 JUMP JUMPDEST PUSH1 0x40 MLOAD DUP1 SWAP2 SUB SWAP1 REVERT JUMPDEST PUSH1 0x0 DUP1 PUSH1 0x0 DUP1 ADD PUSH1 0x0 SWAP1 SLOAD SWAP1 PUSH2 0x100 EXP SWAP1 DIV PUSH20 0xFFFFFFFFFFFFFFFFFFFFFFFFFFFFFFFFFFFFFFFF AND PUSH20 0xFFFFFFFFFFFFFFFFFFFFFFFFFFFFFFFFFFFFFFFF AND PUSH1 0xD SLOAD PUSH1 0x40 MLOAD PUSH2 0x1F72 SWAP1 PUSH2 0x30E5 JUMP JUMPDEST PUSH1 0x0 PUSH1 0x40 MLOAD DUP1 DUP4 SUB DUP2 DUP6 DUP8 GAS CALL SWAP3 POP POP POP RETURNDATASIZE DUP1 PUSH1 0x0 DUP2 EQ PUSH2 0x1FAF JUMPI PUSH1 0x40 MLOAD SWAP2 POP PUSH1 0x1F NOT PUSH1 0x3F RETURNDATASIZE ADD AND DUP3 ADD PUSH1 0x40 MSTORE RETURNDATASIZE DUP3 MSTORE RETURNDATASIZE PUSH1 0x0 PUSH1 0x20 DUP5 ADD RETURNDATACOPY PUSH2 0x1FB4 JUMP JUMPDEST PUSH1 0x60 SWAP2 POP JUMPDEST POP SWAP2 POP SWAP2 POP DUP2 PUSH2 0x1FF9 JUMPI PUSH1 0x40 MLOAD PUSH32 0x8C379A000000000000000000000000000000000000000000000000000000000 DUP2 MSTORE PUSH1 0x4 ADD PUSH2 0x1FF0 SWAP1 PUSH2 0x379E JUMP JUMPDEST PUSH1 0x40 MLOAD DUP1 SWAP2 SUB SWAP1 REVERT JUMPDEST POP POP JUMP JUMPDEST PUSH1 0x0 DUP1 PUSH2 0x7FFF PUSH1 0x70 DUP6 PUSH1 0x80 SHR PUSH16 0xFFFFFFFFFFFFFFFFFFFFFFFFFFFFFFFF AND SWAP1 SHR AND PUSH16 0xFFFFFFFFFFFFFFFFFFFFFFFFFFFFFFFF AND SWAP1 POP PUSH1 0x0 PUSH2 0x7FFF PUSH1 0x70 DUP6 PUSH1 0x80 SHR PUSH16 0xFFFFFFFFFFFFFFFFFFFFFFFFFFFFFFFF AND SWAP1 SHR AND PUSH16 0xFFFFFFFFFFFFFFFFFFFFFFFFFFFFFFFF AND SWAP1 POP PUSH2 0x7FFF DUP3 EQ ISZERO PUSH2 0x20D9 JUMPI PUSH2 0x7FFF DUP2 EQ ISZERO PUSH2 0x20CF JUMPI DUP4 PUSH16 0xFFFFFFFFFFFFFFFFFFFFFFFFFFFFFFFF NOT AND DUP6 PUSH16 0xFFFFFFFFFFFFFFFFFFFFFFFFFFFFFFFF NOT AND EQ ISZERO PUSH2 0x20B2 JUMPI DUP5 SWAP3 POP POP POP PUSH2 0x265C JUMP JUMPDEST PUSH16 0x7FFF8000000000000000000000000000 PUSH1 0x80 SHL SWAP3 POP POP POP PUSH2 0x265C JUMP JUMPDEST DUP5 SWAP3 POP POP POP PUSH2 0x265C JUMP JUMPDEST PUSH2 0x7FFF DUP2 EQ ISZERO PUSH2 0x20ED JUMPI DUP4 SWAP3 POP POP POP PUSH2 0x265C JUMP JUMPDEST PUSH1 0x0 PUSH16 0x80000000000000000000000000000000 DUP7 PUSH1 0x80 SHR PUSH16 0xFFFFFFFFFFFFFFFFFFFFFFFFFFFFFFFF AND LT ISZERO SWAP1 POP PUSH1 0x0 PUSH14 0xFFFFFFFFFFFFFFFFFFFFFFFFFFFF DUP8 PUSH1 0x80 SHR AND PUSH16 0xFFFFFFFFFFFFFFFFFFFFFFFFFFFFFFFF AND SWAP1 POP PUSH1 0x0 DUP5 EQ ISZERO PUSH2 0x2156 JUMPI PUSH1 0x1 SWAP4 POP PUSH2 0x216B JUMP JUMPDEST PUSH15 0x10000000000000000000000000000 DUP2 OR SWAP1 POP JUMPDEST PUSH1 0x0 PUSH16 0x80000000000000000000000000000000 DUP8 PUSH1 0x80 SHR PUSH16 0xFFFFFFFFFFFFFFFFFFFFFFFFFFFFFFFF AND LT ISZERO SWAP1 POP PUSH1 0x0 PUSH14 0xFFFFFFFFFFFFFFFFFFFFFFFFFFFF DUP9 PUSH1 0x80 SHR AND PUSH16 0xFFFFFFFFFFFFFFFFFFFFFFFFFFFFFFFF AND SWAP1 POP PUSH1 0x0 DUP6 EQ ISZERO PUSH2 0x21D4 JUMPI PUSH1 0x1 SWAP5 POP PUSH2 0x21E9 JUMP JUMPDEST PUSH15 0x10000000000000000000000000000 DUP2 OR SWAP1 POP JUMPDEST PUSH1 0x0 DUP4 EQ ISZERO PUSH2 0x224B JUMPI PUSH16 0x80000000000000000000000000000000 PUSH1 0x80 SHL PUSH16 0xFFFFFFFFFFFFFFFFFFFFFFFFFFFFFFFF NOT AND DUP9 PUSH16 0xFFFFFFFFFFFFFFFFFFFFFFFFFFFFFFFF NOT AND EQ PUSH2 0x2238 JUMPI DUP8 PUSH2 0x223E JUMP JUMPDEST PUSH1 0x0 PUSH1 0x80 SHL JUMPDEST SWAP7 POP POP POP POP POP POP POP PUSH2 0x265C JUMP JUMPDEST PUSH1 0x0 DUP2 EQ ISZERO PUSH2 0x22AD JUMPI PUSH16 0x80000000000000000000000000000000 PUSH1 0x80 SHL PUSH16 0xFFFFFFFFFFFFFFFFFFFFFFFFFFFFFFFF NOT AND DUP10 PUSH16 0xFFFFFFFFFFFFFFFFFFFFFFFFFFFFFFFF NOT AND EQ PUSH2 0x229A JUMPI DUP9 PUSH2 0x22A0 JUMP JUMPDEST PUSH1 0x0 PUSH1 0x80 SHL JUMPDEST SWAP7 POP POP POP POP POP POP POP PUSH2 0x265C JUMP JUMPDEST PUSH1 0x0 DUP6 DUP8 SUB SWAP1 POP DUP3 ISZERO ISZERO DUP6 ISZERO ISZERO EQ ISZERO PUSH2 0x242B JUMPI PUSH1 0x70 DUP2 SGT ISZERO PUSH2 0x22D8 JUMPI DUP10 SWAP8 POP POP POP POP POP POP POP POP PUSH2 0x265C JUMP JUMPDEST PUSH1 0x0 DUP2 SGT ISZERO PUSH2 0x22EC JUMPI DUP1 DUP3 SWAP1 SHR SWAP2 POP PUSH2 0x233A JUMP JUMPDEST PUSH32 0xFFFFFFFFFFFFFFFFFFFFFFFFFFFFFFFFFFFFFFFFFFFFFFFFFFFFFFFFFFFFFF90 DUP2 SLT ISZERO PUSH2 0x2323 JUMPI DUP9 SWAP8 POP POP POP POP POP POP POP POP PUSH2 0x265C JUMP JUMPDEST PUSH1 0x0 DUP2 SLT ISZERO PUSH2 0x2339 JUMPI DUP1 PUSH1 0x0 SUB DUP5 SWAP1 SHR SWAP4 POP DUP6 SWAP7 POP JUMPDEST JUMPDEST DUP2 DUP5 ADD SWAP4 POP PUSH15 0x20000000000000000000000000000 DUP5 LT PUSH2 0x2363 JUMPI PUSH1 0x1 DUP5 SWAP1 SHR SWAP4 POP PUSH1 0x1 DUP8 ADD SWAP7 POP JUMPDEST PUSH2 0x7FFF DUP8 EQ ISZERO PUSH2 0x23AE JUMPI DUP5 PUSH2 0x238B JUMPI PUSH16 0x7FFF0000000000000000000000000000 PUSH1 0x80 SHL PUSH2 0x23A0 JUMP JUMPDEST PUSH16 0xFFFF0000000000000000000000000000 PUSH1 0x80 SHL JUMPDEST SWAP8 POP POP POP POP POP POP POP POP PUSH2 0x265C JUMP JUMPDEST PUSH15 0x10000000000000000000000000000 DUP5 LT ISZERO PUSH2 0x23CE JUMPI PUSH1 0x0 SWAP7 POP PUSH2 0x23E2 JUMP JUMPDEST PUSH14 0xFFFFFFFFFFFFFFFFFFFFFFFFFFFF DUP5 AND SWAP4 POP JUMPDEST DUP4 PUSH1 0x70 DUP9 SWAP1 SHL DUP7 PUSH2 0x23F4 JUMPI PUSH1 0x0 PUSH2 0x2406 JUMP JUMPDEST PUSH16 0x80000000000000000000000000000000 JUMPDEST PUSH16 0xFFFFFFFFFFFFFFFFFFFFFFFFFFFFFFFF AND OR OR PUSH1 0x80 SHL SWAP8 POP POP POP POP POP POP POP POP PUSH2 0x265C JUMP JUMPDEST PUSH1 0x0 DUP2 SGT ISZERO PUSH2 0x2446 JUMPI PUSH1 0x1 DUP5 SWAP1 SHL SWAP4 POP PUSH1 0x1 DUP8 SUB SWAP7 POP PUSH2 0x245E JUMP JUMPDEST PUSH1 0x0 DUP2 SLT ISZERO PUSH2 0x245D JUMPI PUSH1 0x1 DUP3 SWAP1 SHL SWAP2 POP PUSH1 0x1 DUP7 SUB SWAP7 POP JUMPDEST JUMPDEST PUSH1 0x70 DUP2 SGT ISZERO PUSH2 0x2470 JUMPI PUSH1 0x1 SWAP2 POP PUSH2 0x24FA JUMP JUMPDEST PUSH1 0x1 DUP2 SGT ISZERO PUSH2 0x248C JUMPI PUSH1 0x1 DUP1 DUP3 SUB PUSH1 0x1 DUP5 SUB SWAP1 SHR ADD SWAP2 POP PUSH2 0x24F9 JUMP JUMPDEST PUSH32 0xFFFFFFFFFFFFFFFFFFFFFFFFFFFFFFFFFFFFFFFFFFFFFFFFFFFFFFFFFFFFFF90 DUP2 SLT ISZERO PUSH2 0x24BD JUMPI PUSH1 0x1 SWAP4 POP PUSH2 0x24F8 JUMP JUMPDEST PUSH32 0xFFFFFFFFFFFFFFFFFFFFFFFFFFFFFFFFFFFFFFFFFFFFFFFFFFFFFFFFFFFFFFFF DUP2 SLT ISZERO PUSH2 0x24F7 JUMPI PUSH1 0x1 DUP1 DUP3 PUSH1 0x0 SUB SUB PUSH1 0x1 DUP7 SUB SWAP1 SHR ADD SWAP4 POP JUMPDEST JUMPDEST JUMPDEST JUMPDEST DUP2 DUP5 LT PUSH2 0x250B JUMPI DUP2 DUP5 SUB SWAP4 POP PUSH2 0x2514 JUMP JUMPDEST DUP4 DUP3 SUB SWAP4 POP DUP3 SWAP5 POP JUMPDEST PUSH1 0x0 DUP5 EQ ISZERO PUSH2 0x2530 JUMPI PUSH1 0x0 PUSH1 0x80 SHL SWAP8 POP POP POP POP POP POP POP POP PUSH2 0x265C JUMP JUMPDEST PUSH1 0x0 PUSH2 0x253B DUP6 PUSH2 0x2760 JUMP JUMPDEST SWAP1 POP PUSH1 0x71 DUP2 EQ ISZERO PUSH2 0x2568 JUMPI PUSH14 0xFFFFFFFFFFFFFFFFFFFFFFFFFFFF PUSH1 0x1 DUP7 SWAP1 SHR AND SWAP5 POP PUSH1 0x1 DUP9 ADD SWAP8 POP PUSH2 0x25CA JUMP JUMPDEST PUSH1 0x70 DUP2 LT ISZERO PUSH2 0x25B5 JUMPI PUSH1 0x0 DUP2 PUSH1 0x70 SUB SWAP1 POP DUP1 DUP10 GT ISZERO PUSH2 0x25A1 JUMPI PUSH14 0xFFFFFFFFFFFFFFFFFFFFFFFFFFFF DUP2 DUP8 SWAP1 SHL AND SWAP6 POP DUP1 DUP10 SUB SWAP9 POP PUSH2 0x25AF JUMP JUMPDEST PUSH1 0x1 DUP10 SUB DUP7 SWAP1 SHL SWAP6 POP PUSH1 0x0 SWAP9 POP JUMPDEST POP PUSH2 0x25C9 JUMP JUMPDEST PUSH14 0xFFFFFFFFFFFFFFFFFFFFFFFFFFFF DUP6 AND SWAP5 POP JUMPDEST JUMPDEST PUSH2 0x7FFF DUP9 EQ ISZERO PUSH2 0x2616 JUMPI DUP6 PUSH2 0x25F2 JUMPI PUSH16 0x7FFF0000000000000000000000000000 PUSH1 0x80 SHL PUSH2 0x2607 JUMP JUMPDEST PUSH16 0xFFFF0000000000000000000000000000 PUSH1 0x80 SHL JUMPDEST SWAP9 POP POP POP POP POP POP POP POP POP PUSH2 0x265C JUMP JUMPDEST DUP5 PUSH1 0x70 DUP10 SWAP1 SHL DUP8 PUSH2 0x2628 JUMPI PUSH1 0x0 PUSH2 0x263A JUMP JUMPDEST PUSH16 0x80000000000000000000000000000000 JUMPDEST PUSH16 0xFFFFFFFFFFFFFFFFFFFFFFFFFFFFFFFF AND OR OR PUSH1 0x80 SHL SWAP9 POP POP POP POP POP POP POP POP POP JUMPDEST SWAP3 SWAP2 POP POP JUMP JUMPDEST PUSH1 0x0 DUP1 PUSH2 0x7FFF PUSH1 0x70 DUP5 PUSH1 0x80 SHR PUSH16 0xFFFFFFFFFFFFFFFFFFFFFFFFFFFFFFFF AND SWAP1 SHR AND PUSH16 0xFFFFFFFFFFFFFFFFFFFFFFFFFFFFFFFF AND SWAP1 POP PUSH2 0x3FFF DUP2 LT ISZERO PUSH2 0x26AB JUMPI PUSH1 0x0 SWAP2 POP POP PUSH2 0x275B JUMP JUMPDEST PUSH16 0x80000000000000000000000000000000 DUP4 PUSH1 0x80 SHR PUSH16 0xFFFFFFFFFFFFFFFFFFFFFFFFFFFFFFFF AND LT PUSH2 0x26DC JUMPI PUSH1 0x0 DUP1 REVERT JUMPDEST PUSH2 0x40FE DUP2 GT ISZERO PUSH2 0x26EB JUMPI PUSH1 0x0 DUP1 REVERT JUMPDEST PUSH1 0x0 PUSH15 0x10000000000000000000000000000 PUSH14 0xFFFFFFFFFFFFFFFFFFFFFFFFFFFF DUP6 PUSH1 0x80 SHR PUSH16 0xFFFFFFFFFFFFFFFFFFFFFFFFFFFFFFFF AND AND OR SWAP1 POP PUSH2 0x406F DUP3 LT ISZERO PUSH2 0x273F JUMPI DUP2 PUSH2 0x406F SUB DUP2 SWAP1 SHR SWAP1 POP PUSH2 0x2755 JUMP JUMPDEST PUSH2 0x406F DUP3 GT ISZERO PUSH2 0x2754 JUMPI PUSH2 0x406F DUP3 SUB DUP2 SWAP1 SHL SWAP1 POP JUMPDEST JUMPDEST DUP1 SWAP3 POP POP POP JUMPDEST SWAP2 SWAP1 POP JUMP JUMPDEST PUSH1 0x0 DUP1 DUP3 GT PUSH2 0x276E JUMPI PUSH1 0x0 DUP1 REVERT JUMPDEST PUSH1 0x0 PUSH17 0x100000000000000000000000000000000 DUP4 LT PUSH2 0x2796 JUMPI PUSH1 0x80 DUP4 SWAP1 SHR SWAP3 POP PUSH1 0x80 DUP2 ADD SWAP1 POP JUMPDEST PUSH9 0x10000000000000000 DUP4 LT PUSH2 0x27B4 JUMPI PUSH1 0x40 DUP4 SWAP1 SHR SWAP3 POP PUSH1 0x40 DUP2 ADD SWAP1 POP JUMPDEST PUSH5 0x100000000 DUP4 LT PUSH2 0x27CE JUMPI PUSH1 0x20 DUP4 SWAP1 SHR SWAP3 POP PUSH1 0x20 DUP2 ADD SWAP1 POP JUMPDEST PUSH3 0x10000 DUP4 LT PUSH2 0x27E6 JUMPI PUSH1 0x10 DUP4 SWAP1 SHR SWAP3 POP PUSH1 0x10 DUP2 ADD SWAP1 POP JUMPDEST PUSH2 0x100 DUP4 LT PUSH2 0x27FD JUMPI PUSH1 0x8 DUP4 SWAP1 SHR SWAP3 POP PUSH1 0x8 DUP2 ADD SWAP1 POP JUMPDEST PUSH1 0x10 DUP4 LT PUSH2 0x2813 JUMPI PUSH1 0x4 DUP4 SWAP1 SHR SWAP3 POP PUSH1 0x4 DUP2 ADD SWAP1 POP JUMPDEST PUSH1 0x4 DUP4 LT PUSH2 0x2829 JUMPI PUSH1 0x2 DUP4 SWAP1 SHR SWAP3 POP PUSH1 0x2 DUP2 ADD SWAP1 POP JUMPDEST PUSH1 0x2 DUP4 LT PUSH2 0x2838 JUMPI PUSH1 0x1 DUP2 ADD SWAP1 POP JUMPDEST DUP1 SWAP2 POP POP SWAP2 SWAP1 POP JUMP JUMPDEST PUSH1 0x40 MLOAD DUP1 PUSH2 0x1A0 ADD PUSH1 0x40 MSTORE DUP1 PUSH1 0x0 PUSH20 0xFFFFFFFFFFFFFFFFFFFFFFFFFFFFFFFFFFFFFFFF AND DUP2 MSTORE PUSH1 0x20 ADD PUSH1 0x0 PUSH20 0xFFFFFFFFFFFFFFFFFFFFFFFFFFFFFFFFFFFFFFFF AND DUP2 MSTORE PUSH1 0x20 ADD PUSH1 0x0 DUP2 MSTORE PUSH1 0x20 ADD PUSH1 0x0 DUP2 MSTORE PUSH1 0x20 ADD PUSH1 0x0 DUP2 MSTORE PUSH1 0x20 ADD PUSH1 0x0 DUP2 MSTORE PUSH1 0x20 ADD PUSH1 0x0 DUP2 MSTORE PUSH1 0x20 ADD PUSH1 0x0 DUP2 MSTORE PUSH1 0x20 ADD PUSH1 0x0 DUP2 MSTORE PUSH1 0x20 ADD PUSH1 0x0 ISZERO ISZERO DUP2 MSTORE PUSH1 0x20 ADD PUSH1 0x0 DUP2 MSTORE PUSH1 0x20 ADD PUSH1 0x0 DUP2 MSTORE PUSH1 0x20 ADD PUSH1 0x0 DUP2 MSTORE POP SWAP1 JUMP JUMPDEST PUSH1 0x0 DUP2 SWAP1 POP SWAP2 SWAP1 POP JUMP JUMPDEST PUSH2 0x28EA DUP2 PUSH2 0x28D7 JUMP JUMPDEST DUP3 MSTORE POP POP JUMP JUMPDEST PUSH1 0x0 PUSH1 0x20 DUP3 ADD SWAP1 POP PUSH2 0x2905 PUSH1 0x0 DUP4 ADD DUP5 PUSH2 0x28E1 JUMP JUMPDEST SWAP3 SWAP2 POP POP JUMP JUMPDEST PUSH1 0x0 PUSH20 0xFFFFFFFFFFFFFFFFFFFFFFFFFFFFFFFFFFFFFFFF DUP3 AND SWAP1 POP SWAP2 SWAP1 POP JUMP JUMPDEST PUSH1 0x0 PUSH2 0x2936 DUP3 PUSH2 0x290B JUMP JUMPDEST SWAP1 POP SWAP2 SWAP1 POP JUMP JUMPDEST PUSH2 0x2946 DUP2 PUSH2 0x292B JUMP JUMPDEST DUP3 MSTORE POP POP JUMP JUMPDEST PUSH2 0x2955 DUP2 PUSH2 0x28D7 JUMP JUMPDEST DUP3 MSTORE POP POP JUMP JUMPDEST PUSH1 0x0 DUP2 ISZERO ISZERO SWAP1 POP SWAP2 SWAP1 POP JUMP JUMPDEST PUSH2 0x2970 DUP2 PUSH2 0x295B JUMP JUMPDEST DUP3 MSTORE POP POP JUMP JUMPDEST PUSH2 0x1A0 DUP3 ADD PUSH1 0x0 DUP3 ADD MLOAD PUSH2 0x298D PUSH1 0x0 DUP6 ADD DUP3 PUSH2 0x293D JUMP JUMPDEST POP PUSH1 0x20 DUP3 ADD MLOAD PUSH2 0x29A0 PUSH1 0x20 DUP6 ADD DUP3 PUSH2 0x293D JUMP JUMPDEST POP PUSH1 0x40 DUP3 ADD MLOAD PUSH2 0x29B3 PUSH1 0x40 DUP6 ADD DUP3 PUSH2 0x294C JUMP JUMPDEST POP PUSH1 0x60 DUP3 ADD MLOAD PUSH2 0x29C6 PUSH1 0x60 DUP6 ADD DUP3 PUSH2 0x294C JUMP JUMPDEST POP PUSH1 0x80 DUP3 ADD MLOAD PUSH2 0x29D9 PUSH1 0x80 DUP6 ADD DUP3 PUSH2 0x294C JUMP JUMPDEST POP PUSH1 0xA0 DUP3 ADD MLOAD PUSH2 0x29EC PUSH1 0xA0 DUP6 ADD DUP3 PUSH2 0x294C JUMP JUMPDEST POP PUSH1 0xC0 DUP3 ADD MLOAD PUSH2 0x29FF PUSH1 0xC0 DUP6 ADD DUP3 PUSH2 0x294C JUMP JUMPDEST POP PUSH1 0xE0 DUP3 ADD MLOAD PUSH2 0x2A12 PUSH1 0xE0 DUP6 ADD DUP3 PUSH2 0x294C JUMP JUMPDEST POP PUSH2 0x100 DUP3 ADD MLOAD PUSH2 0x2A27 PUSH2 0x100 DUP6 ADD DUP3 PUSH2 0x294C JUMP JUMPDEST POP PUSH2 0x120 DUP3 ADD MLOAD PUSH2 0x2A3C PUSH2 0x120 DUP6 ADD DUP3 PUSH2 0x2967 JUMP JUMPDEST POP PUSH2 0x140 DUP3 ADD MLOAD PUSH2 0x2A51 PUSH2 0x140 DUP6 ADD DUP3 PUSH2 0x294C JUMP JUMPDEST POP PUSH2 0x160 DUP3 ADD MLOAD PUSH2 0x2A66 PUSH2 0x160 DUP6 ADD DUP3 PUSH2 0x294C JUMP JUMPDEST POP PUSH2 0x180 DUP3 ADD MLOAD PUSH2 0x2A7B PUSH2 0x180 DUP6 ADD DUP3 PUSH2 0x294C JUMP JUMPDEST POP POP POP POP JUMP JUMPDEST PUSH1 0x0 PUSH2 0x1A0 DUP3 ADD SWAP1 POP PUSH2 0x2A97 PUSH1 0x0 DUP4 ADD DUP5 PUSH2 0x2976 JUMP JUMPDEST SWAP3 SWAP2 POP POP JUMP JUMPDEST PUSH1 0x0 DUP1 REVERT JUMPDEST PUSH2 0x2AAB DUP2 PUSH2 0x292B JUMP JUMPDEST DUP2 EQ PUSH2 0x2AB6 JUMPI PUSH1 0x0 DUP1 REVERT JUMPDEST POP JUMP JUMPDEST PUSH1 0x0 DUP2 CALLDATALOAD SWAP1 POP PUSH2 0x2AC8 DUP2 PUSH2 0x2AA2 JUMP JUMPDEST SWAP3 SWAP2 POP POP JUMP JUMPDEST PUSH1 0x0 PUSH1 0x20 DUP3 DUP5 SUB SLT ISZERO PUSH2 0x2AE4 JUMPI PUSH2 0x2AE3 PUSH2 0x2A9D JUMP JUMPDEST JUMPDEST PUSH1 0x0 PUSH2 0x2AF2 DUP5 DUP3 DUP6 ADD PUSH2 0x2AB9 JUMP JUMPDEST SWAP2 POP POP SWAP3 SWAP2 POP POP JUMP JUMPDEST PUSH2 0x2B04 DUP2 PUSH2 0x28D7 JUMP JUMPDEST DUP2 EQ PUSH2 0x2B0F JUMPI PUSH1 0x0 DUP1 REVERT JUMPDEST POP JUMP JUMPDEST PUSH1 0x0 DUP2 CALLDATALOAD SWAP1 POP PUSH2 0x2B21 DUP2 PUSH2 0x2AFB JUMP JUMPDEST SWAP3 SWAP2 POP POP JUMP JUMPDEST PUSH2 0x2B30 DUP2 PUSH2 0x295B JUMP JUMPDEST DUP2 EQ PUSH2 0x2B3B JUMPI PUSH1 0x0 DUP1 REVERT JUMPDEST POP JUMP JUMPDEST PUSH1 0x0 DUP2 CALLDATALOAD SWAP1 POP PUSH2 0x2B4D DUP2 PUSH2 0x2B27 JUMP JUMPDEST SWAP3 SWAP2 POP POP JUMP JUMPDEST PUSH1 0x0 DUP1 PUSH1 0x0 DUP1 PUSH1 0x0 DUP1 PUSH1 0x0 DUP1 PUSH1 0x0 DUP1 PUSH2 0x140 DUP12 DUP14 SUB SLT ISZERO PUSH2 0x2B77 JUMPI PUSH2 0x2B76 PUSH2 0x2A9D JUMP JUMPDEST JUMPDEST PUSH1 0x0 PUSH2 0x2B85 DUP14 DUP3 DUP15 ADD PUSH2 0x2AB9 JUMP JUMPDEST SWAP11 POP POP PUSH1 0x20 PUSH2 0x2B96 DUP14 DUP3 DUP15 ADD PUSH2 0x2B12 JUMP JUMPDEST SWAP10 POP POP PUSH1 0x40 PUSH2 0x2BA7 DUP14 DUP3 DUP15 ADD PUSH2 0x2B12 JUMP JUMPDEST SWAP9 POP POP PUSH1 0x60 PUSH2 0x2BB8 DUP14 DUP3 DUP15 ADD PUSH2 0x2B12 JUMP JUMPDEST SWAP8 POP POP PUSH1 0x80 PUSH2 0x2BC9 DUP14 DUP3 DUP15 ADD PUSH2 0x2B12 JUMP JUMPDEST SWAP7 POP POP PUSH1 0xA0 PUSH2 0x2BDA DUP14 DUP3 DUP15 ADD PUSH2 0x2B12 JUMP JUMPDEST SWAP6 POP POP PUSH1 0xC0 PUSH2 0x2BEB DUP14 DUP3 DUP15 ADD PUSH2 0x2B3E JUMP JUMPDEST SWAP5 POP POP PUSH1 0xE0 PUSH2 0x2BFC DUP14 DUP3 DUP15 ADD PUSH2 0x2B12 JUMP JUMPDEST SWAP4 POP POP PUSH2 0x100 PUSH2 0x2C0E DUP14 DUP3 DUP15 ADD PUSH2 0x2B12 JUMP JUMPDEST SWAP3 POP POP PUSH2 0x120 PUSH2 0x2C20 DUP14 DUP3 DUP15 ADD PUSH2 0x2B12 JUMP JUMPDEST SWAP2 POP POP SWAP3 SWAP6 SWAP9 SWAP12 SWAP2 SWAP5 SWAP8 SWAP11 POP SWAP3 SWAP6 SWAP9 POP JUMP JUMPDEST PUSH1 0x0 DUP3 DUP3 MSTORE PUSH1 0x20 DUP3 ADD SWAP1 POP SWAP3 SWAP2 POP POP JUMP JUMPDEST PUSH32 0x4F6E6C792074686520626F72726F776572206F662074686520636F6E74726163 PUSH1 0x0 DUP3 ADD MSTORE PUSH32 0x742063616E20706572666F726D2074686973206F7065726174696F6E00000000 PUSH1 0x20 DUP3 ADD MSTORE POP JUMP JUMPDEST PUSH1 0x0 PUSH2 0x2C9F PUSH1 0x3C DUP4 PUSH2 0x2C32 JUMP JUMPDEST SWAP2 POP PUSH2 0x2CAA DUP3 PUSH2 0x2C43 JUMP JUMPDEST PUSH1 0x40 DUP3 ADD SWAP1 POP SWAP2 SWAP1 POP JUMP JUMPDEST PUSH1 0x0 PUSH1 0x20 DUP3 ADD SWAP1 POP DUP2 DUP2 SUB PUSH1 0x0 DUP4 ADD MSTORE PUSH2 0x2CCE DUP2 PUSH2 0x2C92 JUMP JUMPDEST SWAP1 POP SWAP2 SWAP1 POP JUMP JUMPDEST PUSH32 0x4E6F20636F6C6C61746572616C206973206E656365737361727920666F722074 PUSH1 0x0 DUP3 ADD MSTORE PUSH32 0x686973206C6F616E000000000000000000000000000000000000000000000000 PUSH1 0x20 DUP3 ADD MSTORE POP JUMP JUMPDEST PUSH1 0x0 PUSH2 0x2D31 PUSH1 0x28 DUP4 PUSH2 0x2C32 JUMP JUMPDEST SWAP2 POP PUSH2 0x2D3C DUP3 PUSH2 0x2CD5 JUMP JUMPDEST PUSH1 0x40 DUP3 ADD SWAP1 POP SWAP2 SWAP1 POP JUMP JUMPDEST PUSH1 0x0 PUSH1 0x20 DUP3 ADD SWAP1 POP DUP2 DUP2 SUB PUSH1 0x0 DUP4 ADD MSTORE PUSH2 0x2D60 DUP2 PUSH2 0x2D24 JUMP JUMPDEST SWAP1 POP SWAP2 SWAP1 POP JUMP JUMPDEST PUSH32 0x4C6F616E206D7573742062652066756E646564206265666F726520636F6C6C61 PUSH1 0x0 DUP3 ADD MSTORE PUSH32 0x746572616C20697320616C6C6F63617465640000000000000000000000000000 PUSH1 0x20 DUP3 ADD MSTORE POP JUMP JUMPDEST PUSH1 0x0 PUSH2 0x2DC3 PUSH1 0x32 DUP4 PUSH2 0x2C32 JUMP JUMPDEST SWAP2 POP PUSH2 0x2DCE DUP3 PUSH2 0x2D67 JUMP JUMPDEST PUSH1 0x40 DUP3 ADD SWAP1 POP SWAP2 SWAP1 POP JUMP JUMPDEST PUSH1 0x0 PUSH1 0x20 DUP3 ADD SWAP1 POP DUP2 DUP2 SUB PUSH1 0x0 DUP4 ADD MSTORE PUSH2 0x2DF2 DUP2 PUSH2 0x2DB6 JUMP JUMPDEST SWAP1 POP SWAP2 SWAP1 POP JUMP JUMPDEST PUSH32 0x436F6C6C61746572616C20616C6C6F6361746564206D75737420626520677265 PUSH1 0x0 DUP3 ADD MSTORE PUSH32 0x61746572207468616E206F7220657175616C20746F2074686520636F6C6C6174 PUSH1 0x20 DUP3 ADD MSTORE PUSH32 0x6572616C20726571756972656D656E74202A20696E697469616C207072696E63 PUSH1 0x40 DUP3 ADD MSTORE PUSH32 0x6970616C206F6620746865206C6F616E00000000000000000000000000000000 PUSH1 0x60 DUP3 ADD MSTORE POP JUMP JUMPDEST PUSH1 0x0 PUSH2 0x2EA1 PUSH1 0x70 DUP4 PUSH2 0x2C32 JUMP JUMPDEST SWAP2 POP PUSH2 0x2EAC DUP3 PUSH2 0x2DF9 JUMP JUMPDEST PUSH1 0x80 DUP3 ADD SWAP1 POP SWAP2 SWAP1 POP JUMP JUMPDEST PUSH1 0x0 PUSH1 0x20 DUP3 ADD SWAP1 POP DUP2 DUP2 SUB PUSH1 0x0 DUP4 ADD MSTORE PUSH2 0x2ED0 DUP2 PUSH2 0x2E94 JUMP JUMPDEST SWAP1 POP SWAP2 SWAP1 POP JUMP JUMPDEST PUSH32 0x4E487B7100000000000000000000000000000000000000000000000000000000 PUSH1 0x0 MSTORE PUSH1 0x11 PUSH1 0x4 MSTORE PUSH1 0x24 PUSH1 0x0 REVERT JUMPDEST PUSH1 0x0 PUSH2 0x2F11 DUP3 PUSH2 0x28D7 JUMP JUMPDEST SWAP2 POP PUSH2 0x2F1C DUP4 PUSH2 0x28D7 JUMP JUMPDEST SWAP3 POP DUP3 PUSH32 0xFFFFFFFFFFFFFFFFFFFFFFFFFFFFFFFFFFFFFFFFFFFFFFFFFFFFFFFFFFFFFFFF SUB DUP3 GT ISZERO PUSH2 0x2F51 JUMPI PUSH2 0x2F50 PUSH2 0x2ED7 JUMP JUMPDEST JUMPDEST DUP3 DUP3 ADD SWAP1 POP SWAP3 SWAP2 POP POP JUMP JUMPDEST PUSH32 0x4F6E6C7920746865206F776E6572206F662074686520636F6E74726163742063 PUSH1 0x0 DUP3 ADD MSTORE PUSH32 0x616E20706572666F726D2074686973206F7065726174696F6E00000000000000 PUSH1 0x20 DUP3 ADD MSTORE POP JUMP JUMPDEST PUSH1 0x0 PUSH2 0x2FB8 PUSH1 0x39 DUP4 PUSH2 0x2C32 JUMP JUMPDEST SWAP2 POP PUSH2 0x2FC3 DUP3 PUSH2 0x2F5C JUMP JUMPDEST PUSH1 0x40 DUP3 ADD SWAP1 POP SWAP2 SWAP1 POP JUMP JUMPDEST PUSH1 0x0 PUSH1 0x20 DUP3 ADD SWAP1 POP DUP2 DUP2 SUB PUSH1 0x0 DUP4 ADD MSTORE PUSH2 0x2FE7 DUP2 PUSH2 0x2FAB JUMP JUMPDEST SWAP1 POP SWAP2 SWAP1 POP JUMP JUMPDEST PUSH32 0x436F6E74726163742062616C616E636520697320302C20746865726520697320 PUSH1 0x0 DUP3 ADD MSTORE PUSH32 0x6E6F7468696E6720617661696C61626C6520746F207769746864726177000000 PUSH1 0x20 DUP3 ADD MSTORE POP JUMP JUMPDEST PUSH1 0x0 PUSH2 0x304A PUSH1 0x3D DUP4 PUSH2 0x2C32 JUMP JUMPDEST SWAP2 POP PUSH2 0x3055 DUP3 PUSH2 0x2FEE JUMP JUMPDEST PUSH1 0x40 DUP3 ADD SWAP1 POP SWAP2 SWAP1 POP JUMP JUMPDEST PUSH1 0x0 PUSH1 0x20 DUP3 ADD SWAP1 POP DUP2 DUP2 SUB PUSH1 0x0 DUP4 ADD MSTORE PUSH2 0x3079 DUP2 PUSH2 0x303D JUMP JUMPDEST SWAP1 POP SWAP2 SWAP1 POP JUMP JUMPDEST PUSH1 0x0 PUSH2 0x308B DUP3 PUSH2 0x28D7 JUMP JUMPDEST SWAP2 POP PUSH2 0x3096 DUP4 PUSH2 0x28D7 JUMP JUMPDEST SWAP3 POP DUP3 DUP3 LT ISZERO PUSH2 0x30A9 JUMPI PUSH2 0x30A8 PUSH2 0x2ED7 JUMP JUMPDEST JUMPDEST DUP3 DUP3 SUB SWAP1 POP SWAP3 SWAP2 POP POP JUMP JUMPDEST PUSH1 0x0 DUP2 SWAP1 POP SWAP3 SWAP2 POP POP JUMP JUMPDEST POP JUMP JUMPDEST PUSH1 0x0 PUSH2 0x30CF PUSH1 0x0 DUP4 PUSH2 0x30B4 JUMP JUMPDEST SWAP2 POP PUSH2 0x30DA DUP3 PUSH2 0x30BF JUMP JUMPDEST PUSH1 0x0 DUP3 ADD SWAP1 POP SWAP2 SWAP1 POP JUMP JUMPDEST PUSH1 0x0 PUSH2 0x30F0 DUP3 PUSH2 0x30C2 JUMP JUMPDEST SWAP2 POP DUP2 SWAP1 POP SWAP2 SWAP1 POP JUMP JUMPDEST PUSH32 0x4661696C656420746F2077697468647261770000000000000000000000000000 PUSH1 0x0 DUP3 ADD MSTORE POP JUMP JUMPDEST PUSH1 0x0 PUSH2 0x3130 PUSH1 0x12 DUP4 PUSH2 0x2C32 JUMP JUMPDEST SWAP2 POP PUSH2 0x313B DUP3 PUSH2 0x30FA JUMP JUMPDEST PUSH1 0x20 DUP3 ADD SWAP1 POP SWAP2 SWAP1 POP JUMP JUMPDEST PUSH1 0x0 PUSH1 0x20 DUP3 ADD SWAP1 POP DUP2 DUP2 SUB PUSH1 0x0 DUP4 ADD MSTORE PUSH2 0x315F DUP2 PUSH2 0x3123 JUMP JUMPDEST SWAP1 POP SWAP2 SWAP1 POP JUMP JUMPDEST PUSH32 0x4120626F72726F776572206D7573742062652061737369676E6564206265666F PUSH1 0x0 DUP3 ADD MSTORE PUSH32 0x72652069737375696E67206C6F616E0000000000000000000000000000000000 PUSH1 0x20 DUP3 ADD MSTORE POP JUMP JUMPDEST PUSH1 0x0 PUSH2 0x31C2 PUSH1 0x2F DUP4 PUSH2 0x2C32 JUMP JUMPDEST SWAP2 POP PUSH2 0x31CD DUP3 PUSH2 0x3166 JUMP JUMPDEST PUSH1 0x40 DUP3 ADD SWAP1 POP SWAP2 SWAP1 POP JUMP JUMPDEST PUSH1 0x0 PUSH1 0x20 DUP3 ADD SWAP1 POP DUP2 DUP2 SUB PUSH1 0x0 DUP4 ADD MSTORE PUSH2 0x31F1 DUP2 PUSH2 0x31B5 JUMP JUMPDEST SWAP1 POP SWAP2 SWAP1 POP JUMP JUMPDEST PUSH32 0x4C6F616E206D7573742062652066756E646564206265666F7265206973737569 PUSH1 0x0 DUP3 ADD MSTORE PUSH32 0x6E67000000000000000000000000000000000000000000000000000000000000 PUSH1 0x20 DUP3 ADD MSTORE POP JUMP JUMPDEST PUSH1 0x0 PUSH2 0x3254 PUSH1 0x22 DUP4 PUSH2 0x2C32 JUMP JUMPDEST SWAP2 POP PUSH2 0x325F DUP3 PUSH2 0x31F8 JUMP JUMPDEST PUSH1 0x40 DUP3 ADD SWAP1 POP SWAP2 SWAP1 POP JUMP JUMPDEST PUSH1 0x0 PUSH1 0x20 DUP3 ADD SWAP1 POP DUP2 DUP2 SUB PUSH1 0x0 DUP4 ADD MSTORE PUSH2 0x3283 DUP2 PUSH2 0x3247 JUMP JUMPDEST SWAP1 POP SWAP2 SWAP1 POP JUMP JUMPDEST PUSH32 0x436F6C6C61746572616C206D75737420626520616C6C6F636174656420626566 PUSH1 0x0 DUP3 ADD MSTORE PUSH32 0x6F72652069737375696E67206C6F616E00000000000000000000000000000000 PUSH1 0x20 DUP3 ADD MSTORE POP JUMP JUMPDEST PUSH1 0x0 PUSH2 0x32E6 PUSH1 0x30 DUP4 PUSH2 0x2C32 JUMP JUMPDEST SWAP2 POP PUSH2 0x32F1 DUP3 PUSH2 0x328A JUMP JUMPDEST PUSH1 0x40 DUP3 ADD SWAP1 POP SWAP2 SWAP1 POP JUMP JUMPDEST PUSH1 0x0 PUSH1 0x20 DUP3 ADD SWAP1 POP DUP2 DUP2 SUB PUSH1 0x0 DUP4 ADD MSTORE PUSH2 0x3315 DUP2 PUSH2 0x32D9 JUMP JUMPDEST SWAP1 POP SWAP2 SWAP1 POP JUMP JUMPDEST PUSH32 0x4661696C656420746F2073656E64207061796D656E7400000000000000000000 PUSH1 0x0 DUP3 ADD MSTORE POP JUMP JUMPDEST PUSH1 0x0 PUSH2 0x3352 PUSH1 0x16 DUP4 PUSH2 0x2C32 JUMP JUMPDEST SWAP2 POP PUSH2 0x335D DUP3 PUSH2 0x331C JUMP JUMPDEST PUSH1 0x20 DUP3 ADD SWAP1 POP SWAP2 SWAP1 POP JUMP JUMPDEST PUSH1 0x0 PUSH1 0x20 DUP3 ADD SWAP1 POP DUP2 DUP2 SUB PUSH1 0x0 DUP4 ADD MSTORE PUSH2 0x3381 DUP2 PUSH2 0x3345 JUMP JUMPDEST SWAP1 POP SWAP2 SWAP1 POP JUMP JUMPDEST PUSH32 0x436F6C6C61746572616C2063616E206F6E6C79206265207365697A6564206F6E PUSH1 0x0 DUP3 ADD MSTORE PUSH32 0x6365206C6F616E20697320696E2064656661756C740000000000000000000000 PUSH1 0x20 DUP3 ADD MSTORE POP JUMP JUMPDEST PUSH1 0x0 PUSH2 0x33E4 PUSH1 0x35 DUP4 PUSH2 0x2C32 JUMP JUMPDEST SWAP2 POP PUSH2 0x33EF DUP3 PUSH2 0x3388 JUMP JUMPDEST PUSH1 0x40 DUP3 ADD SWAP1 POP SWAP2 SWAP1 POP JUMP JUMPDEST PUSH1 0x0 PUSH1 0x20 DUP3 ADD SWAP1 POP DUP2 DUP2 SUB PUSH1 0x0 DUP4 ADD MSTORE PUSH2 0x3413 DUP2 PUSH2 0x33D7 JUMP JUMPDEST SWAP1 POP SWAP2 SWAP1 POP JUMP JUMPDEST PUSH32 0x54686572652069732063757272656E746C79206E6F20636F6C6C61746572616C PUSH1 0x0 DUP3 ADD MSTORE PUSH32 0x20746F207365697A650000000000000000000000000000000000000000000000 PUSH1 0x20 DUP3 ADD MSTORE POP JUMP JUMPDEST PUSH1 0x0 PUSH2 0x3476 PUSH1 0x29 DUP4 PUSH2 0x2C32 JUMP JUMPDEST SWAP2 POP PUSH2 0x3481 DUP3 PUSH2 0x341A JUMP JUMPDEST PUSH1 0x40 DUP3 ADD SWAP1 POP SWAP2 SWAP1 POP JUMP JUMPDEST PUSH1 0x0 PUSH1 0x20 DUP3 ADD SWAP1 POP DUP2 DUP2 SUB PUSH1 0x0 DUP4 ADD MSTORE PUSH2 0x34A5 DUP2 PUSH2 0x3469 JUMP JUMPDEST SWAP1 POP SWAP2 SWAP1 POP JUMP JUMPDEST PUSH32 0x5465726D732063616E6E6F74206265206368616E676564206166746572206C6F PUSH1 0x0 DUP3 ADD MSTORE PUSH32 0x616E20686173206265656E206973737565640000000000000000000000000000 PUSH1 0x20 DUP3 ADD MSTORE POP JUMP JUMPDEST PUSH1 0x0 PUSH2 0x3508 PUSH1 0x32 DUP4 PUSH2 0x2C32 JUMP JUMPDEST SWAP2 POP PUSH2 0x3513 DUP3 PUSH2 0x34AC JUMP JUMPDEST PUSH1 0x40 DUP3 ADD SWAP1 POP SWAP2 SWAP1 POP JUMP JUMPDEST PUSH1 0x0 PUSH1 0x20 DUP3 ADD SWAP1 POP DUP2 DUP2 SUB PUSH1 0x0 DUP4 ADD MSTORE PUSH2 0x3537 DUP2 PUSH2 0x34FB JUMP JUMPDEST SWAP1 POP SWAP2 SWAP1 POP JUMP JUMPDEST PUSH32 0x7465726D206D7573742062652067726561746572207468616E207A65726F0000 PUSH1 0x0 DUP3 ADD MSTORE POP JUMP JUMPDEST PUSH1 0x0 PUSH2 0x3574 PUSH1 0x1E DUP4 PUSH2 0x2C32 JUMP JUMPDEST SWAP2 POP PUSH2 0x357F DUP3 PUSH2 0x353E JUMP JUMPDEST PUSH1 0x20 DUP3 ADD SWAP1 POP SWAP2 SWAP1 POP JUMP JUMPDEST PUSH1 0x0 PUSH1 0x20 DUP3 ADD SWAP1 POP DUP2 DUP2 SUB PUSH1 0x0 DUP4 ADD MSTORE PUSH2 0x35A3 DUP2 PUSH2 0x3567 JUMP JUMPDEST SWAP1 POP SWAP2 SWAP1 POP JUMP JUMPDEST PUSH32 0x5061796D656E74206D75737420626520657175616C20746F20746865206F7574 PUSH1 0x0 DUP3 ADD MSTORE PUSH32 0x7374616E64696E672062616C616E636520287072696E636970616C202B20696E PUSH1 0x20 DUP3 ADD MSTORE PUSH32 0x746572657374202B206665657329000000000000000000000000000000000000 PUSH1 0x40 DUP3 ADD MSTORE POP JUMP JUMPDEST PUSH1 0x0 PUSH2 0x362C PUSH1 0x4E DUP4 PUSH2 0x2C32 JUMP JUMPDEST SWAP2 POP PUSH2 0x3637 DUP3 PUSH2 0x35AA JUMP JUMPDEST PUSH1 0x60 DUP3 ADD SWAP1 POP SWAP2 SWAP1 POP JUMP JUMPDEST PUSH1 0x0 PUSH1 0x20 DUP3 ADD SWAP1 POP DUP2 DUP2 SUB PUSH1 0x0 DUP4 ADD MSTORE PUSH2 0x365B DUP2 PUSH2 0x361F JUMP JUMPDEST SWAP1 POP SWAP2 SWAP1 POP JUMP JUMPDEST PUSH32 0x4E487B7100000000000000000000000000000000000000000000000000000000 PUSH1 0x0 MSTORE PUSH1 0x12 PUSH1 0x4 MSTORE PUSH1 0x24 PUSH1 0x0 REVERT JUMPDEST PUSH32 0x4E487B7100000000000000000000000000000000000000000000000000000000 PUSH1 0x0 MSTORE PUSH1 0x1 PUSH1 0x4 MSTORE PUSH1 0x24 PUSH1 0x0 REVERT JUMPDEST PUSH32 0x43616E6E6F74206672656520636F6C6C61746572616C207768696C65206F7574 PUSH1 0x0 DUP3 ADD MSTORE PUSH32 0x7374616E64696E672062616C616E6365203E2030000000000000000000000000 PUSH1 0x20 DUP3 ADD MSTORE POP JUMP JUMPDEST PUSH1 0x0 PUSH2 0x371C PUSH1 0x34 DUP4 PUSH2 0x2C32 JUMP JUMPDEST SWAP2 POP PUSH2 0x3727 DUP3 PUSH2 0x36C0 JUMP JUMPDEST PUSH1 0x40 DUP3 ADD SWAP1 POP SWAP2 SWAP1 POP JUMP JUMPDEST PUSH1 0x0 PUSH1 0x20 DUP3 ADD SWAP1 POP DUP2 DUP2 SUB PUSH1 0x0 DUP4 ADD MSTORE PUSH2 0x374B DUP2 PUSH2 0x370F JUMP JUMPDEST SWAP1 POP SWAP2 SWAP1 POP JUMP JUMPDEST PUSH32 0x4661696C656420746F20776974686472617720636F6C6C61746572616C000000 PUSH1 0x0 DUP3 ADD MSTORE POP JUMP JUMPDEST PUSH1 0x0 PUSH2 0x3788 PUSH1 0x1D DUP4 PUSH2 0x2C32 JUMP JUMPDEST SWAP2 POP PUSH2 0x3793 DUP3 PUSH2 0x3752 JUMP JUMPDEST PUSH1 0x20 DUP3 ADD SWAP1 POP SWAP2 SWAP1 POP JUMP JUMPDEST PUSH1 0x0 PUSH1 0x20 DUP3 ADD SWAP1 POP DUP2 DUP2 SUB PUSH1 0x0 DUP4 ADD MSTORE PUSH2 0x37B7 DUP2 PUSH2 0x377B JUMP JUMPDEST SWAP1 POP SWAP2 SWAP1 POP JUMP INVALID LOG2 PUSH5 0x6970667358 0x22 SLT KECCAK256 DUP14 LT PUSH14 0xF7BE9FB3AE3402B1F0CABACF592D 0xDF SWAP4 SWAP8 SAR LOG2 GT 0xCF SAR DUP10 SHR ADDMOD PUSH16 0x963CCC64736F6C634300080A00330000 "
		},
		"gasEstimates": {
			"creation": {
				"codeDepositCost": "2864800",
				"executionCost": "infinite",
				"totalCost": "infinite"
			},
			"external": {
				"allocateCollateral()": "infinite",
				"changeLender(address)": "27015",
				"fundLoan()": "24437",
				"getCollateralBalance()": "2460",
				"getContractBalance()": "406",
				"getFees()": "infinite",
				"getOutstandingBalance()": "infinite",
				"getTerms()": "infinite",
				"issueLoan()": "infinite",
				"makePayment()": "infinite",
				"seizeCollateral()": "infinite",
				"setTerms(address,uint256,uint256,uint256,uint256,uint256,bool,uint256,uint256,uint256)": "infinite",
				"withdraw()": "infinite"
			},
			"internal": {
				"freeCollateral()": "infinite"
			}
		},
		"methodIdentifiers": {
			"allocateCollateral()": "0e6f3dd8",
			"changeLender(address)": "57f7d74f",
			"fundLoan()": "8db57994",
			"getCollateralBalance()": "1529a639",
			"getContractBalance()": "6f9fb98a",
			"getFees()": "db8d55f1",
			"getOutstandingBalance()": "28a11702",
			"getTerms()": "4173b417",
			"issueLoan()": "5c0df55b",
			"makePayment()": "d8d79700",
			"seizeCollateral()": "62949963",
			"setTerms(address,uint256,uint256,uint256,uint256,uint256,bool,uint256,uint256,uint256)": "a3af6eb2",
			"withdraw()": "3ccfd60b"
		}
	},
	"abi": [
		{
			"inputs": [],
			"stateMutability": "nonpayable",
			"type": "constructor"
		},
		{
			"inputs": [],
			"name": "allocateCollateral",
			"outputs": [],
			"stateMutability": "payable",
			"type": "function"
		},
		{
			"inputs": [
				{
					"internalType": "address",
					"name": "new_lender",
					"type": "address"
				}
			],
			"name": "changeLender",
			"outputs": [],
			"stateMutability": "nonpayable",
			"type": "function"
		},
		{
			"inputs": [],
			"name": "fundLoan",
			"outputs": [],
			"stateMutability": "payable",
			"type": "function"
		},
		{
			"inputs": [],
			"name": "getCollateralBalance",
			"outputs": [
				{
					"internalType": "uint256",
					"name": "",
					"type": "uint256"
				}
			],
			"stateMutability": "view",
			"type": "function"
		},
		{
			"inputs": [],
			"name": "getContractBalance",
			"outputs": [
				{
					"internalType": "uint256",
					"name": "",
					"type": "uint256"
				}
			],
			"stateMutability": "view",
			"type": "function"
		},
		{
			"inputs": [],
			"name": "getFees",
			"outputs": [
				{
					"internalType": "uint256",
					"name": "",
					"type": "uint256"
				}
			],
			"stateMutability": "view",
			"type": "function"
		},
		{
			"inputs": [],
			"name": "getOutstandingBalance",
			"outputs": [
				{
					"internalType": "uint256",
					"name": "",
					"type": "uint256"
				}
			],
			"stateMutability": "view",
			"type": "function"
		},
		{
			"inputs": [],
			"name": "getTerms",
			"outputs": [
				{
					"components": [
						{
							"internalType": "address",
							"name": "lender",
							"type": "address"
						},
						{
							"internalType": "address",
							"name": "borrower",
							"type": "address"
						},
						{
							"internalType": "uint256",
							"name": "principal",
							"type": "uint256"
						},
						{
							"internalType": "uint256",
							"name": "issuance_time",
							"type": "uint256"
						},
						{
							"internalType": "uint256",
							"name": "term",
							"type": "uint256"
						},
						{
							"internalType": "uint256",
							"name": "apr",
							"type": "uint256"
						},
						{
							"internalType": "uint256",
							"name": "collateral_req",
							"type": "uint256"
						},
						{
							"internalType": "uint256",
							"name": "prepayment_penalty",
							"type": "uint256"
						},
						{
							"internalType": "uint256",
							"name": "prepayment_period",
							"type": "uint256"
						},
						{
							"internalType": "bool",
							"name": "sliding_scale_prepayment_penalty",
							"type": "bool"
						},
						{
							"internalType": "uint256",
							"name": "late_fee",
							"type": "uint256"
						},
						{
							"internalType": "uint256",
							"name": "grace_period",
							"type": "uint256"
						},
						{
							"internalType": "uint256",
							"name": "default_expiry",
							"type": "uint256"
						}
					],
					"internalType": "struct loan.LendingTerms",
					"name": "",
					"type": "tuple"
				}
			],
			"stateMutability": "view",
			"type": "function"
		},
		{
			"inputs": [],
			"name": "issueLoan",
			"outputs": [],
			"stateMutability": "payable",
			"type": "function"
		},
		{
			"inputs": [],
			"name": "makePayment",
			"outputs": [],
			"stateMutability": "payable",
			"type": "function"
		},
		{
			"inputs": [],
			"name": "seizeCollateral",
			"outputs": [],
			"stateMutability": "payable",
			"type": "function"
		},
		{
			"inputs": [
				{
					"internalType": "address",
					"name": "borrower",
					"type": "address"
				},
				{
					"internalType": "uint256",
					"name": "term",
					"type": "uint256"
				},
				{
					"internalType": "uint256",
					"name": "apr",
					"type": "uint256"
				},
				{
					"internalType": "uint256",
					"name": "collateral_req",
					"type": "uint256"
				},
				{
					"internalType": "uint256",
					"name": "prepayment_penalty",
					"type": "uint256"
				},
				{
					"internalType": "uint256",
					"name": "prepayment_period",
					"type": "uint256"
				},
				{
					"internalType": "bool",
					"name": "sliding_scale_prepayment_penalty",
					"type": "bool"
				},
				{
					"internalType": "uint256",
					"name": "late_fee",
					"type": "uint256"
				},
				{
					"internalType": "uint256",
					"name": "grace_period",
					"type": "uint256"
				},
				{
					"internalType": "uint256",
					"name": "default_expiry",
					"type": "uint256"
				}
			],
			"name": "setTerms",
			"outputs": [],
			"stateMutability": "nonpayable",
			"type": "function"
		},
		{
			"inputs": [],
			"name": "withdraw",
			"outputs": [],
			"stateMutability": "payable",
			"type": "function"
		}
	]
}