{
	"data": {
		"bytecode": {
			"linkReferences": {},
			"object": "608060405234801561001057600080fd5b5033600260000160006101000a81548173ffffffffffffffffffffffffffffffffffffffff021916908373ffffffffffffffffffffffffffffffffffffffff160217905550611bdb806100646000396000f3fe60806040526004361061009c5760003560e01c80634173b417116100645780634173b417146101345780635c0df55b1461015f5780636f9fb98a1461016957806389f89fb6146101945780638db57994146101bf578063d8d79700146101c95761009c565b8063035788be146100a15780630e6f3dd8146100ca5780631529a639146100d457806328a11702146100ff5780633ccfd60b1461012a575b600080fd5b3480156100ad57600080fd5b506100c860048036038101906100c3919061103e565b6101d3565b005b6100d261035b565b005b3480156100e057600080fd5b506100e96104e5565b6040516100f69190611117565b60405180910390f35b34801561010b57600080fd5b506101146104f1565b6040516101219190611117565b60405180910390f35b6101326104fd565b005b34801561014057600080fd5b5061014961067c565b6040516101569190611255565b60405180910390f35b6101676107b8565b005b34801561017557600080fd5b5061017e610a71565b60405161018b9190611117565b60405180910390f35b3480156101a057600080fd5b506101a9610a79565b6040516101b69190611117565b60405180910390f35b6101c7610b0f565b005b6101d1610bad565b005b600260000160009054906101000a900473ffffffffffffffffffffffffffffffffffffffff1673ffffffffffffffffffffffffffffffffffffffff163373ffffffffffffffffffffffffffffffffffffffff1614610266576040517f08c379a000000000000000000000000000000000000000000000000000000000815260040161025d906112f4565b60405180910390fd5b600088116102a9576040517f08c379a00000000000000000000000000000000000000000000000000000000081526004016102a090611360565b60405180910390fd5b88600260010160006101000a81548173ffffffffffffffffffffffffffffffffffffffff021916908373ffffffffffffffffffffffffffffffffffffffff160217905550876002600401819055508660026005018190555085600260060181905550846002600701819055508360026008018190555082600260090160006101000a81548160ff021916908315150217905550816002600a0181905550806002600b0181905550505050505050505050565b600260010160009054906101000a900473ffffffffffffffffffffffffffffffffffffffff1673ffffffffffffffffffffffffffffffffffffffff163373ffffffffffffffffffffffffffffffffffffffff16146103ee576040517f08c379a00000000000000000000000000000000000000000000000000000000081526004016103e5906113f2565b60405180910390fd5b60006002600601541415610437576040517f08c379a000000000000000000000000000000000000000000000000000000000815260040161042e90611484565b60405180910390fd5b60006002800154111561047f576040517f08c379a000000000000000000000000000000000000000000000000000000000815260040161047690611516565b60405180910390fd5b60028001546002600601546104949190611565565b34106104a8573460008001819055506104e3565b6040517f08c379a00000000000000000000000000000000000000000000000000000000081526004016104da9061167d565b60405180910390fd5b565b60008060000154905090565b60008060010154905090565b600260000160009054906101000a900473ffffffffffffffffffffffffffffffffffffffff1673ffffffffffffffffffffffffffffffffffffffff163373ffffffffffffffffffffffffffffffffffffffff1614610590576040517f08c379a0000000000000000000000000000000000000000000000000000000008152600401610587906112f4565b60405180910390fd5b60008060000154476105a2919061169d565b9050600080600260010160009054906101000a900473ffffffffffffffffffffffffffffffffffffffff1673ffffffffffffffffffffffffffffffffffffffff16836040516105f090611702565b60006040518083038185875af1925050503d806000811461062d576040519150601f19603f3d011682016040523d82523d6000602084013e610632565b606091505b509150915081610677576040517f08c379a000000000000000000000000000000000000000000000000000000000815260040161066e90611763565b60405180910390fd5b505050565b610684610ede565b6002604051806101800160405290816000820160009054906101000a900473ffffffffffffffffffffffffffffffffffffffff1673ffffffffffffffffffffffffffffffffffffffff1673ffffffffffffffffffffffffffffffffffffffff1681526020016001820160009054906101000a900473ffffffffffffffffffffffffffffffffffffffff1673ffffffffffffffffffffffffffffffffffffffff1673ffffffffffffffffffffffffffffffffffffffff168152602001600282015481526020016003820154815260200160048201548152602001600582015481526020016006820154815260200160078201548152602001600882015481526020016009820160009054906101000a900460ff16151515158152602001600a8201548152602001600b82015481525050905090565b600260000160009054906101000a900473ffffffffffffffffffffffffffffffffffffffff1673ffffffffffffffffffffffffffffffffffffffff163373ffffffffffffffffffffffffffffffffffffffff161461084b576040517f08c379a0000000000000000000000000000000000000000000000000000000008152600401610842906112f4565b60405180910390fd5b600073ffffffffffffffffffffffffffffffffffffffff16600260010160009054906101000a900473ffffffffffffffffffffffffffffffffffffffff1673ffffffffffffffffffffffffffffffffffffffff1614156108e0576040517f08c379a00000000000000000000000000000000000000000000000000000000081526004016108d7906117f5565b60405180910390fd5b600060028001541415610928576040517f08c379a000000000000000000000000000000000000000000000000000000000815260040161091f90611887565b60405180910390fd5b6000600260060154111561097e57600080600001541161097d576040517f08c379a000000000000000000000000000000000000000000000000000000000815260040161097490611919565b60405180910390fd5b5b600080600260010160009054906101000a900473ffffffffffffffffffffffffffffffffffffffff1673ffffffffffffffffffffffffffffffffffffffff1660028001546040516109ce90611702565b60006040518083038185875af1925050503d8060008114610a0b576040519150601f19603f3d011682016040523d82523d6000602084013e610a10565b606091505b509150915081610a55576040517f08c379a0000000000000000000000000000000000000000000000000000000008152600401610a4c90611763565b60405180910390fd5b4260026003018190555060028001546000600101819055505050565b600047905090565b6000806002600301541415610ac3576040517f08c379a0000000000000000000000000000000000000000000000000000000008152600401610aba906119ab565b60405180910390fd5b600060026007015460026008015442600260080154600260030154610ae891906119cb565b610af2919061169d565b610afc9190611a50565b610b069190611565565b90508091505090565b600260000160009054906101000a900473ffffffffffffffffffffffffffffffffffffffff1673ffffffffffffffffffffffffffffffffffffffff163373ffffffffffffffffffffffffffffffffffffffff1614610ba2576040517f08c379a0000000000000000000000000000000000000000000000000000000008152600401610b99906112f4565b60405180910390fd5b346002800181905550565b600260010160009054906101000a900473ffffffffffffffffffffffffffffffffffffffff1673ffffffffffffffffffffffffffffffffffffffff163373ffffffffffffffffffffffffffffffffffffffff1614610c40576040517f08c379a0000000000000000000000000000000000000000000000000000000008152600401610c37906113f2565b60405180910390fd5b60004290506000349050610c548282610c58565b5050565b6000806301da9c009050600280015460026003015442610c78919061169d565b82600260050154610c899190611a50565b610c939190611565565b610c9d9190611565565b60006001016000828254610cb191906119cb565b92505081905550600260040154600260030154610cce91906119cb565b841115610d2f5760001515600e60009054906101000a900460ff1615151415610d2e576002600a015460006001016000828254610d0b91906119cb565b925050819055506001600e60006101000a81548160ff0219169083151502179055505b5b60006002600701541115610ebc5783600260080154600260030154610d5491906119cb565b1015610da757600060010154831115610da2576040517f08c379a0000000000000000000000000000000000000000000000000000000008152600401610d9990611af3565b60405180910390fd5b610ebb565b83600260080154600260030154610dbe91906119cb565b1115610eba5760011515600260090160009054906101000a900460ff1615151415610e36573460026007015460026008015486600260080154600260030154610e0791906119cb565b610e11919061169d565b610e1b9190611a50565b610e259190611565565b610e2f9190611565565b9150610e4a565b82600260070154610e479190611565565b91505b81600060010154610e5b91906119cb565b831115610e9d576040517f08c379a0000000000000000000000000000000000000000000000000000000008152600401610e9490611b85565b60405180910390fd5b8160006001016000828254610eb291906119cb565b925050819055505b5b5b8260006001016000828254610ed1919061169d565b9250508190555050505050565b604051806101800160405280600073ffffffffffffffffffffffffffffffffffffffff168152602001600073ffffffffffffffffffffffffffffffffffffffff1681526020016000815260200160008152602001600081526020016000815260200160008152602001600081526020016000815260200160001515815260200160008152602001600081525090565b600080fd5b600073ffffffffffffffffffffffffffffffffffffffff82169050919050565b6000610f9d82610f72565b9050919050565b610fad81610f92565b8114610fb857600080fd5b50565b600081359050610fca81610fa4565b92915050565b6000819050919050565b610fe381610fd0565b8114610fee57600080fd5b50565b60008135905061100081610fda565b92915050565b60008115159050919050565b61101b81611006565b811461102657600080fd5b50565b60008135905061103881611012565b92915050565b60008060008060008060008060006101208a8c03121561106157611060610f6d565b5b600061106f8c828d01610fbb565b99505060206110808c828d01610ff1565b98505060406110918c828d01610ff1565b97505060606110a28c828d01610ff1565b96505060806110b38c828d01610ff1565b95505060a06110c48c828d01610ff1565b94505060c06110d58c828d01611029565b93505060e06110e68c828d01610ff1565b9250506101006110f88c828d01610ff1565b9150509295985092959850929598565b61111181610fd0565b82525050565b600060208201905061112c6000830184611108565b92915050565b61113b81610f92565b82525050565b61114a81610fd0565b82525050565b61115981611006565b82525050565b610180820160008201516111766000850182611132565b5060208201516111896020850182611132565b50604082015161119c6040850182611141565b5060608201516111af6060850182611141565b5060808201516111c26080850182611141565b5060a08201516111d560a0850182611141565b5060c08201516111e860c0850182611141565b5060e08201516111fb60e0850182611141565b50610100820151611210610100850182611141565b50610120820151611225610120850182611150565b5061014082015161123a610140850182611141565b5061016082015161124f610160850182611141565b50505050565b60006101808201905061126b600083018461115f565b92915050565b600082825260208201905092915050565b7f4f6e6c7920746865206f776e6572206f662074686520636f6e7472616374206360008201527f616e20706572666f726d2074686973206f7065726174696f6e00000000000000602082015250565b60006112de603983611271565b91506112e982611282565b604082019050919050565b6000602082019050818103600083015261130d816112d1565b9050919050565b7f7465726d206d757374206265206e6f6e2d7a65726f0000000000000000000000600082015250565b600061134a601583611271565b915061135582611314565b602082019050919050565b600060208201905081810360008301526113798161133d565b9050919050565b7f4f6e6c792074686520626f72726f776572206f662074686520636f6e7472616360008201527f742063616e20706572666f726d2074686973206f7065726174696f6e00000000602082015250565b60006113dc603c83611271565b91506113e782611380565b604082019050919050565b6000602082019050818103600083015261140b816113cf565b9050919050565b7f4e6f20636f6c6c61746572616c206973206e656365737361727920666f72207460008201527f686973206c6f616e000000000000000000000000000000000000000000000000602082015250565b600061146e602883611271565b915061147982611412565b604082019050919050565b6000602082019050818103600083015261149d81611461565b9050919050565b7f4c6f616e206d7573742062652066756e646564206265666f726520636f6c6c6160008201527f746572616c20697320616c6c6f63617465640000000000000000000000000000602082015250565b6000611500603283611271565b915061150b826114a4565b604082019050919050565b6000602082019050818103600083015261152f816114f3565b9050919050565b7f4e487b7100000000000000000000000000000000000000000000000000000000600052601160045260246000fd5b600061157082610fd0565b915061157b83610fd0565b9250817fffffffffffffffffffffffffffffffffffffffffffffffffffffffffffffffff04831182151516156115b4576115b3611536565b5b828202905092915050565b7f436f6c6c61746572616c20616c6c6f6361746564206d7573742062652067726560008201527f61746572207468616e206f7220657175616c20746f2074686520636f6c6c617460208201527f6572616c20726571756972656d656e74202a20696e697469616c207072696e6360408201527f6970616c206f6620746865206c6f616e00000000000000000000000000000000606082015250565b6000611667607083611271565b9150611672826115bf565b608082019050919050565b600060208201905081810360008301526116968161165a565b9050919050565b60006116a882610fd0565b91506116b383610fd0565b9250828210156116c6576116c5611536565b5b828203905092915050565b600081905092915050565b50565b60006116ec6000836116d1565b91506116f7826116dc565b600082019050919050565b600061170d826116df565b9150819050919050565b7f4661696c656420746f2073656e64207061796d656e7400000000000000000000600082015250565b600061174d601683611271565b915061175882611717565b602082019050919050565b6000602082019050818103600083015261177c81611740565b9050919050565b7f4120626f72726f776572206d7573742062652061737369676e6564206265666f60008201527f72652069737375696e67206c6f616e0000000000000000000000000000000000602082015250565b60006117df602f83611271565b91506117ea82611783565b604082019050919050565b6000602082019050818103600083015261180e816117d2565b9050919050565b7f4c6f616e206d7573742062652066756e646564206265666f726520697373756960008201527f6e67000000000000000000000000000000000000000000000000000000000000602082015250565b6000611871602283611271565b915061187c82611815565b604082019050919050565b600060208201905081810360008301526118a081611864565b9050919050565b7f436f6c6c61746572616c206d75737420626520616c6c6f63617465642062656660008201527f6f72652069737375696e67206c6f616e00000000000000000000000000000000602082015250565b6000611903603083611271565b915061190e826118a7565b604082019050919050565b60006020820190508181036000830152611932816118f6565b9050919050565b7f6c6f616e206d75737420626520697373756564206265666f72652063616c6c6960008201527f6e672074686973206d6574686f64000000000000000000000000000000000000602082015250565b6000611995602e83611271565b91506119a082611939565b604082019050919050565b600060208201905081810360008301526119c481611988565b9050919050565b60006119d682610fd0565b91506119e183610fd0565b9250827fffffffffffffffffffffffffffffffffffffffffffffffffffffffffffffffff03821115611a1657611a15611536565b5b828201905092915050565b7f4e487b7100000000000000000000000000000000000000000000000000000000600052601260045260246000fd5b6000611a5b82610fd0565b9150611a6683610fd0565b925082611a7657611a75611a21565b5b828204905092915050565b7f7061796d656e74206973206c6172676572207468616e206f75747374616e646960008201527f6e672062616c616e636500000000000000000000000000000000000000000000602082015250565b6000611add602a83611271565b9150611ae882611a81565b604082019050919050565b60006020820190508181036000830152611b0c81611ad0565b9050919050565b7f7061796d656e74206973206c6172676572207468616e206f75747374616e646960008201527f6e672062616c616e6365202b20746865207072657061796d656e742066656500602082015250565b6000611b6f603f83611271565b9150611b7a82611b13565b604082019050919050565b60006020820190508181036000830152611b9e81611b62565b905091905056fea264697066735822122011b1d402057a234a4511061820151670448bfb1d629f989d23f6a0754d6c969e64736f6c634300080a0033",
			"opcodes": "PUSH1 0x80 PUSH1 0x40 MSTORE CALLVALUE DUP1 ISZERO PUSH2 0x10 JUMPI PUSH1 0x0 DUP1 REVERT JUMPDEST POP CALLER PUSH1 0x2 PUSH1 0x0 ADD PUSH1 0x0 PUSH2 0x100 EXP DUP2 SLOAD DUP2 PUSH20 0xFFFFFFFFFFFFFFFFFFFFFFFFFFFFFFFFFFFFFFFF MUL NOT AND SWAP1 DUP4 PUSH20 0xFFFFFFFFFFFFFFFFFFFFFFFFFFFFFFFFFFFFFFFF AND MUL OR SWAP1 SSTORE POP PUSH2 0x1BDB DUP1 PUSH2 0x64 PUSH1 0x0 CODECOPY PUSH1 0x0 RETURN INVALID PUSH1 0x80 PUSH1 0x40 MSTORE PUSH1 0x4 CALLDATASIZE LT PUSH2 0x9C JUMPI PUSH1 0x0 CALLDATALOAD PUSH1 0xE0 SHR DUP1 PUSH4 0x4173B417 GT PUSH2 0x64 JUMPI DUP1 PUSH4 0x4173B417 EQ PUSH2 0x134 JUMPI DUP1 PUSH4 0x5C0DF55B EQ PUSH2 0x15F JUMPI DUP1 PUSH4 0x6F9FB98A EQ PUSH2 0x169 JUMPI DUP1 PUSH4 0x89F89FB6 EQ PUSH2 0x194 JUMPI DUP1 PUSH4 0x8DB57994 EQ PUSH2 0x1BF JUMPI DUP1 PUSH4 0xD8D79700 EQ PUSH2 0x1C9 JUMPI PUSH2 0x9C JUMP JUMPDEST DUP1 PUSH4 0x35788BE EQ PUSH2 0xA1 JUMPI DUP1 PUSH4 0xE6F3DD8 EQ PUSH2 0xCA JUMPI DUP1 PUSH4 0x1529A639 EQ PUSH2 0xD4 JUMPI DUP1 PUSH4 0x28A11702 EQ PUSH2 0xFF JUMPI DUP1 PUSH4 0x3CCFD60B EQ PUSH2 0x12A JUMPI JUMPDEST PUSH1 0x0 DUP1 REVERT JUMPDEST CALLVALUE DUP1 ISZERO PUSH2 0xAD JUMPI PUSH1 0x0 DUP1 REVERT JUMPDEST POP PUSH2 0xC8 PUSH1 0x4 DUP1 CALLDATASIZE SUB DUP2 ADD SWAP1 PUSH2 0xC3 SWAP2 SWAP1 PUSH2 0x103E JUMP JUMPDEST PUSH2 0x1D3 JUMP JUMPDEST STOP JUMPDEST PUSH2 0xD2 PUSH2 0x35B JUMP JUMPDEST STOP JUMPDEST CALLVALUE DUP1 ISZERO PUSH2 0xE0 JUMPI PUSH1 0x0 DUP1 REVERT JUMPDEST POP PUSH2 0xE9 PUSH2 0x4E5 JUMP JUMPDEST PUSH1 0x40 MLOAD PUSH2 0xF6 SWAP2 SWAP1 PUSH2 0x1117 JUMP JUMPDEST PUSH1 0x40 MLOAD DUP1 SWAP2 SUB SWAP1 RETURN JUMPDEST CALLVALUE DUP1 ISZERO PUSH2 0x10B JUMPI PUSH1 0x0 DUP1 REVERT JUMPDEST POP PUSH2 0x114 PUSH2 0x4F1 JUMP JUMPDEST PUSH1 0x40 MLOAD PUSH2 0x121 SWAP2 SWAP1 PUSH2 0x1117 JUMP JUMPDEST PUSH1 0x40 MLOAD DUP1 SWAP2 SUB SWAP1 RETURN JUMPDEST PUSH2 0x132 PUSH2 0x4FD JUMP JUMPDEST STOP JUMPDEST CALLVALUE DUP1 ISZERO PUSH2 0x140 JUMPI PUSH1 0x0 DUP1 REVERT JUMPDEST POP PUSH2 0x149 PUSH2 0x67C JUMP JUMPDEST PUSH1 0x40 MLOAD PUSH2 0x156 SWAP2 SWAP1 PUSH2 0x1255 JUMP JUMPDEST PUSH1 0x40 MLOAD DUP1 SWAP2 SUB SWAP1 RETURN JUMPDEST PUSH2 0x167 PUSH2 0x7B8 JUMP JUMPDEST STOP JUMPDEST CALLVALUE DUP1 ISZERO PUSH2 0x175 JUMPI PUSH1 0x0 DUP1 REVERT JUMPDEST POP PUSH2 0x17E PUSH2 0xA71 JUMP JUMPDEST PUSH1 0x40 MLOAD PUSH2 0x18B SWAP2 SWAP1 PUSH2 0x1117 JUMP JUMPDEST PUSH1 0x40 MLOAD DUP1 SWAP2 SUB SWAP1 RETURN JUMPDEST CALLVALUE DUP1 ISZERO PUSH2 0x1A0 JUMPI PUSH1 0x0 DUP1 REVERT JUMPDEST POP PUSH2 0x1A9 PUSH2 0xA79 JUMP JUMPDEST PUSH1 0x40 MLOAD PUSH2 0x1B6 SWAP2 SWAP1 PUSH2 0x1117 JUMP JUMPDEST PUSH1 0x40 MLOAD DUP1 SWAP2 SUB SWAP1 RETURN JUMPDEST PUSH2 0x1C7 PUSH2 0xB0F JUMP JUMPDEST STOP JUMPDEST PUSH2 0x1D1 PUSH2 0xBAD JUMP JUMPDEST STOP JUMPDEST PUSH1 0x2 PUSH1 0x0 ADD PUSH1 0x0 SWAP1 SLOAD SWAP1 PUSH2 0x100 EXP SWAP1 DIV PUSH20 0xFFFFFFFFFFFFFFFFFFFFFFFFFFFFFFFFFFFFFFFF AND PUSH20 0xFFFFFFFFFFFFFFFFFFFFFFFFFFFFFFFFFFFFFFFF AND CALLER PUSH20 0xFFFFFFFFFFFFFFFFFFFFFFFFFFFFFFFFFFFFFFFF AND EQ PUSH2 0x266 JUMPI PUSH1 0x40 MLOAD PUSH32 0x8C379A000000000000000000000000000000000000000000000000000000000 DUP2 MSTORE PUSH1 0x4 ADD PUSH2 0x25D SWAP1 PUSH2 0x12F4 JUMP JUMPDEST PUSH1 0x40 MLOAD DUP1 SWAP2 SUB SWAP1 REVERT JUMPDEST PUSH1 0x0 DUP9 GT PUSH2 0x2A9 JUMPI PUSH1 0x40 MLOAD PUSH32 0x8C379A000000000000000000000000000000000000000000000000000000000 DUP2 MSTORE PUSH1 0x4 ADD PUSH2 0x2A0 SWAP1 PUSH2 0x1360 JUMP JUMPDEST PUSH1 0x40 MLOAD DUP1 SWAP2 SUB SWAP1 REVERT JUMPDEST DUP9 PUSH1 0x2 PUSH1 0x1 ADD PUSH1 0x0 PUSH2 0x100 EXP DUP2 SLOAD DUP2 PUSH20 0xFFFFFFFFFFFFFFFFFFFFFFFFFFFFFFFFFFFFFFFF MUL NOT AND SWAP1 DUP4 PUSH20 0xFFFFFFFFFFFFFFFFFFFFFFFFFFFFFFFFFFFFFFFF AND MUL OR SWAP1 SSTORE POP DUP8 PUSH1 0x2 PUSH1 0x4 ADD DUP2 SWAP1 SSTORE POP DUP7 PUSH1 0x2 PUSH1 0x5 ADD DUP2 SWAP1 SSTORE POP DUP6 PUSH1 0x2 PUSH1 0x6 ADD DUP2 SWAP1 SSTORE POP DUP5 PUSH1 0x2 PUSH1 0x7 ADD DUP2 SWAP1 SSTORE POP DUP4 PUSH1 0x2 PUSH1 0x8 ADD DUP2 SWAP1 SSTORE POP DUP3 PUSH1 0x2 PUSH1 0x9 ADD PUSH1 0x0 PUSH2 0x100 EXP DUP2 SLOAD DUP2 PUSH1 0xFF MUL NOT AND SWAP1 DUP4 ISZERO ISZERO MUL OR SWAP1 SSTORE POP DUP2 PUSH1 0x2 PUSH1 0xA ADD DUP2 SWAP1 SSTORE POP DUP1 PUSH1 0x2 PUSH1 0xB ADD DUP2 SWAP1 SSTORE POP POP POP POP POP POP POP POP POP POP JUMP JUMPDEST PUSH1 0x2 PUSH1 0x1 ADD PUSH1 0x0 SWAP1 SLOAD SWAP1 PUSH2 0x100 EXP SWAP1 DIV PUSH20 0xFFFFFFFFFFFFFFFFFFFFFFFFFFFFFFFFFFFFFFFF AND PUSH20 0xFFFFFFFFFFFFFFFFFFFFFFFFFFFFFFFFFFFFFFFF AND CALLER PUSH20 0xFFFFFFFFFFFFFFFFFFFFFFFFFFFFFFFFFFFFFFFF AND EQ PUSH2 0x3EE JUMPI PUSH1 0x40 MLOAD PUSH32 0x8C379A000000000000000000000000000000000000000000000000000000000 DUP2 MSTORE PUSH1 0x4 ADD PUSH2 0x3E5 SWAP1 PUSH2 0x13F2 JUMP JUMPDEST PUSH1 0x40 MLOAD DUP1 SWAP2 SUB SWAP1 REVERT JUMPDEST PUSH1 0x0 PUSH1 0x2 PUSH1 0x6 ADD SLOAD EQ ISZERO PUSH2 0x437 JUMPI PUSH1 0x40 MLOAD PUSH32 0x8C379A000000000000000000000000000000000000000000000000000000000 DUP2 MSTORE PUSH1 0x4 ADD PUSH2 0x42E SWAP1 PUSH2 0x1484 JUMP JUMPDEST PUSH1 0x40 MLOAD DUP1 SWAP2 SUB SWAP1 REVERT JUMPDEST PUSH1 0x0 PUSH1 0x2 DUP1 ADD SLOAD GT ISZERO PUSH2 0x47F JUMPI PUSH1 0x40 MLOAD PUSH32 0x8C379A000000000000000000000000000000000000000000000000000000000 DUP2 MSTORE PUSH1 0x4 ADD PUSH2 0x476 SWAP1 PUSH2 0x1516 JUMP JUMPDEST PUSH1 0x40 MLOAD DUP1 SWAP2 SUB SWAP1 REVERT JUMPDEST PUSH1 0x2 DUP1 ADD SLOAD PUSH1 0x2 PUSH1 0x6 ADD SLOAD PUSH2 0x494 SWAP2 SWAP1 PUSH2 0x1565 JUMP JUMPDEST CALLVALUE LT PUSH2 0x4A8 JUMPI CALLVALUE PUSH1 0x0 DUP1 ADD DUP2 SWAP1 SSTORE POP PUSH2 0x4E3 JUMP JUMPDEST PUSH1 0x40 MLOAD PUSH32 0x8C379A000000000000000000000000000000000000000000000000000000000 DUP2 MSTORE PUSH1 0x4 ADD PUSH2 0x4DA SWAP1 PUSH2 0x167D JUMP JUMPDEST PUSH1 0x40 MLOAD DUP1 SWAP2 SUB SWAP1 REVERT JUMPDEST JUMP JUMPDEST PUSH1 0x0 DUP1 PUSH1 0x0 ADD SLOAD SWAP1 POP SWAP1 JUMP JUMPDEST PUSH1 0x0 DUP1 PUSH1 0x1 ADD SLOAD SWAP1 POP SWAP1 JUMP JUMPDEST PUSH1 0x2 PUSH1 0x0 ADD PUSH1 0x0 SWAP1 SLOAD SWAP1 PUSH2 0x100 EXP SWAP1 DIV PUSH20 0xFFFFFFFFFFFFFFFFFFFFFFFFFFFFFFFFFFFFFFFF AND PUSH20 0xFFFFFFFFFFFFFFFFFFFFFFFFFFFFFFFFFFFFFFFF AND CALLER PUSH20 0xFFFFFFFFFFFFFFFFFFFFFFFFFFFFFFFFFFFFFFFF AND EQ PUSH2 0x590 JUMPI PUSH1 0x40 MLOAD PUSH32 0x8C379A000000000000000000000000000000000000000000000000000000000 DUP2 MSTORE PUSH1 0x4 ADD PUSH2 0x587 SWAP1 PUSH2 0x12F4 JUMP JUMPDEST PUSH1 0x40 MLOAD DUP1 SWAP2 SUB SWAP1 REVERT JUMPDEST PUSH1 0x0 DUP1 PUSH1 0x0 ADD SLOAD SELFBALANCE PUSH2 0x5A2 SWAP2 SWAP1 PUSH2 0x169D JUMP JUMPDEST SWAP1 POP PUSH1 0x0 DUP1 PUSH1 0x2 PUSH1 0x1 ADD PUSH1 0x0 SWAP1 SLOAD SWAP1 PUSH2 0x100 EXP SWAP1 DIV PUSH20 0xFFFFFFFFFFFFFFFFFFFFFFFFFFFFFFFFFFFFFFFF AND PUSH20 0xFFFFFFFFFFFFFFFFFFFFFFFFFFFFFFFFFFFFFFFF AND DUP4 PUSH1 0x40 MLOAD PUSH2 0x5F0 SWAP1 PUSH2 0x1702 JUMP JUMPDEST PUSH1 0x0 PUSH1 0x40 MLOAD DUP1 DUP4 SUB DUP2 DUP6 DUP8 GAS CALL SWAP3 POP POP POP RETURNDATASIZE DUP1 PUSH1 0x0 DUP2 EQ PUSH2 0x62D JUMPI PUSH1 0x40 MLOAD SWAP2 POP PUSH1 0x1F NOT PUSH1 0x3F RETURNDATASIZE ADD AND DUP3 ADD PUSH1 0x40 MSTORE RETURNDATASIZE DUP3 MSTORE RETURNDATASIZE PUSH1 0x0 PUSH1 0x20 DUP5 ADD RETURNDATACOPY PUSH2 0x632 JUMP JUMPDEST PUSH1 0x60 SWAP2 POP JUMPDEST POP SWAP2 POP SWAP2 POP DUP2 PUSH2 0x677 JUMPI PUSH1 0x40 MLOAD PUSH32 0x8C379A000000000000000000000000000000000000000000000000000000000 DUP2 MSTORE PUSH1 0x4 ADD PUSH2 0x66E SWAP1 PUSH2 0x1763 JUMP JUMPDEST PUSH1 0x40 MLOAD DUP1 SWAP2 SUB SWAP1 REVERT JUMPDEST POP POP POP JUMP JUMPDEST PUSH2 0x684 PUSH2 0xEDE JUMP JUMPDEST PUSH1 0x2 PUSH1 0x40 MLOAD DUP1 PUSH2 0x180 ADD PUSH1 0x40 MSTORE SWAP1 DUP2 PUSH1 0x0 DUP3 ADD PUSH1 0x0 SWAP1 SLOAD SWAP1 PUSH2 0x100 EXP SWAP1 DIV PUSH20 0xFFFFFFFFFFFFFFFFFFFFFFFFFFFFFFFFFFFFFFFF AND PUSH20 0xFFFFFFFFFFFFFFFFFFFFFFFFFFFFFFFFFFFFFFFF AND PUSH20 0xFFFFFFFFFFFFFFFFFFFFFFFFFFFFFFFFFFFFFFFF AND DUP2 MSTORE PUSH1 0x20 ADD PUSH1 0x1 DUP3 ADD PUSH1 0x0 SWAP1 SLOAD SWAP1 PUSH2 0x100 EXP SWAP1 DIV PUSH20 0xFFFFFFFFFFFFFFFFFFFFFFFFFFFFFFFFFFFFFFFF AND PUSH20 0xFFFFFFFFFFFFFFFFFFFFFFFFFFFFFFFFFFFFFFFF AND PUSH20 0xFFFFFFFFFFFFFFFFFFFFFFFFFFFFFFFFFFFFFFFF AND DUP2 MSTORE PUSH1 0x20 ADD PUSH1 0x2 DUP3 ADD SLOAD DUP2 MSTORE PUSH1 0x20 ADD PUSH1 0x3 DUP3 ADD SLOAD DUP2 MSTORE PUSH1 0x20 ADD PUSH1 0x4 DUP3 ADD SLOAD DUP2 MSTORE PUSH1 0x20 ADD PUSH1 0x5 DUP3 ADD SLOAD DUP2 MSTORE PUSH1 0x20 ADD PUSH1 0x6 DUP3 ADD SLOAD DUP2 MSTORE PUSH1 0x20 ADD PUSH1 0x7 DUP3 ADD SLOAD DUP2 MSTORE PUSH1 0x20 ADD PUSH1 0x8 DUP3 ADD SLOAD DUP2 MSTORE PUSH1 0x20 ADD PUSH1 0x9 DUP3 ADD PUSH1 0x0 SWAP1 SLOAD SWAP1 PUSH2 0x100 EXP SWAP1 DIV PUSH1 0xFF AND ISZERO ISZERO ISZERO ISZERO DUP2 MSTORE PUSH1 0x20 ADD PUSH1 0xA DUP3 ADD SLOAD DUP2 MSTORE PUSH1 0x20 ADD PUSH1 0xB DUP3 ADD SLOAD DUP2 MSTORE POP POP SWAP1 POP SWAP1 JUMP JUMPDEST PUSH1 0x2 PUSH1 0x0 ADD PUSH1 0x0 SWAP1 SLOAD SWAP1 PUSH2 0x100 EXP SWAP1 DIV PUSH20 0xFFFFFFFFFFFFFFFFFFFFFFFFFFFFFFFFFFFFFFFF AND PUSH20 0xFFFFFFFFFFFFFFFFFFFFFFFFFFFFFFFFFFFFFFFF AND CALLER PUSH20 0xFFFFFFFFFFFFFFFFFFFFFFFFFFFFFFFFFFFFFFFF AND EQ PUSH2 0x84B JUMPI PUSH1 0x40 MLOAD PUSH32 0x8C379A000000000000000000000000000000000000000000000000000000000 DUP2 MSTORE PUSH1 0x4 ADD PUSH2 0x842 SWAP1 PUSH2 0x12F4 JUMP JUMPDEST PUSH1 0x40 MLOAD DUP1 SWAP2 SUB SWAP1 REVERT JUMPDEST PUSH1 0x0 PUSH20 0xFFFFFFFFFFFFFFFFFFFFFFFFFFFFFFFFFFFFFFFF AND PUSH1 0x2 PUSH1 0x1 ADD PUSH1 0x0 SWAP1 SLOAD SWAP1 PUSH2 0x100 EXP SWAP1 DIV PUSH20 0xFFFFFFFFFFFFFFFFFFFFFFFFFFFFFFFFFFFFFFFF AND PUSH20 0xFFFFFFFFFFFFFFFFFFFFFFFFFFFFFFFFFFFFFFFF AND EQ ISZERO PUSH2 0x8E0 JUMPI PUSH1 0x40 MLOAD PUSH32 0x8C379A000000000000000000000000000000000000000000000000000000000 DUP2 MSTORE PUSH1 0x4 ADD PUSH2 0x8D7 SWAP1 PUSH2 0x17F5 JUMP JUMPDEST PUSH1 0x40 MLOAD DUP1 SWAP2 SUB SWAP1 REVERT JUMPDEST PUSH1 0x0 PUSH1 0x2 DUP1 ADD SLOAD EQ ISZERO PUSH2 0x928 JUMPI PUSH1 0x40 MLOAD PUSH32 0x8C379A000000000000000000000000000000000000000000000000000000000 DUP2 MSTORE PUSH1 0x4 ADD PUSH2 0x91F SWAP1 PUSH2 0x1887 JUMP JUMPDEST PUSH1 0x40 MLOAD DUP1 SWAP2 SUB SWAP1 REVERT JUMPDEST PUSH1 0x0 PUSH1 0x2 PUSH1 0x6 ADD SLOAD GT ISZERO PUSH2 0x97E JUMPI PUSH1 0x0 DUP1 PUSH1 0x0 ADD SLOAD GT PUSH2 0x97D JUMPI PUSH1 0x40 MLOAD PUSH32 0x8C379A000000000000000000000000000000000000000000000000000000000 DUP2 MSTORE PUSH1 0x4 ADD PUSH2 0x974 SWAP1 PUSH2 0x1919 JUMP JUMPDEST PUSH1 0x40 MLOAD DUP1 SWAP2 SUB SWAP1 REVERT JUMPDEST JUMPDEST PUSH1 0x0 DUP1 PUSH1 0x2 PUSH1 0x1 ADD PUSH1 0x0 SWAP1 SLOAD SWAP1 PUSH2 0x100 EXP SWAP1 DIV PUSH20 0xFFFFFFFFFFFFFFFFFFFFFFFFFFFFFFFFFFFFFFFF AND PUSH20 0xFFFFFFFFFFFFFFFFFFFFFFFFFFFFFFFFFFFFFFFF AND PUSH1 0x2 DUP1 ADD SLOAD PUSH1 0x40 MLOAD PUSH2 0x9CE SWAP1 PUSH2 0x1702 JUMP JUMPDEST PUSH1 0x0 PUSH1 0x40 MLOAD DUP1 DUP4 SUB DUP2 DUP6 DUP8 GAS CALL SWAP3 POP POP POP RETURNDATASIZE DUP1 PUSH1 0x0 DUP2 EQ PUSH2 0xA0B JUMPI PUSH1 0x40 MLOAD SWAP2 POP PUSH1 0x1F NOT PUSH1 0x3F RETURNDATASIZE ADD AND DUP3 ADD PUSH1 0x40 MSTORE RETURNDATASIZE DUP3 MSTORE RETURNDATASIZE PUSH1 0x0 PUSH1 0x20 DUP5 ADD RETURNDATACOPY PUSH2 0xA10 JUMP JUMPDEST PUSH1 0x60 SWAP2 POP JUMPDEST POP SWAP2 POP SWAP2 POP DUP2 PUSH2 0xA55 JUMPI PUSH1 0x40 MLOAD PUSH32 0x8C379A000000000000000000000000000000000000000000000000000000000 DUP2 MSTORE PUSH1 0x4 ADD PUSH2 0xA4C SWAP1 PUSH2 0x1763 JUMP JUMPDEST PUSH1 0x40 MLOAD DUP1 SWAP2 SUB SWAP1 REVERT JUMPDEST TIMESTAMP PUSH1 0x2 PUSH1 0x3 ADD DUP2 SWAP1 SSTORE POP PUSH1 0x2 DUP1 ADD SLOAD PUSH1 0x0 PUSH1 0x1 ADD DUP2 SWAP1 SSTORE POP POP POP JUMP JUMPDEST PUSH1 0x0 SELFBALANCE SWAP1 POP SWAP1 JUMP JUMPDEST PUSH1 0x0 DUP1 PUSH1 0x2 PUSH1 0x3 ADD SLOAD EQ ISZERO PUSH2 0xAC3 JUMPI PUSH1 0x40 MLOAD PUSH32 0x8C379A000000000000000000000000000000000000000000000000000000000 DUP2 MSTORE PUSH1 0x4 ADD PUSH2 0xABA SWAP1 PUSH2 0x19AB JUMP JUMPDEST PUSH1 0x40 MLOAD DUP1 SWAP2 SUB SWAP1 REVERT JUMPDEST PUSH1 0x0 PUSH1 0x2 PUSH1 0x7 ADD SLOAD PUSH1 0x2 PUSH1 0x8 ADD SLOAD TIMESTAMP PUSH1 0x2 PUSH1 0x8 ADD SLOAD PUSH1 0x2 PUSH1 0x3 ADD SLOAD PUSH2 0xAE8 SWAP2 SWAP1 PUSH2 0x19CB JUMP JUMPDEST PUSH2 0xAF2 SWAP2 SWAP1 PUSH2 0x169D JUMP JUMPDEST PUSH2 0xAFC SWAP2 SWAP1 PUSH2 0x1A50 JUMP JUMPDEST PUSH2 0xB06 SWAP2 SWAP1 PUSH2 0x1565 JUMP JUMPDEST SWAP1 POP DUP1 SWAP2 POP POP SWAP1 JUMP JUMPDEST PUSH1 0x2 PUSH1 0x0 ADD PUSH1 0x0 SWAP1 SLOAD SWAP1 PUSH2 0x100 EXP SWAP1 DIV PUSH20 0xFFFFFFFFFFFFFFFFFFFFFFFFFFFFFFFFFFFFFFFF AND PUSH20 0xFFFFFFFFFFFFFFFFFFFFFFFFFFFFFFFFFFFFFFFF AND CALLER PUSH20 0xFFFFFFFFFFFFFFFFFFFFFFFFFFFFFFFFFFFFFFFF AND EQ PUSH2 0xBA2 JUMPI PUSH1 0x40 MLOAD PUSH32 0x8C379A000000000000000000000000000000000000000000000000000000000 DUP2 MSTORE PUSH1 0x4 ADD PUSH2 0xB99 SWAP1 PUSH2 0x12F4 JUMP JUMPDEST PUSH1 0x40 MLOAD DUP1 SWAP2 SUB SWAP1 REVERT JUMPDEST CALLVALUE PUSH1 0x2 DUP1 ADD DUP2 SWAP1 SSTORE POP JUMP JUMPDEST PUSH1 0x2 PUSH1 0x1 ADD PUSH1 0x0 SWAP1 SLOAD SWAP1 PUSH2 0x100 EXP SWAP1 DIV PUSH20 0xFFFFFFFFFFFFFFFFFFFFFFFFFFFFFFFFFFFFFFFF AND PUSH20 0xFFFFFFFFFFFFFFFFFFFFFFFFFFFFFFFFFFFFFFFF AND CALLER PUSH20 0xFFFFFFFFFFFFFFFFFFFFFFFFFFFFFFFFFFFFFFFF AND EQ PUSH2 0xC40 JUMPI PUSH1 0x40 MLOAD PUSH32 0x8C379A000000000000000000000000000000000000000000000000000000000 DUP2 MSTORE PUSH1 0x4 ADD PUSH2 0xC37 SWAP1 PUSH2 0x13F2 JUMP JUMPDEST PUSH1 0x40 MLOAD DUP1 SWAP2 SUB SWAP1 REVERT JUMPDEST PUSH1 0x0 TIMESTAMP SWAP1 POP PUSH1 0x0 CALLVALUE SWAP1 POP PUSH2 0xC54 DUP3 DUP3 PUSH2 0xC58 JUMP JUMPDEST POP POP JUMP JUMPDEST PUSH1 0x0 DUP1 PUSH4 0x1DA9C00 SWAP1 POP PUSH1 0x2 DUP1 ADD SLOAD PUSH1 0x2 PUSH1 0x3 ADD SLOAD TIMESTAMP PUSH2 0xC78 SWAP2 SWAP1 PUSH2 0x169D JUMP JUMPDEST DUP3 PUSH1 0x2 PUSH1 0x5 ADD SLOAD PUSH2 0xC89 SWAP2 SWAP1 PUSH2 0x1A50 JUMP JUMPDEST PUSH2 0xC93 SWAP2 SWAP1 PUSH2 0x1565 JUMP JUMPDEST PUSH2 0xC9D SWAP2 SWAP1 PUSH2 0x1565 JUMP JUMPDEST PUSH1 0x0 PUSH1 0x1 ADD PUSH1 0x0 DUP3 DUP3 SLOAD PUSH2 0xCB1 SWAP2 SWAP1 PUSH2 0x19CB JUMP JUMPDEST SWAP3 POP POP DUP2 SWAP1 SSTORE POP PUSH1 0x2 PUSH1 0x4 ADD SLOAD PUSH1 0x2 PUSH1 0x3 ADD SLOAD PUSH2 0xCCE SWAP2 SWAP1 PUSH2 0x19CB JUMP JUMPDEST DUP5 GT ISZERO PUSH2 0xD2F JUMPI PUSH1 0x0 ISZERO ISZERO PUSH1 0xE PUSH1 0x0 SWAP1 SLOAD SWAP1 PUSH2 0x100 EXP SWAP1 DIV PUSH1 0xFF AND ISZERO ISZERO EQ ISZERO PUSH2 0xD2E JUMPI PUSH1 0x2 PUSH1 0xA ADD SLOAD PUSH1 0x0 PUSH1 0x1 ADD PUSH1 0x0 DUP3 DUP3 SLOAD PUSH2 0xD0B SWAP2 SWAP1 PUSH2 0x19CB JUMP JUMPDEST SWAP3 POP POP DUP2 SWAP1 SSTORE POP PUSH1 0x1 PUSH1 0xE PUSH1 0x0 PUSH2 0x100 EXP DUP2 SLOAD DUP2 PUSH1 0xFF MUL NOT AND SWAP1 DUP4 ISZERO ISZERO MUL OR SWAP1 SSTORE POP JUMPDEST JUMPDEST PUSH1 0x0 PUSH1 0x2 PUSH1 0x7 ADD SLOAD GT ISZERO PUSH2 0xEBC JUMPI DUP4 PUSH1 0x2 PUSH1 0x8 ADD SLOAD PUSH1 0x2 PUSH1 0x3 ADD SLOAD PUSH2 0xD54 SWAP2 SWAP1 PUSH2 0x19CB JUMP JUMPDEST LT ISZERO PUSH2 0xDA7 JUMPI PUSH1 0x0 PUSH1 0x1 ADD SLOAD DUP4 GT ISZERO PUSH2 0xDA2 JUMPI PUSH1 0x40 MLOAD PUSH32 0x8C379A000000000000000000000000000000000000000000000000000000000 DUP2 MSTORE PUSH1 0x4 ADD PUSH2 0xD99 SWAP1 PUSH2 0x1AF3 JUMP JUMPDEST PUSH1 0x40 MLOAD DUP1 SWAP2 SUB SWAP1 REVERT JUMPDEST PUSH2 0xEBB JUMP JUMPDEST DUP4 PUSH1 0x2 PUSH1 0x8 ADD SLOAD PUSH1 0x2 PUSH1 0x3 ADD SLOAD PUSH2 0xDBE SWAP2 SWAP1 PUSH2 0x19CB JUMP JUMPDEST GT ISZERO PUSH2 0xEBA JUMPI PUSH1 0x1 ISZERO ISZERO PUSH1 0x2 PUSH1 0x9 ADD PUSH1 0x0 SWAP1 SLOAD SWAP1 PUSH2 0x100 EXP SWAP1 DIV PUSH1 0xFF AND ISZERO ISZERO EQ ISZERO PUSH2 0xE36 JUMPI CALLVALUE PUSH1 0x2 PUSH1 0x7 ADD SLOAD PUSH1 0x2 PUSH1 0x8 ADD SLOAD DUP7 PUSH1 0x2 PUSH1 0x8 ADD SLOAD PUSH1 0x2 PUSH1 0x3 ADD SLOAD PUSH2 0xE07 SWAP2 SWAP1 PUSH2 0x19CB JUMP JUMPDEST PUSH2 0xE11 SWAP2 SWAP1 PUSH2 0x169D JUMP JUMPDEST PUSH2 0xE1B SWAP2 SWAP1 PUSH2 0x1A50 JUMP JUMPDEST PUSH2 0xE25 SWAP2 SWAP1 PUSH2 0x1565 JUMP JUMPDEST PUSH2 0xE2F SWAP2 SWAP1 PUSH2 0x1565 JUMP JUMPDEST SWAP2 POP PUSH2 0xE4A JUMP JUMPDEST DUP3 PUSH1 0x2 PUSH1 0x7 ADD SLOAD PUSH2 0xE47 SWAP2 SWAP1 PUSH2 0x1565 JUMP JUMPDEST SWAP2 POP JUMPDEST DUP2 PUSH1 0x0 PUSH1 0x1 ADD SLOAD PUSH2 0xE5B SWAP2 SWAP1 PUSH2 0x19CB JUMP JUMPDEST DUP4 GT ISZERO PUSH2 0xE9D JUMPI PUSH1 0x40 MLOAD PUSH32 0x8C379A000000000000000000000000000000000000000000000000000000000 DUP2 MSTORE PUSH1 0x4 ADD PUSH2 0xE94 SWAP1 PUSH2 0x1B85 JUMP JUMPDEST PUSH1 0x40 MLOAD DUP1 SWAP2 SUB SWAP1 REVERT JUMPDEST DUP2 PUSH1 0x0 PUSH1 0x1 ADD PUSH1 0x0 DUP3 DUP3 SLOAD PUSH2 0xEB2 SWAP2 SWAP1 PUSH2 0x19CB JUMP JUMPDEST SWAP3 POP POP DUP2 SWAP1 SSTORE POP JUMPDEST JUMPDEST JUMPDEST DUP3 PUSH1 0x0 PUSH1 0x1 ADD PUSH1 0x0 DUP3 DUP3 SLOAD PUSH2 0xED1 SWAP2 SWAP1 PUSH2 0x169D JUMP JUMPDEST SWAP3 POP POP DUP2 SWAP1 SSTORE POP POP POP POP POP JUMP JUMPDEST PUSH1 0x40 MLOAD DUP1 PUSH2 0x180 ADD PUSH1 0x40 MSTORE DUP1 PUSH1 0x0 PUSH20 0xFFFFFFFFFFFFFFFFFFFFFFFFFFFFFFFFFFFFFFFF AND DUP2 MSTORE PUSH1 0x20 ADD PUSH1 0x0 PUSH20 0xFFFFFFFFFFFFFFFFFFFFFFFFFFFFFFFFFFFFFFFF AND DUP2 MSTORE PUSH1 0x20 ADD PUSH1 0x0 DUP2 MSTORE PUSH1 0x20 ADD PUSH1 0x0 DUP2 MSTORE PUSH1 0x20 ADD PUSH1 0x0 DUP2 MSTORE PUSH1 0x20 ADD PUSH1 0x0 DUP2 MSTORE PUSH1 0x20 ADD PUSH1 0x0 DUP2 MSTORE PUSH1 0x20 ADD PUSH1 0x0 DUP2 MSTORE PUSH1 0x20 ADD PUSH1 0x0 DUP2 MSTORE PUSH1 0x20 ADD PUSH1 0x0 ISZERO ISZERO DUP2 MSTORE PUSH1 0x20 ADD PUSH1 0x0 DUP2 MSTORE PUSH1 0x20 ADD PUSH1 0x0 DUP2 MSTORE POP SWAP1 JUMP JUMPDEST PUSH1 0x0 DUP1 REVERT JUMPDEST PUSH1 0x0 PUSH20 0xFFFFFFFFFFFFFFFFFFFFFFFFFFFFFFFFFFFFFFFF DUP3 AND SWAP1 POP SWAP2 SWAP1 POP JUMP JUMPDEST PUSH1 0x0 PUSH2 0xF9D DUP3 PUSH2 0xF72 JUMP JUMPDEST SWAP1 POP SWAP2 SWAP1 POP JUMP JUMPDEST PUSH2 0xFAD DUP2 PUSH2 0xF92 JUMP JUMPDEST DUP2 EQ PUSH2 0xFB8 JUMPI PUSH1 0x0 DUP1 REVERT JUMPDEST POP JUMP JUMPDEST PUSH1 0x0 DUP2 CALLDATALOAD SWAP1 POP PUSH2 0xFCA DUP2 PUSH2 0xFA4 JUMP JUMPDEST SWAP3 SWAP2 POP POP JUMP JUMPDEST PUSH1 0x0 DUP2 SWAP1 POP SWAP2 SWAP1 POP JUMP JUMPDEST PUSH2 0xFE3 DUP2 PUSH2 0xFD0 JUMP JUMPDEST DUP2 EQ PUSH2 0xFEE JUMPI PUSH1 0x0 DUP1 REVERT JUMPDEST POP JUMP JUMPDEST PUSH1 0x0 DUP2 CALLDATALOAD SWAP1 POP PUSH2 0x1000 DUP2 PUSH2 0xFDA JUMP JUMPDEST SWAP3 SWAP2 POP POP JUMP JUMPDEST PUSH1 0x0 DUP2 ISZERO ISZERO SWAP1 POP SWAP2 SWAP1 POP JUMP JUMPDEST PUSH2 0x101B DUP2 PUSH2 0x1006 JUMP JUMPDEST DUP2 EQ PUSH2 0x1026 JUMPI PUSH1 0x0 DUP1 REVERT JUMPDEST POP JUMP JUMPDEST PUSH1 0x0 DUP2 CALLDATALOAD SWAP1 POP PUSH2 0x1038 DUP2 PUSH2 0x1012 JUMP JUMPDEST SWAP3 SWAP2 POP POP JUMP JUMPDEST PUSH1 0x0 DUP1 PUSH1 0x0 DUP1 PUSH1 0x0 DUP1 PUSH1 0x0 DUP1 PUSH1 0x0 PUSH2 0x120 DUP11 DUP13 SUB SLT ISZERO PUSH2 0x1061 JUMPI PUSH2 0x1060 PUSH2 0xF6D JUMP JUMPDEST JUMPDEST PUSH1 0x0 PUSH2 0x106F DUP13 DUP3 DUP14 ADD PUSH2 0xFBB JUMP JUMPDEST SWAP10 POP POP PUSH1 0x20 PUSH2 0x1080 DUP13 DUP3 DUP14 ADD PUSH2 0xFF1 JUMP JUMPDEST SWAP9 POP POP PUSH1 0x40 PUSH2 0x1091 DUP13 DUP3 DUP14 ADD PUSH2 0xFF1 JUMP JUMPDEST SWAP8 POP POP PUSH1 0x60 PUSH2 0x10A2 DUP13 DUP3 DUP14 ADD PUSH2 0xFF1 JUMP JUMPDEST SWAP7 POP POP PUSH1 0x80 PUSH2 0x10B3 DUP13 DUP3 DUP14 ADD PUSH2 0xFF1 JUMP JUMPDEST SWAP6 POP POP PUSH1 0xA0 PUSH2 0x10C4 DUP13 DUP3 DUP14 ADD PUSH2 0xFF1 JUMP JUMPDEST SWAP5 POP POP PUSH1 0xC0 PUSH2 0x10D5 DUP13 DUP3 DUP14 ADD PUSH2 0x1029 JUMP JUMPDEST SWAP4 POP POP PUSH1 0xE0 PUSH2 0x10E6 DUP13 DUP3 DUP14 ADD PUSH2 0xFF1 JUMP JUMPDEST SWAP3 POP POP PUSH2 0x100 PUSH2 0x10F8 DUP13 DUP3 DUP14 ADD PUSH2 0xFF1 JUMP JUMPDEST SWAP2 POP POP SWAP3 SWAP6 SWAP9 POP SWAP3 SWAP6 SWAP9 POP SWAP3 SWAP6 SWAP9 JUMP JUMPDEST PUSH2 0x1111 DUP2 PUSH2 0xFD0 JUMP JUMPDEST DUP3 MSTORE POP POP JUMP JUMPDEST PUSH1 0x0 PUSH1 0x20 DUP3 ADD SWAP1 POP PUSH2 0x112C PUSH1 0x0 DUP4 ADD DUP5 PUSH2 0x1108 JUMP JUMPDEST SWAP3 SWAP2 POP POP JUMP JUMPDEST PUSH2 0x113B DUP2 PUSH2 0xF92 JUMP JUMPDEST DUP3 MSTORE POP POP JUMP JUMPDEST PUSH2 0x114A DUP2 PUSH2 0xFD0 JUMP JUMPDEST DUP3 MSTORE POP POP JUMP JUMPDEST PUSH2 0x1159 DUP2 PUSH2 0x1006 JUMP JUMPDEST DUP3 MSTORE POP POP JUMP JUMPDEST PUSH2 0x180 DUP3 ADD PUSH1 0x0 DUP3 ADD MLOAD PUSH2 0x1176 PUSH1 0x0 DUP6 ADD DUP3 PUSH2 0x1132 JUMP JUMPDEST POP PUSH1 0x20 DUP3 ADD MLOAD PUSH2 0x1189 PUSH1 0x20 DUP6 ADD DUP3 PUSH2 0x1132 JUMP JUMPDEST POP PUSH1 0x40 DUP3 ADD MLOAD PUSH2 0x119C PUSH1 0x40 DUP6 ADD DUP3 PUSH2 0x1141 JUMP JUMPDEST POP PUSH1 0x60 DUP3 ADD MLOAD PUSH2 0x11AF PUSH1 0x60 DUP6 ADD DUP3 PUSH2 0x1141 JUMP JUMPDEST POP PUSH1 0x80 DUP3 ADD MLOAD PUSH2 0x11C2 PUSH1 0x80 DUP6 ADD DUP3 PUSH2 0x1141 JUMP JUMPDEST POP PUSH1 0xA0 DUP3 ADD MLOAD PUSH2 0x11D5 PUSH1 0xA0 DUP6 ADD DUP3 PUSH2 0x1141 JUMP JUMPDEST POP PUSH1 0xC0 DUP3 ADD MLOAD PUSH2 0x11E8 PUSH1 0xC0 DUP6 ADD DUP3 PUSH2 0x1141 JUMP JUMPDEST POP PUSH1 0xE0 DUP3 ADD MLOAD PUSH2 0x11FB PUSH1 0xE0 DUP6 ADD DUP3 PUSH2 0x1141 JUMP JUMPDEST POP PUSH2 0x100 DUP3 ADD MLOAD PUSH2 0x1210 PUSH2 0x100 DUP6 ADD DUP3 PUSH2 0x1141 JUMP JUMPDEST POP PUSH2 0x120 DUP3 ADD MLOAD PUSH2 0x1225 PUSH2 0x120 DUP6 ADD DUP3 PUSH2 0x1150 JUMP JUMPDEST POP PUSH2 0x140 DUP3 ADD MLOAD PUSH2 0x123A PUSH2 0x140 DUP6 ADD DUP3 PUSH2 0x1141 JUMP JUMPDEST POP PUSH2 0x160 DUP3 ADD MLOAD PUSH2 0x124F PUSH2 0x160 DUP6 ADD DUP3 PUSH2 0x1141 JUMP JUMPDEST POP POP POP POP JUMP JUMPDEST PUSH1 0x0 PUSH2 0x180 DUP3 ADD SWAP1 POP PUSH2 0x126B PUSH1 0x0 DUP4 ADD DUP5 PUSH2 0x115F JUMP JUMPDEST SWAP3 SWAP2 POP POP JUMP JUMPDEST PUSH1 0x0 DUP3 DUP3 MSTORE PUSH1 0x20 DUP3 ADD SWAP1 POP SWAP3 SWAP2 POP POP JUMP JUMPDEST PUSH32 0x4F6E6C7920746865206F776E6572206F662074686520636F6E74726163742063 PUSH1 0x0 DUP3 ADD MSTORE PUSH32 0x616E20706572666F726D2074686973206F7065726174696F6E00000000000000 PUSH1 0x20 DUP3 ADD MSTORE POP JUMP JUMPDEST PUSH1 0x0 PUSH2 0x12DE PUSH1 0x39 DUP4 PUSH2 0x1271 JUMP JUMPDEST SWAP2 POP PUSH2 0x12E9 DUP3 PUSH2 0x1282 JUMP JUMPDEST PUSH1 0x40 DUP3 ADD SWAP1 POP SWAP2 SWAP1 POP JUMP JUMPDEST PUSH1 0x0 PUSH1 0x20 DUP3 ADD SWAP1 POP DUP2 DUP2 SUB PUSH1 0x0 DUP4 ADD MSTORE PUSH2 0x130D DUP2 PUSH2 0x12D1 JUMP JUMPDEST SWAP1 POP SWAP2 SWAP1 POP JUMP JUMPDEST PUSH32 0x7465726D206D757374206265206E6F6E2D7A65726F0000000000000000000000 PUSH1 0x0 DUP3 ADD MSTORE POP JUMP JUMPDEST PUSH1 0x0 PUSH2 0x134A PUSH1 0x15 DUP4 PUSH2 0x1271 JUMP JUMPDEST SWAP2 POP PUSH2 0x1355 DUP3 PUSH2 0x1314 JUMP JUMPDEST PUSH1 0x20 DUP3 ADD SWAP1 POP SWAP2 SWAP1 POP JUMP JUMPDEST PUSH1 0x0 PUSH1 0x20 DUP3 ADD SWAP1 POP DUP2 DUP2 SUB PUSH1 0x0 DUP4 ADD MSTORE PUSH2 0x1379 DUP2 PUSH2 0x133D JUMP JUMPDEST SWAP1 POP SWAP2 SWAP1 POP JUMP JUMPDEST PUSH32 0x4F6E6C792074686520626F72726F776572206F662074686520636F6E74726163 PUSH1 0x0 DUP3 ADD MSTORE PUSH32 0x742063616E20706572666F726D2074686973206F7065726174696F6E00000000 PUSH1 0x20 DUP3 ADD MSTORE POP JUMP JUMPDEST PUSH1 0x0 PUSH2 0x13DC PUSH1 0x3C DUP4 PUSH2 0x1271 JUMP JUMPDEST SWAP2 POP PUSH2 0x13E7 DUP3 PUSH2 0x1380 JUMP JUMPDEST PUSH1 0x40 DUP3 ADD SWAP1 POP SWAP2 SWAP1 POP JUMP JUMPDEST PUSH1 0x0 PUSH1 0x20 DUP3 ADD SWAP1 POP DUP2 DUP2 SUB PUSH1 0x0 DUP4 ADD MSTORE PUSH2 0x140B DUP2 PUSH2 0x13CF JUMP JUMPDEST SWAP1 POP SWAP2 SWAP1 POP JUMP JUMPDEST PUSH32 0x4E6F20636F6C6C61746572616C206973206E656365737361727920666F722074 PUSH1 0x0 DUP3 ADD MSTORE PUSH32 0x686973206C6F616E000000000000000000000000000000000000000000000000 PUSH1 0x20 DUP3 ADD MSTORE POP JUMP JUMPDEST PUSH1 0x0 PUSH2 0x146E PUSH1 0x28 DUP4 PUSH2 0x1271 JUMP JUMPDEST SWAP2 POP PUSH2 0x1479 DUP3 PUSH2 0x1412 JUMP JUMPDEST PUSH1 0x40 DUP3 ADD SWAP1 POP SWAP2 SWAP1 POP JUMP JUMPDEST PUSH1 0x0 PUSH1 0x20 DUP3 ADD SWAP1 POP DUP2 DUP2 SUB PUSH1 0x0 DUP4 ADD MSTORE PUSH2 0x149D DUP2 PUSH2 0x1461 JUMP JUMPDEST SWAP1 POP SWAP2 SWAP1 POP JUMP JUMPDEST PUSH32 0x4C6F616E206D7573742062652066756E646564206265666F726520636F6C6C61 PUSH1 0x0 DUP3 ADD MSTORE PUSH32 0x746572616C20697320616C6C6F63617465640000000000000000000000000000 PUSH1 0x20 DUP3 ADD MSTORE POP JUMP JUMPDEST PUSH1 0x0 PUSH2 0x1500 PUSH1 0x32 DUP4 PUSH2 0x1271 JUMP JUMPDEST SWAP2 POP PUSH2 0x150B DUP3 PUSH2 0x14A4 JUMP JUMPDEST PUSH1 0x40 DUP3 ADD SWAP1 POP SWAP2 SWAP1 POP JUMP JUMPDEST PUSH1 0x0 PUSH1 0x20 DUP3 ADD SWAP1 POP DUP2 DUP2 SUB PUSH1 0x0 DUP4 ADD MSTORE PUSH2 0x152F DUP2 PUSH2 0x14F3 JUMP JUMPDEST SWAP1 POP SWAP2 SWAP1 POP JUMP JUMPDEST PUSH32 0x4E487B7100000000000000000000000000000000000000000000000000000000 PUSH1 0x0 MSTORE PUSH1 0x11 PUSH1 0x4 MSTORE PUSH1 0x24 PUSH1 0x0 REVERT JUMPDEST PUSH1 0x0 PUSH2 0x1570 DUP3 PUSH2 0xFD0 JUMP JUMPDEST SWAP2 POP PUSH2 0x157B DUP4 PUSH2 0xFD0 JUMP JUMPDEST SWAP3 POP DUP2 PUSH32 0xFFFFFFFFFFFFFFFFFFFFFFFFFFFFFFFFFFFFFFFFFFFFFFFFFFFFFFFFFFFFFFFF DIV DUP4 GT DUP3 ISZERO ISZERO AND ISZERO PUSH2 0x15B4 JUMPI PUSH2 0x15B3 PUSH2 0x1536 JUMP JUMPDEST JUMPDEST DUP3 DUP3 MUL SWAP1 POP SWAP3 SWAP2 POP POP JUMP JUMPDEST PUSH32 0x436F6C6C61746572616C20616C6C6F6361746564206D75737420626520677265 PUSH1 0x0 DUP3 ADD MSTORE PUSH32 0x61746572207468616E206F7220657175616C20746F2074686520636F6C6C6174 PUSH1 0x20 DUP3 ADD MSTORE PUSH32 0x6572616C20726571756972656D656E74202A20696E697469616C207072696E63 PUSH1 0x40 DUP3 ADD MSTORE PUSH32 0x6970616C206F6620746865206C6F616E00000000000000000000000000000000 PUSH1 0x60 DUP3 ADD MSTORE POP JUMP JUMPDEST PUSH1 0x0 PUSH2 0x1667 PUSH1 0x70 DUP4 PUSH2 0x1271 JUMP JUMPDEST SWAP2 POP PUSH2 0x1672 DUP3 PUSH2 0x15BF JUMP JUMPDEST PUSH1 0x80 DUP3 ADD SWAP1 POP SWAP2 SWAP1 POP JUMP JUMPDEST PUSH1 0x0 PUSH1 0x20 DUP3 ADD SWAP1 POP DUP2 DUP2 SUB PUSH1 0x0 DUP4 ADD MSTORE PUSH2 0x1696 DUP2 PUSH2 0x165A JUMP JUMPDEST SWAP1 POP SWAP2 SWAP1 POP JUMP JUMPDEST PUSH1 0x0 PUSH2 0x16A8 DUP3 PUSH2 0xFD0 JUMP JUMPDEST SWAP2 POP PUSH2 0x16B3 DUP4 PUSH2 0xFD0 JUMP JUMPDEST SWAP3 POP DUP3 DUP3 LT ISZERO PUSH2 0x16C6 JUMPI PUSH2 0x16C5 PUSH2 0x1536 JUMP JUMPDEST JUMPDEST DUP3 DUP3 SUB SWAP1 POP SWAP3 SWAP2 POP POP JUMP JUMPDEST PUSH1 0x0 DUP2 SWAP1 POP SWAP3 SWAP2 POP POP JUMP JUMPDEST POP JUMP JUMPDEST PUSH1 0x0 PUSH2 0x16EC PUSH1 0x0 DUP4 PUSH2 0x16D1 JUMP JUMPDEST SWAP2 POP PUSH2 0x16F7 DUP3 PUSH2 0x16DC JUMP JUMPDEST PUSH1 0x0 DUP3 ADD SWAP1 POP SWAP2 SWAP1 POP JUMP JUMPDEST PUSH1 0x0 PUSH2 0x170D DUP3 PUSH2 0x16DF JUMP JUMPDEST SWAP2 POP DUP2 SWAP1 POP SWAP2 SWAP1 POP JUMP JUMPDEST PUSH32 0x4661696C656420746F2073656E64207061796D656E7400000000000000000000 PUSH1 0x0 DUP3 ADD MSTORE POP JUMP JUMPDEST PUSH1 0x0 PUSH2 0x174D PUSH1 0x16 DUP4 PUSH2 0x1271 JUMP JUMPDEST SWAP2 POP PUSH2 0x1758 DUP3 PUSH2 0x1717 JUMP JUMPDEST PUSH1 0x20 DUP3 ADD SWAP1 POP SWAP2 SWAP1 POP JUMP JUMPDEST PUSH1 0x0 PUSH1 0x20 DUP3 ADD SWAP1 POP DUP2 DUP2 SUB PUSH1 0x0 DUP4 ADD MSTORE PUSH2 0x177C DUP2 PUSH2 0x1740 JUMP JUMPDEST SWAP1 POP SWAP2 SWAP1 POP JUMP JUMPDEST PUSH32 0x4120626F72726F776572206D7573742062652061737369676E6564206265666F PUSH1 0x0 DUP3 ADD MSTORE PUSH32 0x72652069737375696E67206C6F616E0000000000000000000000000000000000 PUSH1 0x20 DUP3 ADD MSTORE POP JUMP JUMPDEST PUSH1 0x0 PUSH2 0x17DF PUSH1 0x2F DUP4 PUSH2 0x1271 JUMP JUMPDEST SWAP2 POP PUSH2 0x17EA DUP3 PUSH2 0x1783 JUMP JUMPDEST PUSH1 0x40 DUP3 ADD SWAP1 POP SWAP2 SWAP1 POP JUMP JUMPDEST PUSH1 0x0 PUSH1 0x20 DUP3 ADD SWAP1 POP DUP2 DUP2 SUB PUSH1 0x0 DUP4 ADD MSTORE PUSH2 0x180E DUP2 PUSH2 0x17D2 JUMP JUMPDEST SWAP1 POP SWAP2 SWAP1 POP JUMP JUMPDEST PUSH32 0x4C6F616E206D7573742062652066756E646564206265666F7265206973737569 PUSH1 0x0 DUP3 ADD MSTORE PUSH32 0x6E67000000000000000000000000000000000000000000000000000000000000 PUSH1 0x20 DUP3 ADD MSTORE POP JUMP JUMPDEST PUSH1 0x0 PUSH2 0x1871 PUSH1 0x22 DUP4 PUSH2 0x1271 JUMP JUMPDEST SWAP2 POP PUSH2 0x187C DUP3 PUSH2 0x1815 JUMP JUMPDEST PUSH1 0x40 DUP3 ADD SWAP1 POP SWAP2 SWAP1 POP JUMP JUMPDEST PUSH1 0x0 PUSH1 0x20 DUP3 ADD SWAP1 POP DUP2 DUP2 SUB PUSH1 0x0 DUP4 ADD MSTORE PUSH2 0x18A0 DUP2 PUSH2 0x1864 JUMP JUMPDEST SWAP1 POP SWAP2 SWAP1 POP JUMP JUMPDEST PUSH32 0x436F6C6C61746572616C206D75737420626520616C6C6F636174656420626566 PUSH1 0x0 DUP3 ADD MSTORE PUSH32 0x6F72652069737375696E67206C6F616E00000000000000000000000000000000 PUSH1 0x20 DUP3 ADD MSTORE POP JUMP JUMPDEST PUSH1 0x0 PUSH2 0x1903 PUSH1 0x30 DUP4 PUSH2 0x1271 JUMP JUMPDEST SWAP2 POP PUSH2 0x190E DUP3 PUSH2 0x18A7 JUMP JUMPDEST PUSH1 0x40 DUP3 ADD SWAP1 POP SWAP2 SWAP1 POP JUMP JUMPDEST PUSH1 0x0 PUSH1 0x20 DUP3 ADD SWAP1 POP DUP2 DUP2 SUB PUSH1 0x0 DUP4 ADD MSTORE PUSH2 0x1932 DUP2 PUSH2 0x18F6 JUMP JUMPDEST SWAP1 POP SWAP2 SWAP1 POP JUMP JUMPDEST PUSH32 0x6C6F616E206D75737420626520697373756564206265666F72652063616C6C69 PUSH1 0x0 DUP3 ADD MSTORE PUSH32 0x6E672074686973206D6574686F64000000000000000000000000000000000000 PUSH1 0x20 DUP3 ADD MSTORE POP JUMP JUMPDEST PUSH1 0x0 PUSH2 0x1995 PUSH1 0x2E DUP4 PUSH2 0x1271 JUMP JUMPDEST SWAP2 POP PUSH2 0x19A0 DUP3 PUSH2 0x1939 JUMP JUMPDEST PUSH1 0x40 DUP3 ADD SWAP1 POP SWAP2 SWAP1 POP JUMP JUMPDEST PUSH1 0x0 PUSH1 0x20 DUP3 ADD SWAP1 POP DUP2 DUP2 SUB PUSH1 0x0 DUP4 ADD MSTORE PUSH2 0x19C4 DUP2 PUSH2 0x1988 JUMP JUMPDEST SWAP1 POP SWAP2 SWAP1 POP JUMP JUMPDEST PUSH1 0x0 PUSH2 0x19D6 DUP3 PUSH2 0xFD0 JUMP JUMPDEST SWAP2 POP PUSH2 0x19E1 DUP4 PUSH2 0xFD0 JUMP JUMPDEST SWAP3 POP DUP3 PUSH32 0xFFFFFFFFFFFFFFFFFFFFFFFFFFFFFFFFFFFFFFFFFFFFFFFFFFFFFFFFFFFFFFFF SUB DUP3 GT ISZERO PUSH2 0x1A16 JUMPI PUSH2 0x1A15 PUSH2 0x1536 JUMP JUMPDEST JUMPDEST DUP3 DUP3 ADD SWAP1 POP SWAP3 SWAP2 POP POP JUMP JUMPDEST PUSH32 0x4E487B7100000000000000000000000000000000000000000000000000000000 PUSH1 0x0 MSTORE PUSH1 0x12 PUSH1 0x4 MSTORE PUSH1 0x24 PUSH1 0x0 REVERT JUMPDEST PUSH1 0x0 PUSH2 0x1A5B DUP3 PUSH2 0xFD0 JUMP JUMPDEST SWAP2 POP PUSH2 0x1A66 DUP4 PUSH2 0xFD0 JUMP JUMPDEST SWAP3 POP DUP3 PUSH2 0x1A76 JUMPI PUSH2 0x1A75 PUSH2 0x1A21 JUMP JUMPDEST JUMPDEST DUP3 DUP3 DIV SWAP1 POP SWAP3 SWAP2 POP POP JUMP JUMPDEST PUSH32 0x7061796D656E74206973206C6172676572207468616E206F75747374616E6469 PUSH1 0x0 DUP3 ADD MSTORE PUSH32 0x6E672062616C616E636500000000000000000000000000000000000000000000 PUSH1 0x20 DUP3 ADD MSTORE POP JUMP JUMPDEST PUSH1 0x0 PUSH2 0x1ADD PUSH1 0x2A DUP4 PUSH2 0x1271 JUMP JUMPDEST SWAP2 POP PUSH2 0x1AE8 DUP3 PUSH2 0x1A81 JUMP JUMPDEST PUSH1 0x40 DUP3 ADD SWAP1 POP SWAP2 SWAP1 POP JUMP JUMPDEST PUSH1 0x0 PUSH1 0x20 DUP3 ADD SWAP1 POP DUP2 DUP2 SUB PUSH1 0x0 DUP4 ADD MSTORE PUSH2 0x1B0C DUP2 PUSH2 0x1AD0 JUMP JUMPDEST SWAP1 POP SWAP2 SWAP1 POP JUMP JUMPDEST PUSH32 0x7061796D656E74206973206C6172676572207468616E206F75747374616E6469 PUSH1 0x0 DUP3 ADD MSTORE PUSH32 0x6E672062616C616E6365202B20746865207072657061796D656E742066656500 PUSH1 0x20 DUP3 ADD MSTORE POP JUMP JUMPDEST PUSH1 0x0 PUSH2 0x1B6F PUSH1 0x3F DUP4 PUSH2 0x1271 JUMP JUMPDEST SWAP2 POP PUSH2 0x1B7A DUP3 PUSH2 0x1B13 JUMP JUMPDEST PUSH1 0x40 DUP3 ADD SWAP1 POP SWAP2 SWAP1 POP JUMP JUMPDEST PUSH1 0x0 PUSH1 0x20 DUP3 ADD SWAP1 POP DUP2 DUP2 SUB PUSH1 0x0 DUP4 ADD MSTORE PUSH2 0x1B9E DUP2 PUSH2 0x1B62 JUMP JUMPDEST SWAP1 POP SWAP2 SWAP1 POP JUMP INVALID LOG2 PUSH5 0x6970667358 0x22 SLT KECCAK256 GT 0xB1 0xD4 MUL SDIV PUSH27 0x234A4511061820151670448BFB1D629F989D23F6A0754D6C969E64 PUSH20 0x6F6C634300080A00330000000000000000000000 "
		},
		"gasEstimates": {
			"creation": {
				"codeDepositCost": "1426200",
				"executionCost": "25758",
				"totalCost": "1451958"
			},
			"external": {
				"allocateCollateral()": "infinite",
				"fundLoan()": "24503",
				"getCollateralBalance()": "2488",
				"getContractBalance()": "383",
				"getOutstandingBalance()": "2510",
				"getSlidingScalePrepaymentFee()": "infinite",
				"getTerms()": "infinite",
				"issueLoan()": "infinite",
				"makePayment()": "infinite",
				"setTerms(address,uint256,uint256,uint256,uint256,uint256,bool,uint256,uint256)": "infinite",
				"withdraw()": "infinite"
			},
			"internal": {
				"determineFees(uint256,uint256)": "infinite"
			}
		},
		"methodIdentifiers": {
			"allocateCollateral()": "0e6f3dd8",
			"fundLoan()": "8db57994",
			"getCollateralBalance()": "1529a639",
			"getContractBalance()": "6f9fb98a",
			"getOutstandingBalance()": "28a11702",
			"getSlidingScalePrepaymentFee()": "89f89fb6",
			"getTerms()": "4173b417",
			"issueLoan()": "5c0df55b",
			"makePayment()": "d8d79700",
			"setTerms(address,uint256,uint256,uint256,uint256,uint256,bool,uint256,uint256)": "035788be",
			"withdraw()": "3ccfd60b"
		}
	},
	"abi": [
		{
			"inputs": [],
			"stateMutability": "nonpayable",
			"type": "constructor"
		},
		{
			"inputs": [],
			"name": "allocateCollateral",
			"outputs": [],
			"stateMutability": "payable",
			"type": "function"
		},
		{
			"inputs": [],
			"name": "fundLoan",
			"outputs": [],
			"stateMutability": "payable",
			"type": "function"
		},
		{
			"inputs": [],
			"name": "getCollateralBalance",
			"outputs": [
				{
					"internalType": "uint256",
					"name": "",
					"type": "uint256"
				}
			],
			"stateMutability": "view",
			"type": "function"
		},
		{
			"inputs": [],
			"name": "getContractBalance",
			"outputs": [
				{
					"internalType": "uint256",
					"name": "",
					"type": "uint256"
				}
			],
			"stateMutability": "view",
			"type": "function"
		},
		{
			"inputs": [],
			"name": "getOutstandingBalance",
			"outputs": [
				{
					"internalType": "uint256",
					"name": "",
					"type": "uint256"
				}
			],
			"stateMutability": "view",
			"type": "function"
		},
		{
			"inputs": [],
			"name": "getSlidingScalePrepaymentFee",
			"outputs": [
				{
					"internalType": "uint256",
					"name": "",
					"type": "uint256"
				}
			],
			"stateMutability": "view",
			"type": "function"
		},
		{
			"inputs": [],
			"name": "getTerms",
			"outputs": [
				{
					"components": [
						{
							"internalType": "address",
							"name": "lender",
							"type": "address"
						},
						{
							"internalType": "address",
							"name": "borrower",
							"type": "address"
						},
						{
							"internalType": "uint256",
							"name": "initial_principal",
							"type": "uint256"
						},
						{
							"internalType": "uint256",
							"name": "issuance_time",
							"type": "uint256"
						},
						{
							"internalType": "uint256",
							"name": "term",
							"type": "uint256"
						},
						{
							"internalType": "uint256",
							"name": "apr",
							"type": "uint256"
						},
						{
							"internalType": "uint256",
							"name": "collateral_req",
							"type": "uint256"
						},
						{
							"internalType": "uint256",
							"name": "prepayment_penalty",
							"type": "uint256"
						},
						{
							"internalType": "uint256",
							"name": "prepayment_period",
							"type": "uint256"
						},
						{
							"internalType": "bool",
							"name": "sliding_scale_prepayment_penalty",
							"type": "bool"
						},
						{
							"internalType": "uint256",
							"name": "late_fee",
							"type": "uint256"
						},
						{
							"internalType": "uint256",
							"name": "grace_period",
							"type": "uint256"
						}
					],
					"internalType": "struct loan.lendingTerms",
					"name": "",
					"type": "tuple"
				}
			],
			"stateMutability": "view",
			"type": "function"
		},
		{
			"inputs": [],
			"name": "issueLoan",
			"outputs": [],
			"stateMutability": "payable",
			"type": "function"
		},
		{
			"inputs": [],
			"name": "makePayment",
			"outputs": [],
			"stateMutability": "payable",
			"type": "function"
		},
		{
			"inputs": [
				{
					"internalType": "address",
					"name": "borrower",
					"type": "address"
				},
				{
					"internalType": "uint256",
					"name": "term",
					"type": "uint256"
				},
				{
					"internalType": "uint256",
					"name": "apr",
					"type": "uint256"
				},
				{
					"internalType": "uint256",
					"name": "collateral_req",
					"type": "uint256"
				},
				{
					"internalType": "uint256",
					"name": "prepayment_penalty",
					"type": "uint256"
				},
				{
					"internalType": "uint256",
					"name": "prepayment_period",
					"type": "uint256"
				},
				{
					"internalType": "bool",
					"name": "sliding_scale_prepayment_penalty",
					"type": "bool"
				},
				{
					"internalType": "uint256",
					"name": "late_fee",
					"type": "uint256"
				},
				{
					"internalType": "uint256",
					"name": "grace_period",
					"type": "uint256"
				}
			],
			"name": "setTerms",
			"outputs": [],
			"stateMutability": "nonpayable",
			"type": "function"
		},
		{
			"inputs": [],
			"name": "withdraw",
			"outputs": [],
			"stateMutability": "payable",
			"type": "function"
		}
	]
}